:020000040800F2
:10000000D00E002099010008DB2C0008F128000820
:10001000D92C0008ED070008F136000800000000A8
:10002000000000000000000000000000593000083F
:100030009D080008000000002D2F0008B1300008C6
:10004000B3010008B3010008B3010008B3010008C0
:10005000B3010008B3010008B3010008B3010008B0
:10006000B3010008B3010008B3010008B3010008A0
:10007000B3010008B3010008F1070008FD070008FC
:10008000B3010008B3010008B3010008B301000880
:10009000B3010008B3010008B3010008B301000870
:1000A000B3010008B3010008B3010008B301000860
:1000B000B3010008B301000815310008B3010008BE
:1000C000B3010008B3010008B3010008312F000894
:1000D000B301000899360008B3010008B301000815
:1000E000B3010008B3010008B301000800F002F8F2
:1000F00000F042F80AA090E8000C82448344AAF180
:100100000107DA4501D100F037F8AFF2090EBAE87D
:100110000F0013F0010F18BFFB1A43F0010318473B
:10012000C4370000E4370000103A24BF78C878C113
:10013000FAD8520724BF30C830C144BF04680C60ED
:10014000704700000023002400250026103A28BF35
:1001500078C1FBD8520728BF30C148BF0B60704739
:10016000642900F07F80732900F00183002070472C
:100170001FB51FBD10B510BD00F003FB1146FFF702
:10018000F7FF03F0F5FA00F021FB03B4FFF7F2FFED
:1001900003BC00F025FB00000948804709480047E0
:1001A000FEE7FEE7FEE7FEE7FEE7FEE7FEE7FEE727
:1001B000FEE7FEE704480549054A064B7047000084
:1001C00013310008ED000008D0080020D00E0020F8
:1001D000D00A0020D00A00200FB47CB50C0009AA78
:1001E000009001D02044401E084B7B44694601909A
:1001F000089800F08AFA05461CB10020694600F014
:1002000097FA28467CBC5DF814FB00004D05000001
:1002100070B50C460546012A05D02878800600D521
:10022000EA69002302E0012305E05B1C934202D24D
:10023000E05C0028F9D1A869E618C01AA861286A0C
:10024000184428622846AFF3008004E0D5E9012174
:1002500014F8010B9047B442F8D32846AFF300805E
:1002600070BD00002DE9F041064600241068752994
:10027000314616A510D0AFF30080002802DA4042C4
:1002800013A507E031688A0701D512A502E04907E6
:1002900004D511A5012401E0AFF3008000210A225A
:1002A00006F1240709E0B0FBF2FCB0FBF2F302FB1D
:1002B0001C00303078541846491C0028F3D12346DE
:1002C0002A463046BDE8F04100F0C0B90000000009
:1002D0002D0000002B000000200000002DE9F05F41
:1002E000894604464FF0000ADFF874B1FB44C0F8B9
:1002F00020A02046E1688847002874D0252806D031
:10030000D4E901219047206A401C2062F1E70026D1
:100310005F462046E16888472028054607DB312DE7
:1003200005D2781910F8200C08B10643F1E7B007A0
:1003300001D526F00406C4F81CA00027C4F818A0B4
:100340002A2D09D0284603F0E4F938B304EB8708D6
:10035000303DC8F8185019E059F8041B204604EB4A
:1003600087029161E1688847012F054618D1E0694D
:10037000002820DA26F020061DE0D8F8180000EB4F
:10038000800005EB40003038C8F818002046E168CE
:100390008847054603F0BDF90028EED1012F0AD0A9
:1003A0002E2D08D12046E16888477F1C0546022F84
:1003B00046F02006C4DBA069002803DA404246F07C
:1003C0000106A061F00701D026F010066C2D0BD0BD
:1003D000682D09D04C2D39D06A2D35D0742D35D0EB
:1003E0007A2D33D016E038E0E1682F462046884762
:1003F000B842054609D16C2F26D04FF48060E168E1
:10040000064320468847054604E06C2F1AD04FF477
:10041000807006430DB3A5F14100192802D820359C
:1004200046F400664A462946204626604E46FFF7B7
:1004300097FE80B101280BD0F61D26F0070000F1D1
:10044000080956E74020E4E78020D8E70020D6E7F7
:1004500006F104094DE7284652E7206ABDE8F09FFF
:100460006635000030B505460B462A4613F8014BA9
:1004700012F8010B08B1A042F8D01CB1002802D03C
:100480006D1CF1E7284630BD10B5431C02E010F8A2
:10049000011B71B18107FAD14FF0013202C88C1AE9
:1004A0008C4314EAC211F9D0C01A0A0603D0C01E48
:1004B00010BDC01A10BD0A0401D0801E10BD090273
:1004C000FCD0401E10BD032A40F2308010F0030C17
:1004D00000F0158011F8013BBCF1020F624498BF97
:1004E00011F801CB00F8013B38BF11F8013BA2F134
:1004F000040298BF00F801CB38BF00F8013B11F0AF
:10050000030300F02580083AC0F0088051F8043B4E
:10051000083A51F804CBA0E80810F5E7121D5CBFBB
:1005200051F8043B40F8043BAFF30080D20724BFEE
:1005300011F8013B11F801CB48BF11F8012B24BF82
:1005400000F8013B00F801CB48BF00F8012B7047D1
:1005500010B5203AC0F00B80B1E81850203AA0E85E
:100560001850B1E81850A0E81850BFF4F5AF5FEA92
:10057000027C24BFB1E81850A0E8185044BF18C945
:1005800018C0BDE810405FEA827C24BF51F8043BEC
:1005900040F8043B08BF7047D20728BF31F8023B40
:1005A00048BF11F8012B28BF20F8023B48BF00F8D4
:1005B000012B70474FF000020429C0F0128010F0A8
:1005C000030C00F01B80CCF1040CBCF1020F18BF2F
:1005D00000F8012BA8BF20F8022BA1EB0C0100F0C2
:1005E0000DB85FEAC17C24BF00F8012B00F8012B95
:1005F00048BF00F8012B70474FF0000200B51346CA
:1006000094469646203922BFA0E80C50A0E80C5032
:10061000B1F12001BFF4F7AF090728BFA0E80C50E3
:1006200048BF0CC05DF804EB890028BF40F8042BDC
:1006300008BF704748BF20F8022B11F0804F18BF49
:1006400000F8012B70477047704770472DE9F0475D
:100650000D4699469246044600F124080168880632
:1006600004D5E06921F01001216000E00120A842DA
:1006700001DD471B00E00027A1697A1902EB0900A0
:10068000081AA0612078C00602D42046AFF300808B
:10069000002608E0D4E901211AF806009047206AF4
:1006A000401C761C20624E45F4DB2078C0060AD53B
:1006B0002046AFF3008006E0D4E9012130209047C6
:1006C000206A401C2062381EA7F10107F4DC07E015
:1006D000D4E9012118F805009047206A401C2062E7
:1006E000281EA5F10105F3DC2046AFF30080207839
:1006F000000602D50220BDE8F0870120FBE70000DC
:1007000001694A1C02610878704700B58FB0CDE9D5
:1007100001310021059105497944CDE903101146C5
:100720006846FFF7DBFD0FB000BD0000E5FFFFFFEF
:100730000A6802F8010B0A607047D1E900239A4267
:1007400002D2531C0B601070704710B5436913B18F
:10075000AFF3008001E0FFF75BFD012010BD1278D0
:1007600000F124010A7000224A700122EDE71168AD
:100770004FF0FF32E9E70000004870476C080020A6
:1007800070477546FFF7F8FFAE46050069465346C9
:1007900020F00700854618B020B5FFF70BFDBDE837
:1007A00020404FF000064FF000074FF000084FF0D8
:1007B000000B21F00701AC46ACE8C009ACE8C00969
:1007C000ACE8C009ACE8C0098D46704710B50446D6
:1007D000AFF300802046BDE81040FFF7D6BC000014
:1007E00001491820ABBEFEE726000200FEE700002C
:1007F000014800F0FFBC000064010020014800F047
:10080000F9BC0000A801002030B590F84050012448
:10081000AC40C56B6C60046863604368102B036870
:1008200003D099600068C26030BD9A600068C16002
:1008300030BD00002DE9FF414FF4004500200124A8
:100840000095CDE901400320124E039069463046E1
:1008500000F0F2FD4020CDE900040F4F6946384614
:1008600000F0EAFD8020CDE900046946384600F03A
:10087000E3FD00222946304600F0CEFE0022802112
:10088000384600F0C9FE00224021384600F0C4FE80
:10089000BDE8FF8100080140000C014070470000E6
:1008A000054806494FF47A720068B0FBF1F004493C
:1008B00008605043486070470C00002040420F0021
:1008C0002C00002010B54FF400710348FFF772FEB2
:1008D00002490020088010BDEC010020100000201B
:1008E0002DE9F04FADF20C4D6AA16BA000F056FB64
:1008F0004FF4FA74204602F013FF66A16BA000F0DB
:100900004DFB204602F00CFF724973A0CDE90001B7
:100910004FF4007B73A375A2594602A8FFF75CFC55
:100920007DA000906423162286A18C4801F08FFFE1
:100930000026374641F2883941F2873AA0466423BF
:10094000182287A1854801F082FF64230B228BA126
:10095000824801F07CFF02A8FFF796FD82B24FF4B7
:100960007A7302A97D4801F072FF642302224EA12E
:100970007A4801F06CFFFFF7A5FF4446404602F0BD
:10098000CFFE02A8FFF780FD82B24B4602A97F4846
:1009900001F05DFF204602F0C3FE554600F0A6FBC5
:1009A00000283DD0C82002F0BBFE794804885C4591
:1009B00001D340F2FF142246764982A8FFF783FD57
:1009C00082A90020085564230A2273A1634801F01C
:1009D0003EFF44B182A8FFF757FD82B2434682A989
:1009E0005E4801F034FF642302222FA15B4801F02E
:1009F0002EFF28A182A8FFF735FD48B10127FFF798
:100A000061FF6423122267A1544801F020FF18E01F
:100A100069A182A8FFF726FD10B1FFF753FF05E09B
:100A20000A2002F07DFE6D1EADB2B7D264232122F2
:100A300063A14A48761C01F00AFF4FF4FA6002F005
:100A40006FFE0A2E03DA002F3FF479AF00E0B7B152
:100A50006423142263A1414801F0F9FE0DA100981E
:100A600000F09CFA4FF0640368B1142263A13B4884
:100A700001F0EDFE01200DF20C4DBDE8F08F642376
:100A8000252263A101E016226BA1344801F0DFFEAC
:100A90000020F0E74F4B000041542B4D515454447B
:100AA0004953434F4E4E3D300D0A000041542B4DEB
:100AB000515454555345524346473D302C302C2217
:100AC000222C22222C22222C302C302C22220D0AE5
:100AD000000000006838000855374154436B593214
:100AE00057370000746573740000000041542B4DAB
:100AF000515454555345524346473D302C312C22D6
:100B00002573222C222573222C222573222C302C93
:100B1000302C22220D0A000041542B4D51545443D5
:100B20004F4E4E3D302C226D717474732E68656388
:100B30006C6F7564732E636F6D222C313838332CD3
:100B4000310D0A00436F6E6669677572696E6720C2
:100B50004D5154542E2E2E0D0A0000001C01002071
:100B6000547279696E67204D515454205553455243
:100B70004346472E2E2E0D0A000000002D2D534512
:100B80004E4420434D443A2000000000D400002091
:100B900010000020EC0100202D2D4553502052580C
:100BA0003A2000004D515454205553455243464776
:100BB000204F4B0D0A0000004552524F52000000DA
:100BC0004D51545420555345524346472066616960
:100BD0006C65642C207265747279696E672E2E2E96
:100BE0000D0A0000436F6E6E656374696E67204D79
:100BF0005154542E2E2E0D0A000000004D51545415
:100C000020636F6E6E6563746564204F4B0D0A0040
:100C10004D5154542055534552434647206661690F
:100C20006C6564206166746572203520617474653A
:100C30006D7074730D0A00004D51545420636F6E33
:100C40006E656374206661696C65640D0A0000005E
:100C500000B5A1B011A0009013A316A2802101A895
:100C6000FFF7BAFA6423132218A11E4801F0EFFD22
:100C70001DA101A800F092F94FF0640338B11422CD
:100C80001BA1184801F0E3FD012021B000BD162290
:100C90001CA1144801F0DBFD0020F6E76A6437313F
:100CA00037373138000000006A696E676461383395
:100CB0003000000041542B43574A41503D222573D8
:100CC000222C222573220D0A00000000436F6E6E55
:100CD000656374696E6720576946692E2E2E0D0A6A
:100CE000000000001C010020474F54204950000024
:100CF0005769466920636F6E6E6563746564204F43
:100D00004B0D0A005769466920636F6E6E65637408
:100D1000206661696C65640D0A00000070B540F2E0
:100D2000FF123349334801F06DFD64230B2232A1D9
:100D3000354801F08CFD35A135A000F02FF94FF4B6
:100D4000FA754FF0640390B10B222BA12E4801F0ED
:100D50007EFD284602F0E4FC64231C222EA12A48D2
:100D600001F075FD29A134A000F018F904E01E225D
:100D700034A1254801F06BFD284602F0D1FC642324
:100D80000B2238A1204801F062FD00241FA139A0E8
:100D900000F004F928B9C82002F0C2FC641C032C3E
:100DA000F4DB1AA135A000F0F9F84FF0640310B19C
:100DB000132236A101E022223AA1134801F047FD97
:100DC000284602F0ADFC11A13FA000F0E7F84FF07B
:100DD000640310B1112240A101E0202243A10A487E
:100DE00001F035FD2846BDE8704002F099BC0000D6
:100DF000EC010020D400002041542074657374205D
:100E00004F4B0D0A000000001C0100204F4B00005A
:100E100041540D0A00000000436865636B696E670A
:100E200020455350383236362076657273696F6EBE
:100E30002E2E2E0D0A00000041542B474D520D0A54
:100E40000000000041542074657374206661696C71
:100E500065642C207265747279696E672E2E2E0D72
:100E60000A00000041542074657374204F4B310D0B
:100E70000A000000415445300D0A000041542B4344
:100E8000574D4F44453D310D0A00000043574D4F2B
:100E900044452073657420746F2031204F4B0D0A38
:100EA000000000005365742043574D4F44452066B1
:100EB00061696C65642C207265747279696E672E45
:100EC0002E2E0D0A0000000041542B435744484386
:100ED000503D312C310D0A004448435020656E616D
:100EE000626C6564204F4B0D0A000000536574204E
:100EF00044484350206661696C65642C20726574B7
:100F00007279696E672E2E2E0D0A000000B5C1B0F1
:100F10000346009115A24FF4807101A8FFF75CF918
:100F200064230B2217A11B4801F091FC01A8FFF7D5
:100F3000ABFA82B24FF4FA7301A9164801F087FCAC
:100F4000642302220EA1134801F081FC12A101A822
:100F500000F024F810B1012041B000BDC82002F01B
:100F6000DFFB0DA101A800F019F8F5E741542B4D66
:100F70005154545355423D302C222573222C256464
:100F80000D0A00002D2D53454E4420434D443A2078
:100F9000000000001C0100204F4B00002DE9F04F25
:100FA000ADF5017D8B46044640F6B835FFF78AFC67
:100FB0002046FFF769FA82B2C82321463B4801F078
:100FC00046FC322002F0ACFB394F4FF4007940F27E
:100FD000FF1800264FF4FA7A43E000BF00F086F8CD
:100FE00000283BD0C82002F09BFB3C884C4500D336
:100FF000444622462F496846FFF765FA0DF804601B
:1010000064230A222CA12F4801F021FC44B1684638
:10101000FFF73AFA82B2534669462A4801F017FCB4
:101020006423022228A1274801F011FCBBF1000033
:101030000BD001466846FFF715FA30B1FFF742FCC6
:1010400001200DF5017DBDE8F08F20A16846FFF776
:1010500009FA18B1FFF736FC0020F2E70A2002F087
:101060005FFB6D1EADB2B9D23C884C4500D34446FF
:10107000224610496846FFF726FA0DF804606423FB
:10108000152214A10F4801F0E2FB44B16846FFF7B6
:10109000FBF982B2534669460A4801F0D8FB642343
:1010A000022209A1074801F0D2FBD3E7D4000020B7
:1010B00010000020EC0100202D2D455350205258E7
:1010C0003A2000001C0100200D0A00004552524F3A
:1010D000520000002D2D455350205258206F6E2095
:1010E00074696D656F75743A2000000007480188C7
:1010F00039B101884288914205D100214180012007
:1011000070470020704701884180FAE710000020F6
:1011100072B6FEE710B590F821100022022905D022
:101120000421816380F82020012010BD01680B6834
:1011300023F00E030B6001680B6823F001030B60C2
:1011400090F84030C46B012101FA03F3636080F82A
:10115000211080F82020104610BD000010B590F836
:1011600021100024022903D00421816301243DE0E1
:1011700001680A6822F00E020A6001680A6822F01B
:1011800001020A601A4A0168914201D1012121E05D
:10119000174A1432914201D110211BE0144A28321F
:1011A000914201D1891515E0114A3C32914201D199
:1011B00089140FE00E4A5032914202D14FF480312F
:1011C00008E00B4A6432914202D14FF4801101E0F1
:1011D0004FF08071064A083A5160012180F82110D1
:1011E000002180F82010416B01B18847204610BDD6
:1011F000080002402DE9F05FC16B0C6801680B68C4
:10120000D0F840C0042202FA0CF2494DDFF824A1C4
:10121000494E4A4FDFF828B1DFF828E122422CD0AE
:101220005A072AD50A68920603D40A6822F00402F3
:101230000A600168A94201D1042219E0514501D197
:10124000402215E0B14202D14FF4806210E0B94271
:1012500002D14FF480420BE0594502D14FF4802275
:1012600006E0714502D14FF4800201E04FF0806248
:101270002F4908394A60C16A3BE04FF0020808FA7A
:101280000CF818EA040F4FF000094FF0010235D0B6
:101290005FEA837832D50B689B0605D40B6823F090
:1012A0000A030B6080F821200168A94201D10222C3
:1012B00019E0514501D1202215E0B14202D14FF48D
:1012C000007210E0B94202D14FF400520BE05945D0
:1012D00002D14FF4003206E0714502D14FF4001202
:1012E00001E04FF00072124908394A6080F82090FE
:1012F000816A00291AD0BDE8F05F0847082505FA81
:101300000CF5254212D01B0710D50B6823F00E03F5
:101310000B6090F84010C36B02FA01F159608263D0
:1013200080F8212080F82090016BE2E7BDE8F09F73
:10133000080002401C00024030000240440002400D
:10134000580002406C00024030B528B308C8134969
:1013500014221944B1FBF2F18900C1631049816381
:10136000022141771A6843F6F0718A43D0E90014EC
:101370002143D0E902452C432143046921434469B8
:1013800021438469214311431960002141630122F3
:1013900042770177084630BD012030BDF8FFFDBF20
:1013A0000000024070B5044690F820000025012896
:1013B0000CD0012084F8200094F821600020012E38
:1013C00006D084F820000225284670BD022070BD9A
:1013D000022684F82160A0632068066826F00106D2
:1013E00006602046FFF710FAE06A002820680168CE
:1013F00002D041F00E0106E021F0040101602068F6
:10140000016841F00A0101602068016841F00101B2
:101410000160D9E770B5044600F004F90546601C88
:1014200002D004480078044400F0FCF8401BA042BD
:10143000FAD370BD000000202DE9F84FDFF8B89115
:101440000024A9F1040B23460F2709F1040AABF18C
:10145000040EC9E00125A5402A40AA427DD1674E6D
:10146000D1F804C0ACEB0608B44532D014DCBCF1B2
:10147000030F3AD009DCBCF1000F2AD0BCF1010FF8
:101480001CD0BCF1020F31D11DE0BCF1110F17D0FF
:10149000BCF1120F2AD119E0B8F5881F19D006DC6B
:1014A000B8F5803F15D0B8F5801F1FD111E0B8F511
:1014B000001F0ED0B8F5041F18D10AE0CB6815E064
:1014C000CB681B1D12E0CB6808330FE0CB680C33F0
:1014D0000CE08B682BB1012B4FF0080303D0456162
:1014E00004E0042302E0056100E00023FF2A01D8A4
:1014F000064601E000F104064FEA840501D9A5F192
:101500002005D6F8008007FA05FC28EA0C0803FA43
:1015100005F548EA0508C6F800804D68ED0062D57B
:10152000374DAE6946F00106AE61AD6924F00306A1
:1015300005F001050095334D06EB050CDCF808506D
:10154000A607360F07FA06F825EA0805DFF8B8807F
:10155000404503D14FF0000817E044E0DFF8AC80CD
:10156000404502D14FF001080FE0DFF8A48040456C
:1015700002D14FF0020808E0DFF89880404502D120
:101580004FF0030801E04FF0040808FA06F848EAB3
:101590000508CCF808804D68D9F80060ED024D468A
:1015A00001D5164300E096432E604D68DAF80060DE
:1015B000AD02554601D5164300E096432E604D68B6
:1015C000DBF80060AD035D4601D5164300E09643AD
:1015D0002E604D68DEF80060ED03754601D51643B8
:1015E00000E096432E60641C0D682A46E5407FF4B7
:1015F00031AFBDE8F88F0000080401400000111071
:10160000001002400000014000080140000C0140B1
:1016100000100140001401400AB101617047090443
:10162000FBE70000014880687047000000000020D0
:1016300002488168027811448160704700000020F0
:10164000074810B5016841F010010160032000F067
:1016500075F80F2000F006F800F024F8002010BD07
:101660000020024070B50D4D04464FF47A71287881
:10167000B1FBF0F00A490968B1FBF0F000F0E0FCC2
:1016800048B9102C07D200222146501E00F036F82F
:1016900000206C6070BD012070BD000000000020C3
:1016A0000C0000200C4808B5816941F001018161FE
:1016B000816901F001010091C16941F08051C1616E
:1016C000C06900F0805000900448416821F0E0615A
:1016D00041F00071416008BD00100240000001406F
:1016E000002809DB00F01F02012191404009800021
:1016F00000F1E020C0F8001170470000F0B40E4B7C
:101700001B680C46C3F30223C3F10705042D00D95F
:101710000425191D072901D2002300E0DB1E012644
:1017200006FA05F1491E214099409E40761E16405A
:101730003143F0BC01F0DDBF0CED00E0064900F0E4
:10174000070208684FF6FF03184040EA0220034AE8
:1017500010430860704700000CED00E00000FA053F
:101760002DE9F0470F46050061D0434E306800F088
:101770000700B84209D2306820F0070038433060D3
:10178000306800F00700B84251D128683B4C81070F
:1017900012D5400703D5606840F4E06060602878A7
:1017A000000703D5606840F4605060606068A96815
:1017B00020F0F000084360602878C00728D06868EF
:1017C000012810D02168022810D0890700292EDABC
:1017D000616821F0030101436160FFF723FF804648
:1017E00041F288390DE021688903EFE78901EDE7CF
:1017F000FFF718FFA0EB0801494502D90320BDE817
:10180000F0876068696800F00C00B0EB810FEFD1E1
:10181000306800F00700B8420BD9306820F00700AC
:1018200038433060306800F00700B84201D0012032
:10183000E5E72878400705D56068E96820F4E060AE
:10184000084360602878000706D56068296920F49D
:10185000605040EAC100606000F038F86168084AF2
:10186000C1F30311515CC84006490860064800688E
:10187000FFF7F8FE0020C2E70020024000100240FF
:101880003E3800080C0000200400002004480549F0
:1018900000684968044AC1F30221515CC84070479E
:1018A0000C000020001002404E3800080448054992
:1018B00000684968044AC1F3C221515CC8407047BE
:1018C0000C000020001002404E3800080E4A5168FB
:1018D0000E4801F00C03042B11D0082B0FD10C483B
:1018E000C1F38343C903C05C0AD55168084AC1F3F8
:1018F0004041921E515C054A5043B0FBF1F07047E5
:1019000004494843704700000010024000127A006A
:101910002E38000800093D002DE9F84F040070D072
:101920002078C04DC00749D06868C0F38100012805
:1019300007D06868C0F38100022809D16868C00335
:1019400006D52868800339D560680028E7D035E0DF
:101950006068B0F5803F0BD010B1B0F5A02F11D06A
:10196000286820F480302860286820F4802002E075
:10197000286840F480302860606890B1FFF752FE1C
:1019800006460AE0286840F480202860F0E700BF9F
:10199000FFF748FE801B642873D828688003F7D5BA
:1019A0000CE0FFF73FFE064605E000BFFFF73AFEFA
:1019B000801B6428F0D828688003F7D420789A4EDA
:1019C00080074FF001094FF0000839D5686810F022
:1019D0000C0F07D06868C0F38100022809D168683D
:1019E000C00306D42868800714D52069012808D1CF
:1019F00010E02069B0B1C6F80090FFF713FE07466B
:101A000005E00AE1FFF70EFEC01B0228C4D82868D3
:101A10008007F7D52868616920F0F80040EAC10026
:101A200028600DE0C6F80080FFF7FCFD074604E0E3
:101A3000FFF7F8FDC01B022823D828688007F7D4D9
:101A4000207800072CD57948A169D9B1C0F8009059
:101A5000FFF7E8FD074604E0FFF7E4FDC01B02289E
:101A60000FD8686A8007F7D571484FF4FA510068BB
:101A7000B0FBF1F0009000BF0098411E0091FAD237
:101A80000EE080E0C0F80080FFF7CCFD074604E0E0
:101A9000FFF7C8FDC01B022875D8686A8007F7D415
:101AA0002078400760D5E8690027C00008D4E869BD
:101AB00040F08050E861E869012700F08050009014
:101AC0005C480168C90513D40168834641F48071FC
:101AD0000160FFF7A7FD824606E000BFFFF7A2FD09
:101AE000A0EB0A0064284ED8DBF80000C005F5D54D
:101AF000E06801280AD008B1052813D0286A20F030
:101B000001002862286A20F0040002E0286A40F000
:101B100001002862E06841F2883B98B1FFF782FD3E
:101B200082460BE0286A40F004002862EEE700BF1E
:101B3000FFF778FDA0EB0A0159455AD8286A8007BB
:101B4000F6D50CE0FFF76EFD824605E0FFF76AFD73
:101B5000A0EB0A0159454CD8286A8007F6D41FB17A
:101B6000E86920F08050E861E06988B36968C1F3F2
:101B70008101022944D00228C6F8608004D0FFF712
:101B800051FD044638E034E0FFF74CFD074604E021
:101B9000FFF748FDC01B02282BD828688001F7D426
:101BA000206AB0F5803F05D16868A16820F4003054
:101BB00008436860D4E908010843696821F4741196
:101BC00008436860C6F86090FFF72CFD044606E005
:101BD00025E000BFFFF726FD001B022809D8286872
:101BE0008001F7D51BE000BFFFF71CFD001B02289A
:101BF00002D90320BDE8F88F28688001F4D40EE0F4
:101C00000128F7D06868226A00F48031914204D13B
:101C1000616A00F47010884201D00120EAE70020D8
:101C2000E8E7000000100240000042428004424207
:101C30000C000020007000407047000038B50446DA
:101C4000006842688168C9434B0606D5CB0704D1BA
:101C5000D3435B0601D4216C05E08B0708D4D34342
:101C60001B0605D4616C01B02046BDE83040084732
:101C70008B0601D54B0646D4D3439B0643D44B0673
:101C80000AD494F85130032B3ED0636D43F0040323
:101C90006365C36883680093890609D4616D41F068
:101CA0000101616581680091016821F040010160D6
:101CB000606D002827D02068416821F0E001416074
:101CC000012084F85100900722D02068416821F05B
:101CD00003014160104DE06C40B14563E06CFFF7DB
:101CE0003DFA18B1606D40F040006065A06C0028BE
:101CF00009D04563A06CFFF731FA002803D0606D6E
:101D000040F04000606538BDC1688068009038BD13
:101D10002046FFF791FF38BD5D2F000870B5040025
:101D200009D0606A002540B125616561A56294F81B
:101D3000510040B10CE0012070BD6068B0F5827FB9
:101D4000F4D0E561F2E784F85050204600F040F806
:101D5000022084F851002068016821F040010160F0
:101D6000A088218900F4827001F404410843A1890C
:101D700001F400610843217C01F002010843217D48
:101D800001F001010843218B01F400710843217F18
:101D900001F03801084394F8201001F08001084355
:101DA000218D01F40051084321680860A0690421D5
:101DB00001EA1040216848602068C16921F400618F
:101DC000C1616565012084F85100002070BD0000EC
:101DD00030B585B000240094019402940394006807
:101DE000184988422BD11848816941F4805181619A
:101DF000816901F480510491816941F0040181619C
:101E00008069124D00F004000490A0200090022090
:101E100001900320039069462846FFF70DFB402000
:101E2000CDE90004694628460294FFF705FB00222D
:101E300011462320FFF762FC2320FFF751FC05B079
:101E400030BD000000300140001002400008014099
:101E50002DE9FF4F81B01D46934604464FF001091E
:101E60000E9EFFF7DFFB074694F8510061680128DA
:101E700006D0B1F5827F3CD1A168C9BB042838D116
:101E80000298002871D0BBF1000FFBD0002DF9D0D3
:101E900094F8500001282CD04FF0010A84F850A08B
:101EA00094F85100042802D0052084F851004FF026
:101EB0000008C4F85480C4F838B0E587A5870299B3
:101EC0002163E586A586C4F84080C4F84480206874
:101ED0000168490603D4016841F040010160E068EF
:101EE000B0F5006F606808D0F0B3012D49D081E0F3
:101EF000FFE7022005B0BDE8F08F08B1012D39D110
:101F0000206B21680088C860206B801C2063E08EF5
:101F1000401EE0862EE02068816889070FD5E18E9B
:101F200069B1B9F1010F0AD1216B0988C160206B39
:101F3000801C2063E08E401EE0864FF00009206880
:101F40008168C9070CD0E18F51B1C068A16B0880CE
:101F5000A06B801CA063E08F401EE0874FF001095A
:101F6000FFF760FBC01B01E00BE067E0B04201D36C
:101F7000701C50D1E08E0028CDD1E08F0028CAD14E
:101F80003EE0206B216800780873206B401C2063C2
:101F9000E08E401EE0862DE02068816889070FD51D
:101FA000E18E69B1B9F1010F0AD1216B0978017392
:101FB000206B401C2063E08E401EE0864FF000093D
:101FC00020688168C9070CD0E18F51B1C068A16B4E
:101FD0000870A06B401CA063E08F401EE0874FF0AC
:101FE0000109FFF71FFBC01BB04202D3701C01D0D8
:101FF00011E086B1E08E0028CED1E08F0028CBD151
:102000003A463146204600F0B1FF50B120206065CD
:1020100084F8508012E084F851A084F850800320A6
:1020200068E7A06818B92068C1688068009084F8E3
:1020300051A084F85080606D0028F1D0012059E74C
:1020400010B5401EB0F1807F01D3012010BD4FF0CC
:10205000E02460610F21601701F04BFB0020A061BC
:1020600007202061002010BD7047704770B590F8C0
:102070003C20012A26D0012480F83C40022280F82E
:102080003D2003685A689D6822F070060A68324352
:102090005A600D4B02689A4208D0B2F1804F05D0C9
:1020A0000A4B9A4202D00A4B9A4204D1496825F061
:1020B00080031943916080F83D40002180F83C1076
:1020C000084670BD022070BD002C01400004004095
:1020D0000008004010B5040003D094F83D0010B192
:1020E00007E0012010BD002084F83C00204600F0ED
:1020F0001FF8022084F83D00211D206801F010F82F
:10210000012084F8460084F83E0084F83F0084F8FB
:10211000400084F8410084F8420084F8430084F8C9
:10212000440084F8450084F83D00002010BD000004
:1021300008B500680B49884212D10B48C16941F0CB
:102140000401C161C069002200F004000090032175
:102150001E20FFF7D3FABDE808401E20FFF7C0BAE3
:1021600008BD0000000800400010024070B50446A1
:1021700090F83C000025012817D0012684F83C6027
:10218000022084F83D002068826822F0770222F461
:102190007F4282600868502838D00DDC20284FD05C
:1021A00005DC90B3102811D14AE0022070BD302820
:1021B00046D040280AD13BE060282FD070280DD0AF
:1021C000B0F5805F03D0B0F5005F12D0012584F830
:1021D0003D60002084F83C00284670BDCB68D1E902
:1021E0000121206800F0D8FF2068816841F0770164
:1021F00009E0CB68D1E90121206800F0CDFF20681B
:10220000816841F480418160E1E719E0CA6849686A
:10221000206800F0D3FF5021206806E0CA684968B2
:10222000206800F0DCFF6021206800F0BFFFCEE7EF
:10223000CA684968206800F0C1FF40212068F4E7BF
:10224000226801461046F0E770472DE9F041044648
:102250000068C66805694FF00007A90713D5B107E4
:1022600011D5F91E0161012020772068806980075F
:10227000204602D0FFF7E8FF04E000F07EF8204699
:1022800000F07CF82777680716D5700714D5216809
:102290006FF004000861022020772068806910F444
:1022A000407F204602D0FFF7CFFF04E000F065F842
:1022B000204600F063F82777280715D5300713D597
:1022C00021686FF008000861042020772068C06949
:1022D0008007204602D0FFF7B7FF04E000F04DF87A
:1022E000204600F04BF82777E80616D5F00614D5FF
:1022F00021686FF010000861082020772068C0690D
:1023000010F4407F204602D0FFF79EFF04E000F06B
:1023100034F8204600F032F82777E80708D0F007B5
:1023200006D021686FF001000861204600F028F80F
:10233000280608D5300606D521686FF080000861B0
:102340002046FFF791FE680608D5700606D521687D
:102350006FF040000861204600F01EF8A8060AD57C
:10236000B00608D521686FF0200008612046BDE85E
:10237000F041FFF77ABEBDE8F0817047704700007A
:1023800000680349884202D1024901200870704761
:1023900000080040140000207047704710B5044644
:1023A0000068406994F84110C0F3C010212911D190
:1023B00080B12068143050E8001F21F0800140E80F
:1023C0000012002AF5D1A06B08B1FEF7A3FE20464B
:1023D00000F0BDFF2068406994F84210C0F38010FF
:1023E000222911D180B12068143050E8001F21F05B
:1023F000400140E80012002AF5D1E06B08B1FEF779
:1024000089FE204600F07CFF002010BD70470000D0
:10241000F8B5016804460868CA684B6910F00F0FE8
:102420004FF0000559D003F0010602F490773743CE
:1024300065D0C10705D0D10503D5616C41F001011C
:102440006164410705D5D90703D0616C41F00201F1
:102450006164810705D5D90703D0616C41F004019F
:102460006164010707D502F02001314303D0616C9C
:1024700041F008016164616C00293AD0800604D5FE
:10248000900602D5204600F070FF20684069616C1C
:10249000C0F38010090700D460B3204600F030FF7D
:1024A00020684069400621D52068143050E8001F9C
:1024B00021F0400140E80012002AF5D1E06BA8B1FC
:1024C0006D494163E06BFEF749FE002811D0E06BD7
:1024D000416B01B0BDE8F040084783060FD5930675
:1024E0000DD52046BDE8F84000F03FBF2046FFF77D
:1024F0008DFFF8BD2046FFF789FF6564F8BD266BA8
:102500002023012E7CD1C6067AD5D60678D5086858
:102510004868009048694FF00206400640D5E16BDC
:10252000086840680004000CE8D0A28D8242E5D91A
:10253000E085886920282DD020680C3050E8001FE5
:1025400021F4807140E80012002AF5D1206814308F
:1025500050E8001F21F0010140E80012002AF5D1E7
:102560002068143050E8001F21F0400140E80012BC
:10257000002AF5D184F84230256320680C3050E8F9
:10258000001F21F0100140E80012002AF5D1E06B95
:10259000FEF7C0FD6663A08DE18D401A81B22AE08E
:1025A000A08DE18D401A81B2E08D0028A6D00029CF
:1025B000A4D022680C3252E8000F20F4907042E858
:1025C0000007002FF5D12068143050E8002F22F0CA
:1025D000010240E80027002FF5D184F8423025633E
:1025E00020680C3050E8002F22F0100240E8002351
:1025F000002BF5D166632046FFF7CFFEF8BDFFE75D
:1026000005062BD5150629D594F841002128F5D1CA
:10261000A068B0F5805F01D12069B0B1206A411C8B
:102620002162216800784860E08C401E0004000CA4
:10263000E084E3D12068C16821F08001C160206896
:10264000C16841F04001C160D8E7206A0088C0F34A
:1026500008004860206A801C2062E5E74006CDD56E
:102660005006CBD5CA68204622F04002CA6084F8E2
:10267000413000F03CF9C1E70332000870B50400B6
:1026800004D094F84100002510B106E0012070BD8F
:1026900084F84050204600F023F8242084F84100BC
:1026A0002068C16821F40051C160204600F0BEFEE0
:1026B0002068016921F4904101612068416921F09D
:1026C0002A0141612068C16841F40051C16065641C
:1026D000202084F8410084F842006563002070BD2A
:1026E000F0B585B00024009401940294039406464A
:1026F0003E4F03683E49022003223E4DBB4250D16B
:102700008B6943F480438B618B6903F480430493AA
:102710008B6943F004038B618969039201F0040122
:1027200004910102CDE9001069462846FEF784FEB7
:102730002815CDE90004694628460294FEF77CFE80
:102740002E4D2D48802701C5102091C52B4845F8F6
:1027500010496C61AC61EC61FEF7F6FD08B1FEF763
:10276000D7FCB5636E62254D234844351430C5E966
:102770000004C5E902472C616C61AC612846EC613C
:10278000FEF7E2FD08B1FEF7C3FCF563002202216B
:1027900025206E62FEF7B2FF2520FEF7A1FF05B0EF
:1027A000F0BD174EB342FAD1CB6943F40033CB618D
:1027B000CB6903F4003304938B6943F004038B610A
:1027C0008969039201F0040104910421CDE900100C
:1027D00069462846FEF730FE0820CDE90004694628
:1027E00028460294FEF728FED9E700000038014091
:1027F0000010024000080140440002406401002033
:102800000044004090F84230202B01D00220704755
:1028100021B11AB10023036300F064BE01207047A8
:10282000074988420BD1074840F2FF120280064B4D
:1028300000880021195419460148FFF7E3BF70478B
:10284000D400002010000020EC01002070472DE98A
:10285000F843044690F84100984616460D46202855
:1028600002D00220BDE8F88385B17EB1002060640B
:10287000212084F84100FEF7D5FEA6848146E68437
:10288000A0682027B0F5805F02D003E00120E9E7CF
:10289000206910B12E4600250EE000260CE08021B4
:1028A000204600F067FEA8B9C6B116F8010B2168F2
:1028B0004860E08C401EE084E08C4B464FF0000204
:1028C000CDF800800028EAD14FF04001204600F00A
:1028D00051FE40B184F841700320C3E735F8020B84
:1028E000C0F30800E3E784F841700020BAE77047BE
:1028F000FEE7000070B501220E4D940321462846E4
:10290000FEF78AFE0122560331462846FEF784FE72
:1029100000F048F8002221462846FEF77DFE00F030
:1029200041F8002231462846FEF776FEBDE87040A9
:1029300000F038B80010014070B50B4D4FF48044E2
:10294000002221462846FEF767FE01225103284651
:10295000FEF762FE00F026F821462846BDE87040EA
:102960000122FEF759BE00000010014070B50C4C6A
:10297000012291032046FEF74FFE00F013F80122DA
:10298000550329462046FEF747FE00F00BF80022CB
:1029900029462046FEF740FEBDE8704000F002B830
:1029A000001001400320401EC0B2FCD2704770B539
:1029B0000C46054600F008F820EA04012846BDE868
:1029C000704000F029B8000070B57E2101EA400097
:1029D0000A4D40F08004002210212846FEF71CFE1C
:1029E000204600F0ABFA002000F0A8FA04460122CD
:1029F00010212846FEF710FE204670BD0008014059
:102A000070B50C460546FFF7DFFF40EA0401284693
:102A1000BDE87040AFF3008070B50E467E2101EA3C
:102A20004004094D002210212846FEF7F5FD2046FE
:102A300000F084FA304600F081FA2846BDE8704084
:102A400001221021FEF7E8BD000801400D4808B53D
:102A5000416941F0010141614069002200F001003B
:102A6000009011460E20FEF749FE0E20FEF738FEBC
:102A7000002211460F20FEF741FEBDE808400F205E
:102A8000FEF72EBE001002402DE9F04786B000256B
:102A900043480095019502950395816941F0100125
:102AA0008161816901F010010491816941F0200187
:102AB0008161816901F020010491816941F0040183
:102AC0008161816901F004010491816941F008018B
:102AD00081618069DFF8CC8000F008000490012259
:102AE0004FF4C0414046FEF797FD4FF400470022E7
:102AF00039464046FEF790FDDFF8AC9001221321E5
:102B00004846FEF789FDDFF8A4A0012240F6014106
:102B10005046FEF781FD002239464846FEF77CFD0F
:102B200000224FF470715046FEF776FD01244FF4F9
:102B30006040CDE900040326CDE9024669464046DF
:102B4000FEF77AFC1320CDE90004CDE90246694680
:102B50004846FEF771FC40F60170CDE90004CDE96E
:102B6000024669465046FEF767FC01AA0226009716
:102B700082E8700069464846FEF75EFC38208DE822
:102B8000610069465046FEF757FCC0208DE8710091
:102B900069465046FEF750FC06B0BDE8F0870000DD
:102BA000001002400010014000080140000C0140EC
:102BB000104810B50E4901604FF482714160002148
:102BC0008160C1604FF400720161C0E905121822F2
:102BD000C0E90721416281620A21C162FFF79EF8C4
:102BE000002803D0BDE81040FEF792BA10BD0000E7
:102BF000003001403400002010B586B00024174892
:102C00000094019402940394049413490594016080
:102C100041F61F41C0E901144FF6FF71C0E90314EA
:102C20008461FFF757FA08B1FEF772FA4FF480504B
:102C3000009069460948FFF799FA08B1FEF768FA6B
:102C4000049404A905480594FFF710FA002801D060
:102C5000FEF75EFA06B010BD000800408C000020B0
:102C600010B50E4C0C480C2120604FF4E130606030
:102C70000020A060E060C4E90401A061E06120469A
:102C8000FFF7FCFC08B1FEF743FA2068C16841F089
:102C90001001C16010BD000000380140D4000020C8
:102CA0000C4810B50A4901604FF4E1314160002140
:102CB00081600C22C160C0E904128161C161FFF72B
:102CC000DDFC002803D0BDE81040FEF721BA10BD9E
:102CD000004400401C010020FEE7FEE730B4002164
:102CE000084B0A465FF0000003EBC004401CC0B272
:102CF00062548028F8D3491CC9B20829F2D330BCE9
:102D000000F070B8EC03002010B50021AE2000F0F8
:102D10009DF80021084600F099F80021102000F0ED
:102D200095F80021402000F091F80021812000F06A
:102D30008DF80021CF2000F089F80021A12000F0BB
:102D400085F80021C82000F081F80021A62000F0BD
:102D50007DF80021A82000F079F800213F2000F044
:102D600075F80021D32000F071F80021084600F02A
:102D70006DF80021D52000F069F80021802000F0D6
:102D800065F80021D92000F061F80021F12000F061
:102D90005DF80021DA2000F059F80021122000F03F
:102DA00055F80021DB2000F051F80021302000F020
:102DB0004DF80021202000F049F80021022000F009
:102DC00045F800218D2000F041F80021142000F08A
:102DD0003DF8FFF783FF0021BDE81040AF2000F071
:102DE00035B8000070B5184E002400BF04F1B000E3
:102DF000C0B2002100F02AF80021084600F026F8B1
:102E00000021102000F022F8FFF774FD782000F078
:102E100025F9FFF7ABFD402000F020F9FFF7A6FDF4
:102E20005FF0000506EBC500005D00F017F9FFF745
:102E30009DFD6D1CEDB2802DF4D3FFF77DFD641C6C
:102E4000E4B2082CD2D370BDEC03002070B50C4660
:102E50000546FFF74FFD782000F000F9FFF786FDEB
:102E60000CB1402000E0002000F0F8F8FFF77EFDF4
:102E7000284600F0F3F8FFF779FDBDE87040FFF752
:102E80005BBD03211420FFF792BD10B51420FFF79E
:102E90009BFD800705D10321BDE810401420FFF7FA
:102EA000AFBD10BD10B5204C012211462046FEF7E3
:102EB000B3FB0220FEF7AEFA002201212046FEF706
:102EC000ABFB0220FEF7A6FA012211462046FEF7D0
:102ED000A3FB0220FEF79EFA0F210120FFF79CFDC5
:102EE0000220FEF797FA3D211120FFF795FD1E21E4
:102EF0002D20FFF791FD00212C20FFF78DFD8D2166
:102F00002A20FFF789FD3E212B20FFF785FD402178
:102F10001520FFF781FDFFF7B4FF0220FEF77AFAD4
:102F2000BDE81040FFF7B1BF000C01407047000042
:102F30000148FEF783BE00003400002001B582B0D6
:102F40000A200090012301AA02A90348FEF780FF8E
:102F50009DF804000EBD00003400002010B5406A4A
:102F60000021C187C186FEF767FE10BDF8B5154682
:102F70000E460B46009204460122022100F010F892
:102F800040B93346002280212046009500F008F821
:102F9000002804D0606D40F0200060650320F8BD7B
:102FA0002DE9F8431E46914688460446089DFEF7E3
:102FB00039FB401B351AFEF735FB074625480068EC
:102FC000C0F3CB30684338E0701C37D0FEF72AFBE3
:102FD000C01BA84203D215B1009860B32CE0206852
:102FE000416821F0E00141606068B0F5827F0BD15B
:102FF000A068B0F5004F02D0B0F5806F04D1206812
:10300000016821F040010160A06AB0F5005F09D1BC
:103010002068016821F4005101602068016841F4D2
:1030200000510160012084F85100002084F8500014
:103030000320BDE8F8830025401E009020688168C9
:1030400038EA010004D000214945BDD10020F0E755
:103050000121F9E70C000020704700002DE9F04144
:10306000124F002405464FF480487E14280601D5EF
:10307000012200E0002241463846FEF7CDFAFFF774
:1030800091FC012231463846FEF7C6FAFFF78AFC6A
:10309000002231463846FEF7BFFA6806641C050E6A
:1030A000E4B2082CE2D3BDE8F0810000001001403A
:1030B000FEF7BEBA30B58FB028216846FDF79CFAFE
:1030C00014210AA8FDF798FA01210804CDE900109F
:1030D0000024029402250491CDE907504FF4E0103A
:1030E00009906846FEF718FC08B172B6FEE70F209B
:1030F000CDE90A054FF48060CDE90C4002210AA811
:103100000E94FEF72DFB002801D072B6FEE70FB03B
:1031100030BD70470148FFF798B800008C000020D0
:10312000F0B50268194B1A4C1A4D4FF0804798427F
:1031300005D0B84203D0A04201D0A84203D122F06A
:1031400070064A683243984205D0B84203D0A04284
:1031500001D0A84203D122F44074CA6822434C69CA
:1031600022F08002224302608A68C2620A68826298
:10317000984201D109690163012141610169C907CF
:1031800003D0016921F001010161F0BD002C014073
:10319000000400400008004010B5846842EA0322A1
:1031A00024F47F440A432243826010BD826822F0E7
:1031B00070020A4342F007018160704710B5036A4C
:1031C000046A24F001040462846924F0F00444EAEF
:1031D000021423F00A020A438461026210BD10B592
:1031E000036A046A24F010040462846923F0A003D3
:1031F00024F4704444EA023243EA0111826101621C
:1032000010BD10B5406A0021C185C184FFF7FEF8EA
:1032100010BD70B5446A2068406994F84110C0F34D
:10322000C0100025212904D118B1E584204600F002
:103230008EF82068406994F84210C0F3801022296B
:1032400004D118B1E585204600F05AF8606C40F0D2
:10325000100060642046FFF7D9F870BD10B5014634
:10326000406A096809684FF0000289062ED4C285B9
:1032700001680C3151E8003F23F4807341E80034C9
:10328000002CF5D10168143151E8003F23F001030F
:1032900041E80034002CF5D10168143151E8003FB9
:1032A00023F0400341E80034002CF5D1202180F8C0
:1032B0004210016B012909D101680C3151E8003F2E
:1032C00023F0100341E80034002CF5D14263016B78
:1032D000012902D0FFF7A4FA10BD818DFFF75DF838
:1032E00010BD10B5406A01214163016B012902D074
:1032F000FFF7ACFA10BD818D4908FFF74EF810BDFD
:1033000001680C3151E8002F22F4907241E800234B
:10331000002BF5D10168143151E8002F22F0010291
:1033200041E80023002BF5D1016B012909D1016887
:103330000C3151E8002F22F0100241E80023002B4D
:10334000F5D1202180F84210002101637047016807
:103350000C3151E8002F22F0C00241E80023002B7D
:10336000F5D1202180F84110704708B590F842103F
:10337000222901D0022008BD82684FF480539A426E
:1033800001D1016921B1816A9A421BD04AB10AE098
:103390000268816A5268C2F308020A80816A891C45
:1033A00008E0026972B10268526802F07F020A7096
:1033B000816A491C8162C18D491E0904090CC185BD
:1033C00003D01BE002685268F1E70168CA6822F086
:1033D0002002CA600168CA6822F48072CA6001686B
:1033E0004A6922F001024A61202180F8421000213E
:1033F0004163026B012A03D0FFF712FA002008BDD7
:10340000016301680C3151E8002F22F0100241E8FD
:103410000023002BF5D101680A68D20602D50A689C
:1034200049680091818DFEF7B8FFE7E770B5044663
:1034300000680169E26821F440511143016121698A
:10344000A0680843616908432168CA6841F20C63B7
:103450009A430243CA6020684169A26921F440711D
:10346000114341611E492068884202D1FEF71EFACD
:1034700001E0FEF70BFA00EBC00101EB00126068FF
:1034800064218000B2FBF0F3B3FBF1F36FF0180698
:103490007343B2FBF0F5B2FBF0F605EB8305322384
:1034A00003EB0515B5FBF1F5B6FBF1F605F0F005FC
:1034B00005EB0615B2FBF0F6B2FBF0F0B0FBF1F055
:1034C0006FF01802504306EB800003EB0010B0FBD6
:1034D000F1F0216800F00F002844886070BD000002
:1034E0000038014038B581620446828500201346C9
:1034F0006064222284F84220E56B1B4AAA62E56BD5
:103500001A4AEA62E56B1A4A2A63E26B50630A467A
:103510002168E06B091DFDF745FF206801684068E0
:103520000090206948B120680C3050E8001F41F439
:10353000807140E80012002AF5D12068143050E86C
:10354000001F41F0010140E80012002AF5D1206877
:10355000143050E8001F41F0400140E80012002AFA
:10356000F5D1002038BD00005D320008E3320008CC
:10357000133200082DE9F843984617460D460446D5
:10358000089E24E0701C22D0FEF74CF8A0EB080047
:10359000B0421AD8CEB12068C168490717D5802D2E
:1035A00015D0402D13D00168C94309070FD4016815
:1035B0000025406800902046FFF7A2FE08206064C6
:1035C00084F840500120BDE8F8830320FBE7206821
:1035D000006835EA000004D00020B842D2D00020B4
:1035E000F1E70120F9E700001FB5002002904FF439
:1035F000807000900120019003200E4C03906946DA
:103600002046FDF719FF6015009069462046FDF73A
:1036100013FFE014009069462046FDF70DFF2015CA
:10362000009069462046FDF707FF002000F004F8EF
:103630001FBD0000000C014070B50446154DC007C9
:103640004FF4807101D0012200E000222846FDF7EE
:10365000E3FFA0074FF4007101D5012200E0002232
:103660002846FDF7D9FF60074FF4006101D501221C
:1036700000E000222846FDF7CFFF20074FF48061CD
:1036800001D5012200E000222846BDE87040FDF788
:10369000C3BF0000000C014038B5124C206801681F
:1036A000C9061AD501680025406800902046FEF73B
:1036B00075FEE06B0068406840F2FF12A0F2FF1058
:1036C000404280B2B0F5007F00D310460649088022
:1036D00006490D540348FFF795F8BDE83840014806
:1036E000FEF796BED400002010000020EC01002060
:1036F000FEE70907090E002804DB00F1E02080F84E
:103700000014704700F00F0000F1E02080F8141D55
:10371000704730380A2801D20120704700207047D6
:1037200070B5054600244FF47A7603E0304600F089
:1037300005F8641CAC42F9D370BD00000B49096860
:1037400048434FF0E021486100228A61086940F057
:10375000010008610869C30701D0C003FAD50869F0
:1037600020F0010008618A61704700002C000020F1
:103770000024FDF765FFFFF79DFCFFF785F9FFF7D4
:1037800065F9FFF76DFAFFF737FAFFF789FAFFF7E8
:103790000FFAFFF787FBFFF774FBFFF776FBFDF7E8
:1037A0007FF8FFF7B1FAFDF745F8FFF71DFFFDF7CA
:1037B000B5FA4FF47A750CE0642314220AA110487C
:1037C000FFF745F8641CE4B22846FFF7A9FF052C73
:1037D00003D2FDF73DFA0028EED0FDF781F8002175
:1037E00008A0FDF793FBFEE75769466920636F6EFB
:1037F0006E6563742072657472790D0A00000000B2
:103800001C010020247379732F55374154436B59A1
:103810003257372F746573742F7468696E672F7011
:10382000726F70657274792F736574000102020300
:103830000405060708090A0B0C0D0E0F10100000F6
:103840000000000000000102030406070809000050
:103850000000010203040400000800000000000052
:10386000000200010000100076657273696F6E3D02
:10387000323031382D31302D3331267265733D7041
:10388000726F647563747325324655374154436BC8
:103890005932573725324664657669636573253238
:1038A00046746573742665743D3138393532323863
:1038B000303031266D6574686F643D6D64352673F4
:1038C00069676E3D454C674B6A43376437445A37E6
:1038D0007A5A307173624E7942512533442533440C
:1038E000000000000439000800000020340000003F
:1038F0002801000838390008340000209C0E000020
:103900004401000801000000100000000000000059
:1039100000127A000000000000000000000000001B
:103920000000000000000000000000000000000097
:0839300000000000000000008F
:04000005080000ED02
:00000001FF
