:020000040800F2
:10000000B80E00209D01000863380008793400080C
:10001000613800087D080008C543000800000000A2
:100020000000000000000000000000002D3D00085E
:100030002D0B000800000000013C0008853D000871
:10004000B7010008B7010008B7010008B7010008B0
:10005000B7010008B7010008B7010008B7010008A0
:10006000B7010008B7010008B7010008B701000890
:10007000B7010008B7010008810800088D080008D2
:10008000B7010008B7010008B7010008B701000870
:10009000B7010008B7010008B7010008B701000860
:1000A000B7010008B7010008B7010008B701000850
:1000B000B7010008B7010008E93D0008B7010008D2
:1000C000B7010008B7010008B7010008053C0008A7
:1000D000B70100086D430008B7010008B701000828
:1000E000B7010008B7010008B701000800F002F8E6
:1000F00000F045F80AA090E8000C82448344AAF17D
:100100000107DA4501D100F03AF8AFF2090EBAE87A
:100110000F0013F0010F18BFFB1A43F0010318473B
:10012000F45E0000145F0000103A24BF78C878C164
:10013000FAD8520724BF30C830C144BF04680C60ED
:10014000704700000023002400250026103A28BF35
:1001500078C1FBD8520728BF30C148BF0B60704739
:10016000642900F0BD80752900F0BA80732900F081
:100170004683002070471FB51FBD10B510BD00F0AD
:1001800048FB1146FFF7F7FF04F05CF900F066FB4F
:1001900003B4FFF7F2FF03BC00F06AFB0948804795
:1001A00009480047FEE7FEE7FEE7FEE7FEE7FEE759
:1001B000FEE7FEE7FEE7FEE704480549054A064B71
:1001C00070470000E73D0008ED000008B808002077
:1001D000B80E0020B80A0020B80A00200FB41CB5E1
:1001E000084B06AA7B4469460090059800F0D5FAB2
:1001F00004460020694600F0E3FA20461CBC5DF886
:1002000014FB0000D90500000FB47CB50C0009AA4E
:10021000009001D02044401E084B7B446946019069
:10022000089800F0BAFA05461CB10020694600F0B3
:10023000C7FA28467CBC5DF814FB0000AD05000041
:1002400070B5044685690068C10601D5302600E016
:100250002026C00707D070BDD4E901213046904761
:10026000206A401C20626D1EF6D570BD70B5044634
:1002700085690078C00707D170BDD4E9012120202D
:100280009047206A401C20626D1EF6D570BD70B587
:100290000C460546012A05D02878800600D5EA6973
:1002A000002302E0012305E05B1C934202D2E05CE4
:1002B0000028F9D1A869E618C01AA861286A18446C
:1002C00028622846FFF7BCFF04E0D5E9012114F8B5
:1002D000010B9047B442F8D32846FFF7C7FF70BD23
:1002E0002DE9F0410646002410687529314616A50F
:1002F00010D0AFF30080002802DA404213A507E0D7
:1003000031688A0701D512A502E0490704D511A575
:10031000012401E0AFF3008000210A2206F1240746
:1003200009E0B0FBF2FCB0FBF2F302FB1C00303042
:1003300078541846491C0028F3D123462A463046F3
:10034000BDE8F04100F0CAB9000000002D00000037
:100350002B000000200000002DE9F05F89460446D4
:100360004FF0000ADFF874B1FB44C0F820A020462B
:10037000E1688847002874D0252806D0D4E90121F7
:100380009047206A401C2062F1E700265F46204625
:10039000E16888472028054607DB312D05D278190A
:1003A00010F8200C08B10643F1E7B00701D526F09C
:1003B0000406C4F81CA00027C4F818A02A2D09D0F0
:1003C000284604F010F838B304EB8708303DC8F82D
:1003D000185019E059F8041B204604EB870291617C
:1003E000E1688847012F054618D1E069002820DA26
:1003F00026F020061DE0D8F8180000EB800005EB81
:1004000040003038C8F818002046E16888470546A3
:1004100003F0E9FF0028EED1012F0AD02E2D08D1DC
:100420002046E16888477F1C0546022F46F02006DB
:10043000C4DBA069002803DA404246F00106A0614F
:10044000F00701D026F010066C2D0BD0682D09D0D6
:100450004C2D39D06A2D35D0742D35D07A2D33D02E
:1004600016E038E0E1682F4620468847B842054646
:1004700009D16C2F26D04FF48060E16806432046F6
:100480008847054604E06C2F1AD04FF4807006436D
:100490000DB3A5F14100192802D8203546F40066B5
:1004A0004A462946204626604E46FFF759FE80B14F
:1004B00001280BD0F61D26F0070000F1080956E7C9
:1004C0004020E4E78020D8E70020D6E706F10409C1
:1004D0004DE7284652E7206ABDE8F09F1A5C00000D
:1004E000401ECAB210F8011F8A4202D00029F9D179
:1004F0000020704730B505460B462A4613F8014BDD
:1005000012F8010B08B1A042F8D01CB1002802D0AB
:100510006D1CF1E7284630BD10B5431C02E010F811
:10052000011B71B18107FAD14FF0013202C88C1A58
:100530008C4314EAC211F9D0C01A0A0603D0C01EB7
:1005400010BDC01A10BD0A0401D0801E10BD0902E2
:10055000FCD0401E10BD032A40F2308010F0030C86
:1005600000F0158011F8013BBCF1020F624498BF06
:1005700011F801CB00F8013B38BF11F8013BA2F1A3
:10058000040298BF00F801CB38BF00F8013B11F01E
:10059000030300F02580083AC0F0088051F8043BBE
:1005A000083A51F804CBA0E80810F5E7121D5CBF2B
:1005B00051F8043B40F8043BAFF30080D20724BF5E
:1005C00011F8013B11F801CB48BF11F8012B24BFF2
:1005D00000F8013B00F801CB48BF00F8012B704741
:1005E00010B5203AC0F00B80B1E81850203AA0E8CE
:1005F0001850B1E81850A0E81850BFF4F5AF5FEA02
:10060000027C24BFB1E81850A0E8185044BF18C9B4
:1006100018C0BDE810405FEA827C24BF51F8043B5B
:1006200040F8043B08BF7047D20728BF31F8023BAF
:1006300048BF11F8012B28BF20F8023B48BF00F843
:10064000012B70474FF000020429C0F0128010F017
:10065000030C00F01B80CCF1040CBCF1020F18BF9E
:1006600000F8012BA8BF20F8022BA1EB0C0100F031
:100670000DB85FEAC17C24BF00F8012B00F8012B04
:1006800048BF00F8012B70474FF0000200B5134639
:1006900094469646203922BFA0E80C50A0E80C50A2
:1006A000B1F12001BFF4F7AF090728BFA0E80C5053
:1006B00048BF0CC05DF804EB890028BF40F8042B4C
:1006C00008BF704748BF20F8022B11F0804F18BFB9
:1006D00000F8012B70477047704770472DE9F047CD
:1006E0000D4699469246044600F1240801688806A2
:1006F00004D5E06921F01001216000E00120A8424A
:1007000001DD471B00E00027A1697A1902EB09000F
:10071000081AA0612078C00602D42046FFF790FD99
:10072000002608E0D4E901211AF806009047206A63
:10073000401C761C20624E45F4DB2078C0060AD5AA
:100740002046FFF77DFD06E0D4E9012130209047E7
:10075000206A401C2062381EA7F10107F4DC07E084
:10076000D4E9012118F805009047206A401C206256
:10077000281EA5F10105F3DC2046FFF777FD207860
:10078000000602D50220BDE8F0870120FBE700004B
:1007900001694A1C02610878704700B58FB0CDE945
:1007A00001310021059105497944CDE90310114635
:1007B0006846FFF7D1FD0FB000BD0000E5FFFFFF69
:1007C0000A6802F8010B0A607047D1E900239A42D7
:1007D00002D2531C0B601070704710B5436913B1FF
:1007E000AFF3008001E0FFF752FD012010BD127849
:1007F00000F124010A7000224A700122EDE711681D
:100800004FF0FF32E9E70000004870475808002029
:1008100070477546FFF7F8FFAE4605006946534638
:1008200020F00700854618B020B5FFF7C5FCBDE8ED
:1008300020404FF000064FF000074FF000084FF047
:10084000000B21F00701AC46ACE8C009ACE8C009D8
:10085000ACE8C009ACE8C0098D46704710B5044645
:10086000AFF300802046BDE81040FFF791BC0000C8
:1008700001491820ABBEFEE726000200FEE700009B
:10088000014801F04BB9000050010020014801F07F
:1008900045B900009401002030B590F84050012483
:1008A000AC40C56B6C60046863604368102B0368E0
:1008B00003D099600068C26030BD9A600068C16072
:1008C00030BD00001FB50020019002900390402031
:1008D00000906946014801F043FA1FBD000C014039
:1008E0001FB50020029040200090012001900320BD
:1008F000054C03906946204601F032FA012240215E
:10090000204601F022FB1FBD000C0140002100EB3E
:10091000800001E000BF491CB1EB400FFAD37047E3
:1009200010B504468C2000F07FF800F00F0100099C
:1009300000EB800001EB40002070882000F074F88C
:1009400000F00F01000900EB800001EB4000607037
:10095000862000F069F800F00F01000900EB80002C
:1009600001EB4000A0708A2000F05EF800F00F015B
:10097000000900EB800001EB4000E070842000F0F3
:1009800053F800F00F01000900EB800001EB40007C
:100990002071822000F048F800F00F01000900EB00
:1009A000800001EB40006071802000F03DF800F015
:1009B0000F01000900EB800001EB4000A07110BDA9
:1009C0002DE9FF414FF40045002001240095CDE9B9
:1009D00001400320124E03906946304601F0C0F9F1
:1009E0004020CDE900040F4F6946384601F0B8F9C0
:1009F0008020CDE900046946384601F0B1F90022B3
:100A00002946304601F0A1FA00228021384601F043
:100A10009CFA00224021384601F097FABDE8FF8198
:100A200000080140000C01402DE9F0473D4D002435
:100A300040F0010722468021284601F086FA012075
:100A4000FFF764FFDFF8E0A04FF4004800224146C2
:100A5000504601F07AFA0120FFF758FF0122802169
:100A6000284601F072FA0120FFF750FFA9464546DB
:100A70000026D046F80701D0012200E000224021E4
:100A8000484601F062FA0120FFF740FF01222946A3
:100A9000404601F05AFA0120FFF738FF00222946AC
:100AA000404601F052FA0120FFF730FF761C7F0824
:100AB000F6B2082EDED3FFF705FF0120FFF726FF71
:100AC0000026474664084021484601F039FA08B13B
:100AD00044F080040120FFF719FF0122294638461F
:100AE00001F033FA0120FFF711FF002229463846B2
:100AF00001F02BFA0120FFF709FF761CF6B2082E51
:100B0000E0D3FFF7EDFE0120FFF700FF0022802178
:100B1000484601F01AFA0120FFF7F8FE2046BDE82A
:100B2000F0870000000C0140000801407047000001
:100B3000054806494FF47A720068B0FBF1F00449A9
:100B400008605043486070471000002040420F008A
:100B50001800002010B54FF400710348FFF772FD34
:100B600002490020088010BDD80100201400002098
:100B70002DE9F04FADF20C4D78A179A000F064FEA4
:100B80004FF4FA74204603F035FC74A179A000F00C
:100B90005BFE204603F02EFC804981A0CDE90001D8
:100BA00082A384A24FF4007102A8FFF72DFB8CA052
:100BB00000906423162295A19A4802F00CFC0027AD
:100BC000DFF864823E46B9464FF47A7B42F20F7AF0
:100BD0006423182295A1934802F0FDFB64230B22A5
:100BE00099A1904802F0F7FB02A8FFF795FC82B2AA
:100BF0005C465B4602A98B4802F0EDFB64230222AF
:100C00005BA1884802F0E7FBFFF7A4FF204603F052
:100C1000F1FB02A8FFF780FC82B241F2883302A9FF
:100C20008D4802F0D8FB40F2DC5003F0E3FB544661
:100C3000B8F800004546002852D04FF4967003F0F3
:100C4000D9FB2D88B5F5007F01D340F2FF152A4668
:100C5000824982A8FFF77FFC82A9002048556423BF
:100C60000A227FA16F4802F0B6FB4DB182A8FFF7C0
:100C700053FC82B24FF4FA7382A96A4802F0ABFBCC
:100C8000642302223AA1674802F0A5FB33A182A89F
:100C9000FFF730FC08B1012606E074A182A8FFF737
:100CA00029FC98B10126B146FFF754FF64231222B4
:100CB00072A15C4802F08FFBB9F1000F21D06423D0
:100CC000192273A1574802F086FB1AE077A182A887
:100CD000FFF710FC10B1FFF73DFF07E0FFF73AFF09
:100CE0000A2003F087FB641EA4B2A1D26423212250
:100CF00070A14C487F1C02F06EFB40F6B83003F048
:100D000079FB0A2F03DA002E3FF462AF00E01EB138
:100D1000B9F1000F04D015E0642325226EA118E07C
:100D20006423142276A13F4802F055FB4FA100989E
:100D300000F08AFD4FF0640348B1142276A13948CF
:100D400002F049FB01200DF20C4DBDE8F08F162298
:100D500076A1344802F03FFB0020F4E74F4B00003F
:100D600041542B4D515454444953434F4E4E3D3002
:100D70000D0A000041542B4D5154545553455243D4
:100D800046473D302C302C22222C22222C22222C91
:100D9000302C302C22220D0A00000000985F000841
:100DA0006455356A5667314C396200007465737456
:100DB0000000000041542B4D5154545553455243AB
:100DC00046473D302C312C222573222C22257322BC
:100DD0002C222573222C302C302C22220D0A0000CC
:100DE00041542B4D515454434F4E4E3D302C226DA7
:100DF000717474732E6865636C6F7564732E636FA2
:100E00006D222C313838332C310D0A00436F6E6659
:100E100069677572696E67204D5154542E2E2E0DE0
:100E20000A000000080100201400002054727969B3
:100E30006E67204D51545420555345524346472E1A
:100E40002E2E0D0A000000002D2D53454E44204348
:100E50004D443A2000000000C0000020D8010020CE
:100E60002D2D4553502052583A2000002B4D5154FF
:100E700054434F4E4E454354454400004D51545445
:100E80002055534552434647204F4B0D0A00000062
:100E90004D515454206175746F2D636F6E6E656390
:100EA000746564204F4B0D0A000000004552524FFC
:100EB000520000004D51545420555345524346476B
:100EC000206661696C65642C207265747279696E44
:100ED000672E2E2E0D0A00004D51545420555345B7
:100EE00052434647206661696C656420616674659B
:100EF0007220313020617474656D7074730D0A0056
:100F0000436F6E6E656374696E67204D5154542E45
:100F10002E2E0D0A000000004D51545420636F6EB8
:100F20006E6563746564204F4B0D0A004D51545437
:100F300020636F6E6E656374206661696C65640D15
:100F40000A00000000B5A1B011A0009013A316A2E2
:100F5000802101A8FFF758F96423132218A11E4825
:100F600002F039FA1DA101A800F06EFC4FF06403F5
:100F700038B114221BA1184802F02DFA012021B02B
:100F800000BD16221CA1144802F025FA0020F6E745
:100F90006A64373137373138000000006A696E679C
:100FA000646138333000000041542B43574A4150AC
:100FB0003D222573222C222573220D0A00000000F9
:100FC000436F6E6E656374696E6720576946692E5C
:100FD0002E2E0D0A0000000008010020474F54206B
:100FE000495000005769466920636F6E6E656374EF
:100FF0006564204F4B0D0A005769466920636F6E88
:101000006E656374206661696C65640D0A0000009A
:1010100070B540F2FF123349334802F0B7F9642348
:101020000B2232A1354802F0D6F935A135A000F0E7
:101030000BFC4FF4FA754FF0640390B10B222BA117
:101040002E4802F0C8F9284603F0D4F964231C2284
:101050002EA12A4802F0BFF929A134A000F0F4FB28
:1010600004E01E2234A1254802F0B5F9284603F019
:10107000C1F964230B2238A1204802F0ACF9002406
:101080001FA139A000F0E0FB28B9C82003F0B2F995
:10109000641C032CF4DB1AA135A000F0D5FB4FF043
:1010A000640310B1132236A101E022223AA11348B1
:1010B00002F091F9284603F09DF911A13FA000F03C
:1010C000C3FB4FF0640310B1112240A101E02022C4
:1010D00043A10A4802F07FF92846BDE8704003F0BA
:1010E00089B90000D8010020C000002041542074BC
:1010F000657374204F4B0D0A0000000008010020AA
:101100004F4B000041540D0A000000004368656326
:101110006B696E67204553503832363620766572DB
:1011200073696F6E2E2E2E0D0A00000041542B475E
:101130004D520D0A00000000415420746573742064
:101140006661696C65642C207265747279696E677A
:101150002E2E2E0D0A000000415420746573742059
:101160004F4B310D0A000000415445300D0A00007C
:1011700041542B43574D4F44453D310D0A0000006B
:1011800043574D4F44452073657420746F203120C0
:101190004F4B0D0A000000005365742043574D4F1C
:1011A0004445206661696C65642C207265747279AF
:1011B000696E672E2E2E0D0A0000000041542B434D
:1011C00057444843503D312C310D0A0044484350A8
:1011D00020656E61626C6564204F4B0D0A00000053
:1011E0005365742044484350206661696C65642CE3
:1011F000207265747279696E672E2E2E0D0A0000BA
:1012000000B5ADF5037D002845D0002943D08DE819
:101210000E00034621A24FF4007103A8FEF7F4FF6D
:1012200064230B2225A1284802F0D5F803A8FFF774
:1012300073F982B24FF4FA7303A9234802F0CBF892
:10124000642302221CA1204802F0C5F8FFF782FCAB
:1012500003A8FFF761F982B24FF47A6303A91B4830
:1012600002F0B9F841F2883119A000F09FFB18B1E3
:1012700001200DF5037D00BD642116A000F096FB52
:101280004FF0640310B1162214A101E0172219A136
:101290000D4802F0A0F80020EBE7000041542B4D70
:1012A0005154545055423D302C222573222C222576
:1012B00073222C25642C25640D0A00002D2D534526
:1012C0004E4420434D443A0008010020C000002055
:1012D0004F4B00004552524F520000002D2D4553F8
:1012E00050207075626C697368204552524F520DE0
:1012F0000A0000002D2D455350207075626C6973F3
:10130000682074696D656F75740D0A0000B5C1B011
:101310000346009124A24FF4807101A8FEF774FFE8
:1013200064230B2226A12A4802F055F801A8FFF7F2
:10133000F3F882B24FF4FA7301A9254802F04BF892
:10134000642302221DA1224802F045F864231A22D8
:1013500020A11F4802F03FF825A101A800F074FA6F
:101360004FF0640310B1192222A110E0242228A119
:10137000174802F030F8C82003F03CF81CA101A87F
:1013800000F062FA4FF0640338B121222AA110481C
:1013900002F021F8012041B000BD24222FA10C4809
:1013A00002F019F80020F6E741542B4D51545453E4
:1013B00055423D302C222573222C25640D0A000055
:1013C0002D2D53454E4420434D443A20000000004B
:1013D000080100205375627363726962696E672049
:1013E000746F20746F7069632E2E2E0D0A0000003A
:1013F0004F4B00004D5154542073756273637269F2
:10140000626520535543434553530D0A00000000C5
:101410004D5154542073756273637269626520463E
:1014200041494C45442C207265747279696E672E6F
:101430002E2E0D0A000000004D5154542073756289
:1014400073637269626520535543434553532028A3
:101450007265747279290D0A000000004D515454D0
:1014600020737562736372696265204641494C4519
:10147000442061667465722072657472790D0A0089
:10148000F0B56E4FADF2944D38884FF4FF75A84219
:1014900003D83E88002E79D001E040F2FF16324694
:1014A000674980A8FFF757F800243C80644864230C
:1014B0000E22047080A863A18455664801F08BFF5A
:1014C00080A8FFF729F882B24FF4FA76334680A954
:1014D000604801F080FF642302225FA15D4801F0B3
:1014E0007AFF5EA180A8FFF705F840B17B2180A8B4
:1014F000FEF7F6FF38B1002211466F4613E0642371
:1015000020225AA193E06423182260A18FE07B2B54
:1015100002D07D2B02D002E0521C00E0521E7B5410
:10152000401C491C1AB103780BB1A942EFDD7C5471
:1015300000294FF064032AD016225AA1454801F031
:101540004AFF6846FEF7E8FF82B2334669464148E3
:1015500001F041FF642302223FA13E4801F03BFF1E
:101560006423262255A13B4801F035FF5DA1684662
:10157000FEF7C0FF5E4E4FF4004558B164230A22C7
:101580005CA1344801F027FF002210E052E0152250
:101590005BA14CE05FA16846FEF7ACFF4FF064032F
:1015A00050B109225EA12B4801F015FF0122294606
:1015B000304600F0CAFC04E01E225CA1254801F080
:1015C0000AFF6423202261A1224801F004FF67A1E1
:1015D0006846FEF78FFF88B1861D22213046FEF750
:1015E0007FFF05000AD02C70334662A280210DF5E2
:1015F0008060FEF709FE2220287008E000F0AAFCB7
:10160000034669A280210DF58060FEF7FDFD64238D
:101610001B2272A10F4801F0DEFE00231A460DF5D1
:10162000806175A0FFF7ECFD64231C227EA10948B0
:1016300001F0D1FE0DF2944DF0BD00001400002029
:10164000D80100202D2D50524F434553532052585E
:101650003A200000080100200D0A00002B4D5154D3
:1016600054535542524543560000000044454255EC
:10167000473A204E6F7420612053554252454356DD
:10168000206D6573736167650D0A0000444542551E
:10169000473A204E6F204A534F4E20666F756E6456
:1016A0000D0A000044454255473A2045787472615E
:1016B00063746564204A534F4E3A200044454255B6
:1016C000473A205573696E672073696D706C69665F
:1016D000696564204C454420636F6E74726F6C0DB5
:1016E0000A000000224C4544223A747275650000DD
:1016F000001001404C454431204F4E0D0A000000BF
:1017000044454255473A20456D707479204A534FFD
:101710004E0D0A00224C4544223A66616C73650006
:101720004C454431204F46460D0A00004445425581
:10173000473A204C45442076616C7565206E6F7485
:1017400020666F756E640D0A000000004445425526
:10175000473A204372656174696E67207265706CE8
:1017600079207061796C6F61640D0A0022696422CE
:101770003A2200007B226964223A222573222C221D
:10178000636F6465223A3230302C226461746122C6
:101790003A6E756C6C2C226D7367223A22737563F6
:1017A00063657373227D00007B226964223A2225DF
:1017B0006C75222C22636F6465223A3230302C2201
:1017C00064617461223A6E756C6C2C226D736722B1
:1017D0003A2273756363657373227D0044454255F5
:1017E000473A205075626C697368696E672072654C
:1017F000706C790D0A000000247379732F645535DD
:101800006A5667314C39622F746573742F74686936
:101810006E672F70726F70657274792F7365745F65
:101820007265706C7900000044454255473A20507B
:10183000726F63657373696E6720636F6D706C653B
:1018400074650D0A000000002DE9F04FADF5017D33
:101850008B46044640F6B835FFF77CF92046FEF784
:101860005BFE82B2C82321463E4801F0B4FD32201F
:1018700002F0C0FD3C4F4FF4007940F2FF18002603
:101880004FF4FA7A49E000BF00F0C4F8002841D0D4
:10189000C82002F0AFFD3C884C4500D344462246A8
:1018A00032496846FEF757FE0DF8046064230822AB
:1018B0002FA1314801F08FFD64230A222FA12E4869
:1018C00001F089FD44B16846FEF726FE82B2534618
:1018D0006946294801F07FFD642302222AA1264897
:1018E00001F079FDBBF100000BD001466846FEF720
:1018F00001FE30B1FFF72EF901200DF5017DBDE8A5
:10190000F08F22A16846FEF7F5FD18B1FFF722F926
:101910000020F2E70A2002F06DFD6D1EADB2B3D2D9
:101920003C884C4500D34446224610496846FEF7A1
:1019300012FE0DF804606423152216A10E4801F072
:101940004AFD44B16846FEF7E7FD82B25346694658
:10195000094801F040FD642302220BA1064801F072
:101960003AFDD3E7C000002014000020D801002079
:1019700068656C6C6F323200080100202D2D4553D4
:10198000502052583A2000000D0A00004552524F94
:10199000520000002D2D455350205258206F6E20CC
:1019A00074696D656F75743A200000002DE9F04F81
:1019B00083460A20B1FBF0F5ADF5017D134E4FF4DF
:1019C000007940F2FF1A0027E8461BE00A2002F0E7
:1019D00011FD3488B4B14C4500D3544622460C491D
:1019E0006846FEF7B8FD08F80470BBF1000009D0A6
:1019F00001466846FEF77EFD20B101200DF5017D10
:101A0000BDE8F08F28466D1EE0D2F7E714000020F5
:101A1000D80100200748018839B1018842889142E5
:101A200005D10021418001207047002070470188C6
:101A30004180FAE71400002072B6FEE710B590F876
:101A400021100022022905D00421816380F8202082
:101A5000012010BD01680B6823F00E030B600168C4
:101A60000B6823F001030B6090F84030C46B012138
:101A700001FA03F3636080F8211080F820201046FB
:101A800010BD000010B590F821100024022903D0E9
:101A90000421816301243DE001680A6822F00E02FE
:101AA0000A6001680A6822F001020A601A4A0168A5
:101AB000914201D1012121E0174A1432914201D112
:101AC00010211BE0144A2832914201D1891515E0FA
:101AD000114A3C32914201D189140FE00E4A503232
:101AE000914202D14FF4803108E00B4A64329142B6
:101AF00002D14FF4801101E04FF08071064A083A9C
:101B00005160012180F82110002180F82010416BE4
:101B100001B18847204610BD080002402DE9F05F62
:101B2000C16B0C6801680B68D0F840C0042202FA4F
:101B30000CF2494DDFF824A1494E4A4FDFF828B195
:101B4000DFF828E122422CD05A072AD50A689206EB
:101B500003D40A6822F004020A600168A94201D194
:101B6000042219E0514501D1402215E0B14202D1D1
:101B70004FF4806210E0B94202D14FF480420BE092
:101B8000594502D14FF4802206E0714502D14FF44D
:101B9000800201E04FF080622F4908394A60C16A33
:101BA0003BE04FF0020808FA0CF818EA040F4FF077
:101BB00000094FF0010235D05FEA837832D50B6817
:101BC0009B0605D40B6823F00A030B6080F82120E4
:101BD0000168A94201D1022219E0514501D1202218
:101BE00015E0B14202D14FF4007210E0B94202D1C7
:101BF0004FF400520BE0594502D14FF4003206E099
:101C0000714502D14FF4001201E04FF00072124909
:101C100008394A6080F82090816A00291AD0BDE80E
:101C2000F05F0847082505FA0CF5254212D01B077E
:101C300010D50B6823F00E030B6090F84010C36BB7
:101C400002FA01F15960826380F8212080F8209027
:101C5000016BE2E7BDE8F09F080002401C00024073
:101C60003000024044000240580002406C00024034
:101C700030B528B308C8134914221944B1FBF2F156
:101C80008900C16310498163022141771A6843F6D4
:101C9000F0718A43D0E900142143D0E902452C4376
:101CA0002143046921434469214384692143114349
:101CB000196000214163012242770177084630BD57
:101CC000012030BDF8FFFDBF0000024070B50446A2
:101CD00090F82000002501280CD0012084F8200075
:101CE00094F821600020012E06D084F820000225FF
:101CF000284670BD022070BD022684F82160A063D2
:101D00002068066826F0010606602046FEF7C4FD3E
:101D1000E06A00282068016802D041F00E0106E068
:101D200021F0040101602068016841F00A010160AE
:101D30002068016841F001010160D9E770B50446EF
:101D400000F008F90546601C02D0044800780444FD
:101D500000F000F9401BA042FAD370BD040000203F
:101D60002DE9F84FDFF8B8910024A9F1040B2346C0
:101D70000F2709F1040AABF1040EC9E00125A540C3
:101D80002A40AA427DD1674ED1F804C0ACEB0608C8
:101D9000B44532D014DCBCF1030F3AD009DCBCF1FD
:101DA000000F2AD0BCF1010F1CD0BCF1020F31D1C1
:101DB0001DE0BCF1110F17D0BCF1120F2AD119E0B0
:101DC000B8F5881F19D006DCB8F5803F15D0B8F5F6
:101DD000801F1FD111E0B8F5001F0ED0B8F5041F09
:101DE00018D10AE0CB6815E0CB681B1D12E0CB6868
:101DF00008330FE0CB680C330CE08B682BB1012B60
:101E00004FF0080303D0456104E0042302E00561BC
:101E100000E00023FF2A01D8064601E000F1040695
:101E20004FEA840501D9A5F12005D6F8008007FA0C
:101E300005FC28EA0C0803FA05F548EA0508C6F887
:101E400000804D68ED0062D5374DAE6946F0010661
:101E5000AE61AD6924F0030605F001050095334D30
:101E600006EB050CDCF80850A607360F07FA06F853
:101E700025EA0805DFF8B880404503D14FF0000897
:101E800017E044E0DFF8AC80404502D14FF0010894
:101E90000FE0DFF8A480404502D14FF0020808E0CF
:101EA000DFF89880404502D14FF0030801E04FF081
:101EB000040808FA06F848EA0508CCF808804D68D6
:101EC000D9F80060ED024D4601D5164300E0964377
:101ED0002E604D68DAF80060AD02554601D5164314
:101EE00000E096432E604D68DBF80060AD035D4670
:101EF00001D5164300E096432E604D68DEF8006081
:101F0000ED03754601D5164300E096432E60641C30
:101F10000D682A46E5407FF431AFBDE8F88F000038
:101F200008040140000011100010024000000140B0
:101F300000080140000C0140001001400014014065
:101F40008068084000D0012070470AB101617047E5
:101F50000904FBE701488068704700000400002086
:101F600002488168027811448160704704000020B3
:101F7000074810B5016841F010010160032000F02E
:101F800075F80F2000F006F800F024F8002010BDCE
:101F90000020024070B50D4D04464FF47A71287848
:101FA000B1FBF0F00A490968B1FBF0F000F0E0FC89
:101FB00048B9102C07D200222146501E00F036F8F6
:101FC00000206C6070BD012070BD00000400002086
:101FD000100000200C4808B5816941F001018161C1
:101FE000816901F001010091C16941F08051C16135
:101FF000C06900F0805000900448416821F0E06121
:1020000041F00071416008BD001002400000014035
:10201000002809DB00F01F020121914040098000E7
:1020200000F1E020C0F8001170470000F0B40E4B42
:102030001B680C46C3F30223C3F10705042D00D926
:102040000425191D072901D2002300E0DB1E01260B
:1020500006FA05F1491E214099409E40761E164021
:102060003143F0BC02F0AFB90CED00E0064900F0DE
:10207000070208684FF6FF03184040EA0220034AAF
:1020800010430860704700000CED00E00000FA0506
:102090002DE9F0470F46050061D0434E306800F04F
:1020A0000700B84209D2306820F00700384330609A
:1020B000306800F00700B84251D128683B4C8107D6
:1020C00012D5400703D5606840F4E060606028786E
:1020D000000703D5606840F4605060606068A968DC
:1020E00020F0F000084360602878C00728D06868B6
:1020F000012810D02168022810D0890700292EDA83
:10210000616821F0030101436160FFF723FF80460E
:1021100041F288390DE021688903EFE78901EDE795
:10212000FFF718FFA0EB0801494502D90320BDE8DD
:10213000F0876068696800F00C00B0EB810FEFD1A8
:10214000306800F00700B8420BD9306820F0070073
:1021500038433060306800F00700B84201D00120F9
:10216000E5E72878400705D56068E96820F4E06075
:10217000084360602878000706D56068296920F464
:10218000605040EAC100606000F038F86168084AB9
:10219000C1F30311515CC840064908600648006855
:1021A000FFF7F8FE0020C2E70020024000100240C6
:1021B000864500081000002008000020044805495A
:1021C00000684968044AC1F30221515CC840704765
:1021D0001000002000100240964500080448054900
:1021E00000684968044AC1F3C221515CC840704785
:1021F0001000002000100240964500080E4A516869
:102200000E4801F00C03042B11D0082B0FD10C4801
:10221000C1F38343C903C05C0AD55168084AC1F3BE
:102220004041921E515C054A5043B0FBF1F07047AB
:1022300004494843704700000010024000127A0031
:102240007645000800093D002DE9F84F040070D0E4
:102250002078C04DC00749D06868C0F381000128CC
:1022600007D06868C0F38100022809D16868C003FC
:1022700006D52868800339D560680028E7D035E0A6
:102280006068B0F5803F0BD010B1B0F5A02F11D031
:10229000286820F480302860286820F4802002E03C
:1022A000286840F480302860606890B1FFF752FEE3
:1022B00006460AE0286840F480202860F0E700BF66
:1022C000FFF748FE801B642873D828688003F7D581
:1022D0000CE0FFF73FFE064605E000BFFFF73AFEC1
:1022E000801B6428F0D828688003F7D420789A4EA1
:1022F00080074FF001094FF0000839D5686810F0E9
:102300000C0F07D06868C0F38100022809D1686803
:10231000C00306D42868800714D52069012808D195
:1023200010E02069B0B1C6F80090FFF713FE074631
:1023300005E00AE1FFF70EFEC01B0228C4D828689A
:102340008007F7D52868616920F0F80040EAC100ED
:1023500028600DE0C6F80080FFF7FCFD074604E0AA
:10236000FFF7F8FDC01B022823D828688007F7D4A0
:10237000207800072CD57948A169D9B1C0F8009020
:10238000FFF7E8FD074604E0FFF7E4FDC01B022865
:102390000FD8686A8007F7D571484FF4FA51006882
:1023A000B0FBF1F0009000BF0098411E0091FAD2FE
:1023B0000EE080E0C0F80080FFF7CCFD074604E0A7
:1023C000FFF7C8FDC01B022875D8686A8007F7D4DC
:1023D0002078400760D5E8690027C00008D4E86984
:1023E00040F08050E861E869012700F080500090DB
:1023F0005C480168C90513D40168834641F48071C3
:102400000160FFF7A7FD824606E000BFFFF7A2FDCF
:10241000A0EB0A0064284ED8DBF80000C005F5D513
:10242000E06801280AD008B1052813D0286A20F0F6
:1024300001002862286A20F0040002E0286A40F0C7
:1024400001002862E06841F2883B98B1FFF782FD05
:1024500082460BE0286A40F004002862EEE700BFE5
:10246000FFF778FDA0EB0A0159455AD8286A800782
:10247000F6D50CE0FFF76EFD824605E0FFF76AFD3A
:10248000A0EB0A0159454CD8286A8007F6D41FB141
:10249000E86920F08050E861E06988B36968C1F3B9
:1024A0008101022944D00228C6F8608004D0FFF7D9
:1024B00051FD044638E034E0FFF74CFD074604E0E8
:1024C000FFF748FDC01B02282BD828688001F7D4ED
:1024D000206AB0F5803F05D16868A16820F400301B
:1024E00008436860D4E908010843696821F474115D
:1024F00008436860C6F86090FFF72CFD044606E0CC
:1025000025E000BFFFF726FD001B022809D8286838
:102510008001F7D51BE000BFFFF71CFD001B022860
:1025200002D90320BDE8F88F28688001F4D40EE0BA
:102530000128F7D06868226A00F48031914204D102
:10254000616A00F47010884201D00120EAE700209F
:10255000E8E70000001002400000424280044242CE
:1025600010000020007000407047000038B504469D
:10257000006842688168C9434B0606D5CB0704D181
:10258000D3435B0601D4216C05E08B0708D4D34309
:102590001B0605D4616C01B02046BDE830400847F9
:1025A0008B0601D54B0646D4D3439B0643D44B063A
:1025B0000AD494F85130032B3ED0636D43F00403EA
:1025C0006365C36883680093890609D4616D41F02F
:1025D0000101616581680091016821F0400101609D
:1025E000606D002827D02068416821F0E00141603B
:1025F000012084F85100900722D02068416821F022
:1026000003014160104DE06C40B14563E06CFFF7A1
:1026100039FA18B1606D40F040006065A06C002888
:1026200009D04563A06CFFF72DFA002803D0606D38
:1026300040F04000606538BDC1688068009038BDDA
:102640002046FFF791FF38BD313C000870B504000B
:1026500009D0606A002540B125616561A56294F8E2
:10266000510040B10CE0012070BD6068B0F5827F80
:10267000F4D0E561F2E784F85050204600F040F8CD
:10268000022084F851002068016821F040010160B7
:10269000A088218900F4827001F404410843A189D3
:1026A00001F400610843217C01F002010843217D0F
:1026B00001F001010843218B01F400710843217FDF
:1026C00001F03801084394F8201001F0800108431C
:1026D000218D01F40051084321680860A06904219C
:1026E00001EA1040216848602068C16921F4006156
:1026F000C1616565012084F85100002070BD0000B3
:1027000030B585B0002400940194029403940068CD
:10271000184988422BD11848816941F48051816160
:10272000816901F480510491816941F00401816162
:102730008069124D00F004000490A0200090022057
:1027400001900320039069462846FFF709FB4020CB
:10275000CDE90004694628460294FFF701FB0022F8
:1027600011462320FFF762FC2320FFF751FC05B040
:1027700030BD000000300140001002400008014060
:102780002DE9FF4F81B01D46934604464FF00109E5
:102790000E9EFFF7DFFB074694F8510061680128A1
:1027A00006D0B1F5827F3CD1A168C9BB042838D1DD
:1027B0000298002871D0BBF1000FFBD0002DF9D09A
:1027C00094F8500001282CD04FF0010A84F850A052
:1027D00094F85100042802D0052084F851004FF0ED
:1027E0000008C4F85480C4F838B0E587A58702997A
:1027F0002163E586A586C4F84080C4F8448020683B
:102800000168490603D4016841F040010160E068B5
:10281000B0F5006F606808D0F0B3012D49D081E0B9
:10282000FFE7022005B0BDE8F08F08B1012D39D1D6
:10283000206B21680088C860206B801C2063E08EBC
:10284000401EE0862EE02068816889070FD5E18E62
:1028500069B1B9F1010F0AD1216B0988C160206B00
:10286000801C2063E08E401EE0864FF00009206847
:102870008168C9070CD0E18F51B1C068A16B088095
:10288000A06B801CA063E08F401EE0874FF0010921
:10289000FFF760FBC01B01E00BE067E0B04201D333
:1028A000701C50D1E08E0028CDD1E08F0028CAD115
:1028B0003EE0206B216800780873206B401C206389
:1028C000E08E401EE0862DE02068816889070FD5E4
:1028D000E18E69B1B9F1010F0AD1216B0978017359
:1028E000206B401C2063E08E401EE0864FF0000904
:1028F00020688168C9070CD0E18F51B1C068A16B15
:102900000870A06B401CA063E08F401EE0874FF072
:102910000109FFF71FFBC01BB04202D3701C01D09E
:1029200011E086B1E08E0028CED1E08F0028CBD117
:102930003A463146204601F083F950B120206065C7
:1029400084F8508012E084F851A084F8508003206D
:1029500068E7A06818B92068C1688068009084F8AA
:1029600051A084F85080606D0028F1D0012059E713
:1029700010B5401EB0F1807F01D3012010BD4FF093
:10298000E02460610F21601701F01DFD0020A061AF
:1029900007202061002010BD7047704770B590F887
:1029A0003C20012A26D0012480F83C40022280F8F5
:1029B0003D2003685A689D6822F070060A68324319
:1029C0005A600D4B02689A4208D0B2F1804F05D090
:1029D0000A4B9A4202D00A4B9A4204D1496825F028
:1029E00080031943916080F83D40002180F83C103D
:1029F000084670BD022070BD002C0140000400405C
:102A00000008004010B5040003D094F83D0010B158
:102A100007E0012010BD002084F83C00204600F0B3
:102A20001FF8022084F83D00211D206801F0E2F922
:102A3000012084F8460084F83E0084F83F0084F8C2
:102A4000400084F8410084F8420084F8430084F890
:102A5000440084F8450084F83D00002010BD0000CB
:102A600008B500680B49884212D10B48C16941F092
:102A70000401C161C069002200F00400009003213C
:102A80001E20FFF7D3FABDE808401E20FFF7C0BAAA
:102A900008BD0000000800400010024090F83D1002
:102AA000012901D001207047022180F83D10016802
:102AB000CA6842F00102CA6000680B49884208D027
:102AC000B0F1804F05D00949884202D008498842B8
:102AD00004D1816801F00701062903D0016841F0A3
:102AE0000101016000207047002C014000040040FB
:102AF0000008004070B5044690F83C00002501280D
:102B000017D0012684F83C60022084F83D0020683C
:102B1000826822F0770222F47F428260086850289F
:102B200038D00DDC20284FD005DC90B3102811D10F
:102B30004AE0022070BD302846D040280AD13BE050
:102B400060282FD070280DD0B0F5805F03D0B0F58D
:102B5000005F12D0012584F83D60002084F83C001D
:102B6000284670BDCB68D1E90121206801F07EF9CB
:102B70002068816841F0770109E0CB68D1E9012143
:102B8000206801F073F92068816841F48041816018
:102B9000E1E719E0CA684968206801F079F9502135
:102BA000206806E0CA684968206801F082F960215F
:102BB000206801F065F9CEE7CA684968206801F02D
:102BC00067F940212068F4E7226801461046F0E7E3
:102BD00070472DE9F04104460068C66805694FF06A
:102BE0000007A90713D5B10711D5F91E016101200E
:102BF0002077206880698007204602D0FFF7E8FF31
:102C000004E000F07EF8204600F07CF827776807A3
:102C100016D5700714D521686FF0040008610220F2
:102C200020772068806910F4407F204602D0FFF7AB
:102C3000CFFF04E000F065F8204600F063F8277746
:102C4000280715D5300713D521686FF008000861F3
:102C5000042020772068C0698007204602D0FFF753
:102C6000B7FF04E000F04DF8204600F04BF827775E
:102C7000E80616D5F00614D521686FF0100008613B
:102C8000082020772068C06910F4407F204602D0D9
:102C9000FFF79EFF04E000F034F8204600F032F821
:102CA0002777E80708D0F00706D021686FF0010009
:102CB0000861204600F028F8280608D5300606D519
:102CC00021686FF0800008612046FFF765FE680606
:102CD00008D5700606D521686FF0400008612046CF
:102CE00000F01EF9A8060AD5B00608D521686FF0D5
:102CF000200008612046BDE8F041FFF74EBEBDE868
:102D0000F08170477047000030B500683E49CDB093
:102D1000884276D164231E223CA1444800F05BFB2C
:102D200040A8FDF7FDFD9DF802019DF806319DF8D4
:102D300005219DF804118DE80F009DF800219DF8F4
:102D400001313BA142A802F5FA62FDF747FA64237C
:102D500015223FA1354800F03EFB42A8FDF7DCFB01
:102D600082B2C82342A9314800F035FB6423022215
:102D70002DA12E4800F02FFB00F074FD012400214E
:102D8000082339A20846009400F0ACFE082342AAAA
:102D900010210020009400F0A5FE00F0FDFD64234A
:102DA0001A2233A1214800F016FB384C38A12088A4
:102DB000401C82B2228047A8FDF710FA47A8FDF711
:102DC000ABFB82B2642347A9184800F004FB2088BB
:102DD0000A2816D30025258032A24FF48071684658
:102DE000FDF712FA00231A46694600E009E03CA00C
:102DF000FEF706FA64230F2244A10C4800F0EBFA18
:102E000025804DB030BD0000000800402D2D5449F4
:102E10004D45523420494E54455252555054205439
:102E200052494747455245440D0A00000801002019
:102E3000253034642D253032642D25303264202530
:102E40003032643A253032643A2530326400000072
:102E50002D2D54494D45205245414420535543435F
:102E60004553533A2000000054696D653A00000054
:102E70002D2D4F4C454420444953504C415920433B
:102E80004F4D504C4554450D0A00000000000020F5
:102E90002D2D54494D455220434F554E543A20252F
:102EA000640D0A007B5C2269645C223A5C22313248
:102EB000335C225C2C5C22706172616D735C223A1F
:102EC0007B5C2274656D705C223A7B5C2276616C5F
:102ED00075655C223A33312E317D7D7D0000000026
:102EE000247379732F6455356A5667314C39622FD4
:102EF000746573742F7468696E672F70726F706574
:102F00007274792F706F7374000000002D2D50556E
:102F1000424C49534820444F4E450D0A00000000E2
:102F20007047704710B504460068406994F8411036
:102F3000C0F3C010212911D180B12068143050E8AD
:102F4000001F21F0800140E80012002AF5D1A06B9B
:102F500008B1FEF773FD204601F063F82068406970
:102F600094F84210C0F38010222911D180B120685A
:102F7000143050E8001F21F0400140E80012002A00
:102F8000F5D1E06B08B1FEF759FD204601F022F8BB
:102F9000002010BD70470000F8B5016804460868BD
:102FA000CA684B6910F00F0F4FF0000559D003F0BD
:102FB000010602F49077374365D0C10705D0D105EB
:102FC00003D5616C41F001016164410705D5D90762
:102FD00003D0616C41F002016164810705D5D90716
:102FE00003D0616C41F004016164010707D502F070
:102FF0002001314303D0616C41F008016164616CD0
:1030000000293AD0800604D5900602D5204601F06A
:1030100016F820684069616CC0F38010090700D47D
:1030200060B3204600F0D6FF20684069400621D5F5
:103030002068143050E8001F21F0400140E80012E1
:10304000002AF5D1E06BA8B16D494163E06BFEF752
:1030500019FD002811D0E06B416B01B0BDE8F040D4
:10306000084783060FD593060DD52046BDE8F840E6
:1030700000F0E5BF2046FFF78DFFF8BD2046FFF7C3
:1030800089FF6564F8BD266B2023012E7CD1C6061E
:103090007AD5D60678D508684868009048694FF018
:1030A0000206400640D5E16B086840680004000C49
:1030B000E8D0A28D8242E5D9E085886920282DD00C
:1030C00020680C3050E8001F21F4807140E80012A5
:1030D000002AF5D12068143050E8001F21F00101CA
:1030E00040E80012002AF5D12068143050E8001F93
:1030F00021F0400140E80012002AF5D184F8423066
:10310000256320680C3050E8001F21F0100140E8D2
:103110000012002AF5D1E06BFEF790FC6663A08DEB
:10312000E18D401A81B22AE0A08DE18D401A81B272
:10313000E08D0028A6D00029A4D022680C3252E8E5
:10314000000F20F4907042E80007002FF5D12068AE
:10315000143050E8002F22F0010240E80027002F31
:10316000F5D184F84230256320680C3050E8002FF8
:1031700022F0100240E80023002BF5D166632046C0
:10318000FFF7CFFEF8BDFFE705062BD5150629D5BD
:1031900094F841002128F5D1A068B0F5805F01D1F5
:1031A0002069B0B1206A411C216221680078486022
:1031B000E08C401E0004000CE084E3D12068C1686C
:1031C00021F08001C1602068C16841F04001C16008
:1031D000D8E7206A0088C0F308004860206A801C95
:1031E0002062E5E74006CDD55006CBD5CA6820461B
:1031F00022F04002CA6084F8413000F03CF9C1E797
:10320000D73E000870B5040004D094F841000025B2
:1032100010B106E0012070BD84F84050204600F057
:1032200023F8242084F841002068C16821F400516B
:10323000C160204600F064FF2068016921F49041DC
:1032400001612068416921F02A0141612068C1685B
:1032500041F40051C1606564202084F8410084F885
:1032600042006563002070BDF0B585B00024009475
:1032700001940294039406463E4F03683E4902209F
:1032800003223E4DBB4250D18B6943F480438B6196
:103290008B6903F4804304938B6943F004038B61CF
:1032A0008969039201F0040104910102CDE9001043
:1032B00069462846FEF754FD2815CDE90004694605
:1032C00028460294FEF74CFD2E4D2D48802701C55F
:1032D000102091C52B4845F810496C61AC61EC6138
:1032E000FEF7C6FC08B1FEF7A7FBB5636E62254D7D
:1032F000234844351430C5E90004C5E902472C6170
:103300006C61AC612846EC61FEF7B2FC08B1FEF7D7
:1033100093FBF5630022022125206E62FEF786FEF4
:103320002520FEF775FE05B0F0BD174EB342FAD169
:10333000CB6943F40033CB61CB6903F400330493CE
:103340008B6943F004038B618969039201F00401E6
:1033500004910421CDE9001069462846FEF700FDDE
:103360000820CDE90004694628460294FEF7F8FCDF
:10337000D9E7000000380140001002400008014079
:1033800044000240500100200044004090F84230C8
:10339000202B01D00220704721B11AB10023036312
:1033A00000F00ABF01207047074988420BD1074847
:1033B00040F2FF120280064B008800211954194682
:1033C0000148FFF7E3BF7047C00000201400002051
:1033D000D801002070472DE9F843044690F84100D9
:1033E000984616460D46202802D00220BDE8F883F4
:1033F00085B17EB100206064212084F84100FEF791
:10340000A9FDA6848146E684A0682027B0F5805FE8
:1034100002D003E00120E9E7206910B12E46002523
:103420000EE000260CE08021204600F00DFFA8B938
:10343000C6B116F8010B21684860E08C401EE0849C
:10344000E08C4B464FF00002CDF800800028EAD116
:103450004FF04001204600F0F7FE40B184F8417083
:103460000320C3E735F8020BC0F30800E3E784F854
:1034700041700020BAE77047FEE7000070B50122F6
:103480000E4D940321462846FEF75FFD01225603A8
:1034900031462846FEF759FD00F048F80022214643
:1034A0002846FEF752FD00F041F80022314628463A
:1034B000FEF74BFDBDE8704000F038B80010014049
:1034C00070B50B4D4FF48044002221462846FEF78C
:1034D0003CFD012251032846FEF737FD00F026F897
:1034E00021462846BDE870400122FEF72EBD0000AF
:1034F0000010014070B50C4C012291032046FEF7EC
:1035000024FD00F013F80122550329462046FEF75A
:103510001CFD00F00BF8002229462046FEF715FDA1
:10352000BDE8704000F002B8001001400320401ECA
:10353000C0B2FCD2704770B50C46054600F008F8E2
:1035400020EA04012846BDE8704000F029B80000D8
:1035500070B57E2101EA40000A4D40F0800400224F
:1035600010212846FEF7F1FC204600F051FB002018
:1035700000F04EFB0446012210212846FEF7E5FC30
:10358000204670BD0008014070B50C460546FFF7A7
:10359000DFFF40EA04012846BDE87040AFF3008039
:1035A00070B50E467E2101EA4004094D002210212B
:1035B0002846FEF7CAFC204600F02AFB304600F001
:1035C00027FB2846BDE8704001221021FEF7BDBC54
:1035D000000801400D4808B5416941F00101416111
:1035E0004069002200F00100009011460E20FEF715
:1035F0001DFD0E20FEF70CFD002211460F20FEF7E8
:1036000015FDBDE808400F20FEF702BD0010024086
:103610002DE9F04786B000254348009501950295B5
:103620000395816941F010018161816901F0100108
:103630000491816941F020018161816901F02001DB
:103640000491816941F004018161816901F0040103
:103650000491816941F0080181618069DFF8CC80C3
:1036600000F00800049001224FF4C0414046FEF7EC
:103670006CFC4FF40047002239464046FEF765FCDB
:10368000DFF8AC90012213214846FEF75EFCDFF81C
:10369000A4A0012240F601415046FEF756FC00224C
:1036A00039464846FEF751FC00224FF470715046EF
:1036B000FEF74BFC01244FF46040CDE900040326E3
:1036C000CDE9024669464046FEF74AFB1320CDE9A4
:1036D0000004CDE9024669464846FEF741FB40F644
:1036E0000170CDE90004CDE9024669465046FEF777
:1036F00037FB01AA0226009782E870006946484617
:10370000FEF72EFB38208DE8610069465046FEF733
:1037100027FBC0208DE8710069465046FEF720FB6C
:1037200006B0BDE8F0870000001002400010014024
:1037300000080140000C0140104810B50E4901601E
:103740004FF48271416000218160C1604FF40072CA
:103750000161C0E905121822C0E9072141628162B6
:103760000A21C162FEF772FF002803D0BDE81040B5
:10377000FEF762B910BD00000030014020000020BB
:1037800010B586B000241748009401940294039465
:10379000049413490594016041F61F41C0E90114E6
:1037A00042F20F71C0E903148461FFF72BF908B1ED
:1037B000FEF742F94FF48050009069460948FFF740
:1037C00099F908B1FEF738F9049404A9054805945D
:1037D000FFF7E4F8002801D0FEF72EF906B010BD7F
:1037E000000800407800002010B50E4C0C480C2159
:1037F00020604FF4E13060600020A060E060C4E928
:103800000401A061E0612046FFF7FCFC08B1FEF76F
:1038100013F92068C16841F01001C16010BD0000BB
:1038200000380140C00000200C4810B50A49016072
:103830004FF4E1314160002181600C22C160C0E998
:1038400004128161C161FFF7DDFC002803D0BDE8EF
:103850001040FEF7F1B810BD004400400801002000
:10386000FEE7FEE730B40021084B0A465FF0000097
:1038700003EBC004401CC0B262548028F8D3491C3A
:10388000C9B20829F2D330BC00F086B8D8030020B2
:1038900030B5CC0801F0070301259D40EBB2064D81
:1038A00005EBC005C808285C0AB1184302E063EACA
:1038B0000000C043285530BDD803002010B50021BA
:1038C000AE2000F02DF90021084600F029F9002172
:1038D000102000F025F90021402000F021F90021FE
:1038E000812000F01DF90021CF2000F019F90021FE
:1038F000A12000F015F90021C82000F011F90021E5
:10390000A62000F00DF90021A82000F009F90021FF
:103910003F2000F005F90021D32000F001F900213B
:10392000084600F0FDF80021D52000F0F9F800214C
:10393000802000F0F5F80021D92000F0F1F80021F6
:10394000F12000F0EDF80021DA2000F0E9F8002184
:10395000122000F0E5F80021DB2000F0E1F8002162
:10396000302000F0DDF80021202000F0D9F80021FF
:10397000022000F0D5F800218D2000F0D1F80021C0
:10398000142000F0CDF8FFF76DFF0021BDE81040D6
:10399000AF2000F0C5B8000070B5184E002400BF7D
:1039A00004F1B000C0B2002100F0BAF800210846CE
:1039B00000F0B6F80021102000F0B2F8FFF75EFD2D
:1039C000782000F0B5F9FFF795FD402000F0B0F940
:1039D000FFF790FD5FF0000506EBC500005D00F00D
:1039E000A7F9FFF787FD6D1CEDB2802DF4D3FFF72B
:1039F00067FD641CE4B2082CD2D370BDD80300204C
:103A00002DE9FC4F1C460E4682468B460190082B42
:103A10000DD0600700D0012000EBD40061084843BE
:103A2000C0B28146203AD0B2009000204BE0062080
:103A3000F7E7082C13D00C2C18D0102C1BD0182C06
:103A400044D10098234900EBC00000BF01EB800186
:103A5000002711F80850E80712D00B9A13E00098DD
:103A60001D4900EB400001EB4001F1E700981B49C4
:103A700000EB4000EAE71A49009801EB0011E7E784
:103A80000B9828B3002231465046FFF701FF761C01
:103A90007F1C6D08FFB2F6B2082FDCD30AF10100DB
:103AA00000F0FF0A082C0AD00199AAEB0100B0EB44
:103AB000540F04D10BF108008A4600F0FF0B08F107
:103AC00001005E46C0B280464845B2D3BDE8FC8FD7
:103AD0000122D8E72A5200089E450008C647000880
:103AE0003A4C00082DE9F8411E4615468846044622
:103AF000079F0BE03346414620460097FFF780FFC3
:103B0000082E0AD004EB5600C4B26D1C2A78A2F12C
:103B100020005E28EED9BDE8F881A41DE4B2F4E7E8
:103B200070B50C460546FFF7A9FC782000F000F9B7
:103B3000FFF7E0FC0CB1402000E0002000F0F8F8B6
:103B4000FFF7D8FC284600F0F3F8FFF7D3FCBDE8F8
:103B50007040FFF7B5BC03211420FFF7ECBC10B593
:103B60001420FFF7F5FC800705D10321BDE81040C4
:103B70001420FFF709BD10BD10B5204C01221146DD
:103B80002046FEF7E2F90220FEF7D8F800220121D4
:103B90002046FEF7DAF90220FEF7D0F8012211469E
:103BA0002046FEF7D2F90220FEF7C8F80F210120C7
:103BB000FFF7F6FC0220FEF7C1F83D211120FFF7C8
:103BC000EFFC1E212D20FFF7EBFC00212C20FFF73E
:103BD000E7FC8D212A20FFF7E3FC3E212B20FFF795
:103BE000DFFC40211520FFF7DBFCFFF7B4FF0220CC
:103BF000FEF7A4F8BDE81040FFF7B1BF000C01408C
:103C0000704700000148FEF7B1BC00002000002012
:103C100001B582B00A200090012301AA02A903483D
:103C2000FEF7AEFD9DF804000EBD00002000002050
:103C300010B5406A0021C187C186FEF795FC10BD12
:103C4000F8B515460E460B460092044601220221A5
:103C500000F010F840B9334600228021204600953C
:103C600000F008F8002804D0606D40F02000606586
:103C70000320F8BD2DE9F8431E46914688460446C8
:103C8000089DFEF767F9401B351AFEF763F90746F2
:103C900025480068C0F3CB30684338E0701C37D04B
:103CA000FEF758F9C01BA84203D215B1009860B3C3
:103CB0002CE02068416821F0E00141606068B0F5C7
:103CC000827F0BD1A068B0F5004F02D0B0F5806FB5
:103CD00004D12068016821F040010160A06AB0F5BC
:103CE000005F09D12068016821F40051016020685B
:103CF000016841F400510160012084F85100002066
:103D000084F850000320BDE8F8830025401E009091
:103D10002068816838EA010004D000214945BDD1FE
:103D20000020F0E70121F9E71000002070470000B3
:103D30002DE9F041124F002405464FF480487E14CF
:103D4000280601D5012200E0002241463846FEF750
:103D5000FCF8FFF7EBFB012231463846FEF7F5F899
:103D6000FFF7E4FB002231463846FEF7EEF868061E
:103D7000641C050EE4B2082CE2D3BDE8F08100001B
:103D800000100140FEF7ECB830B58FB0282168462E
:103D9000FCF77AFC14210AA8FCF776FC0121080440
:103DA000CDE900100024029402250491CDE90750CA
:103DB0004FF4E01009906846FEF746FA08B172B673
:103DC000FEE70F20CDE90A054FF48060CDE90C40F5
:103DD00002210AA80E94FEF75BF9002801D072B602
:103DE000FEE70FB030BD70470148FEF7F2BE00009D
:103DF00078000020F0B50268194B1A4C1A4D4FF0AC
:103E00008047984205D0B84203D0A04201D0A842D2
:103E100003D122F070064A683243984205D0B84276
:103E200003D0A04201D0A84203D122F44074CA6852
:103E300022434C6922F08002224302608A68C262F7
:103E40000A688262984201D10969016301214161D6
:103E50000169C90703D0016921F001010161F0BDC9
:103E6000002C0140000400400008004010B58468A8
:103E700042EA032224F47F440A432243826010BDB5
:103E8000826822F070020A4342F0070181607047A5
:103E900010B5036A046A24F001040462846924F002
:103EA000F00444EA021423F00A020A438461026225
:103EB00010BD10B5036A046A24F01004046284691A
:103EC00023F0A00324F4704444EA023243EA0111CF
:103ED0008261016210BD10B5406A0021C185C184B4
:103EE000FFF758F810BD70B5446A2068406994F82F
:103EF0004110C0F3C0100025212904D118B1E58478
:103F0000204600F08EF82068406994F84210C0F313
:103F10008010222904D118B1E585204600F05AF816
:103F2000606C40F0100060642046FFF733F870BD0D
:103F300010B50146406A096809684FF00002890619
:103F40002ED4C28501680C3151E8003F23F4807300
:103F500041E80034002CF5D10168143151E8003FEC
:103F600023F0010341E80034002CF5D1016814313D
:103F700051E8003F23F0400341E80034002CF5D124
:103F8000202180F84210016B012909D101680C3110
:103F900051E8003F23F0100341E80034002CF5D134
:103FA0004263016B012902D0FFF7FEF910BD818D3C
:103FB000FEF7B7FF10BD10B5406A01214163016BE8
:103FC000012902D0FFF706FA10BD818D4908FEF7DE
:103FD000A8FF10BD01680C3151E8002F22F4907247
:103FE00041E80023002BF5D10168143151E8002F7E
:103FF00022F0010241E80023002BF5D1016B0129D9
:1040000009D101680C3151E8002F22F0100241E87B
:104010000023002BF5D1202180F8421000210163FC
:10402000704701680C3151E8002F22F0C00241E8CE
:104030000023002BF5D1202180F84110704708B5EE
:1040400090F84210222901D0022008BD82684FF466
:1040500080539A4201D1016921B1816A9A421BD0F1
:104060004AB10AE00268816A5268C2F308020A8013
:10407000816A891C08E0026972B10268526802F024
:104080007F020A70816A491C8162C18D491E090440
:10409000090CC18503D01BE002685268F1E7016892
:1040A000CA6822F02002CA600168CA6822F48072DD
:1040B000CA6001684A6922F001024A61202180F841
:1040C000421000214163026B012A03D0FFF76CF913
:1040D000002008BD016301680C3151E8002F22F077
:1040E000100241E80023002BF5D101680A68D206CE
:1040F00002D50A6849680091818DFEF712FFE7E753
:1041000070B5044600680169E26821F4405111432A
:1041100001612169A0680843616908432168CA6890
:1041200041F20C639A430243CA6020684169A26964
:1041300021F44071114341611E492068884202D137
:10414000FEF74CF801E0FEF739F800EBC00101EB97
:104150000012606864218000B2FBF0F3B3FBF1F35E
:104160006FF018067343B2FBF0F5B2FBF0F605EB07
:104170008305322303EB0515B5FBF1F5B6FBF1F62C
:1041800005F0F00505EB0615B2FBF0F6B2FBF0F01A
:10419000B0FBF1F06FF01802504306EB800003EB28
:1041A0000010B0FBF1F0216800F00F002844886097
:1041B00070BD00000038014038B581620446828538
:1041C000002013466064222284F84220E56B1B4ADB
:1041D000AA62E56B1A4AEA62E56B1A4A2A63E26B45
:1041E00050630A462168E06B091DFDF76FFD2068EA
:1041F000016840680090206948B120680C3050E8A0
:10420000001F41F4807140E80012002AF5D12068B7
:10421000143050E8001F41F0010140E80012002A6C
:10422000F5D12068143050E8001F41F0400140E80B
:104230000012002AF5D1002038BD0000313F0008EF
:10424000B73F0008E73E00082DE9F84398461746B7
:104250000D460446089E24E0701C22D0FDF77AFE2D
:10426000A0EB0800B0421AD8CEB12068C168490757
:1042700017D5802D15D0402D13D00168C9430907EB
:104280000FD401680025406800902046FFF7A2FE89
:104290000820606484F840500120BDE8F8830320C2
:1042A000FBE72068006835EA000004D00020B8422F
:1042B000D2D00020F1E70120F9E700001FB500206F
:1042C00002904FF4807000900120019003200E4C6A
:1042D000039069462046FDF743FD6015009069464E
:1042E0002046FDF73DFDE014009069462046FDF7AD
:1042F00037FD2015009069462046FDF731FD00206E
:1043000000F004F81FBD0000000C014070B5044629
:10431000154DC0074FF4807101D0012200E000224A
:104320002846FDF712FEA0074FF4007101D50122C7
:1043300000E000222846FDF708FE60074FF4006108
:1043400001D5012200E000222846FDF7FEFD2007EE
:104350004FF4806101D5012200E000222846BDE82B
:104360007040FDF7F2BD0000000C014038B5124C62
:1043700020680168C9061AD50168002540680090C8
:104380002046FEF7CFFDE06B0068406840F2FF1268
:10439000A0F2FF10404280B2B0F5007F00D310467B
:1043A0000649088006490D540348FEF7EFFFBDE8B3
:1043B00038400148FEF7F0BDC00000201400002086
:1043C000D8010020FEE70907090E002804DB00F1F0
:1043D000E02080F80014704700F00F0000F1E020AA
:1043E00080F8141D704730380A2801D20120704728
:1043F0000020704770B5054600244FF47A7603E03C
:10440000304600F005F8641CAC42F9D370BD0000E2
:104410000B49096848434FF0E021486100228A6156
:10442000086940F0010008610869C30701D0C003B2
:10443000FAD5086920F0010008618A617047000020
:10444000180000200024FDF793FDFFF79DFCFFF707
:10445000DFF8FFF7BFF8FFF7C7F9FFF791F9FFF7AC
:10446000E3F9FFF769F9FFF787FBFFF774FBFFF745
:1044700076FBFCF75DFBFFF721FAFCF7A1FAFFF7EB
:104480001DFFFCF7C5FD4FF47A750CE06423142280
:1044900015A11B48FEF79FFF641CE4B22846FFF7F6
:1044A000A9FF052C03D2FCF74DFD0028EED0FCF748
:1044B0005FFB50B1012113A0FCF728FF60B11D483C
:1044C000FEF7ECFAFCF7DCFFFCE7642316221AA1E6
:1044D0000B48FEF780FFFEE7642320221CA108485A
:1044E000FEF779FFFEE700005769466920636F6EAB
:1044F0006E6563742072657472790D0A00000000A5
:1045000008010020247379732F6455356A5667318A
:104510004C39622F746573742F7468696E672F70DD
:10452000726F70657274792F706F73742F7265700B
:104530006C79000078000020436F6E6E65637443F1
:104540006C6F7564206661696C65640D0A0000001B
:104550004D515454207375627363726962652070A3
:104560006F73745F7265706C79206661696C6564E5
:104570000D0A0000010202030405060708090A0BE0
:104580000C0D0E0F101000000000000000000102D2
:1045900003040607080900000000010203040000EC
:1045A000000000000000002F0000000007000700CE
:1045B00000147F147F1400242A7F2A1200626408EA
:1045C0001323003649552250000005030000000067
:1045D0001C224100000041221C000014083E081467
:1045E0000008083E0808000000A060000008080855
:1045F0000808000060600000002010080402003E6F
:104600005149453E0000427F400000426151494609
:10461000002141454B31001814127F1000274545F9
:104620004539003C4A49493000017109050300360B
:104630004949493600064949291E0000363600001E
:104640000000563600000008142241000014141423
:10465000141400004122140800020151090600321E
:104660004959513E007C1211127C007F494949365C
:10467000003E41414122007F4141221C007F4949C7
:104680004941007F09090901003E4149497A007FFB
:104690000808087F0000417F4100002040413F01A1
:1046A000007F08142241007F40404040007F020C00
:1046B000027F007F0408107F003E4141413E007FA1
:1046C00009090906003E4151215E007F091929466A
:1046D0000046494949310001017F0101003F404046
:1046E000403F001F2040201F003F4038403F0063F4
:1046F0001408146300070870080700615149454316
:1047000000007F41410000552A552A5500004141D3
:104710007F000004020102040040404040400000CD
:1047200001020400002054545478007F4844443867
:1047300000384444442000384444487F00385454EE
:10474000541800087E0901020018A4A4A47C007F6C
:10475000080404780000447D4000004080847D000F
:10476000007F102844000000417F4000007C0418B6
:104770000478007C0804047800384444443800FC81
:10478000242424180018242418FC007C080404089D
:1047900000485454542000043F444020003C404012
:1047A000207C001C2040201C003C4030403C004449
:1047B00028102844001CA0A0A07C004464544C4451
:1047C0001414141414140000000000000000000071
:1047D00000000000FC000000000002000000000CCF
:1047E000020C020000000000000090D0BCD0BC9081
:1047F0000003000300001824FE448C00030207029B
:1048000001001824D8B04C80000300010201C03818
:10481000E438E00001020201020208060000000084
:10482000000000000000000000F804020000000189
:104830000204000204F8000000040201000090607D
:10484000F86090000000010000002020FC20200003
:104850000000010000000000000000000806000049
:1048600000002020202020000000000000000000A8
:10487000000000000002000000000080601C020038
:10488000040300000000F8040404F800010202021E
:1048900001000008FC000000000203020000188470
:1048A0004424180003020202020008042424D80051
:1048B00001020202010040B088FC800000000003F9
:1048C00002003C242424C400010202020100F82456
:1048D000242CC0000102020201000C04E41C0400AC
:1048E000000003000000D8242424D80001020202A2
:1048F000010038444444F8000003020201000000B3
:104900001000000000000200000000002000000075
:104910000000060000000020508804020000000093
:1049200001029090909090000000000000000002B2
:10493000048850200002010000001804C42418005C
:10494000000002000000F804E494F80001020202F2
:10495000020000E09CF0800002030000030204FC5F
:104960002424D800020302020100F80404040C000D
:1049700001020202010004FC0404F8000203020226
:10498000010004FC24740C0002030202030004FC76
:1049900024740C00020302000000F0080444CC4020
:1049A00000010202010004FC2020FC0402030000BC
:1049B00003020404FC0404000202030202000004D7
:1049C00004FC040406040403000004FC24D00C04CA
:1049D00002030200030204FC0400000002030202BE
:1049E0000203FC3CC03CFC0003000300030004FC89
:1049F00030C4FC04020302000300F8040404F800BD
:104A000001020202010004FC242418000203020037
:104A10000000F8848404F80001020207050004FC89
:104A200024649800020302000302182424448C002A
:104A30000302020201000C04FC040C000002030249
:104A4000000004FC0000FC04000102020100047CE0
:104A500080E01C040000030000001CE03CE01C009F
:104A6000000300030000049C609C04000203000398
:104A70000200041CE01C04000002030200000C847D
:104A8000641C04000203020203000000FE02020094
:104A9000000007040400000E30C000000000000108
:104AA0000200000202FE00000004040700000004EF
:104AB00002040000000000000000000000000000F0
:104AC00008080808080800000200000000000000B4
:104AD00000000040A0A0C00000010202030204FC8C
:104AE0002020C00000030202010000C0202060005E
:104AF00000010202020000C02024FC0000010202AA
:104B0000030200C0A0A0C0000001020202000020B9
:104B1000F82424040002030202000040A0A0602048
:104B200000070A0A0A0404FC2020C0000203020055
:104B300003020020E4000000000203020000000065
:104B400020E4000008080807000004FC80E02020A2
:104B50000203020003020404FC000000020203023C
:104B60000200E020E020C00003000300030020E07A
:104B70002020C00002030200030200C02020C00069
:104B800000010202010020E02020C000080F0A02FC
:104B9000010000C02020E0000001020A0F0820E010
:104BA000402020000203020000000060A0A02000BE
:104BB0000002020203000020F820000000000102B1
:104BC000020020E00020E00000010202030220E0D9
:104BD000208060200000030100006080E080600011
:104BE0000003000300002060806020000203000337
:104BF000020020E02080602008080701000000205B
:104C0000A0602000000203020200000020DE02007B
:104C1000000000070400000000FF00000000000F7B
:104C200000000002DE200000000407000000020176
:104C30000204040200000000000000000000000068
:104C400000000000000000000000000000F800006C
:104C50000000000000333000000000100C06100CB3
:104C60000600000000000000000040C07840C0784E
:104C70004000043F04043F040400007088FC083036
:104C80000000001820FF211E0000F008F000E018CE
:104C9000000000211C031E211E0000F00888700087
:104CA00000001E2123241927211010160E000000D9
:104CB00000000000000000000000000000E01804F8
:104CC0000200000000071820400000020418E00065
:104CD00000000040201807000000404080F08040A5
:104CE00040000202010F01020200000000F000007B
:104CF00000000101011F010101000000000000008F
:104D0000000080B070000000000000000000000003
:104D1000000000010101010101010000000000008C
:104D20000000003030000000000000000000806043
:104D30001804006018060100000000E010080810C8
:104D4000E000000F102020100F00001010F80000ED
:104D500000000020203F2020000000700808088884
:104D60007000003028242221300000300888884854
:104D700030000018202020110E000000C02010F884
:104D8000000000070424243F240000F80888880855
:104D900008000019212020110E0000E0108888185A
:104DA0000000000F112020110E0000380808C8383C
:104DB00008000000003F000000000070880808881C
:104DC0007000001C222121221C0000E010080810A5
:104DD000E0000000312222110F00000000C0C000DE
:104DE00000000000003030000000000000800000E3
:104DF00000000000806000000000000080402010E3
:104E000008000001020408102000404040404040DB
:104E1000400004040404040404000008102040803E
:104E20000000002010080402010000704808080873
:104E3000F0000000003036010000C030C828E81043
:104E4000E0000718272423140B000000C038E000FE
:104E50000000203C23020227382008F88888887048
:104E60000000203F202020110E00C0300808080854
:104E70003800071820202010080008F8080808103B
:104E8000E000203F202020100F0008F88888E80864
:104E90001000203F20202320180008F88888E80808
:104EA0001000203F200003000000C0300808083830
:104EB000000007182020221E020008F80800000841
:104EC000F808203F210101213F20000808F80808C8
:104ED00000000020203F2020000000000808F80803
:104EE0000800C08080807F00000008F888C0281873
:104EF0000800203F20012638200008F808000000A4
:104F00000000203F20202020300008F8F800F8F8AA
:104F10000800203F003F003F200008F830C0000894
:104F2000F808203F200007183F00E010080808108C
:104F3000E0000F10202020100F0008F808080808D3
:104F4000F000203F210101010000E01008080810D6
:104F5000E0000F18242438504F0008F8888888880B
:104F60007000203F2000030C3020007088080808E3
:104F700038000038202121221C00180808F80808F1
:104F800018000000203F2000000008F8080000087A
:104F9000F808001F202020201F000878880000C883
:104FA0003808000007380E010000F80800F8000873
:104FB000F800033C0700073C03000818688080687D
:104FC000180820302C03032C30200838C800C838BB
:104FD00008000000203F2000000010080808C83822
:104FE00008002038262120201800000000FE0202C0
:104FF00002000000007F40404000000C30C0000074
:105000000000000000010638C00000020202FE009D
:105010000000004040407F00000000000402020247
:10502000040000000000000000000000000000007C
:105030000000808080808080808000020204000068
:105040000000000000000000000000008080808060
:1050500000000019242222223F2008F8008080004E
:105060000000003F112020110E0000000080808011
:105070000000000E11202020110000000080808818
:10508000F800000E112020103F200000808080805A
:105090000000001F222222221300008080F0888856
:1050A00088180020203F20200000000080808080A1
:1050B0008000006B94949493600008F800808080D6
:1050C0000000203F210000203F2000809898000031
:1050D00000000020203F2020000000000080989861
:1050E000000000C08080807F000008F80000808001
:1050F0008000203F24022D302000000808F8000026
:1051000000000020203F20200000808080808080E0
:105110008000203F20003F20003F80800080808072
:105120000000203F210000203F2000008080808080
:105130000000001F202020201F00808000808000B1
:10514000000080FFA12020110E0000000080808060
:105150008000000E112020A0FF80808080008080D1
:10516000800020203F2120000100000080808080FE
:1051700080000033242424241900008080E08080F3
:1051800000000000001F2020000080800000008040
:105190008000001F202020103F20808080000080A1
:1051A000808000010E3008060100808000800080B1
:1051B00080800F300C030C300F0000808000808056
:1051C00080000020312E0E31200080808000008081
:1051D000808080818E701806010000808080808031
:1051E00080000021302C2221300000000000807C53
:1051F000020200000000003F404000000000FF00ED
:10520000000000000000FF0000000002027C80009F
:1052100000000040403F00000000000601010202C3
:105220000404000000000000000000000000000076
:10523000000000000000000000000000000000006E
:10524000000000000000000000000000000000005E
:10525000000000F0F0F0000000000000000000017D
:105260007F010000000000000000001C1C1C00006A
:10527000000000008060301C8C60301C0C000000BE
:10528000000000000000000000000000000000001E
:10529000000000000000000000E00000000000E04E
:1052A00000000086E69F86868686E69F86000001CF
:1052B0001F01010101011F010100000080C06020E9
:1052C000F820E0C00000000003070C18FF70E18127
:1052D00000000000070F10107F100F070000806013
:1052E000206080000000E02000000F3020309F7020
:1052F000DC371030C0000000100E03000718101833
:1053000007000000C02020E0C0000000000080E096
:105310001F38E88703C43C040000070F1810100B67
:10532000070D1010080000808C4C380000000000B1
:10533000000000000000000000000000000000006D
:10534000000000000000000000000000000000005D
:1053500080E0300804000000000000FEFF010000B3
:105360000000000000000000030F182040000004AF
:105370000830E0800000000000000000000001FF95
:10538000FE0000000000004020180F030000000095
:105390000000000000000000C0000000000000420B
:1053A00066663C18FF183C6666420000000000007C
:1053B000030000000000000000000000800000006A
:1053C0000000001010101010FF101010101000003E
:1053D00000000000030000000000000000000000CA
:1053E00000000000000000000000000000000000BD
:1053F000000000808C4C380000000000000000001D
:10540000000000000000000000000010101010104C
:10541000101010101000000000000000000000003C
:10542000000000000000000000000000000000007C
:105430000000000000000000000000001C1C1C0018
:105440000000000000000000000000000000E03844
:105450000C000000000080701C03000000000060D1
:10546000380E0100000000000000000080C0602035
:105470002060C080000000FEFF010000000001FF6E
:10548000FE000001070E181010180E0701000000A2
:10549000808080C0E000000000000000000000FFED
:1054A000FF000000000000001010101F1F1010105F
:1054B00000000080402020202060C0800000000309
:1054C0000300804020381F070000001C1A1918181C
:1054D0001818181F00000080C020202060C0800025
:1054E0000000000303001010182FE78000000007E1
:1054F0000F10101010180F0700000000000000002F
:10550000C0E0F000000000C0B088868180FFFF800E
:105510008000000000000010101F1F10100000008D
:10552000E060606060606060000000003F1008089C
:105530000818F0E0000000070B101010101C0F03FB
:105540000000000080C040202020E0C0000000FCDF
:10555000FF211008080818F0E0000001070C1810DF
:105560001010080F03000000C0E06060606060E0A1
:105570006000000003000000E018070000000000C9
:105580000000001F1F00000000000080C0602020FD
:10559000202060C080000087EF2C1818303068CFC2
:1055A000830000070F0810101010180F07000000EC
:1055B000C0C020202020C0800000001F3F6040406D
:1055C000402010FFFE0000000C1C101010080F03FC
:1055D00000000000000000000000000000000000CB
:1055E0000000000E0E0E0000000000000000001C75
:1055F0001C1C000000000000000000000000000073
:10560000000000000000000C0C0000000000000082
:1056100000000058380000000000000000000000FA
:10562000008040201000000010284482010000008B
:10563000000000000000000001020408100000004B
:1056400000000000000000000000008484848484C6
:1056500084848484840000000000000000000000B6
:10566000000000001020408000000000000000004A
:10567000000000000182442810000000100804020D
:1056800001000000000000C020201010101030E0C9
:10569000C0000003030000F010080C070300000026
:1056A00000001C1C1C0000000000000000C0406046
:1056B00020202040C00000FCFF01F00E03C1FE03CB
:1056C000807F0001070E081111101109040200006B
:1056D000000080E0E000000000000000807C43400B
:1056E000477FF880000010181F1000000000131FF3
:1056F0001C1020E0E02020202060C080000000FF7F
:10570000FF10101010182FE78000101F1F1010102E
:105710001010180F0700000080C0402020202060DB
:10572000E00000FCFF01000000000000010000019B
:10573000070E181010100804030020E0E0202020BD
:105740002040C080000000FFFF000000000001FFBB
:10575000FE00101F1F10101018080E07010020E097
:10576000E020202020202060800000FFFF1010108B
:10577000107C00000000101F1F10101010101018D7
:10578000060020E0E020202020206060800000FF54
:10579000FF101010107C00000100101F1F100000EF
:1057A000000000000000000080C06020202040E0D9
:1057B000000000FCFF0100004040C0C1404000016B
:1057C000070E181010100F0F000020E0E02000005E
:1057D000000020E0E02000FFFF101010101010FF6C
:1057E000FF00101F1F1000000000101F1F100000FE
:1057F000202020E0E020202000000000000000FF2A
:10580000FF000000000000001010101F1F101010FB
:10581000000000000000202020E0E0202020000008
:105820000000000000FFFF0000000060E0808080BA
:10583000C07F3F00000020E0E020000020A06020AA
:10584000200000FFFF30187CE3C000000000101FA4
:105850001F10000001131F1C181020E0E0200000A2
:1058600000000000000000FFFF000000000000003A
:105870000000101F1F10101010101018060020E05C
:10588000E0E000000000E0E0E02000FF013FFEC09B
:10589000E01E01FFFF00101F1000031F0300101F78
:1058A0001F1020E0E0C0000000000020E02000FF0A
:1058B0000003071C78E08000FF00101F10000000AC
:1058C0000000030F1F00000080C060202060C08027
:1058D000000000FEFF010000000000FFFE000001CC
:1058E000070E181010180C07010020E0E0202020FF
:1058F000202060C0800000FFFF2020202020301FDB
:105900000F00101F1F10000000000000000000002A
:1059100080C060202060C080000000FEFF01000009
:10592000000000FFFE000001070E1111133C7C6710
:10593000210020E0E0202020202060C0800000FF27
:10594000FF101030F0D0080F0700101F1F100000CC
:1059500000030F1C10100080C06020202020404059
:10596000E00000070F0C1818303060E08100001FC5
:105970000C0810101010180F07008060202020E085
:10598000E020202060800100000000FFFF000000F8
:10599000000100000000101F1F100000000020E0A8
:1059A000E020000000000020E02000FFFF000000D9
:1059B00000000000FF0000070F1810101010100862
:1059C00007002060E0E02000000020E060200000F0
:1059D000077FF88000807C03000000000000071FA4
:1059E0001C070000000020E0E02000E0E020002094
:1059F000E0200007FFF8E01FFFFCE01F00000000B0
:105A0000031F0300011F03000000002060E0A0004E
:105A10000020E0602000000000038F7CF8C6010039
:105A200000000010181E130001171F18100020603E
:105A3000E0E02000000020E06020000001073EF8C8
:105A4000E0180700000000000010101F1F101000D9
:105A5000000000806020202020A0E0E02000000066
:105A60000000C0F03E0F0300000000101C1F1710C4
:105A70001010101806000000000000FC04040404CC
:105A800004000000000000FF000000000000000013
:105A90000000007F404040404000000010E0000057
:105AA00000000000000000000000031C60800000F7
:105AB000000000000000000000030C7080000000E7
:105AC0000404040404FC00000000000000000000C6
:105AD00000FF00000000000040404040407F000008
