:020000040800F2
:10000000D00E002089010008EB1B00089D18000895
:10001000E91B00089102000871240008000000009C
:10002000000000000000000000000000FD1E0008AD
:100030001F03000800000000DF1E0008551F000815
:10004000A3010008A3010008A3010008A301000800
:10005000A3010008A3010008A3010008A3010008F0
:10006000A3010008A3010008A3010008A3010008E0
:10007000A3010008A3010008DD020008E90200084E
:10008000A3010008A3010008A3010008A3010008C0
:10009000A3010008A3010008A3010008A3010008B0
:1000A000A3010008A3010008A3010008A3010008A0
:1000B000A3010008A3010008B91F0008A30100085C
:1000C000A3010008A3010008A3010008E11E000825
:1000D000A301000819240008A3010008A3010008D7
:1000E000A3010008A3010008A301000800F002F822
:1000F00000F03AF80AA090E8000C82448344AAF188
:100100000107DA4501D100F02FF8AFF2090EBAE885
:100110000F0013F0010F18BFFB1A43F0010318473B
:100120003C3E00005C3E0000103A24BF78C878C115
:10013000FAD8520724BF30C830C144BF04680C60ED
:10014000704700000023002400250026103A28BF35
:1001500078C1FBD8520728BF30C148BF0B60704739
:100160001FB51FBD10B510BD00F05DF81146FFF7BB
:10017000F7FF02F08FF900F07BF803B4FFF7F2FF0E
:1001800003BC00F07FF80000094880470948004799
:10019000FEE7FEE7FEE7FEE7FEE7FEE7FEE7FEE737
:1001A000FEE7FEE704480549054A064B7047000094
:1001B000B71F0008ED000008D0080020D00E002076
:1001C000D00A0020D00A00204FF0000200B51346EC
:1001D00094469646203922BFA0E80C50A0E80C5067
:1001E000B1F12001BFF4F7AF090728BFA0E80C5018
:1001F00048BF0CC05DF804EB890028BF40F8042B11
:1002000008BF704748BF20F8022B11F0804F18BF7D
:1002100000F8012B704770477047704700487047DF
:100220007008002070477546FFF7F8FFAE460500DE
:100230006946534620F00700854618B020B5FFF701
:10024000B1FFBDE820404FF000064FF000074FF02F
:1002500000084FF0000B21F00701AC46ACE8C009E4
:10026000ACE8C009ACE8C009ACE8C0098D467047ED
:1002700010B50446AFF300802046BDE81040FFF7FC
:100280007CBF000001491820ABBEFEE7260002003B
:10029000FEE72DE9F0411E461746069C00F0D6FA0F
:1002A0000025012813D02570642000F0CDF901222B
:1002B0003146384600F0CFFA2078032805D30022D3
:1002C0003146384600F0C7FA2570BDE8F081207845
:1002D000401C2070642000F0B7F9EDE7014800F001
:1002E000A3B8000068010020014800F09DB800009C
:1002F000AC01002030B590F840500124AC40C56BF3
:100300006C60046863604368102B036803D09960D5
:100310000068C26030BD9A600068C16030BD70473F
:10032000054806494FF47A720068B0FBF1F00449C1
:1003300008605043486070470C00002040420F00A6
:100340002C00002072B6FEE710B590F821100022B4
:10035000022905D00421816380F82020012010BDEE
:1003600001680B6823F00E030B6001680B6823F033
:1003700001030B6090F84030C46B012101FA03F3D4
:10038000636080F8211080F82020104610BD000026
:1003900010B590F821100024022903D004218163B4
:1003A00001243DE001680A6822F00E020A6001683B
:1003B0000A6822F001020A601A4A0168914201D1DA
:1003C000012121E0174A1432914201D110211BE092
:1003D000144A2832914201D1891515E0114A3C3264
:1003E000914201D189140FE00E4A5032914202D15C
:1003F0004FF4803108E00B4A6432914202D14FF44D
:10040000801101E04FF08071064A083A51600121E5
:1004100080F82110002180F82010416B01B188473D
:10042000204610BD080002402DE9F05FC16B0C684A
:1004300001680B68D0F840C0042202FA0CF2494D62
:10044000DFF824A1494E4A4FDFF828B1DFF828E150
:1004500022422CD05A072AD50A68920603D40A6889
:1004600022F004020A600168A94201D1042219E0C5
:10047000514501D1402215E0B14202D14FF48062D2
:1004800010E0B94202D14FF480420BE0594502D14D
:100490004FF4802206E0714502D14FF4800201E062
:1004A0004FF080622F4908394A60C16A3BE04FF043
:1004B000020808FA0CF818EA040F4FF000094FF090
:1004C000010235D05FEA837832D50B689B0605D4EC
:1004D0000B6823F00A030B6080F821200168A94211
:1004E00001D1022219E0514501D1202215E0B1428B
:1004F00002D14FF4007210E0B94202D14FF4005221
:100500000BE0594502D14FF4003206E0714502D1AB
:100510004FF4001201E04FF00072124908394A60AE
:1005200080F82090816A00291AD0BDE8F05F084762
:10053000082505FA0CF5254212D01B0710D50B68CB
:1005400023F00E030B6090F84010C36B02FA01F128
:100550005960826380F8212080F82090016BE2E7E7
:10056000BDE8F09F080002401C000240300002403D
:1005700044000240580002406C00024030B528B3ED
:1005800008C8134914221944B1FBF2F18900C16370
:1005900010498163022141771A6843F6F0718A435A
:1005A000D0E900142143D0E902452C4321430469DA
:1005B0002143446921438469214311431960002187
:1005C0004163012242770177084630BD012030BDEA
:1005D000F8FFFDBF0000024070B5044690F820000F
:1005E000002501280CD0012084F8200094F8216017
:1005F0000020012E06D084F820000225284670BD78
:10060000022070BD022684F82160A063206806687D
:1006100026F0010606602046FFF76CFEE06A00281F
:100620002068016802D041F00E0106E021F00401CB
:1006300001602068016841F00A01016020680168DA
:1006400041F001010160D9E770B5044600F008F9F6
:100650000546601C02D004480078044400F000F90C
:10066000401BA042FAD370BD000000202DE9F84FD6
:10067000DFF8B8910024A9F1040B23460F2709F1F4
:10068000040AABF1040EC9E00125A5402A40AA42A4
:100690007DD1674ED1F804C0ACEB0608B44532D02A
:1006A00014DCBCF1030F3AD009DCBCF1000F2AD0F6
:1006B000BCF1010F1CD0BCF1020F31D11DE0BCF127
:1006C000110F17D0BCF1120F2AD119E0B8F5881F0D
:1006D00019D006DCB8F5803F15D0B8F5801F1FD1C2
:1006E00011E0B8F5001F0ED0B8F5041F18D10AE0CC
:1006F000CB6815E0CB681B1D12E0CB6808330FE018
:10070000CB680C330CE08B682BB1012B4FF0080346
:1007100003D0456104E0042302E0056100E000230A
:10072000FF2A01D8064601E000F104064FEA8405DD
:1007300001D9A5F12005D6F8008007FA05FC28EAC2
:100740000C0803FA05F548EA0508C6F800804D686C
:10075000ED0062D5374DAE6946F00106AE61AD6978
:1007600024F0030605F001050095334D06EB050C5A
:10077000DCF80850A607360F07FA06F825EA080540
:10078000DFF8B880404503D14FF0000817E044E09F
:10079000DFF8AC80404502D14FF001080FE0DFF8F0
:1007A000A480404502D14FF0020808E0DFF89880AD
:1007B000404502D14FF0030801E04FF0040808FA69
:1007C00006F848EA0508CCF808804D68D9F80060BA
:1007D000ED024D4601D5164300E096432E604D686C
:1007E000DAF80060AD02554601D5164300E09643A5
:1007F0002E604D68DBF80060AD035D4601D5164301
:1008000000E096432E604D68DEF80060ED0375460B
:1008100001D5164300E096432E60641C0D682A46FD
:10082000E5407FF431AFBDE8F88F000008040140D7
:1008300000001110001002400000014000080140BB
:10084000000C014000100140001401408068084085
:1008500000D0012070470AB1016170470904FBE72D
:10086000014880687047000000000020024881684D
:10087000027811448160704700000020074810B5DD
:10088000016841F010010160032000F075F80F20AD
:1008900000F006F800F024F8002010BD002002400F
:1008A00070B50D4D04464FF47A712878B1FBF0F025
:1008B0000A490968B1FBF0F000F0E8FB48B9102CD8
:1008C00007D200222146501E00F036F800206C604E
:1008D00070BD012070BD0000000000200C00002051
:1008E0000C4808B5816941F001018161816901F01D
:1008F00001010091C16941F08051C161C06900F0FE
:10090000805000900448416821F0E06141F000719E
:10091000416008BD0010024000000140002809DBD2
:1009200000F01F02012191404009800000F1E02009
:10093000C0F8001170470000F0B40E4B1B680C4665
:10094000C3F30223C3F10705042D00D90425191DA3
:10095000072901D2002300E0DB1E012606FA05F17B
:10096000491E214099409E40761E16403143F0BCFE
:1009700001F07FBD0CED00E0064900F007020868B9
:100980004FF6FF03184040EA0220034A1043086074
:10099000704700000CED00E00000FA052DE9F0477B
:1009A0000F46050061D0434E306800F00700B842A2
:1009B00009D2306820F0070038433060306800F01A
:1009C0000700B84251D128683B4C810712D5400737
:1009D00003D5606840F4E06060602878000703D5C4
:1009E000606840F4605060606068A96820F0F000C2
:1009F000084360602878C00728D06868012810D0B4
:100A00002168022810D0890700292EDA616821F0B8
:100A1000030101436160FFF723FF804641F28839FB
:100A20000DE021688903EFE78901EDE7FFF718FF83
:100A3000A0EB0801494502D90320BDE8F0876068B2
:100A4000696800F00C00B0EB810FEFD1306800F066
:100A50000700B8420BD9306820F0070038433060F7
:100A6000306800F00700B84201D00120E5E728789F
:100A7000400705D56068E96820F4E06008436060DD
:100A80002878000706D56068296920F4605040EA9C
:100A9000C100606000F038F86168084AC1F30311D2
:100AA000515CC8400649086006480068FFF7F8FE38
:100AB0000020C2E700200240001002405A25000832
:100AC0000C00002004000020044805490068496823
:100AD000044AC1F30221515CC84070470C00002059
:100AE000001002406A25000804480549006849686A
:100AF000044AC1F3C221515CC84070470C00002079
:100B0000001002406A2500080E4A51680E4801F0A4
:100B10000C03042B11D0082B0FD10C48C1F38343D5
:100B2000C903C05C0AD55168084AC1F34041921E0E
:100B3000515C054A5043B0FBF1F07047044948430B
:100B4000704700000010024000127A004A25000899
:100B500000093D002DE9F84F040070D02078C04D09
:100B6000C00749D06868C0F38100012807D06868D1
:100B7000C0F38100022809D16868C00306D528683F
:100B8000800339D560680028E7D035E06068B0F5AB
:100B9000803F0BD010B1B0F5A02F11D0286820F401
:100BA00080302860286820F4802002E0286840F423
:100BB00080302860606890B1FFF752FE06460AE078
:100BC000286840F480202860F0E700BFFFF748FE67
:100BD000801B642873D828688003F7D50CE0FFF7E2
:100BE0003FFE064605E000BFFFF73AFE801B642883
:100BF000F0D828688003F7D420789A4E80074FF009
:100C000001094FF0000839D5686810F00C0F07D0C3
:100C10006868C0F38100022809D16868C00306D45F
:100C20002868800714D52069012808D110E02069C0
:100C3000B0B1C6F80090FFF713FE074605E00AE1E1
:100C4000FFF70EFEC01B0228C4D828688007F7D51E
:100C50002868616920F0F80040EAC10028600DE0D2
:100C6000C6F80080FFF7FCFD074604E0FFF7F8FD3B
:100C7000C01B022823D828688007F7D420780007F3
:100C80002CD57948A169D9B1C0F80090FFF7E8FDEB
:100C9000074604E0FFF7E4FDC01B02280FD8686A8E
:100CA0008007F7D571484FF4FA510068B0FBF1F0B6
:100CB000009000BF0098411E0091FAD20EE080E043
:100CC000C0F80080FFF7CCFD074604E0FFF7C8FD41
:100CD000C01B022875D8686A8007F7D420784007BF
:100CE00060D5E8690027C00008D4E86940F080506A
:100CF000E861E869012700F0805000905C480168D5
:100D0000C90513D40168834641F480710160FFF77F
:100D1000A7FD824606E000BFFFF7A2FDA0EB0A0098
:100D200064284ED8DBF80000C005F5D5E06801283E
:100D30000AD008B1052813D0286A20F001002862E3
:100D4000286A20F0040002E0286A40F001002862CE
:100D5000E06841F2883B98B1FFF782FD82460BE0E4
:100D6000286A40F004002862EEE700BFFFF778FD34
:100D7000A0EB0A0159455AD8286A8007F6D50CE03D
:100D8000FFF76EFD824605E0FFF76AFDA0EB0A0162
:100D900059454CD8286A8007F6D41FB1E86920F07D
:100DA0008050E861E06988B36968C1F38101022974
:100DB00044D00228C6F8608004D0FFF751FD0446F5
:100DC00038E034E0FFF74CFD074604E0FFF748FD4C
:100DD000C01B02282BD828688001F7D4206AB0F500
:100DE000803F05D16868A16820F40030084368603E
:100DF000D4E908010843696821F474110843686064
:100E0000C6F86090FFF72CFD044606E025E000BF21
:100E1000FFF726FD001B022809D828688001F7D5B6
:100E20001BE000BFFFF71CFD001B022802D90320B6
:100E3000BDE8F88F28688001F4D40EE00128F7D0CF
:100E40006868226A00F48031914204D1616A00F43A
:100E50007010884201D00120EAE70020E8E7000096
:100E60000010024000004242800442420C00002078
:100E7000007000407047000038B5044600684268C2
:100E80008168C9434B0606D5CB0704D1D3435B0623
:100E900001D4216C05E08B0708D4D3431B0605D48D
:100EA000616C01B02046BDE8304008478B0601D593
:100EB0004B0646D4D3439B0643D44B060AD494F83E
:100EC0005130032B3ED0636D43F004036365C36868
:100ED00083680093890609D4616D41F00101616561
:100EE00081680091016821F040010160606D002877
:100EF00027D02068416821F0E0014160012084F89A
:100F00005100900722D02068416821F00301416020
:100F1000104DE06C40B14563E06CFFF739FA18B151
:100F2000606D40F040006065A06C002809D045630A
:100F3000A06CFFF72DFA002803D0606D40F0400050
:100F4000606538BDC1688068009038BD2046FFF7F5
:100F500091FF38BDED1E000870B5040009D0606A2D
:100F6000002540B125616561A56294F8510040B14A
:100F70000CE0012070BD6068B0F5827FF4D0E561BF
:100F8000F2E784F85050204600F040F8022084F840
:100F900051002068016821F040010160A08821898A
:100FA00000F4827001F404410843A18901F4006156
:100FB0000843217C01F002010843217D01F0010179
:100FC0000843218B01F400710843217F01F03801AF
:100FD000084394F8201001F080010843218D01F4AA
:100FE0000051084321680860A069042101EA10400B
:100FF000216848602068C16921F40061C1616565AC
:10100000012084F85100002070BD000030B585B08B
:1010100000240094019402940394006818498842C3
:101020002BD11848816941F480518161816901F4B3
:1010300080510491816941F0040181618069124D00
:1010400000F004000490A0200090022001900320F2
:10105000039069462846FFF709FB4020CDE90004CC
:10106000694628460294FFF701FB0022114623201F
:10107000FFF762FC2320FFF751FC05B030BD0000F4
:1010800000300140001002400008014010B5401E31
:10109000B0F1807F01D3012010BD4FF0E0246061EA
:1010A0000F21601701F0E5F90020A0610720206101
:1010B000002010BD7047704770B590F83C20012AA1
:1010C00026D0012480F83C40022280F83D200368AD
:1010D0005A689D6822F070060A6832435A600D4BC8
:1010E00002689A4208D0B2F1804F05D00A4B9A426A
:1010F00002D00A4B9A4204D1496825F08003194373
:10110000916080F83D40002180F83C10084670BD99
:10111000022070BD002C0140000400400008004087
:1011200010B5040003D094F83D0010B107E0012091
:1011300010BD002084F83C00204600F01FF802207B
:1011400084F83D00211D206800F03CFF012084F858
:10115000460084F83E0084F83F0084F8400084F89C
:10116000410084F8420084F8430084F8440084F885
:10117000450084F83D00002010BD000008B500685F
:101180000B49884212D10B48C16941F00401C16189
:10119000C069002200F00400009003211E20FFF728
:1011A000CBFBBDE808401E20FFF7B8BB08BD000020
:1011B000000800400010024070B5044690F83C0062
:1011C0000025012817D0012684F83C60022084F80D
:1011D0003D002068826822F0770222F47F4282601C
:1011E0000868502838D00DDC20284FD005DC90B39B
:1011F000102811D14AE0022070BD302846D0402886
:101200000AD13BE060282FD070280DD0B0F5805F68
:1012100003D0B0F5005F12D0012584F83D600020B6
:1012200084F83C00284670BDCB68D1E901212068D4
:1012300000F004FF2068816841F0770109E0CB6885
:10124000D1E90121206800F0F9FE2068816841F4AD
:1012500080418160E1E719E0CA684968206800F0D0
:10126000FFFE5021206806E0CA684968206800F047
:1012700008FF6021206800F0EBFECEE7CA684968ED
:10128000206800F0EDFE40212068F4E72268014666
:101290001046F0E770472DE9F04104460068C66843
:1012A00005694FF00007A90713D5B10711D5F91E3D
:1012B000016101202077206880698007204602D0E4
:1012C000FFF7E8FF04E000F07EF8204600F07CF82D
:1012D0002777680716D5700714D521686FF00400CA
:1012E0000861022020772068806910F4407F204642
:1012F00002D0FFF7CFFF04E000F065F8204600F0D1
:1013000063F82777280715D5300713D521686FF0C4
:1013100008000861042020772068C0698007204603
:1013200002D0FFF7B7FF04E000F04DF8204600F0D0
:101330004BF82777E80616D5F00614D521686FF02C
:1013400010000861082020772068C06910F4407FF1
:10135000204602D0FFF79EFF04E000F034F820465C
:1013600000F032F82777E80708D0F00706D02168A8
:101370006FF001000861204600F028F8280608D523
:10138000300606D521686FF0800008612046FFF71F
:1013900091FE680608D5700606D521686FF04000FA
:1013A0000861204600F01EF8A8060AD5B00608D548
:1013B00021686FF0200008612046BDE8F041FFF78A
:1013C0007ABEBDE8F08170477047000000680349AD
:1013D000884202D10249012008707047000800408D
:1013E000140000207047704710B50446006840693B
:1013F00094F84110C0F3C010212911D180B12068A8
:10140000143050E8001F21F0800140E80012002A4B
:10141000F5D1A06B08B1FEF797FF204600F0E9FE7A
:101420002068406994F84210C0F38010222911D13D
:1014300080B12068143050E8001F21F0400140E8DE
:101440000012002AF5D1E06B08B1FEF77DFF2046BF
:1014500000F0A8FE002010BD70470000F8B501683C
:1014600004460868CA684B6910F00F0F4FF000057A
:1014700059D003F0010602F49077374365D0C107D5
:1014800005D0D10503D5616C41F0010161644107CC
:1014900005D5D90703D0616C41F002016164810771
:1014A00005D5D90703D0616C41F0040161640107DF
:1014B00007D502F02001314303D0616C41F00801EF
:1014C0006164616C00293AD0800604D5900602D58B
:1014D000204600F09CFE20684069616CC0F38010DB
:1014E000090700D460B3204600F05CFE2068406924
:1014F000400621D52068143050E8001F21F040013B
:1015000040E80012002AF5D1E06BA8B16D494163B3
:10151000E06BFEF73DFF002811D0E06B416B01B09E
:10152000BDE8F040084783060FD593060DD5204649
:10153000BDE8F84000F06BBE2046FFF78DFFF8BD18
:101540002046FFF789FF6564F8BD266B2023012E36
:101550007CD1C6067AD5D60678D50868486800904A
:1015600048694FF00206400640D5E16B08684068C4
:101570000004000CE8D0A28D8242E5D9E08588699C
:1015800020282DD020680C3050E8001F21F48071F5
:1015900040E80012002AF5D12068143050E8001FFE
:1015A00021F0010140E80012002AF5D12068143032
:1015B00050E8001F21F0400140E80012002AF5D158
:1015C00084F84230256320680C3050E8001F21F079
:1015D000100140E80012002AF5D1E06BFEF7B4FEDE
:1015E0006663A08DE18D401A81B22AE0A08DE18D65
:1015F000401A81B2E08D0028A6D00029A4D022682C
:101600000C3252E8000F20F4907042E80007002FDF
:10161000F5D12068143050E8002F22F0010240E894
:101620000027002FF5D184F84230256320680C3064
:1016300050E8002F22F0100240E80023002BF5D1E3
:1016400066632046FFF7CFFEF8BDFFE705062BD502
:10165000150629D594F841002128F5D1A068B0F5E8
:10166000805F01D12069B0B1206A411C21622168EC
:1016700000784860E08C401E0004000CE084E3D158
:101680002068C16821F08001C1602068C16841F014
:101690004001C160D8E7206A0088C0F308004860B4
:1016A000206A801C2062E5E74006CDD55006CBD5E8
:1016B000CA68204622F04002CA6084F8413000F037
:1016C000ECF8C1E7A720000870B5040004D094F836
:1016D0004100002510B106E0012070BD84F84050A3
:1016E000204600F023F8242084F841002068C168D7
:1016F00021F40051C160204600F0EAFD2068016934
:1017000021F4904101612068416921F02A01416181
:101710002068C16841F40051C1606564202084F8EC
:10172000410084F842006563002070BDF0B585B0CB
:101730000024009401940294039406463E4F0368EB
:101740003E49022003223E4DBB4250D18B6943F4F7
:1017500080438B618B6903F4804304938B6943F06E
:1017600004038B618969039201F004010491010271
:10177000CDE9001069462846FEF778FF2815CDE927
:101780000004694628460294FEF770FF2E4D2D484E
:10179000802701C5102091C52B4845F810496C6180
:1017A000AC61EC61FEF7EAFE08B1FEF7CBFDB56374
:1017B0006E62254D234844351430C5E90004C5E95F
:1017C00002472C616C61AC612846EC61FEF7D6FEE5
:1017D00008B1FEF7B7FDF5630022022125206E62F5
:1017E000FFF7AAF82520FFF799F805B0F0BD174ECE
:1017F000B342FAD1CB6943F40033CB61CB6903F434
:10180000003304938B6943F004038B61896903926D
:1018100001F0040104910421CDE900106946284635
:10182000FEF724FF0820CDE900046946284602940B
:10183000FEF71CFFD9E7000000380140001002400D
:1018400000080140440002406801002000440040BC
:1018500090F84230202B01D00220704721B11AB1FC
:101860000023036300F090BD0120704707498842C0
:101870000BD1074840F2FF120280064B008800217E
:10188000195419460148FFF7E3BF7047D8000020FC
:1018900010000020F001002070477047FEE70000B4
:1018A00070B501220E4D940321462846FEF7D3FF62
:1018B0000122560331462846FEF7CDFF00F048F8D6
:1018C000002221462846FEF7C6FF00F041F800221C
:1018D00031462846FEF7BFFFBDE8704000F038B83B
:1018E0000010014070B50B4D4FF48044002221469A
:1018F0002846FEF7B0FF012251032846FEF7ABFF52
:1019000000F026F821462846BDE870400122FEF787
:10191000A2BF00000010014070B50C4C01229103E1
:101920002046FEF798FF00F013F8012255032946E0
:101930002046FEF790FF00F00BF8002229462046D3
:10194000FEF789FFBDE8704000F002B800100140CA
:101950000320401EC0B2FCD2704700000D4808B5FD
:10196000416941F0010141614069002200F001003C
:10197000009011460E20FEF7DFFF0E20FEF7CEFF8F
:10198000002211460F20FEF7D7FFBDE808400F20C8
:10199000FEF7C4BF001002402DE9F04786B00025D5
:1019A00043480095019502950395816941F0100126
:1019B0008161816901F010010491816941F0200188
:1019C0008161816901F020010491816941F0040184
:1019D0008161816901F004010491816941F008018C
:1019E00081618069DFF8CC8000F00800049001225A
:1019F0004FF4C0414046FEF72EFF4FF4004700224F
:101A000039464046FEF727FFDFF8AC90012213214C
:101A10004846FEF720FFDFF8A4A0012240F601416E
:101A20005046FEF718FF002239464846FEF713FFDE
:101A300000224FF470715046FEF70DFF01244FF461
:101A40006040CDE900040326CDE9024669464046E0
:101A5000FEF70CFE1320CDE90004CDE902466946ED
:101A60004846FEF703FE40F60170CDE90004CDE9DB
:101A7000024669465046FEF7F9FD01AA0226009784
:101A800082E8700069464846FEF7F0FD38208DE890
:101A9000610069465046FEF7E9FDC0208DE87100FF
:101AA00069465046FEF7E2FD06B0BDE8F08700004B
:101AB000001002400010014000080140000C0140ED
:101AC000104810B50E4901604FF482714160002149
:101AD0008160C1604FF400720161C0E905121822F3
:101AE000C0E90721416281620A21C162FFF734FA2D
:101AF000002803D0BDE81040FEF724BC10BD000054
:101B0000003001403800002010B586B0002417488E
:101B10000094019402940394049413490594016081
:101B200041F61F41C0E901144FF6FF71C0E90314EB
:101B30008461FFF7F5FA08B1FEF704FC4FF480501A
:101B4000009069460948FFF737FB08B1FEF7FAFB3A
:101B5000049404A905480594FFF7AEFA002801D0C3
:101B6000FEF7F0FB06B010BD00080040900000201A
:101B700010B50E4C0C480C2120604FF4E130606031
:101B80000020A060E060C4E90401A061E06120469B
:101B9000FFF79AFD08B1FEF7D5FB2068C16841F058
:101BA0001001C16010BD000000380140D8000020C5
:101BB0000C4810B50A4901604FF4E1314160002141
:101BC00081600C22C160C0E904128161C161FFF72C
:101BD0007BFD002803D0BDE81040FEF7B3BB10BD6D
:101BE0000044004020010020FEE7FEE730B4002161
:101BF000084B0A465FF0000003EBC004401CC0B273
:101C000062548028F8D3491CC9B20829F2D330BCE9
:101C100000F086B8F003002030B5CC0801F00703CF
:101C200001259D40EBB2064D05EBC005C808285CB8
:101C30000AB1184302E063EA0000C043285530BDF2
:101C4000F003002010B50021AE2000F02DF9002196
:101C5000084600F029F90021102000F025F90021A4
:101C6000402000F021F90021812000F01DF9002121
:101C7000CF2000F019F90021A12000F015F9002172
:101C8000C82000F011F90021A62000F00DF9002174
:101C9000A82000F009F900213F2000F005F90021FB
:101CA000D32000F001F90021084600F0FDF80021E2
:101CB000D52000F0F9F80021802000F0F5F800218F
:101CC000D92000F0F1F80021F12000F0EDF800211A
:101CD000DA2000F0E9F80021122000F0E5F80021F8
:101CE000DB2000F0E1F80021302000F0DDF80021D9
:101CF000202000F0D9F80021022000F0D5F80021C2
:101D00008D2000F0D1F80021142000F0CDF8FFF76D
:101D10006DFF0021BDE81040AF2000F0C5B8000005
:101D200070B5184E002400BF04F1B000C0B200210D
:101D300000F0BAF80021084600F0B6F800211020A3
:101D400000F0B2F8FFF7ACFD782000F0D9F8FFF70B
:101D5000E3FD402000F0D4F8FFF7DEFD5FF0000562
:101D600006EBC500005D00F0CBF8FFF7D5FD6D1C5C
:101D7000EDB2802DF4D3FFF7B5FD641CE4B2082C5E
:101D8000D2D370BDF00300202DE9FC4F1C460E4657
:101D900082468B460190082B0DD0600700D00120B1
:101DA00000EBD40061084843C0B28146203AD0B26B
:101DB000009000204BE00620F7E7082C13D00C2CF5
:101DC00018D0102C1BD0182C44D10098234900EBBC
:101DD000C00000BF01EB8001002711F80850E807A0
:101DE00012D00B9A13E000981D4900EB400001EB64
:101DF0004001F1E700981B4900EB4000EAE71A496F
:101E0000009801EB0011E7E70B9828B30022314658
:101E10005046FFF701FF761C7F1C6D08FFB2F6B23B
:101E2000082FDCD30AF1010000F0FF0A082C0AD0C9
:101E30000199AAEB0100B0EB540F04D10BF108009B
:101E40008A4600F0FF0B08F101005E46C0B28046F2
:101E50004845B2D3BDE8FC8F0122D8E7FE31000827
:101E6000722500089A2700080E2C00082DE9F84179
:101E70001E46154688460446079F0BE033464146FA
:101E800020460097FFF780FF082E0AD004EB56008B
:101E9000C4B26D1C2A78A2F120005E28EED9BDE8FC
:101EA000F881A41DE4B2F4E770B50C460546FFF7CF
:101EB000F7FC782000F024F8FFF72EFD0CB140204D
:101EC00000E0002000F01CF8FFF726FD284600F097
:101ED00017F8FFF721FDBDE87040FFF703BD70471D
:101EE0000148FEF7C9BF00003800002010B5406A65
:101EF0000021C187C186FEF7BDFF10BD70470000FD
:101F00002DE9F041124F002405464FF480487E141D
:101F1000280601D5012200E0002241463846FEF79E
:101F20009AFCFFF715FD012231463846FEF793FC77
:101F3000FFF70EFD002231463846FEF78CFC68069E
:101F4000641C050EE4B2082CE2D3BDE8F081000069
:101F500000100140FEF78ABC30B58FB028216846DA
:101F6000FEF732F914210AA8FEF72EF90121080420
:101F7000CDE900100024029402250491CDE9075018
:101F80004FF4E01009906846FEF7E4FD08B172B620
:101F9000FEE70F20CDE90A054FF48060CDE90C4043
:101FA00002210AA80E94FEF7F9FC002801D072B6AF
:101FB000FEE70FB030BD70470148FFF76CB9000075
:101FC00090000020F0B50268194B1A4C1A4D4FF0E2
:101FD0008047984205D0B84203D0A04201D0A84221
:101FE00003D122F070064A683243984205D0B842C5
:101FF00003D0A04201D0A84203D122F44074CA68A1
:1020000022434C6922F08002224302608A68C26245
:102010000A688262984201D1096901630121416124
:102020000169C90703D0016921F001010161F0BD17
:10203000002C0140000400400008004010B58468F6
:1020400042EA032224F47F440A432243826010BD03
:10205000826822F070020A4342F0070181607047F3
:1020600010B5036A046A24F001040462846924F050
:10207000F00444EA021423F00A020A438461026273
:1020800010BD10B5036A046A24F010040462846968
:1020900023F0A00324F4704444EA023243EA01111D
:1020A0008261016210BD10B5406A0021C185C18402
:1020B000FFF7D2F910BD70B5446A2068406994F802
:1020C0004110C0F3C0100025212904D118B1E584C6
:1020D000204600F08EF82068406994F84210C0F362
:1020E0008010222904D118B1E585204600F05AF865
:1020F000606C40F0100060642046FFF7ADF970BDE1
:1021000010B50146406A096809684FF00002890667
:102110002ED4C28501680C3151E8003F23F480734E
:1021200041E80034002CF5D10168143151E8003F3A
:1021300023F0010341E80034002CF5D1016814318B
:1021400051E8003F23F0400341E80034002CF5D172
:10215000202180F84210016B012909D101680C315E
:1021600051E8003F23F0100341E80034002CF5D182
:102170004263016B012902D0FFF778FB10BD818D0E
:10218000FFF731F910BD10B5406A01214163016BC1
:10219000012902D0FFF780FB10BD818D4908FFF7B0
:1021A00022F910BD01680C3151E8002F22F4907221
:1021B00041E80023002BF5D10168143151E8002FCC
:1021C00022F0010241E80023002BF5D1016B012927
:1021D00009D101680C3151E8002F22F0100241E8CA
:1021E0000023002BF5D1202180F84210002101634B
:1021F000704701680C3151E8002F22F0C00241E81D
:102200000023002BF5D1202180F84110704708B53C
:1022100090F84210222901D0022008BD82684FF4B4
:1022200080539A4201D1016921B1816A9A421BD03F
:102230004AB10AE00268816A5268C2F308020A8061
:10224000816A891C08E0026972B10268526802F072
:102250007F020A70816A491C8162C18D491E09048E
:10226000090CC18503D01BE002685268F1E70168E0
:10227000CA6822F02002CA600168CA6822F480722B
:10228000CA6001684A6922F001024A61202180F88F
:10229000421000214163026B012A03D0FFF7E6FAE6
:1022A000002008BD016301680C3151E8002F22F0C5
:1022B000100241E80023002BF5D101680A68D2061C
:1022C00002D50A6849680091818DFFF78CF8E7E72D
:1022D00070B5044600680169E26821F44051114379
:1022E00001612169A0680843616908432168CA68DF
:1022F00041F20C639A430243CA6020684169A269B3
:1023000021F44071114341611E492068884202D185
:10231000FEF7EAFB01E0FEF7D7FB00EBC00101EBA3
:102320000012606864218000B2FBF0F3B3FBF1F3AC
:102330006FF018067343B2FBF0F5B2FBF0F605EB55
:102340008305322303EB0515B5FBF1F5B6FBF1F67A
:1023500005F0F00505EB0615B2FBF0F6B2FBF0F068
:10236000B0FBF1F06FF01802504306EB800003EB76
:102370000010B0FBF1F0216800F00F0028448860E5
:1023800070BD00000038014038B581620446828586
:10239000002013466064222284F84220E56B1B4A29
:1023A000AA62E56B1A4AEA62E56B1A4A2A63E26B93
:1023B00050630A462168E06B091DFEF70DF920689D
:1023C000016840680090206948B120680C3050E8EE
:1023D000001F41F4807140E80012002AF5D1206806
:1023E000143050E8001F41F0010140E80012002ABB
:1023F000F5D12068143050E8001F41F0400140E85A
:102400000012002AF5D1002038BD0000012100088B
:1024100087210008B720000838B5124C20680168F1
:10242000C9061AD501680025406800902046FEF7CD
:10243000DBFFE06B0068406840F2FF12A0F2FF1083
:10244000404280B2B0F5007F00D3104606490880B4
:1024500006490D540348FFF7FBF9BDE83840014831
:10246000FEF7FCBFD800002010000020F001002083
:10247000FEE70907090E002804DB00F1E02080F8E0
:102480000014704700F00F0000F1E02080F8141DE8
:102490007047000008B5FEF7F1F9FFF75DFDFFF7A3
:1024A0007BFAFFF75BFAFFF763FBFFF72DFBFFF704
:1024B0007FFBFFF705FBFDF733FFFFF7C3FB1A4C6C
:1024C000002201212046FEF7C6F90127174E4FF4DE
:1024D000004ADFF85CB0174DDFF85C80DFF85C90F5
:1024E000FFF784FB0021082315A208460097FFF799
:1024F000BDFCFFF715FC53465A46082128460096B6
:10250000FDF7C7FE0123224610212846CDF80080A2
:10251000FDF7BFFE0223224620212846CDF8009079
:10252000FDF7B7FEDCE700000008014034000020A2
:1025300000100140000C0140350000203600002052
:10254000544553540000000001020203040506072D
:1025500008090A0B0C0D0E0F1010000000000000FF
:102560000000010203040607080900000000010240
:1025700003040000000000000000002F0000000025
:102580000700070000147F147F1400242A7F2A12FA
:1025900000626408132300364955225000000503E9
:1025A000000000001C224100000041221C00001419
:1025B000083E08140008083E0808000000A060005B
:1025C00000080808080800006060000000201008EB
:1025D0000402003E5149453E0000427F4000004257
:1025E00061514946002141454B31001814127F10BA
:1025F000002745454539003C4A49493000017109E9
:10260000050300364949493600064949291E00009C
:102610003636000000005636000000081422410043
:102620000014141414140000412214080002015173
:10263000090600324959513E007C1211127C007F7C
:1026400049494936003E41414122007F4141221C17
:10265000007F49494941007F09090901003E41497C
:10266000497A007F0808087F0000417F4100002070
:1026700040413F01007F08142241007F404040401C
:10268000007F020C027F007F0408107F003E414162
:10269000413E007F09090906003E4151215E007F4D
:1026A000091929460046494949310001017F0101C4
:1026B000003F4040403F001F2040201F003F403867
:1026C000403F0063140814630007087008070061A6
:1026D0005149454300007F41410000552A552A5584
:1026E000000041417F00000402010204004040401C
:1026F0004040000001020400002054545478007F40
:102700004844443800384444442000384444487F16
:1027100000385454541800087E0901020018A4A47B
:10272000A47C007F080404780000447D4000004041
:1027300080847D00007F102844000000417F40001D
:10274000007C04180478007C0804047800384444B1
:10275000443800FC242424180018242418FC007C8D
:102760000804040800485454542000043F44402006
:10277000003C4040207C001C2040201C003C40309D
:10278000403C004428102844001CA0A0A07C004429
:1027900064544C4414141414141400000000000079
:1027A0000000000000000000FC000000000002002B
:1027B0000000000C020C020000000000000090D09D
:1027C000BCD0BC900003000300001824FE448C0021
:1027D0000302070201001824D8B04C800003000156
:1027E0000201C038E438E0000102020102020806DA
:1027F00000000000000000000000000000F80402DB
:10280000000000010204000204F8000000040201BC
:1028100000009060F860900000000100000020209F
:10282000FC2020000000010000000000000000006B
:1028300008060000000020202020200000000000EA
:102840000000000000000000000200000000008006
:10285000601C0200040300000000F8040404F800F7
:102860000102020201000008FC0000000002030255
:102870000000188444241800030202020200080425
:102880002424D80001020202010040B088FC80002C
:102890000000000302003C242424C40001020202C0
:1028A0000100F824242CC0000102020201000C04E3
:1028B000E41C0400000003000000D8242424D800F5
:1028C00001020202010038444444F80000030202FD
:1028D00001000000100000000000020000000000E5
:1028E00020000000000006000000002050880402C4
:1028F0000000000001029090909090000000000005
:1029000000000002048850200002010000001804AA
:10291000C4241800000002000000F804E494F80049
:1029200001020202020000E09CF0800002030000AD
:10293000030204FC2424D800020302020100F8046C
:1029400004040C0001020202010004FC0404F8006B
:1029500002030202010004FC24740C0002030202C0
:10296000030004FC24740C00020302000000F008C1
:102970000444CC4000010202010004FC2020FC04BD
:102980000203000003020404FC0404000202030228
:102990000200000404FC040406040403000004FC18
:1029A00024D00C0402030200030204FC0400000013
:1029B000020302020203FC3CC03CFC0003000300D3
:1029C000030004FC30C4FC04020302000300F8040A
:1029D0000404F80001020202010004FC242418008F
:1029E000020302000000F8848404F80001020207D8
:1029F000050004FC2464980002030200030218246A
:102A000024448C000302020201000C04FC040C00AC
:102A100000020302000004FC0000FC0400010202AA
:102A20000100047C80E01C040000030000001CE0A6
:102A30003CE01C00000300030000049C609C0400B8
:102A4000020300030200041CE01C04000002030255
:102A500000000C84641C0400020302020300000056
:102A6000FE020200000007040400000E30C0000057
:102A7000000000010200000202FE00000004040742
:102A8000000000040204000000000000000000003C
:102A90000000000008080808080800000200000004
:102AA0000000000000000040A0A0C00000010202E1
:102AB000030204FC2020C00000030202010000C049
:102AC0002020600000010202020000C02024FC005F
:102AD00000010202030200C0A0A0C0000001020227
:102AE00002000020F8242404000203020200004037
:102AF000A0A0602000070A0A0A0404FC2020C000ED
:102B00000203020003020020E400000000020302AE
:102B10000000000020E4000008080807000004FC92
:102B200080E020200203020003020404FC000000F5
:102B3000020203020200E020E020C00003000300C4
:102B4000030020E02020C00002030200030200C0B6
:102B50002020C00000010202010020E02020C0006F
:102B6000080F0A02010000C02020E0000001020A54
:102B70000F0820E040202000020302000000006057
:102B8000A0A020000002020203000020F8200000A4
:102B900000000102020020E00020E000000102022B
:102BA000030220E02080602000000301000060801C
:102BB000E0806000000300030000206080602000CF
:102BC00002030003020020E02080602008080701C3
:102BD00000000020A06020000002030202000000AC
:102BE00020DE0200000000070400000000FF0000DB
:102BF0000000000F00000002DE20000000040700BB
:102C000000000201020404020000000000000000B5
:102C100000000000000000000000000000000000B4
:102C200000F8000000000000003330000000001039
:102C30000C06100C0600000000000000000040C060
:102C40007840C0784000043F04043F040400007052
:102C500088FC08300000001820FF211E0000F0084A
:102C6000F000E018000000211C031E211E0000F0EF
:102C70000888700000001E21232419272110101637
:102C80000E00000000000000000000000000000036
:102C900000E01804020000000007182040000002B5
:102CA0000418E00000000040201807000000404029
:102CB00080F0804040000202010F0102020000008B
:102CC00000F0000000000101011F010101000000EF
:102CD00000000000000080B0700000000000000054
:102CE00000000000000000010101010101010000DD
:102CF0000000000000000030300000000000000074
:102D0000000080601804006018060100000000E068
:102D100010080810E000000F102020100F00001015
:102D200010F8000000000020203F2020000000706C
:102D30000808088870000030282422213000003064
:102D40000888884830000018202020110E0000005C
:102D5000C02010F8000000070424243F240000F8DD
:102D60000888880808000019212020110E0000E0C2
:102D7000108888180000000F112020110E00003864
:102D80000808C83808000000003F0000000000707C
:102D9000880808887000001C222121221C0000E005
:102DA00010080810E0000000312222110F0000007E
:102DB00000C0C00000000000003030000000000033
:102DC00000800000000000008060000000000000A3
:102DD000804020100800000102040810200040403C
:102DE000404040404000040404040404040000087F
:102DF0001020408000000020100804020100007034
:102E000048080808F0000000003036010000C0301B
:102E1000C828E810E0000718272423140B0000003E
:102E2000C038E0000000203C23020227382008F8C8
:102E3000888888700000203F202020110E00C030BC
:102E4000080808083800071820202010080008F893
:102E500008080810E000203F202020100F0008F88C
:102E60008888E8081000203F20202320180008F858
:102E70008888E8081000203F200003000000C030D0
:102E800008080838000007182020221E020008F851
:102E900008000008F808203F210101213F20000818
:102EA00008F8080800000020203F20200000000053
:102EB0000808F8080800C08080807F00000008F83B
:102EC00088C028180800203F20012638200008F874
:102ED000080000000000203F20202020300008F8DB
:102EE000F800F8F80800203F003F003F200008F8F5
:102EF00030C00008F808203F200007183F00E0100D
:102F000008080810E0000F10202020100F0008F81B
:102F100008080808F000203F210101010000E0102E
:102F200008080810E0000F18242438504F0008F853
:102F3000888888887000203F2000030C30200070B3
:102F40008808080838000038202121221C001808B1
:102F500008F8080818000000203F2000000008F8CA
:102F600008000008F808001F202020201F00087813
:102F7000880000C83808000007380E010000F80873
:102F800000F80008F800033C0700073C030008189D
:102F900068808068180820302C03032C3020083803
:102FA000C800C83808000000203F200000001008BA
:102FB0000808C83808002038262120201800000002
:102FC00000FE020202000000007F40404000000CB2
:102FD00030C000000000000000010638C000000200
:102FE0000202FE000000004040407F0000000000A0
:102FF00004020202040000000000000000000000C3
:1030000000000000000080808080808080800002BE
:1030100002040000000000000000000000000000AA
:103020008080808000000019242222223F2008F89E
:10303000008080000000003F112020110E000000E1
:10304000008080800000000E112020201100000070
:1030500000808088F800000E112020103F20000022
:10306000808080800000001F222222221300008026
:1030700080F0888888180020203F20200000000071
:10308000808080808000006B94949493600008F8A6
:10309000008080800000203F210000203F20008031
:1030A0009898000000000020203F20200000000031
:1030B00000809898000000C08080807F000008F8A1
:1030C000000080808000203F24022D302000000876
:1030D00008F8000000000020203F20200000808031
:1030E000808080808000203F20003F20003F808043
:1030F000008080800000203F210000203F20000051
:10310000808080800000001F202020201F00808001
:1031100000808000000080FFA12020110E00000030
:10312000008080808000000E112020A0FF80808021
:1031300080008080800020203F21200001000000CE
:1031400080808080800000332424242419000080A3
:1031500080E0808000000000001F202000008080B0
:10316000000000808000001F202020103F20808071
:1031700080000080808000010E3008060100808001
:103180000080008080800F300C030C300F00008026
:103190008000808080000020312E0E312000808051
:1031A00080000080808080818E7018060100008081
:1031B0008080808080000021302C2221300000009F
:1031C0000000807C020200000000003F4040000040
:1031D0000000FF00000000000000FF0000000002EF
:1031E000027C800000000040403F0000000000061C
:1031F00001010202040400000000000000000000C1
:1032000000000000000000000000000000000000BE
:1032100000000000000000000000000000000000AE
:1032200000000000000000F0F0F0000000000000CE
:10323000000000017F010000000000000000001CF1
:103240001C1C0000000000008060301C8C60301CE2
:103250000C00000000000000000000000000000062
:1032600000000000000000000000000000E000007E
:10327000000000E000000086E69F86868686E69FC6
:10328000860000011F01010101011F010100000072
:1032900080C06020F820E0C00000000003070C1888
:1032A000FF70E18100000000070F10107F100F0772
:1032B00000008060206080000000E02000000F30EF
:1032C00020309F70DC371030C0000000100E03006B
:1032D0000718101807000000C02020E0C000000000
:1032E000000080E01F38E88703C43C040000070F9B
:1032F0001810100B070D1010080000808C4C3800BF
:1033000000000000000000000000000000000000BD
:1033100000000000000000000000000000000000AD
:103320000000000080E0300804000000000000FE03
:10333000FF0100000000000000000000030F182043
:10334000400000040830E0800000000000000000A1
:10335000000001FFFE0000000000004020180F03E5
:10336000000000000000000000000000C00000009D
:103370000000004266663C18FF183C66664200008A
:10338000000000000300000000000000000000003A
:10339000800000000000001010101010FF1010102E
:1033A00010100000000000000300000000000000FA
:1033B000000000000000000000000000000000000D
:1033C00000000000000000808C4C3800000000006D
:1033D00000000000000000000000000000000010DD
:1033E000101010101010101010000000000000004D
:1033F00000000000000000000000000000000000CD
:1034000000000000000000000000000000000000BC
:103410001C1C1C0000000000000000000000000058
:103420000000E0380C000000000080701C03000069
:1034300000000060380E01000000000000000000E5
:1034400080C060202060C080000000FEFF010000FE
:10345000000001FFFE000001070E181010180E07F3
:1034600001000000808080C0E0000000000000003B
:10347000000000FFFF000000000000001010101FFF
:103480001F10101000000080402020202060C0800D
:10349000000000030300804020381F070000001CCC
:1034A0001A1918181818181F00000080C0202020B2
:1034B00060C080000000000303001010182FE78098
:1034C000000000070F10101010180F070000000078
:1034D00000000000C0E0F000000000C0B08886815D
:1034E00080FFFF808000000000000010101F1F10F0
:1034F00010000000E060606060606060000000003C
:103500003F1008080818F0E0000000070B1010102A
:10351000101C0F030000000080C040202020E0C0ED
:10352000000000FCFF211008080818F0E00000016E
:10353000070C18101010080F03000000C0E06060B6
:10354000606060E06000000003000000E018070019
:10355000000000000000001F1F00000000000080AD
:10356000C0602020202060C080000087EF2C181849
:10357000303068CF830000070F0810101010180FAC
:1035800007000000C0C020202020C0800000001FD5
:103590003F604040402010FFFE0000000C1C101057
:1035A00010080F03000000000000000000000000F1
:1035B000000000000000000E0E0E000000000000E1
:1035C0000000001C1C1C00000000000000000000A7
:1035D00000000000000000000000000C0C000000D3
:1035E000000000000000005838000000000000004B
:1035F00000000000008040201000000010284482DD
:1036000001000000000000000000000001020408AA
:103610001000000000000000000000000000008416
:1036200084848484848484848400000000000000F6
:10363000000000000000000010204080000000009A
:10364000000000000000000001824428100000007B
:103650001008040201000000000000C0202010102B
:10366000101030E0C0000003030000F010080C0749
:103670000300000000001C1C1C00000000000000F3
:1036800000C0406020202040C00000FCFF01F00E80
:1036900003C1FE03807F0001070E081111101109FC
:1036A00004020000000080E0E000000000000000D4
:1036B000807C4340477FF880000010181F100000F6
:1036C0000000131F1C1020E0E02020202060C0809C
:1036D000000000FFFF10101010182FE78000101FCF
:1036E0001F1010101010180F0700000080C040209D
:1036F00020202060E00000FCFF010000000000002E
:1037000001000001070E181010100804030020E04B
:10371000E02020202040C080000000FFFF000000CB
:10372000000001FFFE00101F1F10101018080E07E8
:10373000010020E0E020202020202060800000FF09
:10374000FF101010107C00000000101F1F10101040
:1037500010101018060020E0E020202020206060DB
:10376000800000FFFF101010107C00000100101FEF
:103770001F100000000000000000000080C060205A
:10378000202040E0000000FCFF0100004040C0C1DC
:1037900040400001070E181010100F0F000020E02D
:1037A000E0200000000020E0E02000FFFF101010EB
:1037B000101010FFFF00101F1F1000000000101F4E
:1037C0001F100000202020E0E0202020000000004A
:1037D000000000FFFF000000000000001010101F9C
:1037E0001F101010000000000000202020E0E0204A
:1037F000202000000000000000FFFF00000000602B
:10380000E0808080C07F3F00000020E0E0200000DA
:1038100020A06020200000FFFF30187CE3C00000E3
:103820000000101F1F10000001131F1C181020E0C3
:10383000E020000000000000000000FFFF0000008A
:10384000000000000000101F1F10101010101018B2
:10385000060020E0E0E000000000E0E0E02000FFE3
:10386000013FFEC0E01E01FFFF00101F1000031FFC
:103870000300101F1F1020E0E0C000000000002027
:10388000E02000FF0003071C78E08000FF00101F0D
:10389000100000000000030F1F00000080C0602027
:1038A0002060C080000000FEFF010000000000FF5B
:1038B000FE000001070E181010180C07010020E090
:1038C000E0202020202060C0800000FFFF2020207A
:1038D0002020301F0F00101F1F10000000000000EC
:1038E0000000000080C060202060C080000000FE5A
:1038F000FF010000000000FFFE000001070E111193
:10390000133C7C67210020E0E0202020202060C0C4
:10391000800000FFFF101030F0D0080F0700101FCC
:103920001F10000000030F1C10100080C06020203A
:1039300020204040E00000070F0C1818303060E0F5
:103940008100001F0C0810101010180F0700806075
:10395000202020E0E020202060800100000000FF07
:10396000FF000000000100000000101F1F100000F9
:10397000000020E0E020000000000020E02000FF28
:10398000FF00000000000000FF0000070F181010EB
:103990001010100807002060E0E02000000020E088
:1039A00060200000077FF88000807C03000000009A
:1039B0000000071F1C070000000020E0E02000E0DE
:1039C000E0200020E0200007FFF8E01FFFFCE01FE0
:1039D00000000000031F0300011F0300000000207F
:1039E00060E0A0000020E0602000000000038F7C69
:1039F000F8C6010000000010181E130001171F1860
:103A000010002060E0E02000000020E060200000C6
:103A100001073EF8E0180700000000000010101F2A
:103A20001F101000000000806020202020A0E0E097
:103A3000200000000000C0F03E0F03000000001056
:103A40001C1F17101010101806000000000000FCCA
:103A50000404040404000000000000FF0000000053
:103A6000000000000000007F404040404000000097
:103A700010E0000000000000000000000000031C37
:103A800060800000000000000000000000030C70D7
:103A9000800000000404040404FC00000000000096
:103AA0000000000000FF0000000000004040404017
:103AB000407F0000000000000010080C040C0810FB
:103AC00000000000000000000000000000000000F6
:103AD00000000000000000000000000000000000E6
:103AE00000000000000000000000000000000000D6
:103AF00000008080808080808080808080800000C6
:103B0000000404080800000000000000000000009D
:103B100000000000000000000000000000000000A5
:103B20000000000000000000000000000000000095
:103B300098D844642424FCF80000000F1F181010CB
:103B400010081F1F10180020E0F000000000000007
:103B500000000000FFFF180804040CF8F00000004B
:103B60001F0F18101010180F0300000000000000B5
:103B700000000000000000E0F8180404043C3800D5
:103B8000000000030F0C10101010080600000000C9
:103B9000000000000020E0F0000000E0F81C040439
:103BA0000408FFFF000000030F18101010081F0F7B
:103BB00008000000000000000000000000000000FD
:103BC000E0F8484444444C7870000000030F0C189F
:103BD0001010100804000000000080C0602020E0E9
:103BE000C00000040404FFFF0404040400000000FB
:103BF00010101F1F10101000000000000000000037
:103C0000000000000000000070F88C04048CF874C0
:103C1000040C007076CF8D8D8D89C87870000020DF
:103C2000E0F000000000000000000000FFFF0804BA
:103C30000404FCF8000000101F1F100000101F1FDC
:103C400010000000000000606000000000000000A4
:103C5000040404FCFC000000000000001010101F11
:103C60001F10101000000000000000000060600045
:103C7000000000000000040404FCFC000000000040
:103C8000C0C08080C07F3F0000000020E0F0000046
:103C90000000000000000000FFFF80C0F41C0404CE
:103CA000000000101F1F1100031F1C101000000057
:103CB000202020E0F000000000000000000000FFD5
:103CC000FF000000000000001010101F1F10101057
:103CD000000000000000000000000000000004FCE4
:103CE000FC0804FCFC0804FCFC00101F1F10001F53
:103CF0001F10001F1F100000000000000000000047
:103D000000000004FCFC08080404FCF8000000109B
:103D10001F1F100000101F1F1000000000000000F7
:103D200000000000000000E0F0180C04040C18F083
:103D3000E00000030F0C101010100C0F0300000027
:103D4000000000000000000000000004FCFC08046B
:103D500004040CF8F0000080FFFF889010101C0F86
:103D6000030000000000000000000000000000E070
:103D7000F81C04040408F8FC000000030F181010DD
:103D80009088FFFF8000000000000000000000009D
:103D90000000040404FCFC100804040C0C001010C7
:103DA000101F1F1010100000000000000000000095
:103DB00000000000000000003078CCC48484840C33
:103DC0001C0000001E1810101011190F0600000032
:103DD000000000C000000000000000040404FFFF19
:103DE000040404000000000000000F1F1010100C5D
:103DF00000000000000000000000000000000004BF
:103E0000FCFE00000004FCFE000000000F1F181064
:103E100010081F0F08000000000000000000000054
:103E2000000000040C3CFCC40000C43C0C04000076
:103E30000000010F1E0E0100000000000000000045
:103E4000000000000000043CFCC400E47CFC848012
:103E50007C040000071F070000071F070000000088
:103E6000000000000000000000000004041C7CE4CE
:103E7000C0341C0404000010101C1601131F1C1871
:103E8000100000000000000000000000000000041E
:103E90000C3CFCC400C43C0404000000C080C137DA
:103EA0000E01000000000000000000000000000003
:103EB000000000001C0404C4F47C1C04000000008A
:103EC000101C1F17111010180E0000000000000039
:103ED00000F80C04000000000000001028EF0000B3
:103EE0000000000000000000003F604000000000F3
:103EF00000000000FF0000000000000000000000C3
:103F0000FF0000000000000000000000FF000000B3
:103F100000000000040CF800000000000000000099
:103F20000000EF28100000000000000040603F008B
:103F30000000000000000018060202040810202003
:103F40003008000000000000000000000000000039
:103F50000000000000000000000000007C3F00089E
:103F6000000000203800000028010008B43F0008CD
:103F700038000020980E00004401000801000000F5
:103F8000100000000000000000127A000000000095
:103F90000000000000000000000000000000000021
:103FA0000000000000000000000000000000000011
:043FB000000000000D
:04000005080000ED02
:00000001FF
