:020000040800F2
:10000000000F002099010008F72F0008412A00087E
:10001000F52F00088D060008053D000800000000CF
:10002000000000000000000000000000AD350008E6
:10003000010B0008000000008134000805360008AC
:10004000B3010008B3010008B3010008B3010008C0
:10005000B3010008B3010008B3010008B3010008B0
:10006000B3010008B3010008B3010008B3010008A0
:10007000B3010008B3010008910600089D060008BE
:10008000B3010008B3010008B3010008B301000880
:10009000B3010008B3010008B30100084F0B0008CA
:1000A000B3010008B3010008B3010008B301000860
:1000B000B3010008B301000869360008B301000865
:1000C000B3010008B3010008B3010008853400083B
:1000D000B3010008AD3C0008B3010008B3010008FB
:1000E000290B0008B3010008B301000800F002F872
:1000F00000F042F80AA090E8000C82448344AAF180
:100100000107DA4501D100F037F8AFF2090EBAE87D
:100110000F0013F0010F18BFFB1A43F0010318473B
:10012000F45B0000145C0000103A24BF78C878C16A
:10013000FAD8520724BF30C830C144BF04680C60ED
:10014000704700000023002400250026103A28BF35
:1001500078C1FBD8520728BF30C148BF0B60704739
:10016000642900F08B80782900F0C480002070475B
:100170001FB51FBD10B510BD00F053FA1146FFF7B3
:10018000F7FF03F0FFFD00F071FA03B4FFF7F2FF91
:1001900003BC00F075FA0000094880470948004791
:1001A000FEE7FEE7FEE7FEE7FEE7FEE7FEE7FEE727
:1001B000FEE7FEE704480549054A064B7047000084
:1001C00067360008ED00000800090020000F00203D
:1001D000000B0020000B0020B2F120030AD5C2F171
:1001E000200320FA02F001FA03F321FA02F140EAB7
:1001F0000300704721FA03F04FF000017047000040
:100200000FB41CB5084B06AA7B44694600900598BC
:1002100000F0E9F904460020694600F0F7F92046AD
:100220001CBC5DF814FB00000104000070B504461E
:1002300085690068C10601D5302600E02026C00788
:1002400007D070BDD4E9012130469047206A401C98
:1002500020626D1EF6D570BD70B5044685690078C4
:10026000C00707D170BDD4E9012120209047206A42
:10027000401C20626D1EF6D570BD00002DE9F041D6
:100280000646002410687529314616A510D0AFF334
:100290000080002802DA404213A507E031688A078F
:1002A00001D512A502E0490704D511A5012401E0FA
:1002B000AFF3008000210A2206F1240709E0B0FB19
:1002C000F2FCB0FBF2F302FB1C003030785418460D
:1002D000491C0028F3D123462A463046BDE8F041A8
:1002E00000F022B9000000002D0000002B000000EB
:1002F0002000000070B504460D4621461068AFF39B
:1003000000802188090502D50F4A7A4402E00E4A8E
:100310007A440E32002104F1240305E000F00F06B8
:100320000009965D5E54491C0028F7D1207800230F
:10033000000704D5702D02D009B1022311322046E6
:10034000BDE8704000F0F0B8CC5900002DE9F05F36
:10035000894604464FF0000ADFF874B1FB44C0F848
:1003600020A02046E1688847002874D0252806D0C0
:10037000D4E901219047206A401C2062F1E7002661
:100380005F462046E16888472028054607DB312D77
:1003900005D2781910F8200C08B10643F1E7B00730
:1003A00001D526F00406C4F81CA00027C4F818A044
:1003B0002A2D09D0284603F0B6FC38B304EB870891
:1003C000303DC8F8185019E059F8041B204604EBDA
:1003D00087029161E1688847012F054618D1E069DD
:1003E000002820DA26F020061DE0D8F8180000EBDF
:1003F000800005EB40003038C8F818002046E1685E
:100400008847054603F08FFC0028EED1012F0AD063
:100410002E2D08D12046E16888477F1C0546022F13
:1004200046F02006C4DBA069002803DA404246F00B
:100430000106A061F00701D026F010066C2D0BD04C
:10044000682D09D04C2D39D06A2D35D0742D35D07A
:100450007A2D33D016E038E0E1682F4620468847F1
:10046000B842054609D16C2F26D04FF48060E16870
:10047000064320468847054604E06C2F1AD04FF407
:10048000807006430DB3A5F14100192802D820352C
:1004900046F400664A462946204626604E46FFF747
:1004A0005FFE80B101280BD0F61D26F0070000F199
:1004B000080956E74020E4E78020D8E70020D6E787
:1004C00006F104094DE7284652E7206ABDE8F09F8F
:1004D000A25900004FF0000200B51346944696461C
:1004E000203922BFA0E80C50A0E80C50B1F1200147
:1004F000BFF4F7AF090728BFA0E80C5048BF0CC0F5
:100500005DF804EB890028BF40F8042B08BF704752
:1005100048BF20F8022B11F0804F18BF00F8012BC4
:1005200070477047704770472DE9F0470D46994670
:100530009246044600F124080168880604D5E06963
:1005400021F01001216000E00120A84201DD471BDD
:1005500000E00027A1697A1902EB0900081AA061DE
:100560002078C00602D42046FFF760FE002608E08F
:10057000D4E901211AF806009047206A401C761C35
:1005800020624E45F4DB2078C0060AD52046FFF7EE
:100590004DFE06E0D4E9012130209047206A401C3E
:1005A0002062381EA7F10107F4DC07E0D4E901213D
:1005B00018F805009047206A401C2062281EA5F10B
:1005C0000105F3DC2046FFF747FE2078000602D540
:1005D0000220BDE8F0870120FBE7000001694A1C0A
:1005E00002610878704700B58FB0CDE90131002174
:1005F000059105497944CDE9031011466846FFF796
:10060000A5FE0FB000BD0000E5FFFFFF0A6802F87D
:10061000010B0A607047000000487047A0080020E6
:1006200070477546FFF7F8FFAE460500694653462A
:1006300020F00700854618B020B5FFF7BBFDBDE8E8
:1006400020404FF000064FF000074FF000084FF039
:10065000000B21F00701AC46ACE8C009ACE8C009CA
:10066000ACE8C009ACE8C0098D46704710B5044637
:10067000AFF300802046BDE81040FFF786BD0000C4
:1006800001491820ABBEFEE726000200FEE700008D
:10069000014800F011BC000074010020014800F086
:1006A0000BBC0000B801002030B590F84050012488
:1006B000AC40C56B6C60046863604368102B0368D2
:1006C00003D099600068C26030BD9A600068C16064
:1006D00030BD00001FB50020019002900390402023
:1006E00000906946014800F007FF1FBD000C014063
:1006F0001FB50020029040200090012001900320AF
:10070000054C03906946204600F0F6FE0122402188
:10071000204600F0E6FF1FBD000C0140002100EB69
:10072000800001E000BF491CB1EB400FFAD37047D5
:1007300010B504468C2000F07FF800F00F0100098E
:1007400000EB800001EB40002070882000F074F87E
:1007500000F00F01000900EB800001EB4000607029
:10076000862000F069F800F00F01000900EB80001E
:1007700001EB4000A0708A2000F05EF800F00F014D
:10078000000900EB800001EB4000E070842000F0E5
:1007900053F800F00F01000900EB800001EB40006E
:1007A0002071822000F048F800F00F01000900EBF2
:1007B000800001EB40006071802000F03DF800F007
:1007C0000F01000900EB800001EB4000A07110BD9B
:1007D0002DE9FF414FF40045002001240095CDE9AB
:1007E00001400320124E03906946304600F084FE1B
:1007F0004020CDE900040F4F6946384600F07CFEEA
:100800008020CDE900046946384600F075FE0022DC
:100810002946304600F065FF00228021384600F06E
:1008200060FF00224021384600F05BFFBDE8FF81F9
:1008300000080140000C01402DE9F0473D4D002427
:1008400040F0010722468021284600F04AFF01209F
:10085000FFF764FFDFF8E0A04FF4004800224146B4
:10086000504600F03EFF0120FFF758FF0122802193
:10087000284600F036FF0120FFF750FFA946454605
:100880000026D046F80701D0012200E000224021D6
:10089000484600F026FF0120FFF740FF01222946CD
:1008A000404600F01EFF0120FFF738FF00222946D6
:1008B000404600F016FF0120FFF730FF761C7F084E
:1008C000F6B2082EDED3FFF705FF0120FFF726FF63
:1008D0000026474664084021484600F0FDFE08B166
:1008E00044F080040120FFF719FF01222946384611
:1008F00000F0F7FE0120FFF711FF002229463846DD
:1009000000F0EFFE0120FFF709FF761CF6B2082E7B
:10091000E0D3FFF7EDFE0120FFF700FF002280216A
:10092000484600F0DEFE0120FFF7F8FE2046BDE855
:10093000F0870000000C01400008014070B505463A
:1009400000218E2000F064F828780A24B0FBF4F12E
:1009500004FB1101B0FBF4F041EA0010C1B28C209D
:1009600000F056F86878B0FBF4F104FB1101B0FB1D
:10097000F4F041EA0010C1B2882000F049F8A878EC
:10098000B0FBF4F104FB1101B0FBF4F041EA0010FC
:10099000C1B2862000F03CF8E878B0FBF4F104FB2B
:1009A0001101B0FBF4F041EA0010C1B28A2000F05E
:1009B0002FF82879B0FBF4F104FB1101B0FBF4F03F
:1009C00041EA0010C1B2842000F022F86879B0FB3F
:1009D000F4F104FB1101B0FBF4F041EA0010C1B2E4
:1009E000822000F015F8A879B0FBF4F104FB1101A6
:1009F000B0FBF4F041EA001000F07F01802000F02D
:100A000007F8BDE8704080218E2000F001B800009A
:100A10002DE9F047384C0E4607460022802120463B
:100A200000F05FFE0120FFF779FEDFF8D0A04FF461
:100A3000004800224146504600F053FE0120FFF7D7
:100A40006DFE01228021204600F04BFE0120FFF7C1
:100A500065FEA14644460025D046F80701D0012294
:100A600000E000224021484600F03BFE0120FFF755
:100A700055FE01222146404600F033FE0120FFF7DB
:100A80004DFE00222146404600F02BFE0120FFF7DC
:100A900045FE6D1C7F08EDB2082DDED300254746CC
:100AA000F00701D0012200E000224021484600F07A
:100AB00018FE0120FFF732FE01222146384600F0E1
:100AC00010FE0120FFF72AFE00222146384600F0E2
:100AD00008FE0120FFF722FE6D1C7608EDB2082DFE
:100AE000DED300228021484600F0FBFDBDE8F04740
:100AF0000120FFF713BE0000000C01400008014078
:100B000070470000054806494FF47A720068B0FB50
:100B1000F1F004490860504348607047200000200D
:100B200040420F002800002010B54FF4805000F024
:100B3000D7FC4FF4005000F0D3FC4FF4804000F09D
:100B4000CFFCBDE810404FF4004000F0C9BC4FF4AA
:100B5000807000F0C5BC72B6FEE7000006490020B8
:100B6000C8610648016941F004010161016941F071
:100B70004001016170470000000200200020024097
:100B8000064A0021D16106490A6942F002020A615F
:100B90004861086940F04000086170470002002089
:100BA00000200240044B0022DA61044A136943F03A
:100BB0000103136101807047000200200020024001
:100BC00014480022C168CB06134904D5CA6942F013
:100BD0000202CA611022C3685B0705D5CB6943F0E6
:100BE0000103CB6142F00402C369DB0707D0CB6984
:100BF00043F00403CB61C16921F00101C161A2F599
:100C00008071013901D0C2607047C16921F00101D2
:100C1000C1617047002002400002002070B5054607
:100C200000F064FD0646114C09E0681C07D025B1B0
:100C300000F05CFD801BA84201D9032070BDE06874
:100C4000C007F2D1E068800601D52020E060E068AE
:100C5000C00605D4E069C00702D1E068400703D5AB
:100C6000FFF7AEFF012070BD002070BD00200240E4
:100C7000F0B591B004460A2830D2684600F058F822
:100C80006D46FF2005EB84010DF824004870887044
:100C9000C87000F0D1FA00260F96114F01200B9674
:100CA000CDE90D700FA90BA800F028FA5FF0000441
:100CB00005EB840215F82400D2F8012007EB84012B
:100CC00040EA02220023022000F076FA641CE4B21B
:100CD0000A2CEDD300F066FA0248067011B0F0BDA0
:100CE00000FC01084000002030B50346094A0020FE
:100CF000002114785D5CAC4205D0401CC0B20A28CB
:100D0000F6D3FF2030BD491CC9B2521C0429F0D3D0
:100D100030BD000000FC010810B500F08DFA00F0B5
:100D200041FA02490020087010BD00004000002078
:100D300030B5084B0022002113F8014B01EB82056E
:100D4000491CC9B244550429F6D3521CD2B20A2A0E
:100D5000F1D330BD00FC0108F0B591B00C46064659
:100D60000A2833D26846FFF7E3FF20786D460DF876
:100D7000260005EB860061784170A1788170E178EA
:100D8000C17000F059FA00260F96114F01200B9602
:100D9000CDE90D700FA90BA800F0B0F95FF00004C9
:100DA00005EB840215F82400D2F8012007EB84013A
:100DB00040EA02220023022000F0FEF9641CE4B2A3
:100DC0000A2CEDD300F0EEF90248067011B0F0BD28
:100DD00000FC01084000002010B590F8211000220E
:100DE000022905D00421816380F82020012010BD54
:100DF00001680B6823F00E030B6001680B6823F099
:100E000001030B6090F84030C46B012101FA03F339
:100E1000636080F8211080F82020104610BD00008B
:100E200010B590F821100024022903D00421816319
:100E300001243DE001680A6822F00E020A600168A0
:100E40000A6822F001020A601A4A0168914201D13F
:100E5000012121E0174A1432914201D110211BE0F7
:100E6000144A2832914201D1891515E0114A3C32C9
:100E7000914201D189140FE00E4A5032914202D1C1
:100E80004FF4803108E00B4A6432914202D14FF4B2
:100E9000801101E04FF08071064A083A516001214B
:100EA00080F82110002180F82010416B01B18847A3
:100EB000204610BD080002402DE9F05FC16B0C68B0
:100EC00001680B68D0F840C0042202FA0CF2494DC8
:100ED000DFF824A1494E4A4FDFF828B1DFF828E1B6
:100EE00022422CD05A072AD50A68920603D40A68EF
:100EF00022F004020A600168A94201D1042219E02B
:100F0000514501D1402215E0B14202D14FF4806237
:100F100010E0B94202D14FF480420BE0594502D1B2
:100F20004FF4802206E0714502D14FF4800201E0C7
:100F30004FF080622F4908394A60C16A3BE04FF0A8
:100F4000020808FA0CF818EA040F4FF000094FF0F5
:100F5000010235D05FEA837832D50B689B0605D451
:100F60000B6823F00A030B6080F821200168A94276
:100F700001D1022219E0514501D1202215E0B142F0
:100F800002D14FF4007210E0B94202D14FF4005286
:100F90000BE0594502D14FF4003206E0714502D111
:100FA0004FF4001201E04FF00072124908394A6014
:100FB00080F82090816A00291AD0BDE8F05F0847C8
:100FC000082505FA0CF5254212D01B0710D50B6831
:100FD00023F00E030B6090F84010C36B02FA01F18E
:100FE0005960826380F8212080F82090016BE2E74D
:100FF000BDE8F09F080002401C00024030000240A3
:1010000044000240580002406C00024030B528B352
:1010100008C8134914221944B1FBF2F18900C163D5
:1010200010498163022141771A6843F6F0718A43BF
:10103000D0E900142143D0E902452C43214304693F
:1010400021434469214384692143114319600021EC
:101050004163012242770177084630BD012030BD4F
:10106000F8FFFDBF0000024070B5044690F8200074
:10107000002501280CD0012084F8200094F821607C
:101080000020012E06D084F820000225284670BDDD
:10109000022070BD022684F82160A06320680668E3
:1010A00026F0010606602046FFF7FEFAE06A0028F7
:1010B0002068016802D041F00E0106E021F0040131
:1010C00001602068016841F00A0101602068016840
:1010D00041F001010160D9E770B5044600F006FB5C
:1010E0000546601C02D004480078044400F0FEFA73
:1010F000401BA042FAD370BD140000202DE9F04738
:10110000054626480F460126017E01290FD0012100
:10111000814601762868DFF888804CF25034022836
:1011200008D0A2462046FFF779FDA8B131E00220A1
:10113000BDE8F0872046FFF771FD08BB0120FFF7EF
:101140000DFD2046FFF76AFDD8F81010064621F085
:101150000401C8F810101CE04FF0FF303860AC6894
:1011600011E02046FFF70CFD5046FFF757FDD8F879
:101170001010060021F00201C8F8101001D03C60E8
:1011800007E004F58064D5E9020100EB8120A0426C
:10119000E7D8002189F818103046C9E7000200207E
:1011A000002002400348016941F0800101610020F4
:1011B00070470000002002402DE9F05F07461C4800
:1011C00088460024017E15461E46012909D00121CA
:1011D000814601764CF2503A5046FFF71FFD18B198
:1011E00022E00220BDE8F09F012F02D0022F00D0A4
:1011F0000427D346DFF83CA0220128463146FEF7FB
:10120000EBFF81B208EB4400FFF7CCFC5846FFF738
:1012100005FDDAF8102022F00102CAF8102018B9F2
:10122000641CE4B2BC42E7D3002289F81820D9E755
:101230000002002000200240064900200A69120630
:1012400007D5054A4A60054A4A600969090600D57A
:10125000012070470020024023016745AB89EFCD94
:10126000F8B5064600F042FA01467D4882688A1ABF
:10127000C82A73D30027012500F10C048160B6F55C
:10128000804F28D0B6F5004F39D0B6F5807F79D0A1
:10129000B6F5805F6CD0B6F5005F72D104468078F9
:1012A00030B1642310226FA1734801F078FBA7705E
:1012B000E0784FF0080390F00100E070009570D0E6
:1012C0006EA20821002001F0D7FF01F02FFF642358
:1012D0000D226FA1B7E00646406818B960480C308F
:1012E000FFF726FA7068401C7060062849DD7760B9
:1012F000E570BDE8F8405A480C30FFF71FBB416865
:1013000001290AD0022911D0032917D004291DD0A0
:10131000052924D006292CD032E02178491CC9B2F5
:10132000217063292CD91421217029E06178491C8E
:10133000C9B261700C2923D9657021E0A178491CDC
:10134000C9B2A1701F291BD9A57019E02179491CC8
:10135000C9B22171172913D9277111E011E0617900
:10136000491CC9B261713B290AD9677108E009E0DB
:1013700049E0A179491CC9B2A1713B2900D9A771E3
:101380000570F8BD416801290CD0022913D003294A
:101390001AD0042921D03B22052925D006292AD09C
:1013A0002DE046E02178491EC9B22170142926D2C9
:1013B0006321217023E06178491E11F0FF01617003
:1013C0001DD10C2161701AE0A178491E11F0FF01B6
:1013D000A17014D11F21A17011E0217911B1491E12
:1013E00021710CE01721FBE7617911B1491E617190
:1013F00005E0627103E0A17919B1491EA171457040
:10140000F8BDA271FBE7C17801B1C77081784FF0D8
:10141000080391F001018170009501D020A200E045
:1014200024A20821002001F027FFBDE8F84001F0C8
:101430007DBE20A20821002001F01EFF01F076FEF3
:1014400064230E2220A10C4801F0A9FA01B0642304
:10145000BDE8F040042220A1074801F0A0BA000036
:1014600000000020436C6F736520726567206D6F0C
:1014700064650D0A000000002C01002044656C200A
:101480006D6F64653A576169742E2E2E000000005E
:1014900044656C206D6F6465204F4E0D0A0000009E
:1014A000526567206D6F64653A576169742E2E2E00
:1014B00000000000202020202020202020202020AC
:1014C000202020200000000044656C206D6F6465C2
:1014D000204F46460D0A00004B45593200000000DF
:1014E000044910B50A68024202D00860FFF7B8FE4E
:1014F00010BD0000140401402DE9F84FDFF8B89149
:101500000024A9F1040B23460F2709F1040AABF1CB
:10151000040EC9E00125A5402A40AA427DD1674EAC
:10152000D1F804C0ACEB0608B44532D014DCBCF1F1
:10153000030F3AD009DCBCF1000F2AD0BCF1010F37
:101540001CD0BCF1020F31D11DE0BCF1110F17D03E
:10155000BCF1120F2AD119E0B8F5881F19D006DCAA
:10156000B8F5803F15D0B8F5801F1FD111E0B8F550
:10157000001F0ED0B8F5041F18D10AE0CB6815E0A3
:10158000CB681B1D12E0CB6808330FE0CB680C332F
:101590000CE08B682BB1012B4FF0080303D04561A1
:1015A00004E0042302E0056100E00023FF2A01D8E3
:1015B000064601E000F104064FEA840501D9A5F1D1
:1015C0002005D6F8008007FA05FC28EA0C0803FA83
:1015D00005F548EA0508C6F800804D68ED0062D5BB
:1015E000374DAE6946F00106AE61AD6924F00306E1
:1015F00005F001050095334D06EB050CDCF80850AD
:10160000A607360F07FA06F825EA0805DFF8B880BE
:10161000404503D14FF0000817E044E0DFF8AC800C
:10162000404502D14FF001080FE0DFF8A4804045AB
:1016300002D14FF0020808E0DFF89880404502D15F
:101640004FF0030801E04FF0040808FA06F848EAF2
:101650000508CCF808804D68D9F80060ED024D46C9
:1016600001D5164300E096432E604D68DAF800601D
:10167000AD02554601D5164300E096432E604D68F5
:10168000DBF80060AD035D4601D5164300E09643EC
:101690002E604D68DEF80060ED03754601D51643F7
:1016A00000E096432E60641C0D682A46E5407FF4F6
:1016B00031AFBDE8F88F00000804014000001110B0
:1016C000001002400000014000080140000C0140F1
:1016D00000100140001401408068084000D0012043
:1016E00070470AB1016170470904FBE7014880684F
:1016F00070470000140000200248816802781144FD
:101700008160704714000020074810B5016841F05F
:1017100010010160032000F075F80F2000F006F8BA
:1017200000F024F8002010BD0020024070B50D4DDF
:1017300004464FF47A712878B1FBF0F00A49096841
:10174000B1FBF0F000F0E0FC48B9102C07D2002209
:101750002146501E00F036F800206C6070BD01205C
:1017600070BD000014000020200000200C4808B5C7
:10177000816941F001018161816901F001010091FC
:10178000C16941F08051C161C06900F08050009092
:101790000448416821F0E06141F00071416008BDFA
:1017A0000010024000000140002809DB00F01F0289
:1017B000012191404009800000F1E020C0F80011B3
:1017C00070470000F0B40E4B1B680C46C3F30223B5
:1017D000C3F10705042D00D90425191D072901D2DD
:1017E000002300E0DB1E012606FA05F1491E214018
:1017F00099409E40761E16403143F0BC02F083BAF9
:101800000CED00E0064900F0070208684FF6FF0300
:10181000184040EA0220034A104308607047000065
:101820000CED00E00000FA052DE9F0470F46050039
:1018300061D0434E306800F00700B84209D23068EA
:1018400020F0070038433060306800F00700B842ED
:1018500051D128683B4C810712D5400703D56068F9
:1018600040F4E06060602878000703D5606840F4C9
:10187000605060606068A96820F0F0000843606014
:101880002878C00728D06868012810D0216802286D
:1018900010D0890700292EDA616821F00301014385
:1018A0006160FFF723FF804641F288390DE021682F
:1018B0008903EFE78901EDE7FFF718FFA0EB0801C7
:1018C000494502D90320BDE8F0876068696800F0E7
:1018D0000C00B0EB810FEFD1306800F00700B84288
:1018E0000BD9306820F0070038433060306800F0D2
:1018F0000700B84201D00120E5E72878400705D568
:101900006068E96820F4E0600843606028780007B8
:1019100006D56068296920F4605040EAC100606023
:1019200000F038F86168084AC1F30311515CC840FF
:101930000649086006480068FFF7F8FE0020C2E785
:101940000020024000100240D24200082000002087
:10195000180000200448054900684968044AC1F39A
:101960000221515CC8407047200000200010024056
:10197000E24200080448054900684968044AC1F386
:10198000C221515CC8407047200000200010024076
:10199000E24200080E4A51680E4801F00C03042B85
:1019A00011D0082B0FD10C48C1F38343C903C05C8D
:1019B0000AD55168084AC1F34041921E515C054A5C
:1019C0005043B0FBF1F070470449484370470000B2
:1019D0000010024000127A00C242000800093D00D7
:1019E0002DE9F84F040070D02078C04DC00749D0D1
:1019F0006868C0F38100012807D06868C0F38100DF
:101A0000022809D16868C00306D52868800339D543
:101A100060680028E7D035E06068B0F5803F0BD003
:101A200010B1B0F5A02F11D0286820F480302860C4
:101A3000286820F4802002E0286840F48030286084
:101A4000606890B1FFF752FE06460AE0286840F44D
:101A500080202860F0E700BFFFF748FE801B642865
:101A600073D828688003F7D50CE0FFF73FFE0646E1
:101A700005E000BFFFF73AFE801B6428F0D8286815
:101A80008003F7D420789A4E80074FF001094FF079
:101A9000000839D5686810F00C0F07D06868C0F3EB
:101AA0008100022809D16868C00306D4286880072D
:101AB00014D52069012808D110E02069B0B1C6F81A
:101AC0000090FFF713FE074605E00AE1FFF70EFE60
:101AD000C01B0228C4D828688007F7D52868616928
:101AE00020F0F80040EAC10028600DE0C6F8008050
:101AF000FFF7FCFD074604E0FFF7F8FDC01B0228D6
:101B000023D828688007F7D4207800072CD5794897
:101B1000A169D9B1C0F80090FFF7E8FD074604E0DD
:101B2000FFF7E4FDC01B02280FD8686A8007F7D5CD
:101B300071484FF4FA510068B0FBF1F0009000BF1B
:101B40000098411E0091FAD20EE080E0C0F80080BB
:101B5000FFF7CCFD074604E0FFF7C8FDC01B0228D5
:101B600075D8686A8007F7D42078400760D5E8699F
:101B70000027C00008D4E86940F08050E861E869B7
:101B8000012700F0805000905C480168C90513D41B
:101B90000168834641F480710160FFF7A7FD82462A
:101BA00006E000BFFFF7A2FDA0EB0A0064284ED8B4
:101BB000DBF80000C005F5D5E06801280AD008B1BF
:101BC000052813D0286A20F001002862286A20F036
:101BD000040002E0286A40F001002862E06841F257
:101BE000883B98B1FFF782FD82460BE0286A40F0FF
:101BF00004002862EEE700BFFFF778FDA0EB0A01C2
:101C000059455AD8286A8007F6D50CE0FFF76EFDD3
:101C1000824605E0FFF76AFDA0EB0A0159454CD862
:101C2000286A8007F6D41FB1E86920F08050E86187
:101C3000E06988B36968C1F38101022944D00228B0
:101C4000C6F8608004D0FFF751FD044638E034E068
:101C5000FFF74CFD074604E0FFF748FDC01B0228D4
:101C60002BD828688001F7D4206AB0F5803F05D1D1
:101C70006868A16820F4003008436860D4E908016E
:101C80000843696821F4741108436860C6F86090DD
:101C9000FFF72CFD044606E025E000BFFFF726FD18
:101CA000001B022809D828688001F7D51BE000BF77
:101CB000FFF71CFD001B022802D90320BDE8F88FA6
:101CC00028688001F4D40EE00128F7D06868226A01
:101CD00000F48031914204D1616A00F470108842AE
:101CE00001D00120EAE70020E8E7000000100240F0
:101CF0000000424280044242200000200070004068
:101D00007047000038B50446006842688168C943DE
:101D10004B0606D5CB0704D1D3435B0601D4216C17
:101D200005E08B0708D4D3431B0605D4616C01B0D2
:101D30002046BDE8304008478B0601D54B0646D407
:101D4000D3439B0643D44B060AD494F85130032B5B
:101D50003ED0636D43F004036365C36883680093FA
:101D6000890609D4616D41F00101616581680091C6
:101D7000016821F040010160606D002827D02068D3
:101D8000416821F0E0014160012084F85100900792
:101D900022D02068416821F003014160104DE06CC1
:101DA00040B14563E06CFFF73BF818B1606D40F05F
:101DB00040006065A06C002809D04563A06CFFF767
:101DC0002FF8002803D0606D40F04000606538BDFA
:101DD000C1688068009038BD2046FFF791FF38BD8C
:101DE000B134000870B5040009D0606A002540B124
:101DF00025616561A56294F8510040B10CE00120B5
:101E000070BD6068B0F5827FF4D0E561F2E784F8D8
:101E10005050204600F040F8022084F8510020681D
:101E2000016821F040010160A088218900F48270DE
:101E300001F404410843A18901F400610843217CB5
:101E400001F002010843217D01F001010843218BCB
:101E500001F400710843217F01F03801084394F830
:101E6000201001F080010843218D01F40051084346
:101E700021680860A069042101EA104021684860D7
:101E80002068C16921F40061C1616565012084F8A1
:101E90005100002070BD000030B585B000240094D2
:101EA0000194029403940068184988422BD1184881
:101EB000816941F480518161816901F4805104910B
:101EC000816941F0040181618069124D00F00400D4
:101ED0000490A02000900220019003200390694606
:101EE0002846FFF709FB4020CDE900046946284653
:101EF0000294FFF701FB002211462320FFF762FC4A
:101F00002320FFF751FC05B030BD00000030014038
:101F100000100240000801402DE9FF4F81B01D462E
:101F2000934604464FF001090E9EFFF7DFFB07467C
:101F300094F851006168012806D0B1F5827F3CD148
:101F4000A168C9BB042838D10298002871D0BBF120
:101F5000000FFBD0002DF9D094F8500001282CD0B0
:101F60004FF0010A84F850A094F85100042802D0E0
:101F7000052084F851004FF00008C4F85480C4F8DC
:101F800038B0E587A58702992163E586A586C4F860
:101F90004080C4F8448020680168490603D4016881
:101FA00041F040010160E068B0F5006F606808D062
:101FB000F0B3012D49D081E0FFE7022005B0BDE874
:101FC000F08F08B1012D39D1206B21680088C860DD
:101FD000206B801C2063E08E401EE0862EE020688F
:101FE000816889070FD5E18E69B1B9F1010F0AD176
:101FF000216B0988C160206B801C2063E08E401E2D
:10200000E0864FF0000920688168C9070CD0E18F95
:1020100051B1C068A16B0880A06B801CA063E08FE9
:10202000401EE0874FF00109FFF760FBC01B01E095
:102030000BE067E0B04201D3701C50D1E08E002865
:10204000CDD1E08F0028CAD13EE0206B2168007816
:102050000873206B401C2063E08E401EE0862DE05C
:102060002068816889070FD5E18E69B1B9F1010F48
:102070000AD1216B09780173206B401C2063E08E2C
:10208000401EE0864FF0000920688168C9070CD027
:10209000E18F51B1C068A16B0870A06B401CA063B8
:1020A000E08F401EE0874FF00109FFF71FFBC01BC8
:1020B000B04202D3701C01D011E086B1E08E00283E
:1020C000CED1E08F0028CBD13A463146204601F0F0
:1020D000F7F950B12020606584F8508012E084F850
:1020E00051A084F85080032068E7A06818B92068E0
:1020F000C1688068009084F851A084F85080606DB9
:102100000028F1D0012059E710B5401EB0F1807FC2
:1021100001D3012010BD4FF0E02460610F21601752
:1021200001F0F1FD0020A06107202061002010BD1A
:102130007047704770B590F83C20012A26D00124E2
:1021400080F83C40022280F83D2003685A689D6870
:1021500022F070060A6832435A600D4B02689A42B8
:1021600008D0B2F1804F05D00A4B9A4202D00A4BF8
:102170009A4204D1496825F080031943916080F8A0
:102180003D40002180F83C10084670BD022070BD23
:10219000002C0140000400400008004010B504007D
:1021A00003D094F83D0010B107E0012010BD0020DD
:1021B00084F83C00204600F01FF8022084F83D001F
:1021C000211D206801F056FA012084F8460084F8A9
:1021D0003E0084F83F0084F8400084F8410084F811
:1021E000420084F8430084F8440084F8450084F8F1
:1021F0003D00002010BD000008B500680B49884272
:1022000012D10B48C16941F00401C161C0690022CB
:1022100000F00400009003211E20FFF7D3FABDE870
:1022200008401E20FFF7C0BA08BD000000080040AB
:102230000010024090F83D10012901D001207047A4
:10224000022180F83D100168CA6842F00102CA60AC
:1022500000680B49884208D0B0F1804F05D0094989
:10226000884202D00849884204D1816801F0070100
:10227000062903D0016841F0010101600020704788
:10228000002C0140000400400008004070B50446E6
:1022900090F83C000025012817D0012684F83C6006
:1022A000022084F83D002068826822F0770222F440
:1022B0007F4282600868502838D00DDC20284FD03B
:1022C00005DC90B3102811D14AE0022070BD3028FF
:1022D00046D040280AD13BE060282FD070280DD08E
:1022E000B0F5805F03D0B0F5005F12D0012584F80F
:1022F0003D60002084F83C00284670BDCB68D1E9E1
:102300000121206801F0F2F92068816841F077012D
:1023100009E0CB68D1E90121206801F0E7F92068E4
:10232000816841F480418160E1E719E0CA68496849
:10233000206801F0EDF95021206806E0CA6849687C
:10234000206801F0F6F96021206801F0D9F9CEE7A4
:10235000CA684968206801F0DBF940212068F4E789
:10236000226801461046F0E770472DE9F041044627
:102370000068C66805694FF00007A90713D5B107C3
:1023800011D5F91E0161012020772068806980073E
:10239000204602D0FFF7E8FF04E000F07EF8204678
:1023A00000F07CF82777680716D5700714D52168E8
:1023B0006FF004000861022020772068806910F423
:1023C000407F204602D0FFF7CFFF04E000F065F821
:1023D000204600F063F82777280715D5300713D576
:1023E00021686FF008000861042020772068C06928
:1023F0008007204602D0FFF7B7FF04E000F04DF859
:10240000204600F04BF82777E80616D5F00614D5DD
:1024100021686FF010000861082020772068C069EB
:1024200010F4407F204602D0FFF79EFF04E000F04A
:1024300034F8204600F032F82777E80708D0F00794
:1024400006D021686FF001000861204600F028F8EE
:10245000280608D5300606D521686FF0800008618F
:102460002046FFF765FE680608D5700606D5216888
:102470006FF040000861204600F036F8A8060AD543
:10248000B00608D521686FF0200008612046BDE83D
:10249000F041FFF74EBEBDE8F08170477047000085
:1024A0001CB500680D49884217D10D48006868B115
:1024B0000C49086800908A88ADF8042089798DF865
:1024C00006100199BDE81C4001F06CBE6846FEF79D
:1024D0002FF9DDE9000101F065FE1CBD0008004098
:1024E000040000200C0000207047704710B504461F
:1024F0000068406994F84110C0F3C010212911D13F
:1025000080B12068143050E8001F21F0800140E8BD
:102510000012002AF5D1A06B08B1FEF75DFC204641
:1025200001F0BFF92068406994F84210C0F38010B0
:10253000222911D180B12068143050E8001F21F009
:10254000400140E80012002AF5D1E06B08B1FEF727
:1025500043FC204601F07EF9002010BD70470000CA
:10256000F8B5016804460868CA684B6910F00F0F97
:102570004FF0000559D003F0010602F4907737437D
:1025800065D0C10705D0D10503D5616C41F00101CB
:102590006164410705D5D90703D0616C41F00201A0
:1025A0006164810705D5D90703D0616C41F004014E
:1025B0006164010707D502F02001314303D0616C4B
:1025C00041F008016164616C00293AD0800604D5AD
:1025D000900602D5204601F072F920684069616CCE
:1025E000C0F38010090700D460B3204601F032F92F
:1025F00020684069400621D52068143050E8001F4B
:1026000021F0400140E80012002AF5D1E06BA8B1AA
:102610006D494163E06BFEF703FC002811D0E06BCD
:10262000416B01B0BDE8F040084783060FD5930623
:102630000DD52046BDE8F84001F041B92046FFF72E
:102640008DFFF8BD2046FFF789FF6564F8BD266B56
:102650002023012E7CD1C6067AD5D60678D5086807
:102660004868009048694FF00206400640D5E16B8B
:10267000086840680004000CE8D0A28D8242E5D9C9
:10268000E085886920282DD020680C3050E8001F94
:1026900021F4807140E80012002AF5D1206814303E
:1026A00050E8001F21F0010140E80012002AF5D196
:1026B0002068143050E8001F21F0400140E800126B
:1026C000002AF5D184F84230256320680C3050E8A8
:1026D000001F21F0100140E80012002AF5D1E06B44
:1026E000FEF77AFB6663A08DE18D401A81B22AE085
:1026F000A08DE18D401A81B2E08D0028A6D000297E
:10270000A4D022680C3252E8000F20F4907042E806
:102710000007002FF5D12068143050E8002F22F078
:10272000010240E80027002FF5D184F842302563EC
:1027300020680C3050E8002F22F0100240E80023FF
:10274000002BF5D166632046FFF7CFFEF8BDFFE70B
:1027500005062BD5150629D594F841002128F5D179
:10276000A068B0F5805F01D12069B0B1206A411C3A
:102770002162216800784860E08C401E0004000C53
:10278000E084E3D12068C16821F08001C160206845
:10279000C16841F04001C160D8E7206A0088C0F3F9
:1027A00008004860206A801C2062E5E74006CDD51D
:1027B0005006CBD5CA68204622F04002CA6084F891
:1027C000413000F03CF9C1E75737000870B504000C
:1027D00004D094F84100002510B106E0012070BD3E
:1027E00084F84050204600F023F8242084F841006B
:1027F0002068C16821F40051C160204601F0C0F892
:102800002068016921F4904101612068416921F04B
:102810002A0141612068C16841F40051C1606564CA
:10282000202084F8410084F842006563002070BDD8
:10283000F0B585B0002400940194029403940646F8
:102840003E4F03683E49022003223E4DBB4250D119
:102850008B6943F480438B618B6903F48043049359
:102860008B6943F004038B618969039201F00401D1
:1028700004910102CDE9001069462846FEF73CFEAE
:102880002815CDE90004694628460294FEF734FE77
:102890002E4D2D48802701C5102091C52B4845F8A5
:1028A00010496C61AC61EC61FEF7B0FB08B1FEF75A
:1028B00052F9B5636E62254D234844351430C5E99D
:1028C0000004C5E902472C616C61AC612846EC61EB
:1028D000FEF79CFB08B1FEF73EF9F56300220221EA
:1028E00025206E62FEF76EFF2520FEF75DFF05B026
:1028F000F0BD174EB342FAD1CB6943F40033CB613C
:10290000CB6903F4003304938B6943F004038B61B8
:102910008969039201F0040104910421CDE90010BA
:1029200069462846FEF7E8FD0820CDE9000469461F
:1029300028460294FEF7E0FDD9E700000038014088
:1029400000100240000801404400024074010020D1
:102950000044004090F84230202B01D00220704704
:1029600021B11AB10023036301F066B8012070475A
:10297000074988420BD1074840F2FF120280064BFC
:1029800000880021195419460148FFF7E3BF70473A
:10299000E4000020240000202002002070472DE9E0
:1029A000F843044690F84100984616460D46202804
:1029B00002D00220BDE8F88385B17EB100206064BA
:1029C000212084F84100FEF791FEA6848146E6842A
:1029D000A0682027B0F5805F02D003E00120E9E77E
:1029E000206910B12E4600250EE000260CE0802163
:1029F000204601F069F8A8B9C6B116F8010B2168A4
:102A00004860E08C401EE084E08C4B464FF00002B2
:102A1000CDF800800028EAD14FF04001204601F0B7
:102A200053F840B184F841700320C3E735F8020B36
:102A3000C0F30800E3E784F841700020BAE770476C
:102A4000FEE7000070B501220E4D94032146284692
:102A5000FEF747FE0122560331462846FEF741FEA7
:102A600000F048F8002221462846FEF73AFE00F022
:102A700041F8002231462846FEF733FEBDE870409B
:102A800000F038B80010014070B50B4D4FF4804491
:102A9000002221462846FEF724FE01225103284643
:102AA000FEF71FFE00F026F821462846BDE87040DC
:102AB0000122FEF716BE00000010014070B50C4C5C
:102AC000012291032046FEF70CFE00F013F80122CC
:102AD000550329462046FEF704FE00F00BF80022BD
:102AE00029462046FEF7FDFDBDE8704000F002B823
:102AF000001001400320401EC0B2FCD2704700000D
:102B00002DE9F0410E46074615460421052000F048
:102B100029F80021012000F0E9F880210A2000F0C6
:102B2000D9F8002404E0395D092000F0DFF8641CC6
:102B3000B442F8D30321012000F0D8F8084C052056
:102B400000F0ACF8641E01D04007F8D5222000F058
:102B5000A5F82870212000F0A1F86870BDE8F08188
:102B6000A086010070B50C46054600F097F820EAF3
:102B700004012846BDE8704000F0B8B82DE9FF5FB9
:102B80000027FE25DDF838A016468B468146B8465C
:102B90000C2805D0B9F10E0F05D11227102001E045
:102BA00077273020804647F08001022000F09EF811
:102BB00080210420FFF7D6FF0021012000F096F8C5
:102BC00080210A2000F086F8002405E01BF804109C
:102BD000092000F08BF8641CB442F7D34946012069
:102BE00000F084F8B9F10C0F03D180210D2000F022
:102BF00071F8294E042000F051F80446761E04D0E6
:102C0000E00702D114EA080FF4D080210D20FFF76D
:102C1000A9FF36B1062000F041F810F01B0F0CD0D0
:102C2000FE2580210C2000F055F80021012000F045
:102C30005DF804B02846BDE8F09F00253C40E00761
:102C400000D0FF25B9F10C0FEBD10A2000F026F8D7
:102C500004460C2000F022F810F007004FEAC401EF
:102C600004D008390844AAF8000001E0AAF80010CE
:102C700024B1122C04D91224002603E00124FBE71E
:102C8000002605E0092000F009F803998855761C14
:102C9000A642F7D3C5E70000E093040070B57E219B
:102CA00001EA40000A4D40F080040022102128462D
:102CB000FEF717FD204600F0EBFB002000F0E8FBDC
:102CC0000446012210212846FEF70BFD204670BD68
:102CD0000008014070B50C460546FFF7DFFF40EAEB
:102CE00004012846BDE87040AFF3008070B50E4681
:102CF0007E2101EA4004094D002210212846FEF7FA
:102D0000F0FC204600F0C4FB304600F0C1FB284632
:102D1000BDE8704001221021FEF7E3BC000801402D
:102D20000D4808B5416941F0010141614069002247
:102D300000F00100009011460E20FEF743FD0E202A
:102D4000FEF732FD002211460F20FEF73BFDBDE8E5
:102D500008400F20FEF728BD001002402DE9F04783
:102D600086B0002554480095019502950395816928
:102D700041F010018161816901F0100104918169C4
:102D800041F020018161816901F020010491816994
:102D900041F004018161816901F0040104918169BC
:102DA00041F0080181618069DFF8108100F00800BE
:102DB000049001224FF4C0414046FEF792FC4FF4CC
:102DC0000047002239464046FEF78BFCDFF8F090C2
:102DD000012213214846FEF784FCDFF8E8A0012217
:102DE00040F601415046FEF77CFC00223946484639
:102DF000FEF777FC00224FF470715046FEF771FC2D
:102E000001244FF46040CDE900040326CDE90246D9
:102E100069464046FEF770FB1320CDE90004CDE97A
:102E2000024669464846FEF767FB40F60170CDE969
:102E30000004CDE9024669465046FEF75DFB224E8E
:102E40004FF47040CDE90006694602945046FEF703
:102E500053FB2002CDE90006694602944846FEF77E
:102E60004BFB01AA0226009782E87000694648469B
:102E7000FEF742FB38208DE8610069465046FEF7B8
:102E80003BFBC0208DE8710069465046FEF734FBDD
:102E9000002211461720FEF795FC1720FEF784FC50
:102EA000002211462820FEF78DFC2820FEF77CFC2E
:102EB00006B0BDE8F087000000100240001001409D
:102EC00000080140000C014000002110104810B51E
:102ED0000E4901604FF48271416000218160C16040
:102EE0004FF400720161C0E905121822C0E9072100
:102EF000416281620A21C162FEF774FF002803D09B
:102F0000BDE81040FDF727BE10BD000000300140B5
:102F10004400002010B586B00024174800940194A6
:102F200002940394049413490594016041F61F41EF
:102F3000C0E9011442F20F71C0E903148461FFF784
:102F40002DF908B1FDF707FE4FF480500090694657
:102F50000948FFF79BF908B1FDF7FDFD049404A9AA
:102F600005480594FFF7E6F8002801D0FDF7F3FDCA
:102F700006B010BD000800409C00002010B50E4CAB
:102F80000C480C2120604FF4E13060600020A0600C
:102F9000E060C4E90401A061E0612046FFF716FC8F
:102FA00008B1FDF7D8FD2068C16841F01001C1608B
:102FB00010BD000000380140E40000200C4810B5AE
:102FC0000A4901604FF4E1314160002181600C2227
:102FD000C160C0E904128161C161FFF7F7FB0028FD
:102FE00003D0BDE81040FDF7B6BD10BD0044004061
:102FF0002C010020FEE7FEE730B40021084B0A4612
:103000005FF0000003EBC004401CC0B26254802893
:10301000F8D3491CC9B20829F2D330BC00F086B8F5
:103020002004002030B5CC0801F0070301259D40A5
:10303000EBB2064D05EBC005C808285C0AB1184381
:1030400002E063EA0000C043285530BD20040020A0
:1030500010B50021AE2000F02DF90021084600F047
:1030600029F90021102000F025F90021402000F06E
:1030700021F90021812000F01DF90021CF2000F06E
:1030800019F90021A12000F015F90021C82000F055
:1030900011F90021A62000F00DF90021A82000F070
:1030A00009F900213F2000F005F90021D32000F0AC
:1030B00001F90021084600F0FDF80021D52000F0BC
:1030C000F9F80021802000F0F5F80021D92000F067
:1030D000F1F80021F12000F0EDF80021DA2000F0F5
:1030E000E9F80021122000F0E5F80021DB2000F0D3
:1030F000E1F80021302000F0DDF80021202000F070
:10310000D9F80021022000F0D5F800218D2000F030
:10311000D1F80021142000F0CDF8FFF76DFF002159
:10312000BDE81040AF2000F0C5B8000070B5184EE3
:10313000002400BF04F1B000C0B2002100F0BAF8D2
:103140000021084600F0B6F80021102000F0B2F887
:10315000FFF778FC782000F02BFAFFF7AFFC402057
:1031600000F026FAFFF7AAFC5FF0000506EBC500A9
:10317000005D00F01DFAFFF7A1FC6D1CEDB2802D83
:10318000F4D3FFF781FC641CE4B2082CD2D370BDE9
:10319000200400202DE9FC4F1C460E4682468B463B
:1031A0000190082B0DD0600700D0012000EBD40067
:1031B00061084843C0B28146203AD0B20090002056
:1031C0004BE00620F7E7082C13D00C2C18D0102C5D
:1031D0001BD0182C44D10098234900EBC00000BF3D
:1031E00001EB8001002711F80850E80712D00B9A74
:1031F00013E000981D4900EB400001EB4001F1E7AE
:1032000000981B4900EB4000EAE71A49009801EBDF
:103210000011E7E70B9828B3002231465046FFF72C
:1032200001FF761C7F1C6D08FFB2F6B2082FDCD3BD
:103230000AF1010000F0FF0A082C0AD00199AAEB5C
:103240000100B0EB540F04D10BF108008A4600F0E6
:10325000FF0B08F101005E46C0B280464845B2D37C
:10326000BDE8FC8F0122D8E7764F0008EA4200084B
:1032700012450008864900082DE9F8411E4615460A
:1032800088460446079F0BE0334641462046009798
:10329000FFF780FF082E0AD004EB5600C4B26D1C65
:1032A0002A78A2F120005E28EED9BDE8F881A41D9D
:1032B000E4B2F4E770B50C460546FFF7C3FB78208F
:1032C00000F076F9FFF7FAFB0CB1402000E0002097
:1032D00000F06EF9FFF7F2FB284600F069F9FFF7FE
:1032E000EDFBBDE87040FFF7CFBB03211420FFF7D3
:1032F00039BC10B51420FFF7D1FC800705D103219C
:10330000BDE810401420FFF7E5BC10BD70B50646BF
:10331000082188B000240846FFF724FC00210D2076
:10332000FFF7E4FC80210E20FFF71CFC93208DF8B2
:10333000040020208DF8050006A801AB00900222B1
:1033400019460C20FFF71AFC05000DD1002101A839
:10335000425C7254425C491C5440C9B20429F7D300
:10336000405CA04200D0FE2580210E20FFF7B2FC79
:1033700008B0284670BD00B587B050208DF8040015
:1033800000208DF805000DF10602022101A8FFF7CB
:10339000B7FB06A801AB0090042219460C20FFF7EA
:1033A000EDFB07B000BD30B50C460546082187B0DF
:1033B0000846FFF7D7FB07210D20FFF797FC0321F5
:1033C0001420FFF787FC06A801AB00908DF804508D
:1033D000012219460C20FFF7D1FB002809D1BDF8C6
:1033E0001810102905D19DF8041021709DF80510C2
:1033F000617007B030BD000010B5204C01221146AD
:103400002046FEF76EF90220FDF766FE002201213C
:103410002046FEF766F90220FDF75EFE0122114606
:103420002046FEF75EF90220FDF756FE0F2101202F
:10343000FFF75CFC0220FDF74FFE3D211120FFF756
:1034400055FC1E212D20FFF751FC00212C20FFF7F9
:103450004DFC8D212A20FFF749FC3E212B20FFF750
:1034600045FC40211520FFF741FCFFF73EFF0220FD
:10347000FDF732FEBDE81040FFF73BBF000C0140F6
:10348000704700000148FEF73DBC000044000020EA
:1034900001B582B00A200090012301AA02A90348C5
:1034A000FEF73AFD9DF804000EBD00004400002028
:1034B00010B5406A0021C187C186FEF721FC10BD0E
:1034C000F8B515460E460B4600920446012202212D
:1034D00000F010F840B933460022802120460095C4
:1034E00000F008F8002804D0606D40F0200060650E
:1034F0000320F8BD2DE9F8431E4691468846044650
:10350000089DFEF7F3F8401B351AFEF7EFF8074663
:1035100025480068C0F3CB30684338E0701C37D0D2
:10352000FEF7E4F8C01BA84203D215B1009860B3BF
:103530002CE02068416821F0E00141606068B0F54E
:10354000827F0BD1A068B0F5004F02D0B0F5806F3C
:1035500004D12068016821F040010160A06AB0F543
:10356000005F09D12068016821F4005101602068E2
:10357000016841F400510160012084F851000020ED
:1035800084F850000320BDE8F8830025401E009019
:103590002068816838EA010004D000214945BDD186
:1035A0000020F0E70121F9E720000020704700002B
:1035B0002DE9F041124F002405464FF480487E1457
:1035C000280601D5012200E0002241463846FEF7D8
:1035D00088F8FFF78FFA012231463846FEF781F866
:1035E000FFF788FA002231463846FEF77AF8680677
:1035F000641C050EE4B2082CE2D3BDE8F0810000A3
:1036000000100140FEF778B830B58FB02821684629
:10361000FCF760FF14210AA8FCF75CFF01210804F5
:10362000CDE900100024029402250491CDE9075051
:103630004FF4E01009906846FEF7D2F908B172B66F
:10364000FEE70F20CDE90A054FF48060CDE90C407C
:1036500002210AA80E94FEF7E7F8002801D072B6FE
:10366000FEE70FB030BD70470148FEF77EBE000098
:103670009C000020F0B50268194B1A4C1A4D4FF00F
:103680008047984205D0B84203D0A04201D0A8425A
:1036900003D122F070064A683243984205D0B842FE
:1036A00003D0A04201D0A84203D122F44074CA68DA
:1036B00022434C6922F08002224302608A68C2627F
:1036C0000A688262984201D109690163012141615E
:1036D0000169C90703D0016921F001010161F0BD51
:1036E000002C0140000400400008004010B5846830
:1036F00042EA032224F47F440A432243826010BD3D
:10370000826822F070020A4342F00701816070472C
:1037100010B5036A046A24F001040462846924F089
:10372000F00444EA021423F00A020A4384610262AC
:1037300010BD10B5036A046A24F0100404628469A1
:1037400023F0A00324F4704444EA023243EA011156
:103750008261016210BD10B5406A0021C185C1843B
:10376000FEF7FCFE10BD70B5446A2068406994F80D
:103770004110C0F3C0100025212904D118B1E584FF
:10378000204600F08EF82068406994F84210C0F39B
:103790008010222904D118B1E585204600F05AF89E
:1037A000606C40F0100060642046FEF7D7FE70BDEC
:1037B00010B50146406A096809684FF000028906A1
:1037C0002ED4C28501680C3151E8003F23F4807388
:1037D00041E80034002CF5D10168143151E8003F74
:1037E00023F0010341E80034002CF5D101681431C5
:1037F00051E8003F23F0400341E80034002CF5D1AC
:10380000202180F84210016B012909D101680C3197
:1038100051E8003F23F0100341E80034002CF5D1BB
:103820004263016B012902D0FFF7A2F810BD818D20
:10383000FEF75BFE10BD10B5406A01214163016BCC
:10384000012902D0FFF7AAF810BD818D4908FEF7C3
:103850004CFE10BD01680C3151E8002F22F490722B
:1038600041E80023002BF5D10168143151E8002F05
:1038700022F0010241E80023002BF5D1016B012960
:1038800009D101680C3151E8002F22F0100241E803
:103890000023002BF5D1202180F842100021016384
:1038A000704701680C3151E8002F22F0C00241E856
:1038B0000023002BF5D1202180F84110704708B576
:1038C00090F84210222901D0022008BD82684FF4EE
:1038D00080539A4201D1016921B1816A9A421BD079
:1038E0004AB10AE00268816A5268C2F308020A809B
:1038F000816A891C08E0026972B10268526802F0AC
:103900007F020A70816A491C8162C18D491E0904C7
:10391000090CC18503D01BE002685268F1E7016819
:10392000CA6822F02002CA600168CA6822F4807264
:10393000CA6001684A6922F001024A61202180F8C8
:10394000421000214163026B012A03D0FFF710F8F7
:10395000002008BD016301680C3151E8002F22F0FE
:10396000100241E80023002BF5D101680A68D20655
:1039700002D50A6849680091818DFEF7B6FDE7E738
:1039800070B5044600680169E26821F440511143B2
:1039900001612169A0680843616908432168CA6818
:1039A00041F20C639A430243CA6020684169A269EC
:1039B00021F44071114341611E492068884202D1BF
:1039C000FDF7D8FF01E0FDF7C5FF00EBC00101EBFB
:1039D0000012606864218000B2FBF0F3B3FBF1F3E6
:1039E0006FF018067343B2FBF0F5B2FBF0F605EB8F
:1039F0008305322303EB0515B5FBF1F5B6FBF1F6B4
:103A000005F0F00505EB0615B2FBF0F6B2FBF0F0A1
:103A1000B0FBF1F06FF01802504306EB800003EBAF
:103A20000010B0FBF1F0216800F00F00284488601E
:103A300070BD00000038014038B5816204468285BF
:103A4000002013466064222284F84220E56B1B4A62
:103A5000AA62E56B1A4AEA62E56B1A4A2A63E26BCC
:103A600050630A462168E06B091DFDF7FDFA2068E6
:103A7000016840680090206948B120680C3050E827
:103A8000001F41F4807140E80012002AF5D120683F
:103A9000143050E8001F41F0010140E80012002AF4
:103AA000F5D12068143050E8001F41F0400140E893
:103AB0000012002AF5D1002038BD0000B1370008FF
:103AC00037380008673700082DE9F843984617464D
:103AD0000D460446089E24E0701C22D0FDF706FE29
:103AE000A0EB0800B0421AD8CEB12068C1684907DF
:103AF00017D5802D15D0402D13D00168C943090773
:103B00000FD401680025406800902046FFF7A2FE10
:103B10000820606484F840500120BDE8F883032049
:103B2000FBE72068006835EA000004D00020B842B6
:103B3000D2D00020F1E70120F9E7000070B5184C61
:103B40002078002810D0FDF7D1FD0546E068A18857
:103B5000281A884208D32089E188884205D30020AA
:103B600000F052F80020207070BD0E486178405C73
:103B700000F04AF8E5602078012860780BD0401EFC
:103B8000C11700EB517121F00701401A60702089C4
:103B9000401C208170BD401C00F00700F6E70000CB
:103BA00030000020D25C00087FB54FF48070009098
:103BB00000240120CDE901040320114D0390694642
:103BC0002846FDF799FC6815009069462846FDF7E0
:103BD00093FCE814009069462846FDF78DFC2815F3
:103BE000009069462846FDF787FC002000F00CF89D
:103BF00004480470C48004814470C4607FBD000028
:103C0000000C01403000002070B50446154DC0077F
:103C10004FF4807101D0012200E000222846FDF718
:103C200060FDA0074FF4007101D5012200E00022E1
:103C30002846FDF756FD60074FF4006101D50122CB
:103C400000E000222846FDF74CFD20074FF480617C
:103C500001D5012200E000222846BDE87040FDF7B2
:103C600040BD0000000C014010B50E4C2178002929
:103C700016D101212170E080002020816070A170A8
:103C8000FDF734FDE06008486178405CFFF7BCFF59
:103C90006078401C00F0070060702089401C208183
:103CA00010BD000030000020D25C000838B5124C76
:103CB00020680168C9061AD501680025406800908F
:103CC0002046FEF713FCE06B0068406840F2FF12EC
:103CD000A0F2FF10404280B2B0F5007F00D3104642
:103CE0000649088006490D540348FEF733FEBDE837
:103CF00038400148FEF734BCE400002024000020D6
:103D000020020020FEE70907090E002804DB00F16D
:103D1000E02080F80014704700F00F0000F1E02070
:103D200080F8141D704730380A2801D201207047EE
:103D30000020704770B5054600244FF47A7603E002
:103D4000304600F005F8641CAC42F9D370BD0000A9
:103D50000B49096848434FF0E021486100228A611D
:103D6000086940F0010008610869C30701D0C00379
:103D7000FAD5086920F0010008618A6170470000E7
:103D80002800002098B00025A8462C46FDF7BCFC72
:103D9000FFF73AFCFEF7E2FFFEF7C2FFFFF7EEF88F
:103DA000FFF7B8F8FFF70AF9FFF790F8FFF724FBE1
:103DB000FFF79BFAFFF79DFAFCF7A4FEFFF748F91F
:103DC000FCF706FDFFF7F0FEFCF7A6FFAF48FEF795
:103DD00031FADFF8BCA2DFF8BC9200274FF0010BEC
:103DE0000295FDF783FC0646FFF7A8FEF01B64284A
:103DF0004AD39AF8001099F8000037465646014217
:103E000009D064231622A4A1A948FEF7C8FD357085
:103E100089F80050D7E000297DD064230A22A5A1AB
:103E2000A348FEF7BCFD08A95220FFF7BCFA002802
:103E30002AD102A8FFF76AFA0028F9D102A8FCF7F4
:103E400053FFFF2821D008239DA219460020CDF85A
:103E500000B0FFF711FAFFF769F94FF47A70FFF736
:103E600069FF08239AA219460020CDF800B0FFF799
:103E700003FAFFF75BF93570FFF77DFA64230F2231
:103E800098A18B48FEF78BFDA6E00DA8FCF750FF2C
:103E900000200DAA5FF0000101EB8003D35CFF2B33
:103EA00004D0401CC0B20A28F4D31BE0491CC9B29C
:103EB0000429F1D3FF2815D002A9FCF74DFF9DF886
:103EC0000B109DF80A00CDE900019DF809309DF81E
:103ED000082088A103A8FCF793F9082303AACDF8CA
:103EE00000B003E0082389A2CDF800B0082100202B
:103EF000FFF7C2F9FDF7FAFB80460124FFF716F938
:103F0000FFF739FA357064230F2276A16848FEF76F
:103F100046FD62E0FFE74E46002854D064230A22A3
:103F20007CA16348FEF73BFD08A95220FFF73BFA4E
:103F3000002851D164230F2279A15D48FEF72FFD9F
:103F400002A8FFF7E3F9002846D164230E2278A1E6
:103F50005748FEF724FD02A8FCF7C6FEFF2818D03C
:103F6000FCF786FE4FF4FA70FFF7E4FE9DF80B10A5
:103F70009DF80A00CDE900019DF809309DF8082060
:103F80006FA103A8FCF73CF9082303AACDF800B001
:103F900007E04FF4FA70FFF7CDFE08236EA2CDF8CC
:103FA00000B008210020FFF767F9FDF79FFB80466E
:103FB0000124FFF7BBF84FF4FA60FFF7BBFEFFF7F1
:103FC000DAF9357009E008A95220FFF7ECF918B9C1
:103FD00002A8FFF79BF9B8B194B1FDF787FBA0EBFE
:103FE000080041F2883188420AD9082338A21946CC
:103FF0000020CDF800B0FFF73FF9FFF797F8002455
:104000000520FFF797FEEBE602A8FCF76DFEFF2800
:104010002BD09DF80B109DF80A00CDE900019DF80A
:1040200009309DF8082050A103A8FCF7E9F80823FF
:1040300003AA19460020CDF800B0FFF71DF9FDF7DF
:1040400055FB80460124FFF771F864230C224BA135
:104050001748FEF7A4FC6420FFF706FE6423132232
:104060004AA11348FEF79BFC0BE008233AA219462D
:104070000020CDF800B0FFF7FFF8FDF737FB8046D2
:104080000124FFF753F8FFF776F9A6E79C0000201C
:1040900002000020030000204552524F523A2042B5
:1040A0006F7468206D6F646573204F4E0D0A0000B9
:1040B0002C010020526567206D6F64650D0A0000B9
:1040C000494420616C726561647920726567000003
:1040D00020202020202020202020202020202020E0
:1040E00000000000526567206D6F64652065786987
:1040F000740D0A005265673A25303258253032581F
:1041000025303258253032580000000046756C6C5E
:104110000000000044656C206D6F64650D0A0000AE
:10412000436172642064657465637465640D0A009C
:104130004361726420494420726561640D0A000085
:1041400044656C3A25303258253032582530325883
:104150002530325800000000496C6C6567616C20A6
:10416000636172640000000049443A2530325825EA
:104170003032582530325825303258004D6F746F28
:10418000722073746172740D0A0000004D6F746FB9
:1041900072207374617274656420284E42290D0A7E
:1041A0000000000030B5C2B289B004460D463BA104
:1041B00001A802F5FA62FCF723F8C4F3072239A13B
:1041C00003A8FCF71DF8C4F3074238A104A8FCF7C4
:1041D00017F8EAB237A105A8FCF712F8C5F30722D1
:1041E00034A106A8FCF70CF8C5F307422FA107A8D5
:1041F000FCF706F8314C2068012801D0012000E0CE
:10420000002000210090082301AA0846FFF734F897
:104210002068022801D0012000E00020009008233F
:1042200003AA00211E20FFF727F82068032801D0E9
:10423000012000E000200090082304AA00212E2085
:10424000FFF71AF82068042801D0012000E00020C0
:104250000090082305AA00214020FFF70DF82068F0
:10426000052801D0012000E000200090082306AAC4
:1042700000215020FFF700F82068062801D0012017
:1042800000E000200090082307AA00216020FEF72C
:10429000F3FFFEF74BFF09B030BD0000253034645A
:1042A0002D000000253032642D00000025303264DE
:1042B00000000000253032643A00000004000020B5
:1042C000010202030405060708090A0B0C0D0E0F74
:1042D00010100000000000000000010203040607A7
:1042E00008090000000001020304000000000000B3
:1042F0000000002F000000000700070000147F14DA
:104300007F1400242A7F2A120062640813230036D7
:104310004955225000000503000000001C22410006
:10432000000041221C000014083E08140008083E4A
:104330000808000000A06000000808080808000045
:1043400060600000002010080402003E5149453E14
:104350000000427F40000042615149460021414532
:104360004B31001814127F10002745454539003C99
:104370004A49493000017109050300364949493667
:1043800000064949291E0000363600000000563656
:10439000000000081422410000141414141400003A
:1043A0004122140800020151090600324959513EC8
:1043B000007C1211127C007F49494936003E414180
:1043C0004122007F4141221C007F49494941007F31
:1043D00009090901003E4149497A007F0808087F20
:1043E0000000417F4100002040413F01007F081450
:1043F0002241007F40404040007F020C027F007F4E
:104400000408107F003E4141413E007F0909090632
:10441000003E4151215E007F091929460046494965
:1044200049310001017F0101003F4040403F001F32
:104430002040201F003F4038403F006314081463B1
:1044400000070870080700615149454300007F419B
:10445000410000552A552A55000041417F000004C3
:1044600002010204004040404040000001020400FC
:10447000002054545478007F484444380038444461
:10448000442000384444487F0038545454180008ED
:104490007E0901020018A4A4A47C007F080404780B
:1044A0000000447D4000004080847D00007F102893
:1044B00044000000417F4000007C04180478007C28
:1044C0000804047800384444443800FC24242418A8
:1044D0000018242418FC007C0804040800485454E4
:1044E000542000043F444020003C4040207C001CFD
:1044F0002040201C003C4030403C00442810284410
:10450000001CA0A0A07C004464544C441414141457
:104510001414000000000000000000000000000073
:10452000FC000000000002000000000C020C020071
:1045300000000000000090D0BCD0BC90000300033D
:1045400000001824FE448C00030207020100182416
:10455000D8B04C80000300010201C038E438E0000C
:104560000102020102020806000000000000000033
:104570000000000000F80402000000010204000234
:1045800004F800000004020100009060F860900050
:104590000000010000002020FC202000000001009D
:1045A00000000000000000000806000000002020BD
:1045B000202020000000000000000000000000009B
:1045C0000002000000000080601C020004030000E4
:1045D0000000F8040404F8000102020201000008CF
:1045E000FC000000000203020000188444241800AC
:1045F00003020202020008042424D800010202027D
:10460000010040B088FC80000000000302003C2450
:104610002424C400010202020100F824242CC0005A
:104620000102020201000C04E41C0400000003006B
:104630000000D8242424D8000102020201003844DA
:104640004444F800000302020100000010000000D2
:104650000000020000000000200000000000060032
:104660000000002050880402000000000102909029
:10467000909090000000000000000002048850208C
:104680000002010000001804C42418000000020009
:104690000000F804E494F80001020202020000E0C5
:1046A0009CF0800002030000030204FC2424D800D4
:1046B000020302020100F80404040C0001020202D9
:1046C000010004FC0404F80002030202010004FCDF
:1046D00024740C0002030202030004FC24740C0086
:1046E000020302000000F0080444CC400001020272
:1046F000010004FC2020FC04020300000302040467
:10470000FC040400020203020200000404FC04048E
:1047100006040403000004FC24D00C04020302007D
:10472000030204FC04000000020302020203FC3C3A
:10473000C03CFC0003000300030004FC30C4FC0484
:10474000020302000300F8040404F800010202025C
:10475000010004FC24241800020302000000F88475
:104760008404F80001020207050004FC2464980098
:10477000020302000302182424448C0003020202F4
:1047800001000C04FC040C0000020302000004FC05
:104790000000FC04000102020100047C80E01C0413
:1047A0000000030000001CE03CE01C0000030003CC
:1047B0000000049C609C0400020300030200041C2F
:1047C000E01C04000002030200000C84641C0400CE
:1047D0000203020203000000FE02020000000704C0
:1047E0000400000E30C000000000000102000002C2
:1047F00002FE0000000404070000000402040000A0
:104800000000000000000000000000000808080888
:104810000808000002000000000000000000004046
:10482000A0A0C00000010202030204FC2020C0007E
:1048300000030202010000C020206000000102020B
:10484000020000C02024FC0000010202030200C09C
:10485000A0A0C0000001020202000020F8242404ED
:104860000002030202000040A0A0602000070A0A24
:104870000A0404FC2020C0000203020003020020FE
:10488000E4000000000203020000000020E4000039
:1048900008080807000004FC80E020200203020052
:1048A00003020404FC000000020203020200E020F4
:1048B000E020C00003000300030020E02020C0002F
:1048C00002030200030200C02020C0000001020217
:1048D000010020E02020C000080F0A02010000C0F3
:1048E0002020E0000001020A0F0820E04020200004
:1048F0000203020000000060A0A0200000020202EB
:1049000003000020F820000000000102020020E067
:104910000020E00000010202030220E0208060206D
:104920000000030100006080E080600000030003DD
:10493000000020608060200002030003020020E0ED
:10494000208060200808070100000020A0602000EF
:10495000000203020200000020DE02000000000747
:104960000400000000FF00000000000F0000000233
:10497000DE2000000004070000000201020404021F
:104980000000000000000000000000000000000027
:10499000000000000000000000F80000000000001F
:1049A00000333000000000100C06100C0600000060
:1049B00000000000000040C07840C0784000043F84
:1049C00004043F040400007088FC08300000001854
:1049D00020FF211E0000F008F000E0180000002178
:1049E0001C031E211E0000F00888700000001E211C
:1049F00023241927211010160E00000000000000CB
:104A0000000000000000000000E0180402000000A8
:104A100000071820400000020418E00000000040D9
:104A2000201807000000404080F080404000020253
:104A3000010F01020200000000F00000000001016F
:104A4000011F01010100000000000000000080B013
:104A500070000000000000000000000000000001E5
:104A60000101010101010000000000000000003010
:104A700030000000000000000000806018040060AA
:104A800018060100000000E010080810E000000F08
:104A9000102020100F00001010F80000000000206F
:104AA000203F2020000000700808088870000030B7
:104AB000282422213000003008888848300000185F
:104AC000202020110E000000C02010F80000000778
:104AD0000424243F240000F80888880808000019EE
:104AE000212020110E0000E0108888180000000F1F
:104AF000112020110E0000380808C83808000000F6
:104B0000003F000000000070880808887000001C4A
:104B1000222121221C0000E010080810E000000003
:104B2000312222110F00000000C0C0000000000070
:104B30000030300000000000008000000000000095
:104B4000806000000000000080402010080000018C
:104B5000020408102000404040404040400004044F
:104B60000404040404000008102040800000002019
:104B7000100804020100007048080808F000000056
:104B8000003036010000C030C828E810E0000718E7
:104B9000272423140B000000C038E0000000203C54
:104BA00023020227382008F8888888700000203FF8
:104BB000202020110E00C03008080808380007180F
:104BC00020202010080008F808080810E000203F06
:104BD000202020100F0008F88888E8081000203FE7
:104BE00020202320180008F88888E8081000203FBB
:104BF000200003000000C030080808380000071833
:104C00002020221E020008F808000008F808203FB3
:104C1000210101213F20000808F8080800000020B9
:104C2000203F2020000000000808F8080800C0808D
:104C300080807F00000008F888C028180800203F06
:104C400020012638200008F8080000000000203F5E
:104C500020202020300008F8F800F8F80800203F55
:104C6000003F003F200008F830C00008F808203F4F
:104C7000200007183F00E01008080810E0000F109F
:104C8000202020100F0008F808080808F000203F36
:104C9000210101010000E01008080810E0000F18D1
:104CA000242438504F0008F8888888887000203FF6
:104CB0002000030C302000708808080838000038F5
:104CC000202121221C00180808F8080818000000FC
:104CD000203F2000000008F808000008F808001F26
:104CE000202020201F000878880000C83808000015
:104CF00007380E010000F80800F80008F800033C2F
:104D00000700073C030008186880806818082030F6
:104D10002C03032C30200838C800C83808000000D5
:104D2000203F2000000010080808C838080020387C
:104D3000262120201800000000FE020202000000D0
:104D4000007F40404000000C30C000000000000028
:104D500000010638C00000020202FE000000004010
:104D600040407F0000000000040202020400000036
:104D70000000000000000000000000000000808033
:104D8000808080808080000202040000000000001B
:104D900000000000000000008080808000000019FA
:104DA000242222223F2008F8008080000000003FDB
:104DB000112020110E000000008080800000000EF5
:104DC000112020201100000000808088F800000ED3
:104DD000112020103F200000808080800000001FF4
:104DE000222222221300008080F088888818002068
:104DF000203F202000000000808080808000006B29
:104E000094949493600008F8008080800000203F14
:104E1000210000203F200080989800000000002022
:104E2000203F20200000000000809898000000C073
:104E30008080807F000008F8000080808000203F94
:104E400024022D302000000808F800000000002097
:104E5000203F202000008080808080808000203FD4
:104E600020003F20003F8080008080800000203FA5
:104E7000210000203F200000808080800000001F73
:104E8000202020201F00808000808000000080FF04
:104E9000A12020110E000000008080808000000E04
:104EA000112020A0FF808080800080808000202052
:104EB0003F212000010000008080808080000033BE
:104EC000242424241900008080E080800000000059
:104ED000001F202000008080000000808000001F54
:104EE000202020103F2080808000008080800001F2
:104EF0000E300806010080800080008080800F3026
:104F00000C030C300F0000808000808080000020A7
:104F1000312E0E31200080808000008080808081D2
:104F20008E70180601000080808080808000002143
:104F3000302C2221300000000000807C02020000A2
:104F40000000003F404000000000FF0000000000A3
:104F50000000FF0000000002027C80000000004012
:104F6000403F0000000000060101020204040000AE
:104F70000000000000000000000000000000000031
:104F80000000000000000000000000000000000021
:104F9000000000000000000000000000000000F021
:104FA000F0F0000000000000000000017F010000A0
:104FB000000000000000001C1C1C0000000000009D
:104FC0008060301C8C60301C0C0000000000000071
:104FD00000000000000000000000000000000000D1
:104FE0000000000000E00000000000E0000000867B
:104FF000E69F86868686E69F860000011F010101E6
:1050000001011F010100000080C06020F820E0C005
:105010000000000003070C18FF70E1810000000091
:10502000070F10107F100F070000806020608000C5
:105030000000E02000000F3020309F70DC3710307F
:10504000C0000000100E0300071810180700000031
:10505000C02020E0C0000000000080E01F38E8878A
:1050600003C43C040000070F1810100B070D1010AC
:10507000080000808C4C3800000000000000000098
:105080000000000000000000000000000000000020
:1050900000000000000000000000000080E0300878
:1050A00004000000000000FEFF01000000000000FE
:1050B00000000000030F1820400000040830E080CA
:1050C0000000000000000000000001FFFE000000E2
:1050D0000000004020180F03000000000000000046
:1050E00000000000C00000000000004266663C189E
:1050F000FF183C666642000000000000030000004C
:10510000000000000000000080000000000000100F
:1051100010101010FF101010101000000000000000
:10512000030000000000000000000000000000007C
:1051300000000000000000000000000000000080EF
:105140008C4C38000000000000000000000000004F
:1051500000000000000000101010101010101010BF
:10516000100000000000000000000000000000002F
:10517000000000000000000000000000000000002F
:1051800000000000000000001C1C1C0000000000CB
:1051900000000000000000000000E0380C000000EB
:1051A000000080701C03000000000060380E010049
:1051B000000000000000000080C060202060C0806F
:1051C000000000FEFF010000000001FFFE000001E2
:1051D000070E181010180E0701000000808080C014
:1051E000E000000000000000000000FFFF000000E1
:1051F000000000001010101F1F1010100000008091
:10520000402020202060C080000000030300804078
:1052100020381F070000001C1A1918181818181F2A
:1052200000000080C020202060C08000000000033B
:1052300003001010182FE780000000070F10101057
:1052400010180F070000000000000000C0E0F00090
:10525000000000C0B088868180FFFF8080000000D1
:1052600000000010101F1F1010000000E0606060C0
:1052700060606060000000003F1008080818F0E05F
:10528000000000070B101010101C0F03000000009E
:1052900080C040202020E0C0000000FCFF2110085A
:1052A000080818F0E0000001070C18101010080F93
:1052B00003000000C0E06060606060E0600000002B
:1052C00003000000E0180700000000000000001FBD
:1052D0001F00000000000080C0602020202060C06F
:1052E00080000087EF2C1818303068CF830000074B
:1052F0000F0810101010180F07000000C0C0202069
:105300002020C0800000001F3F604040402010FF70
:10531000FE0000000C1C101010080F03000000001D
:105320000000000000000000000000000000000E6F
:105330000E0E0000000000000000001C1C1C0000FD
:10534000000000000000000000000000000000005D
:105350000000000C0C0000000000000000000058DD
:105360003800000000000000000000000080402025
:10537000100000001028448201000000000000001E
:1053800000000000010204081000000000000000FE
:105390000000000000000084848484848484848469
:1053A0008400000000000000000000000000000079
:1053B00010204080000000000000000000000000FD
:1053C00001824428100000001008040201000000BF
:1053D000000000C020201010101030E0C0000003BA
:1053E000030000F010080C070300000000001C1C64
:1053F0001C0000000000000000C040602020204091
:10540000C00000FCFF01F00E03C1FE03807F00011D
:10541000070E08111110110904020000000080E0BD
:10542000E000000000000000807C4340477FF880DF
:10543000000010181F1000000000131F1C1020E0B7
:10544000E02020202060C080000000FFFF1010102E
:1054500010182FE78000101F1F1010101010180FC9
:105460000700000080C0402020202060E00000FCF9
:10547000FF0100000000000001000001070E1810ED
:1054800010100804030020E0E02020202040C0800D
:10549000000000FFFF000000000001FFFE00101FE1
:1054A0001F10101018080E07010020E0E020202037
:1054B00020202060800000FFFF101010107C0000F2
:1054C0000000101F1F10101010101018060020E010
:1054D000E020202020206060800000FFFF101010DE
:1054E000107C00000100101F1F10000000000000D1
:1054F0000000000080C06020202040E0000000FC90
:10550000FF0100004040C0C140400001070E1810DC
:1055100010100F0F000020E0E0200000000020E04D
:10552000E02000FFFF101010101010FFFF00101FF0
:105530001F1000000000101F1F100000202020E09E
:10554000E020202000000000000000FFFF0000001D
:10555000000000001010101F1F10101000000000AD
:105560000000202020E0E0202020000000000000BB
:1055700000FFFF0000000060E0808080C07F3F00EF
:10558000000020E0E020000020A06020200000FFBC
:10559000FF30187CE3C000000000101F1F10000047
:1055A00001131F1C181020E0E02000000000000084
:1055B000000000FFFF000000000000000000101FBE
:1055C0001F10101010101018060020E0E0E000007E
:1055D0000000E0E0E02000FF013FFEC0E01E01FF10
:1055E000FF00101F1000031F0300101F1F1020E0FA
:1055F000E0C0000000000020E02000FF0003071CC6
:1056000078E08000FF00101F100000000000030F72
:105610001F00000080C060202060C080000000FEED
:10562000FF010000000000FFFE000001070E18103F
:1056300010180C07010020E0E0202020202060C08E
:10564000800000FFFF2020202020301F0F00101FAF
:105650001F100000000000000000000080C060205B
:105660002060C080000000FEFF010000000000FF7D
:10567000FE000001070E1111133C7C67210020E0A1
:10568000E0202020202060C0800000FFFF101030AC
:10569000F0D0080F0700101F1F10000000030F1CA0
:1056A00010100080C060202020204040E000000753
:1056B0000F0C1818303060E08100001F0C0810102B
:1056C0001010180F07008060202020E0E02020202C
:1056D00060800100000000FFFF00000000010000EA
:1056E0000000101F1F100000000020E0E02000005C
:1056F00000000020E02000FFFF000000000000008C
:10570000FF0000070F18101010101008070020608D
:10571000E0E02000000020E060200000077FF8802B
:1057200000807C03000000000000071F1C07000031
:10573000000020E0E02000E0E0200020E020000762
:10574000FFF8E01FFFFCE01F00000000031F030044
:10575000011F03000000002060E0A0000020E060C6
:105760002000000000038F7CF8C60100000000103C
:10577000181E130001171F1810002060E0E0200021
:10578000000020E06020000001073EF8E01807005C
:10579000000000000010101F1F101000000000800B
:1057A0006020202020A0E0E0200000000000C0F0E9
:1057B0003E0F0300000000101C1F171010101018DF
:1057C00006000000000000FC0404040404000000C3
:1057D000000000FF00000000000000000000007F4B
:1057E000404040404000000010E000000000000089
:1057F000000000000000031C6080000000000000AA
:105800000000000000030C70800000000404040489
:1058100004FC0000000000000000000000FF000089
:105820000000000040404040407F000000000000B9
:105830000010080C040C081000000000000000001C
:105840000000000000000000000000000000000058
:105850000000000000000000000000000000000048
:105860000000000000000000000080808080808038
:105870008080808080800000000404080800000010
:105880000000000000000000000000000000000018
:105890000000000000000000000000000000000008
:1058A000000000000000000098D844642424FCF8A4
:1058B0000000000F1F18101010081F1F10180020E4
:1058C000E0F000000000000000000000FFFF1808EA
:1058D00004040CF8F00000001F0F18101010180F2F
:1058E000030000000000000000000000000000E0D5
:1058F000F8180404043C3800000000030F0C1010DA
:105900001010080600000000000000000020E0F079
:10591000000000E0F81C04040408FFFF000000037E
:105920000F18101010081F0F0800000000000000E2
:105930000000000000000000E0F8484444444C78B7
:1059400070000000030F0C18101010080400000075
:10595000000080C0602020E0C00000040404FFFFBD
:10596000040404040000000010101F1F1010100099
:105970000000000000000000000000000000000027
:1059800070F88C04048CF874040C007076CF8D8D44
:105990008D89C87870000020E0F000000000000051
:1059A00000000000FFFF08040404FCF800000010E1
:1059B0001F1F100000101F1F1000000000000060DB
:1059C0006000000000000000040404FCFC00000073
:1059D000000000001010101F1F1010100000000029
:1059E00000000000006060000000000000000404EF
:1059F00004FCFC0000000000C0C08080C07F3F00AD
:105A000000000020E0F000000000000000000000A6
:105A1000FFFF80C0F41C0404000000101F1F1100D1
:105A2000031F1C1010000000202020E0F0000000E8
:105A300000000000000000FFFF0000000000000068
:105A40001010101F1F1010100000000000000000B8
:105A500000000000000004FCFC0804FCFC0804FC3E
:105A6000FC00101F1F10001F1F10001F1F10000040
:105A7000000000000000000000000004FCFC08081A
:105A80000404FCF8000000101F1F100000101F1F6E
:105A9000100000000000000000000000000000E016
:105AA000F0180C04040C18F0E00000030F0C1010A8
:105AB00010100C0F030000000000000000000000A8
:105AC00000000004FCFC080404040CF8F000008052
:105AD000FFFF889010101C0F030000000000000062
