:020000040800F2
:10000000E00E0020C10100088F4E0008A54A00083C
:100010008D4E0008B9200008A55800080000000017
:100020000000000000000000000000000D52000869
:100030006921000800000000E15000086552000836
:10004000DB010008DB010008DB010008DB01000820
:10005000DB010008DB010008DB010008DB01000810
:10006000DB010008DB010008DB010008DB01000800
:10007000DB010008DB010008BD200008C9200008E2
:10008000DB010008DB010008DB010008DB010008E0
:10009000DB010008DB010008DB010008DB010008D0
:1000A000DB010008DB010008DB010008DB010008C0
:1000B000DB010008DB010008C9520008DB01000871
:1000C000DB010008DB010008DB010008E550000847
:1000D000DB0100084D580008DB010008DB010008C7
:1000E000DB010008DB010008DB01000800F002F87A
:1000F00000F057F80AA090E8000C82448344AAF16B
:100100000107DA4501D100F04CF8AFF2090EBAE868
:100110000F0013F0010F18BFFB1A43F0010318473B
:10012000D8680000F8680000103A24BF78C878C189
:10013000FAD8520724BF30C830C144BF04680C60ED
:10014000704700000023002400250026103A28BF35
:1001500078C1FBD8520728BF30C148BF0B60704739
:10016000642900F06981752900F06681732900F027
:10017000EA84002070471FB59DE8030000F01CFCD6
:1001800001F010F804000020002106F06BF9401C7B
:1001900060600020002106F07BF9E0601FBD10B513
:1001A00010BD01F0EFF81146FFF7E5FF05F0E4FDA3
:1001B00001F050FB03B4FFF7F2FF03BC01F080FB3A
:1001C0000948804709480047FEE7FEE7FEE7FEE7EB
:1001D000FEE7FEE7FEE7FEE7FEE7FEE70448054927
:1001E000054A064B70470000C7520008ED000008A2
:1001F000E0080020E00E0020E00A0020E00A0020D5
:1002000070B5064600F0B8FB056806F10B0020F05B
:100210000704B4429CBF002070BD2B466A68BAB187
:100220001068A04210D304F1080188423CBF506816
:10023000586007D35168101941601168091B0160AB
:1002400058601460101D70BD13465268002AE7D133
:100250002146284600F09CFB0028DED170BD70B519
:100260000446051F00F088FB0068002C14BF44689A
:1002700070BD002C18BFAC423CBF20466468F8D368
:1002800001680A18AA4218BF456003D12A680546CA
:100290001144016028684119A1421CBF6C6070BD07
:1002A0006168696021680844286070BD70B50D46BA
:1002B0000646041F00F060FBD0F800C0C5B1E6B1EF
:1002C00005F10B0020F00703AB423CBF002070BDDE
:1002D0002068984238BFDCF8042013D3C11A0829DB
:1002E0002FD3E01840F8041B2360FFF7B8FF28E085
:1002F0003046FFF7B4FF002070BD2846BDE87040CF
:10030000FFF77EBF002A18BFA2423CBF9446526846
:10031000F8D30119914216D111680844984212D3BA
:10032000C11A08293CBF2060506808D35168E01802
:100330004160216812681144C91A01602360CCF839
:100340000400201D70BD181FFFF75AFF050007D0DD
:1003500021680A1F211D00F047FA201DFFF77FFFCB
:10036000284670BD10B5044600F0FEFA0068005D36
:10037000C00602D504F1200010BD204610BD0000CB
:100380000FB41CB5084B06AA7B446946009005983B
:1003900000F0A7FB04460020694600F0B5FB2046AC
:1003A0001CBC5DF814FB00007D0700000FB47CB599
:1003B0000C0009AA009001D02044401E084B7B4449
:1003C00069460190089800F08CFB05461CB100209E
:1003D000694600F099FB28467CBC5DF814FB0000E0
:1003E0005107000070B50C460546012A05D0287853
:1003F000800600D5EA69002302E0012305E05B1CCA
:10040000934202D2E05C0028F9D1A869E618C01A2C
:10041000A861286A184428622846AFF3008004E0E7
:10042000D5E9012114F8010B9047B442F8D32846CE
:10043000AFF3008070BD00002DE9F04106460024B6
:1004400010687529314616A510D0AFF3008000283A
:1004500002DA404213A507E031688A0701D512A5E8
:1004600002E0490704D511A5012401E0AFF30080A3
:1004700000210A2206F1240709E0B0FBF2FCB0FBE0
:10048000F2F302FB1C00303078541846491C002857
:10049000F3D123462A463046BDE8F04100F0C2BA07
:1004A000000000002D0000002B00000020000000D4
:1004B0002DE9F05F894604464FF0000ADFF874B179
:1004C000FB44C0F820A02046E1688847002874D08B
:1004D000252806D0D4E901219047206A401C2062DB
:1004E000F1E700265F462046E16888472028054658
:1004F00007DB312D05D2781910F8200C08B106431E
:10050000F1E7B00701D526F00406C4F81CA00027C7
:10051000C4F818A02A2D09D0284605F054FA38B39B
:1005200004EB8708303DC8F8185019E059F8041B4F
:10053000204604EB87029161E1688847012F054658
:1005400018D1E069002820DA26F020061DE0D8F84E
:10055000180000EB800005EB40003038C8F81800A8
:100560002046E1688847054605F02DFA0028EED1BF
:10057000012F0AD02E2D08D12046E16888477F1C24
:100580000546022F46F02006C4DBA069002803DAE6
:10059000404246F00106A061F00701D026F01006A7
:1005A0006C2D0BD0682D09D04C2D39D06A2D35D04B
:1005B000742D35D07A2D33D016E038E0E1682F461F
:1005C00020468847B842054609D16C2F26D04FF403
:1005D0008060E168064320468847054604E06C2FAA
:1005E0001AD04FF4807006430DB3A5F141001928CD
:1005F00002D8203546F400664A4629462046266041
:100600004E46FFF7ADFD80B101280BD0F61D26F058
:10061000070000F1080956E74020E4E78020D8E70A
:100620000020D6E706F104094DE7284652E7206A84
:10063000BDE8F09F1264000070B5064600F0A0F916
:100640000468054630460A22002100F06FFD2C6048
:1006500070BD401ECAB210F8011F8A4202D00029A4
:10066000F9D10020704730B505460B462A4613F8ED
:10067000014B12F8010B08B1A042F8D01CB10028C0
:1006800002D06D1CF1E7284630BD10B5431C02E0D6
:1006900010F8011B71B18107FAD14FF0013202C885
:1006A0008C1A8C4314EAC211F9D0C01A0A0603D07E
:1006B000C01E10BDC01A10BD0A0401D0801E10BD9E
:1006C0000902FCD0401E10BD40EA010370B59B0733
:1006D0002ED14FF00136042A2AD308C810C99D1B19
:1006E0009D43121F15EAC61517D0D8B2E1B2401AC1
:1006F00050EA056110D198B2A1B2401A50EA054102
:100700000AD123F07F4024F07F41401A50EA0521AE
:1007100002D1180EA0EB146070BDA342DBD018BA52
:1007200021BA884201D9012070BD4FF0FF3070BD61
:100730000AB9002070BD10F8013B11F8014B63B1FC
:10074000A3420AD1521E08D010F8013B11F8014B08
:100750001BB1A34201D1521EEDD1181B70BD032A5B
:1007600040F2308010F0030C00F0158011F8013BCE
:10077000BCF1020F624498BF11F801CB00F8013BB5
:1007800038BF11F8013BA2F1040298BF00F801CB79
:1007900038BF00F8013B11F0030300F02580083A50
:1007A000C0F0088051F8043B083A51F804CBA0E8A7
:1007B0000810F5E7121D5CBF51F8043B40F8043BFC
:1007C000AFF30080D20724BF11F8013B11F801CB31
:1007D00048BF11F8012B24BF00F8013B00F801CB02
:1007E00048BF00F8012B704710B5203AC0F00B80CD
:1007F000B1E81850203AA0E81850B1E81850A0E825
:100800001850BFF4F5AF5FEA027C24BFB1E818507E
:10081000A0E8185044BF18C918C0BDE810405FEAEE
:10082000827C24BF51F8043B40F8043B08BF70476A
:10083000D20728BF31F8023B48BF11F8012B28BF6F
:1008400020F8023B48BF00F8012B70474FF0000230
:100850000429C0F0128010F0030C00F01B80CCF1D2
:10086000040CBCF1020F18BF00F8012BA8BF20F840
:10087000022BA1EB0C0100F00DB85FEAC17C24BF94
:1008800000F8012B00F8012B48BF00F8012B70473E
:100890004FF0000200B5134694469646203922BF19
:1008A000A0E80C50A0E80C50B1F12001BFF4F7AF64
:1008B000090728BFA0E80C5048BF0CC05DF804EB46
:1008C000890028BF40F8042B08BF704748BF20F8B4
:1008D000022B11F0804F18BF00F8012B7047000069
:1008E0004FF0013C50F8042B51F8043B9A4221D1BF
:1008F000A2EB0C03934313EACC1317D150F8042B4B
:1009000051F8043B9A4215D1A2EB0C03934313EA2E
:10091000CC130BD150F8042B51F8043B9A4209D167
:10092000A2EB0C03934313EACC13DBD04FF000008F
:10093000704700BFD01A01BAB1FA81F101F0180175
:1009400022FA01F0CB40C1F12001DBB2C0B2C01AE3
:100950002CFA01F3D11A914311EAC311E6D1704781
:10096000704770477047000010B500F01BFC001D79
:1009700010BD00BFF15A00000048704788080020F1
:1009800000487047800800207047704770477047E4
:1009900038B504460A4600206946AFF300800028B7
:1009A00008BF38BD02460099204600F0FFFB012039
:1009B00038BD012000F0DEBCF8B5AFF3008005467D
:1009C00000200C46102000BF0646A819A0420DD9F1
:1009D000324669460020AFF30080070008BF00F0F0
:1009E000C9FC0098A04218BF0546C419FFF7C4FF10
:1009F00005600746F01D20F007004619284600F064
:100A00000AF8B44208BFF8BDA21B31463868BDE8F9
:100A1000F84000F0CBBB00210160C0E90110704735
:100A2000102070472DE9F0470D469946924604463E
:100A300000F124080168880604D5E06921F010015E
:100A4000216000E00120A84201DD471B00E00027F3
:100A5000A1697A1902EB0900081AA0612078C00682
:100A600002D42046AFF30080002608E0D4E901213B
:100A70001AF806009047206A401C761C20624E45FA
:100A8000F4DB2078C0060AD52046AFF3008006E0EC
:100A9000D4E9012130209047206A401C2062381E92
:100AA000A7F10107F4DC07E0D4E9012118F80500FB
:100AB0009047206A401C2062281EA5F10105F3DC46
:100AC0002046AFF300802078000602D50220BDE862
:100AD000F0870120FBE7000001694A1C02610878E9
:100AE000704700B58FB0CDE901310021059105496E
:100AF0007944CDE9031011466846FFF7D9FC0FB0E1
:100B000000BD0000E5FFFFFF0A6802F8010B0A6064
:100B10007047D1E900239A4202D2531C0B60107037
:100B2000704710B5436913B1AFF3008001E0FFF7E0
:100B300059FC012010BD127800F124010A70002236
:100B40004A700122EDE711684FF0FF32E9E700003B
:100B50002DE9FF4F06468BB00878FF2806D0491CC8
:100B60002D2805D000244FF0000908E000200CE0FB
:100B70000124F8E709EB8903491C00EB43090878D5
:100B8000FF28F7D114B1C9F1000081461078002583
:100B90002C46AA4629462D2801D02B2804D1521CC8
:100BA0002D2813D0002082468B461078FF280FD0C6
:100BB0004FF0000C0A21521CA5FB017804FB0181B7
:100BC00005FB0C11C5194BEB0104EEE70120EAE728
:100BD000002108464FF00000BAF1000F02D000EBF0
:100BE00080004008C0F38157012F01DD4FF0FF372F
:100BF0000E9955EA040009EB01080BD04FF00209E9
:100C000018F5FA7F16DA4FEACA70002F706008DD17
:100C1000012007E04FEACA70C6E900B00FB0BDE896
:100C2000F08F00203060FFF7ABFEC0F80090182175
:100C3000084616E0B8F5FA7F18DD002F02DAF7480B
:100C4000784401E0F6487844D0E90010C6E9001085
:100C500040EACA707060FFF793FEC0F8009014215C
:100C600008460FB0BDE8F04F05F09FBD00210846D3
:100C70004FF00000B8F10001099002DAC7F100025C
:100C800000E03A4601DAC8F1000106A800F000FBD6
:100C900006AB93E8070003AB83E8070044F23E008D
:100CA0005BEA04010090584604D144F21E012C4630
:100CB0005D460091210C0904014306D100992404EA
:100CC00044EA15442D041039009104F07F4101439A
:100CD00006D10099240244EA15642D0208390091D6
:100CE00004F07041014306D10099240144EA1574CF
:100CF0002D01091F009104F04041014306D10099E4
:100D0000A40044EA9574AD00891E009104F00041EE
:100D1000084304D100986D196441401E00904FF0C3
:100D200001033A466846B8F1000FCDE9014503A931
:100D300002DD01F08AF801E001F05DF8BAF1000F80
:100D400004460D4601D084F00044002108464FF0CF
:100D50000000099940F2FF77484010F00C0F07D1CE
:100D600024F00040284303D0C4F30A50B84212D103
:100D7000FFF706FEC0F80090C4F30A50B8420AD14B
:100D8000A8487844D0E90010C6E9001004F00041FA
:100D90000843706042E7C6E900543FE72DE9FF4F82
:100DA0001F464FF0000A4FF0FF38454691B0D7E993
:100DB0000146CDF83CA000F0F5F9C0680168405C40
:100DC0001090B96912986D1C8847396A8146884726
:100DD0000028F6D1B9F1FF3F0AD0002E24F4D064E8
:100DE00011DDB9F12B0F08D0B9F12D0F0BD102E0B5
:100DF000404615B013E744F48064B96912986D1C3D
:100E00008847761E8146600504A901D52D2000E0A3
:100E10002B20002E01F1010B0DF130088DF8100090
:100E20003FDDB9F1690F08D0B9F1490F05D0B9F12B
:100E30006E0F02D0B9F14E0F1CD13B4601A80095B0
:100E400080E85002DDE912126FF0020005F014FD97
:100E5000C11CCED10EE0B96912986D1C884781463D
:100E60001398761E44F4007405600F98401C002E01
:100E70000F9016DDB9F1300FEDD0B9F1780F02D037
:100E8000B9F1580F0DD10F9801280AD13B46CDE991
:100E90000054DDE91212001F029605F0EBFCC11CA4
:100EA000A7D1109989453ED144F0800406E01399FA
:100EB000681CAAF1010A44F400740860B9696D1C49
:100EC0001298761E884730288146F0D02BE0109982
:100ED000894505D1200603D4761E44F0800418E02D
:100EE000484604F070FD08B3761E0DF123018B45D2
:100EF00044F4007408D2A9F130000BF8010B20066D
:100F000007D5AAF1010003E0200602D40AF101008E
:100F10008246A00502D51399681C0860B969129829
:100F20006D1C88478146002ED1DC53E0002E51DD38
:100F3000B9F1650F02D0B9F1450F4BD1A00549D5E4
:100F4000B9696D1C1298761E24F440748847002EEF
:100F500081460CDD2B2804D0B9F12D0F07D144F4C4
:100F60008074B96912986D1C8847761E8146E00529
:100F700001D52D2100E02B2108F8011BCDF80080C0
:100F800021E0761E0DF13901884544F400740CD23D
:100F9000A9F1300010F0FF0088F8000002D100999C
:100FA000884509D908F1010806E0E00501D51E4889
:100FB00001E042F20F708246B96912986D1C8847B1
:100FC000814613980560002E04DD484604F0FBFCC2
:100FD0000028D6D1F96912988847FF2053468BF82C
:100FE000000088F8000000200A900B9004AA0CA9C9
:100FF0000AA8FFF7ADFDA00502D46FF00100F8E6E6
:1010000014F0240F12D0E0071CD13868DDE90A1271
:10101000031D3B600068C0E9001213E0DC5D0000C6
:10102000CE5D0000925C0000F1D8FFFF0AA968467F
:1010300004F058FCE00705D13868009A011D3960BA
:10104000006802602846D4E6426842B1016811F89F
:10105000013B23B1521EC0E900121846704701211E
:10106000C160881E704742685AB1C368016843B9BD
:1010700083688B4205D0491E521CC0E90012002033
:1010800070474FF0FF3070470FB4002300B589B0B0
:101090000CA900910B99CB60214B7B440693214B0B
:1010A0007B44079304236FF00042CDE901321E4ACE
:1010B0007A446B4608920246002005F0D9FB09B03D
:1010C0005DF814FB70B506464FF0FF3015460C4630
:1010D000324686B00091CDE90101694600200490B6
:1010E00004A8FFF7D1FF02460498211825B108B1E2
:1010F000084600E020462860049800280DD0002A09
:1011000002DD0098884208D03246081B69460094E8
:10111000CDE9010404A8FFF7B7FF06B070BD0000D9
:10112000ABFFFFFFC3FFFFFF2D0100002DE9F047DC
:1011300091460F4680460446002614F8015B2DB107
:10114000FFF712FC0068405DC007F6D12B2D02D0DE
:101150002D2D18D0641E4A463946204600F049F825
:1011600027B13968A14201D1C7F800804FF00204CD
:1011700071050BD54042002803DDFFF701FC046038
:10118000A007BDE8F08746F48066E4E70028F8DAB7
:10119000FFF7F6FB04606FF00040F2E7004870478D
:1011A0008008002000487047A008002003464068DF
:1011B0008C46002818BF88423CBF03464068F8D3DD
:1011C00018681844884207D00CF1030020F007008B
:1011D000001D411A521A0146081D0A60FFF73FB868
:1011E00010B50446FFF7C0FB0068005D00F0010089
:1011F00010BD2DE9F05F824615468B4600270AF1A7
:101200000104B9460078302801D09DB113E014F8EC
:10121000010B0127782803D0582801D045B10AE0F6
:101220000DB1102D07D1002714F8010B102502E095
:10123000082500E00A250026B0460EE005FB080060
:1012400005FB06F101271FFA80F801EB1046B6F501
:10125000803F00D3B94614F8010B294600F0C2F8CC
:101260000028EBDABBF1000F05D00FB1641E00E0DF
:101270005446CBF80040B9F1000F06D0FFF780FBD1
:1012800002210160C81EBDE8F09F48EA0640FAE767
:101290002DE9F047814616468AB0354878440DC896
:1012A0008DE80D0032487844801C03AC0DC884E8FA
:1012B0000D0041F69B300844372190FBF1F290FB82
:1012C000F1F5A5F1800501FB12041B3C02D5644237
:1012D000012000E00020DFF898A080460027FA44B3
:1012E000AAF1BE0A0EE0E0070AD03246684607EBD4
:1012F000470101230AEB810100F092FD8DE8070010
:1013000064107F1C002CEED1194F7F44AE3F19E0D2
:10131000E80715D007EB04100DF1180A90E80E004D
:101320008AE80E00C068F04201D198190890324650
:10133000012306A903A800F073FD03AB83E80700AF
:101340006D10641C002DE3D14FF001033246694655
:10135000B8F1000F03A802D000F038FD01E000F062
:101360005FFDC9E90001C9F808200AB0BDE8F087AF
:10137000C456000010B500F07BFABDE8104000F044
:1013800072BA70477546FFF709FFAE460500694619
:10139000534620F00700854618B020B5FEF71EFF23
:1013A000BDE820404FF000064FF000074FF0000866
:1013B0004FF0000B21F00701AC46ACE8C009ACE8E7
:1013C000C009ACE8C009ACE8C0098D46704710B54B
:1013D000FFF7D6FA006810BD10B50446FFF7D0FA43
:1013E000046010BD3A2800D2303820F02002412A93
:1013F00001D3A2F13700884201D34FF0FF3070478C
:101400002DE9FF4F1F464FF03C0987B04FF00042D7
:10141000DDE9141001F10108DDF858A002EA40509E
:101420000390002005908346054604460490B96960
:10143000461E08988847AAF1010A0290BAF1000FE7
:101440003BDD02982E2815D01021FFF7CBFF002896
:101450002EDB4FF0010B0599014317D0B9F1000FB6
:101460000BDB4A46C11700F031FA05430C43A9F1E2
:10147000040905E0012004900BE008B145F00105E6
:1014800001200590049820B9361D02E0049800B1AF
:10149000361FB969089808F101088847BBF1000FA9
:1014A000AAF1010A0290C9D00999C1F80080C5E7E4
:1014B0000298702808D0502806D0F9690898884703
:1014C000BBF1000F14D04FE0002002900120BBF1CF
:1014D000000F049009D0B969089808F101088847FD
:1014E000AAF10109B9F1000F07DCF96908988847EA
:1014F0006FF001000BB0BDE8F08F2B2804D02D2831
:101500000CD14FF0FF300490B969089808F1010838
:101510008847A9F10109B9F1000FE6DD411CE4D0CB
:101520000A21FFF75FFF0028DFDB029908F10108BD
:1015300001EB810100EB41000290B96908988847EE
:101540000A21FFF74FFF099AA9F10109B9F1000F2C
:10155000C2F8008001DD0028E7DAF96908988847B9
:101560000499029800FB016655EA040004D004F0D7
:101570004041090002D006E0039898E0A40044EA44
:101580009574AD00B61E04F00041080002D16D193B
:101590006441761E159810F0240F03D04FF00B090C
:1015A0005C4803E04FF028096FF07D008246564505
:1015B00007DAAAEB06018944B9F1410F01DD4FF0CA
:1015C000410901200021A9F1010200F07FF9024642
:1015D00028400B462140084301D0012100E00021B2
:1015E000501E029143F1FF3128402140084301D0B1
:1015F000012000E000200299834651EA0B014FD000
:10160000002108464FF00000039900F4400039B172
:1016100000EB80004FF4400100EBD07001EA600065
:101620008015012802DD4FF0FF3000E013D0401C90
:1016300036D0029860B3BBF1000F0CD14A460120AE
:10164000002100F043F928402140084301D0012047
:1016500000E00020E0B101204A46002100F036F908
:10166000034640190A4661412D1A8C4111D3B9F144
:10167000400F09DD159810F0240F02D0AAF13406AE
:1016800003E0AAF1170600E0761C00254FF00044A5
:1016900006E05B1E42F1FF3220EA030521EA020464
:1016A000CAF10100B04206DA1B49039808430190D1
:1016B000002000900EE0039AC4F3D321E80A0A4305
:1016C000164940EA44500A433146CDE900026846D3
:1016D00004F06EF9159810F0240F0BD01598C00780
:1016E00015D13868DDE90012031D3B600068C0E9D0
:1016F00000120CE002A8694604F0F4F81598C0073F
:1017000005D13868029A011D3960006802604046C0
:10171000F0E6000002FCFFFF0000F07F0000F03F59
:101720002DE9FF4F92461D4685B04FF00041DDE99F
:10173000124BDDE914727F1E01EA4B50414940F023
:10174000FF4940EA0108002122F0200049280491C5
:1017500002D04E2828D04CE03BA0012607C88DE8D7
:101760000700A9690698641C88477F1E014606D4B5
:101770001DF8060018B121F0200181420BD0E96963
:1017800006988847032E34D0082E32D06FF001001F
:1017900009B0BDE8F08F761C032E01D0082EE0D1F1
:1017A000601CCAF80000DCE7A9690698641C884739
:1017B0007F1E2AD420F02000412826D1A96906984E
:1017C000641C88477F1E20D420F020004E281CD1A6
:1017D000A9690698641C88477F1E48F4002849F4CC
:1017E0008009CAF8004001D4282806D0E969069883
:1017F00088475FEACB7012D022E0A9690698641C82
:1018000088477F1E01D4002803DAE96906988847D3
:10181000BCE72928F1D1641CCAF80040E9E71BF0B5
:10182000240F07D028680499031D2B600068C0E9C5
:10183000001805E02868021D2A600068C0F80090C2
:101840002046A5E70000F07F494E46494E495459CD
:101850000000000010B50446AFF300802046BDE84C
:101860001040FEF7A7BC002801D000F029B870474F
:1018700010B5012805D0002103A000F03AF801209E
:1018800010BD09A1F8E7000053494752544D454D9A
:101890003A204F7574206F662068656170206D6511
:1018A0006D6F7279000000003A2048656170206D0C
:1018B000656D6F727920636F727275707465640004
:1018C00001491820ABBEFEE726000200B2F120035A
:1018D0000AD5C2F1200301FA02F120FA03F300FA5B
:1018E00002F041EA0301704700FA03F14FF00000F3
:1018F000704770B505460C460A2000E06D1C00F0EC
:1019000011F835B128780028F8D102E0641C00F005
:1019100009F814B120780028F8D1BDE870400A20F9
:10192000AFF3008008B569468DF800000320ABBE18
:1019300008BD20F07F4C80EA030023F07F47ACEB2A
:10194000070303F57C5300F0004003F1FF032DE98A
:1019500080494FEA154B09B44FEA144325EA0B4E70
:1019600024EA03480FF2042606EB132749083E78C1
:101970005FEA320203FB0667C7F5000707FB06F6BE
:101980004FEA54374FEAD64606F1020607FB066CCB
:10199000CCF1005C4FEA1C472CEA074C07FB06F42D
:1019A0000CFB06F504EB15464FEA961634BF0020F3
:1019B0004FF000404FEAD13706FB07FC4FEA1C4CC2
:1019C0000CFB0BF7D21B03FB0CF761EB07010CFBC5
:1019D0000EF7B0EB074072EB17420CFB08F734BF71
:1019E000A2EB0742B2EB074261EB17414FEA0C440E
:1019F0004FEA910706FB07FC4FEA1C4C0CFB0BF768
:101A0000B0EBC74072EB573203FB0CF734BFA2EBCD
:101A1000C742B2EBC74261EB57310CFB0EF7B0EB9C
:101A2000C70072EB57720CFB08F734BFA2EBC7027A
:101A3000B2EBC70261EB5771039F4FEA816141EA44
:101A4000921104EBCC044FEAD1374FEA826206FBD5
:101A500007FC42EA90124FEA80604FEA1C4C0CFBF4
:101A60000BF7D21B03FB0CF761EB07010CFB0EF726
:101A7000B0EB074072EB17420CFB08F734BFA2EB48
:101A80000742B2EB074261EB17414FEA8C554FEA30
:101A9000910704EB9C2406FB07FC4FEA1C4C0CFB53
:101AA0000BF7B0EBC74072EB573203FB0CF734BFB8
:101AB000A2EBC742B2EBC74261EB57310CFB0EF70A
:101AC000B0EBC70072EB57720CFB08F734BFA2EB08
:101AD000C702B2EBC70261EB577115EB4C254FEA19
:101AE000816141EA92114FEA82624FEAD13742EABC
:101AF000901206FB07FC44F100044FEA80604FEAB5
:101B00001C4C0CFB0BF7D21B03FB0CF761EB070122
:101B10000CFB0EF7B0EB074072EB17420CFB08F71B
:101B200034BFA2EB0742B2EB074261EB174115EB62
:101B30001C154FEA813141EA92414FEA823242EA72
:101B400090424FEA80304FEA0C7644F1000448EAB4
:101B500003434EEA0B484FF0000EB2EB080C71EB5A
:101B6000030724BF624639464EEB0E0E4FF0000BC2
:101B70000018524149414BEB0B0BB2EB080C71EBD7
:101B800003077BF1000B24BF624639464EEB0E0E75
:101B90004FF0000B0018524149414BEB0B0BB2EBDD
:101BA000080C71EB03077BF1000B24BF624639463A
:101BB0004EEB0E0E51EA020718BF46F0010616EB77
:101BC0000E7655F1000254F1000103D5BDE88901FC
:101BD000BDE80088BDE88901BDE80048B61952415A
:101BE00041EB0101A3F10103704780807F7E7D7C82
:101BF0007B7A7978777676757473727171706F6E9F
:101C00006E6D6C6C6B6A6A69686867666665646449
:101C1000636362616160605F5F5E5E5D5D5C5C5BD3
:101C20005B5A5A5959585857575656555555545442
:101C3000535352525251515050504F4F4F4E4E4DA0
:101C40004D4D4C4C4C4B4B4B4A4A4A4949494848EC
:101C5000484747474746464645454544444444432C
:101C600043434342424242414141000046EA064664
:101C7000A3F570534FEA164646EA42564FEAD2227F
:101C800042EA415210B54FEAD121A3F1010300F01D
:101C90002FF820F0004000F1020C00F0004701EBAB
:101CA00000501146BCF5006F40EA070000D210BD9D
:101CB000BAF1000F0AD01CB503B44FF004004FF086
:101CC00004014FF000000FBCBDE810404FF00001D0
:101CD000BBF1010FB9BF04484FF0FF3103480021A9
:101CE00040EA070010BD00BFFFFFEF7F0000F07F5C
:101CF000002B9C4630D477002BD01CB54FEA370719
:101D000003B44FF010004FF01001BAF1000F06D0ED
:101D1000BCF1000FDCBF40F0080040F008014FF0BC
:101D200000000FBCBDE810400BF1010BBBF1010F2F
:101D300008BF5FEA170722BF12F1010211F101018A
:101D40004FF0004143F1000300F0004043EA00007F
:101D50007047F9D35708D0E746EA064613F1400F1B
:101D60004FEA16461FDD13F1200FDFBF16430A4668
:101D7000002120335B42BED0C3F1200746EA06466D
:101D800002FA07F74FEA164646EA0706C3F12007AC
:101D900022FA03F201FA07F721FA03F14FF00003E8
:101DA00042EA0702A7E746EA020646EA06464FEA83
:101DB000164646EA0106BCBF46EA0646360C4FF018
:101DC00000034FF000024FF0000194E72DE9804C32
:101DD0009A46934670B491E8380007C831EA400C3F
:101DE00048BF34EA430C03D5FFF7A3FDFFF780FF9C
:101DF000F0BCBDE8008C2DE9804C9A46934670B447
:101E000091E8380007C831EA400C48BF34EA430C77
:101E100003D5FFF78EFDFFF729FFF0BCBDE8008C6E
:101E20002DE9804C9A46934670B491E8380007C873
:101E300010F0804F08BF13F0804F03D100F01AF864
:101E4000FFF756FFF0BCBDE8008C2DE9804C9A46A8
:101E5000934670B491E8380007C810F0804F08BF6F
:101E600013F0804F03D100F005F8FFF7FFFEF0BC40
:101E7000BDE8008C20F07F4780EA030023F07F4C10
:101E800007EB0C03A3F57C5300F00040A3F1FE0325
:101E900092F0000F00F0B38095F0000F00F0778013
:101EA0002DE901494FEA11404FEA144621EA004862
:101EB00000FB06FC24EA064708FB06F607FB08F8C9
:101EC00000FB07F718EB06484CEB164C4FEA124B99
:101ED00018EB07484FEA15464CEB174022EA0B4E29
:101EE0000BFB06FC25EA06470EFB06F607FB0EFE7B
:101EF0000BFB07F71EEB064E4CEB164C4FF00006A3
:101F00001EEB074E4CEB174B18EB0B0840F1000093
:101F100018EB0E0B58EB000840F100008F1A4FF041
:101F200000013CBFC943661B14BFB5EB040C002184
:101F30003CBFC943F61B4FEA17444EEA8E0E27EA10
:101F400004454FEA1C4704FB07622CEA074C05FBDB
:101F500007F70CFB05F604FB0CFC16EB074642EBFF
:101F6000174216EB0C4642EB1C421BEB060658EBE5
:101F70000202414146EA9E0601D5BDE80189B61933
:101F8000524141EB0101A3F10103BDE801894FEA90
:101F900014454FEA114724EA054621EA074C05FBA0
:101FA00007F406FB07F70CFB06F105FB0CFC11EB35
:101FB000074144EB17444FEA124711EB0C4144EB45
:101FC0001C4422EA074C05FB07F206FB07F70CFB53
:101FD00006F605FB0CFC16EB074642EB174216EB28
:101FE0000C4642EB1C456A1854F1000148BF70478B
:101FF000B619524141EB0101A3F10103704795F07D
:10200000000F37D04FEA11424FEA144721EA024647
:1020100024EA074C02FB07F106FB07F70CFB06F46A
:1020200002FB0CFC14EB074441EB17414FEA154748
:1020300014EB0C4441EB1C4125EA074C02FB07F56D
:1020400006FB07F70CFB06F602FB0CFC16EB07463B
:1020500045EB174516EB0C4645EB1C42121951F1A6
:10206000000148BF7047B619524141EB0101A3F18D
:10207000010370474FEA14454FEA114724EA054629
:1020800021EA074C05FB07F106FB07F70CFB06F2FC
:102090004FF0000605FB0CFC12EB074241EB174129
:1020A00012EB0C4251EB1C4148BF7047921841EBB8
:1020B0000101A3F101037047FEE70000014801F0B0
:1020C00073B9000078010020014801F06DB90000EB
:1020D000BC01002030B590F840500124AC40C56BE5
:1020E0006C60046863604368102B036803D09960D8
:1020F0000068C26030BD9A600068C16030BD0000F9
:102100002DE9FF414FF40045002001240095CDE961
:1021100001400320124E03906946304601F066FAF2
:102120004020CDE900040F4F6946384601F05EFAC1
:102130008020CDE900046946384601F057FA0022B4
:102140002946304601F042FB00228021384601F04A
:102150003DFB00224021384601F038FBBDE8FF81FD
:1021600000080140000C0140704700000548064986
:102170004FF47A720068B0FBF1F0044908605043F4
:10218000486070470C00002040420F0040000020D3
:1021900010B54FF400710348FEF758FB02490020C8
:1021A000088010BD00020020240000202DE9F04F1F
:1021B000ADF20C4D79A17AA000F08CFF4FF4FA74C7
:1021C000204603F00EFD75A17AA000F083FF2046A3
:1021D00003F007FD814982A0CDE9000183A385A218
:1021E0004FF4007102A8FEF7E1F88DA0009064237F
:1021F000162296A19B4802F004FC00273E46B846F2
:1022000041F2883A41F2873BA1466423182296A105
:10221000944802F0F6FB64230B229AA1914802F045
:10222000F0FB02A8FEF731FA82B24FF47A7302A9EA
:102230008C4802F0E6FB642302225DA1894802F08B
:10224000E0FBFFF7A5FF4C46484603F0CAFC02A896
:10225000FEF71BFA82B2534602A98E4802F0D1FB68
:10226000204603F0BEFC5C4601F01AF8002857D067
:10227000C82003F0B6FC88480588B5F5007F01D377
:1022800040F2FF152A46854982A8FEF768FA82A91E
:10229000002048556423062281A1724802F0B1FB58
:1022A00064230A2280A16F4802F0ABFB45B182A8EB
:1022B000FEF7EBF982B24B4682A96A4802F0A1FB15
:1022C000642302223AA1674802F09BFB33A182A853
:1022D000FEF7C9F908B1012606E076A182A8FEF74B
:1022E000C2F998B10126B046FFF752FF64231222CB
:1022F00074A15C4802F085FBB8F1000F21D0642383
:10230000192275A1574802F07CFB1AE079A182A836
:10231000FEF7A9F910B1FFF73BFF07E0FFF738FF21
:102320000A2003F05EFC641EA4B29DD26423212225
:1023300072A14C487F1C02F064FB4FF4FA6003F07A
:1023400050FC0A2F03DA002E3FF45FAF00E01EB10D
:10235000B8F1000F04D015E06423252270A118E025
:102360006423142278A13F4802F04BFB51A100984E
:1023700000F0B0FE4FF0640348B1142278A1394850
:1023800002F03FFB01200DF20C4DBDE8F08F16224C
:1023900078A1344802F035FB0020F4E74F4B0000F1
:1023A00041542B4D515454444953434F4E4E3D30AC
:1023B0000D0A000041542B4D51545455534552437E
:1023C00046473D302C302C22222C22222C22222C3B
:1023D000302C302C22220D0A000000007C690008FD
:1023E0006455356A5667314C396200007465737400
:1023F0000000000041542B4D515454555345524355
:1024000046473D302C312C222573222C2225732265
:102410002C222573222C302C302C22220D0A000075
:1024200041542B4D515454434F4E4E3D302C226D50
:10243000717474732E6865636C6F7564732E636F4B
:102440006D222C313838332C310D0A00436F6E6603
:1024500069677572696E67204D5154542E2E2E0D8A
:102460000A00000030010020547279696E67204D27
:1024700051545420555345524346472E2E2E0D0A93
:10248000000000002D2D53454E4420434D443A207A
:1024900000000000E80000202400002000020020CE
:1024A00068656C6C6F0000002D2D4553502052580C
:1024B0003A2000002B4D515454434F4E4E45435447
:1024C000454400004D51545420555345524346470E
:1024D000204F4B0D0A0000004D515454206175747B
:1024E0006F2D636F6E6E6563746564204F4B0D0ACC
:1024F000000000004552524F520000004D5154540C
:102500002055534552434647206661696C65642CEB
:10251000207265747279696E672E2E2E0D0A000086
:102520004D515454205553455243464720666169E6
:102530006C65642061667465722035206174746511
:102540006D7074730D0A0000436F6E6E656374697D
:102550006E67204D5154542E2E2E0D0A000000009F
:102560004D51545420636F6E6E6563746564204FE3
:102570004B0D0A004D51545420636F6E6E656374A9
:10258000206661696C65640D0A00000000B5A1B0A9
:1025900011A0009013A316A2802101A8FDF706FF49
:1025A0006423132218A11E4802F02BFA1DA101A8D2
:1025B00000F090FD4FF0640338B114221BA11848BD
:1025C00002F01FFA012021B000BD16221CA1144800
:1025D00002F017FA0020F6E76A64373137373138EE
:1025E000000000006A696E676461383330000000E3
:1025F00041542B43574A41503D222573222C22251A
:1026000073220D0A00000000436F6E6E65637469EB
:102610006E6720576946692E2E2E0D0A00000000B5
:1026200030010020474F5420495000005769466947
:1026300020636F6E6E6563746564204F4B0D0A00F6
:102640005769466920636F6E6E65637420666169C1
:102650006C65640D0A00000070B540F2FF1233494A
:10266000334802F0A9F964230B2232A1354802F065
:10267000C8F935A135A000F02DFD4FF4FA754FF0E3
:10268000640390B10B222BA12E4802F0BAF9284620
:1026900003F0A7FA64231C222EA12A4802F0B1F904
:1026A00029A134A000F016FD04E01E2234A1254823
:1026B00002F0A7F9284603F094FA64230B2238A10C
:1026C000204802F09EF900241FA139A000F002FD6D
:1026D00028B9C82003F085FA641C032CF4DB1AA186
:1026E00035A000F0F7FC4FF0640310B1132236A1BF
:1026F00001E022223AA1134802F083F9284603F0B0
:1027000070FA11A13FA000F0E5FC4FF0640310B196
:10271000112240A101E0202243A10A4802F071F9F0
:102720002846BDE8704003F05CBA000000020020BB
:10273000E800002041542074657374204F4B0D0A4B
:1027400000000000300100204F4B000041540D0AF2
:1027500000000000436865636B696E672045535055
:10276000383236362076657273696F6E2E2E2E0DD6
:102770000A00000041542B474D520D0A0000000092
:1027800041542074657374206661696C65642C2003
:102790007265747279696E672E2E2E0D0A00000024
:1027A00041542074657374204F4B310D0A000000B2
:1027B000415445300D0A000041542B43574D4F44BE
:1027C000453D310D0A00000043574D4F44452073ED
:1027D000657420746F2031204F4B0D0A00000000FB
:1027E0005365742043574D4F4445206661696C65BD
:1027F000642C207265747279696E672E2E2E0D0A14
:102800000000000041542B4357444843503D312CB5
:10281000310D0A004448435020656E61626C656466
:10282000204F4B0D0A00000053657420444843506C
:10283000206661696C65642C207265747279696EBA
:10284000672E2E2E0D0A00002DE9F041C4B01F4660
:10285000904605000E465CD0002E5AD00846FDF783
:1028600014FF0446CDE900482B462BA24FF480719B
:1028700003A80297FDF79AFD64230B222FA132488B
:1028800002F0BFF803A8FDF700FF82B24FF4FA731D
:1028900003A92D4802F0B5F8642302222BA12A488F
:1028A00002F0AFF8FFF774FC03A8FDF7EEFE82B26A
:1028B0004FF47A7303A9264802F0A3F841F2883155
:1028C00024A000F0B9FC80B1A2B24FF4FA63314603
:1028D0001F4802F096F84FF4FA511FA000F0ACFC2C
:1028E00040B1012044B0BDE8F081642312221BA155
:1028F00017480CE064211EA000F09EFC4FF064031A
:1029000010B116221CA101E0172221A10E4802F0ED
:1029100078F80020E6E7000041542B4D5154545004
:1029200055425241573D302C222573222C256C757F
:102930002C25642C25640D0A000000002D2D534524
:102940004E4420434D443A00300100200D0A00005F
:10295000E80000203E0000004F4B00002D2D4553A5
:1029600050206E6F2070726F6D70740D0A00000041
:102970004552524F520000002D2D45535020707586
:10298000626C697368204552524F520D0A00000074
:102990002D2D455350207075626C697368207469E1
:1029A0006D656F75740D0A0000B5C1B003460091E6
:1029B00024A24FF4807101A8FDF7F8FC64230B22D8
:1029C00026A12A4802F01DF801A8FDF75EFE82B29A
:1029D0004FF4FA7301A9254802F013F86423022288
:1029E0001DA1224802F00DF864231A2220A11F48DD
:1029F00002F007F825A101A800F06CFB4FF064037A
:102A000010B1192222A110E0242228A1174801F0B8
:102A1000F8FFC82003F0E5F81CA101A800F05AFB5C
:102A20004FF0640338B121222AA1104801F0E9FFD8
:102A3000012041B000BD24222FA10C4801F0E1FF8C
:102A40000020F6E741542B4D5154545355423D302C
:102A50002C222573222C25640D0A00002D2D5345B0
:102A60004E4420434D443A20000000003001002035
:102A70005375627363726962696E6720746F207444
:102A80006F7069632E2E2E0D0A0000004F4B000060
:102A90004D5154542073756273637269626520539B
:102AA0005543434553530D0A000000004D51545403
:102AB00020737562736372696265204641494C45B3
:102AC000442C207265747279696E672E2E2E0D0A61
:102AD000000000004D515454207375627363726995
:102AE00062652053554343455353202872657472E1
:102AF00079290D0A000000004D515454207375626D
:102B0000736372696265204641494C4544206166A1
:102B10007465722072657472790D0A002DE9F041B6
:102B2000C14FADF5956D38884FF4FF75A84203D8B5
:102B30003E88002E76D001E040F2FF163246BB49B7
:102B400080A8FDF70CFE00243C80B84864230E22C8
:102B5000047080A8B6A18455B94801F052FF80A83E
:102B6000FDF793FD82B24FF4FA76334680A9B4485C
:102B700001F047FF64230222B2A1B14801F041FFF6
:102B80007B2180A8FDF765FD18B1002211466F4634
:102B90000FE064231822ACA16CE07B2B02D07D2BCC
:102BA00002D002E0521C00E0521E7B54401C491C23
:102BB0001AB103780BB1A942EFDD7C5400294FF024
:102BC000640351D01622A6A19D4801F01AFF684661
:102BD000FDF75BFD82B233466946994801F011FF6B
:102BE0006423022297A1964801F00BFF684602F089
:102BF00074FF5FEA00083AD000259FA102F034FF7D
:102C0000040003D002F04CFF00B125699BA14046AF
:102C100002F02AFF07004FF000064FF0640374D063
:102C20001C2200E029E097A1854801F0EAFE9DA161
:102C3000384602F019FF04004FF0640371D01A22E5
:102C400099A17F4801F0DDFE204602F010FF58B345
:102C5000642315229BA17A4801F0D3FE204602F09E
:102C600028FF70B101240DE015229CA102E064232D
:102C700014229FA1724801F0C4FE0DF5956DBDE8C8
:102C8000F08100242246A0A10DF59060FDF778FBAD
:102C90000DF59060FDF7F9FC82B264230DF59061AB
:102CA000674801F0AEFE45E0204602F0E7FE30B195
:102CB0006423172299A1624801F0A3FE2BE020466D
:102CC00002F0EEFE30B1642317229AA15C4801F0B5
:102CD00098FE2BE0204602F0DAFE4FF06403C0B30A
:102CE00017229AA1564801F08CFE9EA1204602F0C0
:102CF000BBFE040033D002F0BAFE0028204607D005
:102D000002F0D7FE10B1012416E067E0002413E0C2
:102D100002F0B4FE30B1204602F098FE03F050FC01
:102D200007E02FE0204602F0BBFEC0B12069FDF7AE
:102D300083FC0446002C12DB642319228BA140483B
:102D400001F05FFE01264FF0640364B109228EA1F9
:102D50000BE0FFE71D228FA1394801F052FE6423EA
:102D60001B2294A101E00A2299A1354801F049FEF5
:102D70009AA1384602F078FE040034D002F077FEC3
:102D8000C0B902E01E2297A1EFE7204602F076FECE
:102D9000C0B9204602F084FEE0B9204602F077FE7A
:102DA00008B370A1204602F05FFE04001BD002F0C1
:102DB0005EFE18B1204602F07CFE14E0204602F0D0
:102DC0005DFE18B1204602F041FE0CE0204602F004
:102DD00067FE40B12069FDF72FFC04E01B2289A1AA
:102DE000174801F00EFE15B12B468DA203E000F04E
:102DF000F3FC034697A280210DF58060FDF7D6FA1B
:102E000000231A460DF580619FA0FFF71DFD002EDF
:102E10007FF433AF64231A22A7A1094801F0F1FD22
:102E2000404602F0EFFD28E72400002000020020C9
:102E30002D2D50524F434553532052583A200000F5
:102E4000300100200D0A000044454255473A204E0B
:102E50006F204A534F4E20666F756E640D0A000056
:102E600044454255473A20457874726163746564FD
:102E7000204A534F4E3A200069640000706172612D
:102E80006D73000044454255473A20466F756E64A5
:102E900020706172616D73206F626A6563740D0AE0
:102EA000000000004C45440044454255473A204646
:102EB0006F756E64204C4544206669656C640D0A2C
:102EC0000000000044454255473A204C45442069E3
:102ED0007320626F6F6C0D0A00000000444542557C
:102EE000473A20456D707479204A534F4E0D0A00C1
:102EF000634A534F4E207061727365206661696C3E
:102F000065640D0A0000000044454255473A2041DF
:102F10006374696F6E3A2025640D0A00444542557A
:102F2000473A204C4544206973206E756D62657286
:102F30000D0A000044454255473A204C454420695B
:102F40007320737472696E670D0A00004445425520
:102F5000473A204C4544206973206F626A65637468
:102F60000D0A000076616C7565000000444542550D
:102F7000473A20416374696F6E2069732076616CF3
:102F800069640D0A000000004C454431204F4E0D8D
:102F90000A00000044454255473A204C4544206908
:102FA0007320756E6B6E6F776E20747970650D0A85
:102FB0000000000044454255473A20416374696F60
:102FC0006E20697320696E76616C69640D0A000079
:102FD0004C454431204F46460D0A00006C65643272
:102FE0000000000044454255473A204C45442066C5
:102FF00069656C64206E6F7420666F756E640D0A6F
:103000000000000044454255473A204E6F20706151
:1030100072616D73206F626A6563740D0A0000004F
:103020007B226964223A222573222C22636F646515
:10303000223A3230302C2264617461223A6E756C0F
:103040006C2C226D7367223A227375636365737308
:10305000227D00007B226964223A22256C75222C95
:1030600022636F6465223A3230302C2264617461CD
:10307000223A6E756C6C2C226D7367223A2273753E
:103080006363657373227D00247379732F645535F0
:103090006A5667314C39622F746573742F7468698E
:1030A0006E672F70726F70657274792F7365745FBD
:1030B0007265706C7900000044454255473A204ED5
:1030C0006F206669656C64732068616E646C65640A
:1030D0000D0A00002DE9F04FADF5017D8B46044649
:1030E00040F6B835FFF754F82046FDF7CEFA82B225
:1030F000C82321463E4801F084FC322002F071FDD5
:103100003C4F4FF4007940F2FF1800264FF4FA7A52
:1031100049E000BF00F0C4F8002841D0C82002F008
:1031200060FD3C884C4500D34446224632496846FF
:10313000FDF715FB0DF80460642308222FA1314828
:1031400001F05FFC64230A222FA12E4801F059FCF4
:1031500044B16846FDF799FA82B253466946294858
:1031600001F04FFC642302222AA1264801F049FC09
:10317000BBF100000BD001466846FDF774FA30B190
:10318000FFF706F801200DF5017DBDE8F08F22A1C3
:103190006846FDF768FA18B1FEF7FAFF0020F2E77B
:1031A0000A2002F01EFD6D1EADB2B3D23C884C4524
:1031B00000D34446224610496846FDF7D0FA0DF880
:1031C00004606423152216A10E4801F01AFC44B1D4
:1031D0006846FDF75AFA82B253466946094801F03B
:1031E00010FC642302220BA1064801F00AFCD3E77D
:1031F000E8000020240000200002002068656C6CBC
:103200006F323200300100202D2D4553502052588E
:103210003A2000000D0A00004552524F52000000B3
:103220002D2D455350205258206F6E2074696D65C6
:103230006F75743A200000002DE9F04F83460A2094
:10324000B1FBF0F5ADF5017D134E4FF4007940F27E
:10325000FF1A0027E8461BE00A2002F0C2FC34886F
:10326000B4B14C4500D3544622460C496846FDF79C
:1032700076FA08F80470BBF1000009D001466846F0
:10328000FDF7F1F920B101200DF5017DBDE8F08FCA
:1032900028466D1EE0D2F7E724000020000200203F
:1032A0000748018839B101884288914205D100213F
:1032B0004180012070470020704701884180FAE773
:1032C0002400002072B6FEE710B590F8211000220D
:1032D000022905D00421816380F82020012010BD3F
:1032E00001680B6823F00E030B6001680B6823F084
:1032F00001030B6090F84030C46B012101FA03F325
:10330000636080F8211080F82020104610BD000076
:1033100010B590F821100024022903D00421816304
:1033200001243DE001680A6822F00E020A6001688B
:103330000A6822F001020A601A4A0168914201D12A
:10334000012121E0174A1432914201D110211BE0E2
:10335000144A2832914201D1891515E0114A3C32B4
:10336000914201D189140FE00E4A5032914202D1AC
:103370004FF4803108E00B4A6432914202D14FF49D
:10338000801101E04FF08071064A083A5160012136
:1033900080F82110002180F82010416B01B188478E
:1033A000204610BD080002402DE9F05FC16B0C689B
:1033B00001680B68D0F840C0042202FA0CF2494DB3
:1033C000DFF824A1494E4A4FDFF828B1DFF828E1A1
:1033D00022422CD05A072AD50A68920603D40A68DA
:1033E00022F004020A600168A94201D1042219E016
:1033F000514501D1402215E0B14202D14FF4806223
:1034000010E0B94202D14FF480420BE0594502D19D
:103410004FF4802206E0714502D14FF4800201E0B2
:103420004FF080622F4908394A60C16A3BE04FF093
:10343000020808FA0CF818EA040F4FF000094FF0E0
:10344000010235D05FEA837832D50B689B0605D43C
:103450000B6823F00A030B6080F821200168A94261
:1034600001D1022219E0514501D1202215E0B142DB
:1034700002D14FF4007210E0B94202D14FF4005271
:103480000BE0594502D14FF4003206E0714502D1FC
:103490004FF4001201E04FF00072124908394A60FF
:1034A00080F82090816A00291AD0BDE8F05F0847B3
:1034B000082505FA0CF5254212D01B0710D50B681C
:1034C00023F00E030B6090F84010C36B02FA01F179
:1034D0005960826380F8212080F82090016BE2E738
:1034E000BDE8F09F080002401C000240300002408E
:1034F00044000240580002406C00024030B528B33E
:1035000008C8134914221944B1FBF2F18900C163C0
:1035100010498163022141771A6843F6F0718A43AA
:10352000D0E900142143D0E902452C43214304692A
:1035300021434469214384692143114319600021D7
:103540004163012242770177084630BD012030BD3A
:10355000F8FFFDBF0000024070B5044690F820005F
:10356000002501280CD0012084F8200094F8216067
:103570000020012E06D084F820000225284670BDC8
:10358000022070BD022684F82160A06320680668CE
:1035900026F0010606602046FEF79CFDE06A002842
:1035A0002068016802D041F00E0106E021F004011C
:1035B00001602068016841F00A010160206801682B
:1035C00041F001010160D9E770B5044600F004F94B
:1035D0000546601C02D004480078044400F0FCF862
:1035E000401BA042FAD370BD000000202DE9F84F27
:1035F000DFF8B8910024A9F1040B23460F2709F145
:10360000040AABF1040EC9E00125A5402A40AA42F4
:103610007DD1674ED1F804C0ACEB0608B44532D07A
:1036200014DCBCF1030F3AD009DCBCF1000F2AD046
:10363000BCF1010F1CD0BCF1020F31D11DE0BCF177
:10364000110F17D0BCF1120F2AD119E0B8F5881F5D
:1036500019D006DCB8F5803F15D0B8F5801F1FD112
:1036600011E0B8F5001F0ED0B8F5041F18D10AE01C
:10367000CB6815E0CB681B1D12E0CB6808330FE068
:10368000CB680C330CE08B682BB1012B4FF0080397
:1036900003D0456104E0042302E0056100E000235B
:1036A000FF2A01D8064601E000F104064FEA84052E
:1036B00001D9A5F12005D6F8008007FA05FC28EA13
:1036C0000C0803FA05F548EA0508C6F800804D68BD
:1036D000ED0062D5374DAE6946F00106AE61AD69C9
:1036E00024F0030605F001050095334D06EB050CAB
:1036F000DCF80850A607360F07FA06F825EA080591
:10370000DFF8B880404503D14FF0000817E044E0EF
:10371000DFF8AC80404502D14FF001080FE0DFF840
:10372000A480404502D14FF0020808E0DFF89880FD
:10373000404502D14FF0030801E04FF0040808FAB9
:1037400006F848EA0508CCF808804D68D9F800600A
:10375000ED024D4601D5164300E096432E604D68BC
:10376000DAF80060AD02554601D5164300E09643F5
:103770002E604D68DBF80060AD035D4601D5164351
:1037800000E096432E604D68DEF80060ED0375465C
:1037900001D5164300E096432E60641C0D682A464E
:1037A000E5407FF431AFBDE8F88F00000804014028
:1037B000000011100010024000000140000801400C
:1037C000000C014000100140001401400AB10161E9
:1037D00070470904FBE7000001488068704700005B
:1037E000000000200248816802781144816070471F
:1037F00000000020074810B5016841F01001016089
:10380000032000F075F80F2000F006F800F024F80F
:10381000002010BD0020024070B50D4D04464FF44D
:103820007A712878B1FBF0F00A490968B1FBF0F031
:1038300000F0E0FC48B9102C07D200222146501EAF
:1038400000F036F800206C6070BD012070BD0000F3
:10385000000000200C0000200C4808B5816941F0F0
:1038600001018161816901F001010091C16941F0AB
:103870008051C161C06900F08050009004484168E7
:1038800021F0E06141F00071416008BD001002408C
:1038900000000140002809DB00F01F0201219140D7
:1038A0004009800000F1E020C0F8001170470000DE
:1038B000F0B40E4B1B680C46C3F30223C3F107059B
:1038C000042D00D90425191D072901D2002300E089
:1038D000DB1E012606FA05F1491E214099409E4053
:1038E000761E16403143F0BC01F0DDBF0CED00E068
:1038F000064900F0070208684FF6FF03184040EA47
:103900000220034A10430860704700000CED00E0FD
:103910000000FA052DE9F0470F46050061D0434E3F
:10392000306800F00700B84209D2306820F0070084
:1039300038433060306800F00700B84251D1286841
:103940003B4C810712D5400703D5606840F4E06026
:1039500060602878000703D5606840F460506060BC
:103960006068A96820F0F000084360602878C0070C
:1039700028D06868012810D02168022810D0890753
:1039800000292EDA616821F0030101436160FFF72D
:1039900023FF804641F288390DE021688903EFE773
:1039A0008901EDE7FFF718FFA0EB0801494502D9AF
:1039B0000320BDE8F0876068696800F00C00B0EB98
:1039C000810FEFD1306800F00700B8420BD93068A2
:1039D00020F0070038433060306800F00700B8423C
:1039E00001D00120E5E72878400705D56068E9683F
:1039F00020F4E060084360602878000706D560681E
:103A0000296920F4605040EAC100606000F038F895
:103A10006168084AC1F30311515CC8400649086057
:103A200006480068FFF7F8FE0020C2E700200240C9
:103A300000100240BE6800080C00002004000020B6
:103A40000448054900684968044AC1F30221515CF1
:103A5000C84070470C00002000100240CE680008EB
:103A60000448054900684968044AC1F3C221515C11
:103A7000C84070470C00002000100240CE680008CB
:103A80000E4A51680E4801F00C03042B11D0082B8C
:103A90000FD10C48C1F38343C903C05C0AD55168F8
:103AA000084AC1F34041921E515C054A5043B0FBA5
:103AB000F1F070470449484370470000001002408D
:103AC00000127A00AE68000800093D002DE9F84FA9
:103AD000040070D02078C04DC00749D06868C0F39A
:103AE0008100012807D06868C0F38100022809D14D
:103AF0006868C00306D52868800339D56068002847
:103B0000E7D035E06068B0F5803F0BD010B1B0F57C
:103B1000A02F11D0286820F480302860286820F475
:103B2000802002E0286840F480302860606890B10E
:103B3000FFF752FE06460AE0286840F4802028601D
:103B4000F0E700BFFFF748FE801B642873D82868A1
:103B50008003F7D50CE0FFF73FFE064605E000BF07
:103B6000FFF73AFE801B6428F0D828688003F7D45A
:103B700020789A4E80074FF001094FF0000839D5A0
:103B8000686810F00C0F07D06868C0F38100022845
:103B900009D16868C00306D42868800714D5206955
:103BA000012808D110E02069B0B1C6F80090FFF7F5
:103BB00013FE074605E00AE1FFF70EFEC01B0228D0
:103BC000C4D828688007F7D52868616920F0F80014
:103BD00040EAC10028600DE0C6F80080FFF7FCFD58
:103BE000074604E0FFF7F8FDC01B022823D8286829
:103BF0008007F7D4207800072CD57948A169D9B17E
:103C0000C0F80090FFF7E8FD074604E0FFF7E4FD89
:103C1000C01B02280FD8686A8007F7D571484FF497
:103C2000FA510068B0FBF1F0009000BF0098411E0F
:103C30000091FAD20EE080E0C0F80080FFF7CCFDE2
:103C4000074604E0FFF7C8FDC01B022875D8686A64
:103C50008007F7D42078400760D5E8690027C000C6
:103C600008D4E86940F08050E861E869012700F075
:103C7000805000905C480168C90513D401688346F0
:103C800041F480710160FFF7A7FD824606E000BFA6
:103C9000FFF7A2FDA0EB0A0064284ED8DBF8000075
:103CA000C005F5D5E06801280AD008B1052813D071
:103CB000286A20F001002862286A20F0040002E04F
:103CC000286A40F001002862E06841F2883B98B120
:103CD000FFF782FD82460BE0286A40F0040028626C
:103CE000EEE700BFFFF778FDA0EB0A0159455AD86F
:103CF000286A8007F6D50CE0FFF76EFD824605E0E6
:103D0000FFF76AFDA0EB0A0159454CD8286A8007E5
:103D1000F6D41FB1E86920F08050E861E06988B30B
:103D20006968C1F38101022944D00228C6F8608085
:103D300004D0FFF751FD044638E034E0FFF74CFDB6
:103D4000074604E0FFF748FDC01B02282BD828686F
:103D50008001F7D4206AB0F5803F05D16868A1687A
:103D600020F4003008436860D4E90801084369681A
:103D700021F4741108436860C6F86090FFF72CFDC9
:103D8000044606E025E000BFFFF726FD001B0228E1
:103D900009D828688001F7D51BE000BFFFF71CFD9C
:103DA000001B022802D90320BDE8F88F2868800193
:103DB000F4D40EE00128F7D06868226A00F480315C
:103DC000914204D1616A00F47010884201D0012050
:103DD000EAE70020E8E7000000100240000042424D
:103DE000800442420C000020007000407047000038
:103DF00038B50446006842688168C9434B0606D559
:103E0000CB0704D1D3435B0601D4216C05E08B07BB
:103E100008D4D3431B0605D4616C01B02046BDE82D
:103E2000304008478B0601D54B0646D4D3439B064A
:103E300043D44B060AD494F85130032B3ED0636D23
:103E400043F004036365C36883680093890609D45B
:103E5000616D41F00101616581680091016821F0A7
:103E600040010160606D002827D02068416821F082
:103E7000E0014160012084F85100900722D02068C1
:103E8000416821F003014160104DE06C40B1456391
:103E9000E06CFFF73DFA18B1606D40F040006065DE
:103EA000A06C002809D04563A06CFFF731FA002808
:103EB00003D0606D40F04000606538BDC168806827
:103EC000009038BD2046FFF791FF38BD1151000822
:103ED00070B5040009D0606A002540B125616561B4
:103EE000A56294F8510040B10CE0012070BD6068FB
:103EF000B0F5827FF4D0E561F2E784F850502046B7
:103F000000F040F8022084F851002068016821F098
:103F100040010160A088218900F4827001F404410D
:103F20000843A18901F400610843217C01F00201EA
:103F30000843217D01F001010843218B01F4007148
:103F40000843217F01F03801084394F8201001F064
:103F500080010843218D01F4005108432168086065
:103F6000A069042101EA1040216848602068C16905
:103F700021F40061C1616565012084F851000020D1
:103F800070BD000030B585B0002400940194029407
:103F900003940068184988422BD11848816941F47C
:103FA00080518161816901F480510491816941F0FE
:103FB000040181618069124D00F004000490A0208A
:103FC0000090022001900320039069462846FFF7E5
:103FD0000DFB4020CDE90004694628460294FFF716
:103FE00005FB002211462320FFF762FC2320FFF788
:103FF00051FC05B030BD000000300140001002400F
:10400000000801402DE9FF4F81B01D46934604464C
:104010004FF001090E9EFFF7DFFB074694F85100B1
:104020006168012806D0B1F5827F3CD1A168C9BB87
:10403000042838D10298002871D0BBF1000FFBD0C2
:10404000002DF9D094F8500001282CD04FF0010A2F
:1040500084F850A094F85100042802D0052084F878
:1040600051004FF00008C4F85480C4F838B0E58718
:10407000A58702992163E586A586C4F84080C4F827
:10408000448020680168490603D4016841F040017A
:104090000160E068B0F5006F606808D0F0B3012DF2
:1040A00049D081E0FFE7022005B0BDE8F08F08B1FC
:1040B000012D39D1206B21680088C860206B801CDD
:1040C0002063E08E401EE0862EE02068816889072C
:1040D0000FD5E18E69B1B9F1010F0AD1216B0988C1
:1040E000C160206B801C2063E08E401EE0864FF094
:1040F000000920688168C9070CD0E18F51B1C06800
:10410000A16B0880A06B801CA063E08F401EE0873D
:104110004FF00109FFF760FBC01B01E00BE067E017
:10412000B04201D3701C50D1E08E0028CDD1E08F79
:104130000028CAD13EE0206B216800780873206B0C
:10414000401C2063E08E401EE0862DE020688168E0
:1041500089070FD5E18E69B1B9F1010F0AD1216B41
:1041600009780173206B401C2063E08E401EE086BE
:104170004FF0000920688168C9070CD0E18F51B168
:10418000C068A16B0870A06B401CA063E08F401E4C
:10419000E0874FF00109FFF71FFBC01BB04202D3BD
:1041A000701C01D011E086B1E08E0028CED1E08FE6
:1041B0000028CBD13A463146204600F0B1FF50B13D
:1041C0002020606584F8508012E084F851A084F8C3
:1041D0005080032068E7A06818B92068C16880682B
:1041E000009084F851A084F85080606D0028F1D0D0
:1041F000012059E710B5401EB0F1807F01D30120A6
:1042000010BD4FF0E02460610F21601701F04BFBFF
:104210000020A06107202061002010BD704770477A
:1042200070B590F83C20012A26D0012480F83C404B
:10423000022280F83D2003685A689D6822F07006CB
:104240000A6832435A600D4B02689A4208D0B2F1B4
:10425000804F05D00A4B9A4202D00A4B9A4204D1B1
:10426000496825F080031943916080F83D400021A2
:1042700080F83C10084670BD022070BD002C014043
:10428000000400400008004010B5040003D094F87A
:104290003D0010B107E0012010BD002084F83C0073
:1042A000204600F01FF8022084F83D00211D206800
:1042B00001F010F8012084F8460084F83E0084F8EC
:1042C0003F0084F8400084F8410084F8420084F8FC
:1042D000430084F8440084F8450084F83D00002041
:1042E00010BD000008B500680B49884212D10B4888
:1042F000C16941F00401C161C069002200F00400FD
:10430000009003211E20FFF7D3FABDE808401E20CD
:10431000FFF7C0BA08BD00000008004000100240CE
:1043200070B5044690F83C000025012817D00126FE
:1043300084F83C60022084F83D002068826822F006
:10434000770222F47F4282600868502838D00DDC62
:1043500020284FD005DC90B3102811D14AE002206C
:1043600070BD302846D040280AD13BE060282FD0CD
:1043700070280DD0B0F5805F03D0B0F5005F12D08B
:10438000012584F83D60002084F83C00284670BD7B
:10439000CB68D1E90121206800F0D8FF206881684E
:1043A00041F0770109E0CB68D1E90121206800F0F4
:1043B000CDFF2068816841F480418160E1E719E028
:1043C000CA684968206800F0D3FF5021206806E0E1
:1043D000CA684968206800F0DCFF6021206800F0AE
:1043E000BFFFCEE7CA684968206800F0C1FF4021DE
:1043F0002068F4E7226801461046F0E770472DE98F
:10440000F04104460068C66805694FF00007A90737
:1044100013D5B10711D5F91E01610120207720685D
:1044200080698007204602D0FFF7E8FF04E000F033
:104430007EF8204600F07CF82777680716D57007CD
:1044400014D521686FF004000861022020772068ED
:10445000806910F4407F204602D0FFF7CFFF04E0D0
:1044600000F065F8204600F063F82777280715D597
:10447000300713D521686FF0080008610420207709
:104480002068C0698007204602D0FFF7B7FF04E02C
:1044900000F04DF8204600F04BF82777E80616D5D7
:1044A000F00614D521686FF010000861082020770D
:1044B0002068C06910F4407F204602D0FFF79EFFBD
:1044C00004E000F034F8204600F032F82777E807DF
:1044D00008D0F00706D021686FF00100086120467F
:1044E00000F028F8280608D5300606D521686FF0B8
:1044F000800008612046FFF791FE680608D5700627
:1045000006D521686FF040000861204600F01EF8D3
:10451000A8060AD5B00608D521686FF0200008610A
:104520002046BDE8F041FFF77ABEBDE8F081704754
:104530007047000000680349884202D10249012007
:10454000087070470008004028000020704770473E
:1045500010B504460068406994F84110C0F3C010DB
:10456000212911D180B12068143050E8001F21F0BA
:10457000800140E80012002AF5D1A06B08B1FEF7D7
:10458000A3FE204600F0BDFF2068406994F8421069
:10459000C0F38010222911D180B12068143050E876
:1045A000001F21F0400140E80012002AF5D1E06B25
:1045B00008B1FEF789FE204600F07CFF002010BD08
:1045C00070470000F8B5016804460868CA684B697E
:1045D00010F00F0F4FF0000559D003F0010602F460
:1045E0009077374365D0C10705D0D10503D5616CFD
:1045F00041F001016164410705D5D90703D0616C21
:1046000041F002016164810705D5D90703D0616CCF
:1046100041F004016164010707D502F02001314334
:1046200003D0616C41F008016164616C00293AD0EB
:10463000800604D5900602D5204600F070FF206861
:104640004069616CC0F38010090700D460B3204654
:1046500000F030FF20684069400621D52068143002
:1046600050E8001F21F0400140E80012002AF5D177
:10467000E06BA8B16D494163E06BFEF749FE00288D
:1046800011D0E06B416B01B0BDE8F04008478306F4
:104690000FD593060DD52046BDE8F84000F03FBF8A
:1046A0002046FFF78DFFF8BD2046FFF789FF6564C0
:1046B000F8BD266B2023012E7CD1C6067AD5D606FE
:1046C00078D508684868009048694FF002064006AF
:1046D00040D5E16B086840680004000CE8D0A28D6A
:1046E0008242E5D9E085886920282DD020680C30E9
:1046F00050E8001F21F4807140E80012002AF5D133
:104700002068143050E8001F21F0010140E8001239
:10471000002AF5D12068143050E8001F21F0400134
:1047200040E80012002AF5D184F842302563206861
:104730000C3050E8001F21F0100140E80012002A60
:10474000F5D1E06BFEF7C0FD6663A08DE18D401AE8
:1047500081B22AE0A08DE18D401A81B2E08D00285F
:10476000A6D00029A4D022680C3252E8000F20F411
:10477000907042E80007002FF5D12068143050E80F
:10478000002F22F0010240E80027002FF5D184F825
:104790004230256320680C3050E8002F22F01002D0
:1047A00040E80023002BF5D166632046FFF7CFFEDB
:1047B000F8BDFFE705062BD5150629D594F841006D
:1047C0002128F5D1A068B0F5805F01D12069B0B192
:1047D000206A411C2162216800784860E08C401EFC
:1047E0000004000CE084E3D12068C16821F080015E
:1047F000C1602068C16841F04001C160D8E7206A0B
:104800000088C0F308004860206A801C2062E5E749
:104810004006CDD55006CBD5CA68204622F04002CE
:10482000CA6084F8413000F03CF9C1E7B753000892
:1048300070B5040004D094F84100002510B106E0E2
:10484000012070BD84F84050204600F023F8242059
:1048500084F841002068C16821F40051C1602046FD
:1048600000F0BEFE2068016921F4904101612068DA
:10487000416921F02A0141612068C16841F4005179
:10488000C1606564202084F8410084F842006563BB
:10489000002070BDF0B585B000240094019402940E
:1048A000039406463E4F03683E49022003223E4DD4
:1048B000BB4250D18B6943F480438B618B6903F415
:1048C000804304938B6943F004038B6189690392ED
:1048D00001F0040104910102CDE900106946284667
:1048E000FEF784FE2815CDE90004694628460294A7
:1048F000FEF77CFE2E4D2D48802701C5102091C566
:104900002B4845F810496C61AC61EC61FEF7F6FD8F
:1049100008B1FEF7D7FCB5636E62254D23484435D8
:104920001430C5E90004C5E902472C616C61AC6133
:104930002846EC61FEF7E2FD08B1FEF7C3FCF56323
:104940000022022125206E62FEF7B2FF2520FEF72D
:10495000A1FF05B0F0BD174EB342FAD1CB6943F4C5
:104960000033CB61CB6903F4003304938B6943F0CC
:1049700004038B618969039201F00401049104210D
:10498000CDE9001069462846FEF730FE0820CDE943
:104990000004694628460294FEF728FED9E7000085
:1049A000003801400010024000080140440002406D
:1049B000780100200044004090F84230202B01D0C4
:1049C0000220704721B11AB10023036300F064BED6
:1049D00001207047074988420BD1074840F2FF1277
:1049E0000280064B00880021195419460148FFF740
:1049F000E3BF7047E80000202400002000020020F0
:104A000070472DE9F843044690F841009846164651
:104A10000D46202802D00220BDE8F88385B17EB182
:104A200000206064212084F84100FEF7D5FEA684B2
:104A30008146E684A0682027B0F5805F02D003E0BD
:104A40000120E9E7206910B12E4600250EE000267E
:104A50000CE08021204600F067FEA8B9C6B116F828
:104A6000010B21684860E08C401EE084E08C4B46DE
:104A70004FF00002CDF800800028EAD14FF040014D
:104A8000204600F051FE40B184F841700320C3E796
:104A900035F8020BC0F30800E3E784F8417000200A
:104AA000BAE77047FEE7000070B501220E4D94038F
:104AB00021462846FEF78AFE012256033146284643
:104AC000FEF784FE00F048F8002221462846FEF753
:104AD0007DFE00F041F8002231462846FEF776FEC2
:104AE000BDE8704000F038B80010014070B50B4DC3
:104AF0004FF48044002221462846FEF767FE01223B
:104B000051032846FEF762FE00F026F821462846AB
:104B1000BDE870400122FEF759BE000000100140C0
:104B200070B50C4C012291032046FEF74FFE00F0B9
:104B300013F80122550329462046FEF747FE00F0F0
:104B40000BF8002229462046FEF740FEBDE87040E3
:104B500000F002B8001001400320401EC0B2FCD299
:104B6000704770B50C46054600F008F820EA0401CD
:104B70002846BDE8704000F029B8000070B57E21DD
:104B800001EA40000A4D40F080040022102128462E
:104B9000FEF71CFE204600F0ABFA002000F0A8FA59
:104BA0000446012210212846FEF710FE204670BD63
:104BB0000008014070B50C460546FFF7DFFF40EAEC
:104BC00004012846BDE87040AFF3008070B50E4682
:104BD0007E2101EA4004094D002210212846FEF7FB
:104BE000F5FD204600F084FA304600F081FA2846B0
:104BF000BDE8704001221021FEF7E8BD0008014029
:104C00000D4808B5416941F0010141614069002248
:104C100000F00100009011460E20FEF749FE0E2024
:104C2000FEF738FE002211460F20FEF741FEBDE8D8
:104C300008400F20FEF72EBE001002402DE9F0477D
:104C400086B000254348009501950295039581693A
:104C500041F010018161816901F0100104918169C5
:104C600041F020018161816901F020010491816995
:104C700041F004018161816901F0040104918169BD
:104C800041F0080181618069DFF8CC8000F0080004
:104C9000049001224FF4C0414046FEF797FD4FF4C7
:104CA0000047002239464046FEF790FDDFF8AC9001
:104CB000012213214846FEF789FDDFF8A4A0012256
:104CC00040F601415046FEF781FD00223946484634
:104CD000FEF77CFD00224FF470715046FEF776FD22
:104CE00001244FF46040CDE900040326CDE90246DB
:104CF00069464046FEF77AFC1320CDE90004CDE971
:104D0000024669464846FEF771FC40F60170CDE95F
:104D10000004CDE9024669465046FEF767FC01AA49
:104D20000226009782E8700069464846FEF75EFC5E
:104D300038208DE8610069465046FEF757FCC020D8
:104D40008DE8710069465046FEF750FC06B0BDE89C
:104D5000F0870000001002400010014000080140F0
:104D6000000C0140104810B50E4901604FF48271EB
:104D7000416000218160C1604FF400720161C0E9AF
:104D800005121822C0E90721416281620A21C1622D
:104D9000FFF79EF8002803D0BDE81040FEF792BA56
:104DA00010BD0000003001404800002010B586B062
:104DB0000024174800940194029403940494134926
:104DC0000594016041F61F41C0E901144FF6FF71DF
:104DD000C0E903148461FFF757FA08B1FEF772FACD
:104DE0004FF48050009069460948FFF799FA08B1DE
:104DF000FEF768FA049404A905480594FFF710FA31
:104E0000002801D0FEF75EFA06B010BD0008004091
:104E1000A000002010B50E4C0C480C2120604FF46F
:104E2000E13060600020A060E060C4E90401A0619E
:104E3000E0612046FFF7FCFC08B1FEF743FA20686A
:104E4000C16841F01001C16010BD00000038014090
:104E5000E80000200C4810B50A4901604FF4E13128
:104E60004160002181600C22C160C0E904128161AF
:104E7000C161FFF7DDFC002803D0BDE81040FEF75C
:104E800021BA10BD0044004030010020FEE7FEE7DB
:104E900030B40021084B0A465FF0000003EBC00469
:104EA000401CC0B262548028F8D3491CC9B20829FA
:104EB000F2D330BC00F070B80004002010B500211F
:104EC000AE2000F09DF80021084600F099F800217E
:104ED000102000F095F80021402000F091F800210A
:104EE000812000F08DF80021CF2000F089F800210A
:104EF000A12000F085F80021C82000F081F80021F1
:104F0000A62000F07DF80021A82000F079F800210B
:104F10003F2000F075F80021D32000F071F8002147
:104F2000084600F06DF80021D52000F069F8002156
:104F3000802000F065F80021D92000F061F8002100
:104F4000F12000F05DF80021DA2000F059F800218E
:104F5000122000F055F80021DB2000F051F800216C
:104F6000302000F04DF80021202000F049F8002109
:104F7000022000F045F800218D2000F041F80021CA
:104F8000142000F03DF8FFF783FF0021BDE810403A
:104F9000AF2000F035B8000070B5184E002400BFF7
:104FA00004F1B000C0B2002100F02AF80021084648
:104FB00000F026F80021102000F022F8FFF774FD21
:104FC000782000F025F9FFF7ABFD402000F020F934
:104FD000FFF7A6FD5FF0000506EBC500005D00F0E1
:104FE00017F9FFF79DFD6D1CEDB2802DF4D3FFF78F
:104FF0007DFD641CE4B2082CD2D370BD00040020F7
:1050000070B50C460546FFF74FFD782000F000F91B
:10501000FFF786FD0CB1402000E0002000F0F8F81A
:10502000FFF77EFD284600F0F3F8FFF779FDBDE8B5
:105030007040FFF75BBD03211420FFF792BD10B550
:105040001420FFF79BFD800705D10321BDE8104028
:105050001420FFF7AFBD10BD10B5204C0122114642
:105060002046FEF7B3FB0220FEF7AEFA0022012134
:105070002046FEF7ABFB0220FEF7A6FA01221146FE
:105080002046FEF7A3FB0220FEF79EFA0F21012027
:10509000FFF79CFD0220FEF797FA3D211120FFF754
:1050A00095FD1E212D20FFF791FD00212C20FFF7FB
:1050B0008DFD8D212A20FFF789FD3E212B20FFF752
:1050C00085FD40211520FFF781FDFFF7B4FF022089
:1050D000FEF77AFABDE81040FFF7B1BF000C0140BF
:1050E000704700000148FEF783BE00004800002022
:1050F00001B582B00A200090012301AA02A9034849
:10510000FEF780FF9DF804000EBD0000480000205F
:1051100010B5406A0021C187C186FEF767FE10BD49
:10512000F8B515460E460B460092044601220221B0
:1051300000F010F840B93346002280212046009547
:1051400000F008F8002804D0606D40F02000606591
:105150000320F8BD2DE9F8431E46914688460446D3
:10516000089DFEF739FB401B351AFEF735FB074655
:1051700025480068C0F3CB30684338E0701C37D056
:10518000FEF72AFBC01BA84203D215B1009860B3FA
:105190002CE02068416821F0E00141606068B0F5D2
:1051A000827F0BD1A068B0F5004F02D0B0F5806FC0
:1051B00004D12068016821F040010160A06AB0F5C7
:1051C000005F09D12068016821F400510160206866
:1051D000016841F400510160012084F85100002071
:1051E00084F850000320BDE8F8830025401E00909D
:1051F0002068816838EA010004D000214945BDD10A
:105200000020F0E70121F9E70C00002070470000C2
:105210002DE9F041124F002405464FF480487E14DA
:10522000280601D5012200E0002241463846FEF75B
:10523000CDFAFFF791FC012231463846FEF7C6FA57
:10524000FFF78AFC002231463846FEF7BFFA6806AF
:10525000641C050EE4B2082CE2D3BDE8F081000026
:1052600000100140FEF7BEBA30B58FB02821684665
:10527000FBF70EFB14210AA8FBF70AFB0121080427
:10528000CDE900100024029402250491CDE90750D5
:105290004FF4E01009906846FEF718FC08B172B6AA
:1052A000FEE70F20CDE90A054FF48060CDE90C4000
:1052B00002210AA80E94FEF72DFB002801D072B639
:1052C000FEE70FB030BD70470148FFF798B8000007
:1052D000A0000020F0B50268194B1A4C1A4D4FF08F
:1052E0008047984205D0B84203D0A04201D0A842DE
:1052F00003D122F070064A683243984205D0B84282
:1053000003D0A04201D0A84203D122F44074CA685D
:1053100022434C6922F08002224302608A68C26202
:105320000A688262984201D10969016301214161E1
:105330000169C90703D0016921F001010161F0BDD4
:10534000002C0140000400400008004010B58468B3
:1053500042EA032224F47F440A432243826010BDC0
:10536000826822F070020A4342F0070181607047B0
:1053700010B5036A046A24F001040462846924F00D
:10538000F00444EA021423F00A020A438461026230
:1053900010BD10B5036A046A24F010040462846925
:1053A00023F0A00324F4704444EA023243EA0111DA
:1053B0008261016210BD10B5406A0021C185C184BF
:1053C000FFF7FEF810BD70B5446A2068406994F894
:1053D0004110C0F3C0100025212904D118B1E58483
:1053E000204600F08EF82068406994F84210C0F31F
:1053F0008010222904D118B1E585204600F05AF822
:10540000606C40F0100060642046FFF7D9F870BD72
:1054100010B50146406A096809684FF00002890624
:105420002ED4C28501680C3151E8003F23F480730B
:1054300041E80034002CF5D10168143151E8003FF7
:1054400023F0010341E80034002CF5D10168143148
:1054500051E8003F23F0400341E80034002CF5D12F
:10546000202180F84210016B012909D101680C311B
:1054700051E8003F23F0100341E80034002CF5D13F
:105480004263016B012902D0FFF7A4FA10BD818DA0
:10549000FFF75DF810BD10B5406A01214163016B53
:1054A000012902D0FFF7ACFA10BD818D4908FFF742
:1054B0004EF810BD01680C3151E8002F22F49072B3
:1054C00041E80023002BF5D10168143151E8002F89
:1054D00022F0010241E80023002BF5D1016B0129E4
:1054E00009D101680C3151E8002F22F0100241E887
:1054F0000023002BF5D1202180F842100021016308
:10550000704701680C3151E8002F22F0C00241E8D9
:105510000023002BF5D1202180F84110704708B5F9
:1055200090F84210222901D0022008BD82684FF471
:1055300080539A4201D1016921B1816A9A421BD0FC
:105540004AB10AE00268816A5268C2F308020A801E
:10555000816A891C08E0026972B10268526802F02F
:105560007F020A70816A491C8162C18D491E09044B
:10557000090CC18503D01BE002685268F1E701689D
:10558000CA6822F02002CA600168CA6822F48072E8
:10559000CA6001684A6922F001024A61202180F84C
:1055A000421000214163026B012A03D0FFF712FA77
:1055B000002008BD016301680C3151E8002F22F082
:1055C000100241E80023002BF5D101680A68D206D9
:1055D00002D50A6849680091818DFEF7B8FFE7E7B8
:1055E00070B5044600680169E26821F44051114336
:1055F00001612169A0680843616908432168CA689C
:1056000041F20C639A430243CA6020684169A2696F
:1056100021F44071114341611E492068884202D142
:10562000FEF71EFA01E0FEF70BFA00EBC00101EBFA
:105630000012606864218000B2FBF0F3B3FBF1F369
:105640006FF018067343B2FBF0F5B2FBF0F605EB12
:105650008305322303EB0515B5FBF1F5B6FBF1F637
:1056600005F0F00505EB0615B2FBF0F6B2FBF0F025
:10567000B0FBF1F06FF01802504306EB800003EB33
:105680000010B0FBF1F0216800F00F0028448860A2
:1056900070BD00000038014038B581620446828543
:1056A000002013466064222284F84220E56B1B4AE6
:1056B000AA62E56B1A4AEA62E56B1A4A2A63E26B50
:1056C00050630A462168E06B091DFDF745FF20681D
:1056D000016840680090206948B120680C3050E8AB
:1056E000001F41F4807140E80012002AF5D12068C3
:1056F000143050E8001F41F0010140E80012002A78
:10570000F5D12068143050E8001F41F0400140E816
:105710000012002AF5D1002038BD00001154000805
:1057200097540008C75300082DE9F84398461746D8
:105730000D460446089E24E0701C22D0FEF74CF86B
:10574000A0EB0800B0421AD8CEB12068C168490762
:1057500017D5802D15D0402D13D00168C9430907F6
:105760000FD401680025406800902046FFF7A2FE94
:105770000820606484F840500120BDE8F8830320CD
:10578000FBE72068006835EA000004D00020B8423A
:10579000D2D00020F1E70120F9E700001FB500207A
:1057A00002904FF4807000900120019003200E4C75
:1057B000039069462046FDF719FF60150090694681
:1057C0002046FDF713FFE014009069462046FDF7E0
:1057D0000DFF2015009069462046FDF707FF0020C9
:1057E00000F004F81FBD0000000C014070B5044635
:1057F000154DC0074FF4807101D0012200E0002256
:105800002846FDF7E3FFA0074FF4007101D5012200
:1058100000E000222846FDF7D9FF60074FF4006141
:1058200001D5012200E000222846FDF7CFFF200726
:105830004FF4806101D5012200E000222846BDE836
:105840007040FDF7C3BF0000000C014038B5124C9A
:1058500020680168C9061AD50168002540680090D3
:105860002046FEF775FEE06B0068406840F2FF12CC
:10587000A0F2FF10404280B2B0F5007F00D3104686
:105880000649088006490D540348FFF795F8BDE81E
:1058900038400148FEF796BEE800002024000020B2
:1058A00000020020FEE70907090E002804DB00F1D2
:1058B000E02080F80014704700F00F0000F1E020B5
:1058C00080F8141D704740F2013200204FF0E04193
:1058D00000F0A0BF024A0020110700F09BBF0000AB
:1058E00001FDFFFF10B50446D1E9000100F002F808
:1058F000206010BDF8B504460D466A4600F098F9E0
:1059000000987E30009000281EDC002213462046BE
:10591000294600F019FE17D0002140F608004FF08C
:10592000000006462046294600F0C8FD044640F621
:10593000080006EA00014FF0000034F0004004BF08
:105940000220FBF749FD29E00098FF2828DB002111
:1059500008464FF0000000F440060022134620469F
:10596000294600F0E7FE8CBF002501250220FBF749
:1059700033FD4FF0FF4446B1002D0CBF4FF4000043
:105980004FF48000B04218BF084C042108464FF085
:105990000000002D04BF84F00040F8BD2046F8BD93
:1059A00020462946BDE8F84000F088BDFFFF7F7F14
:1059B00010B504460A46D4E90003194600F0A1F9DF
:1059C000C4E9000110BD30380A2801D20120704717
:1059D0000020704710B530B1036823B1D0E9012130
:1059E000914201D204E0002010BD491C816020B129
:1059F000914202D25C5C202CF7D99142F4D1491E2D
:105A0000816010BD70B504460F4E19E0A08925686D
:105A1000C0050AD4A06820B1FFF7F4FFA089C00533
:105A200003D4206908B171688847A089800503D430
:105A3000206A08B1716888477168204688472C46FB
:105A4000002CE3D170BD00001800002000B5014615
:105A500000F014F810B1D1E9060100BD00200149A1
:105A600000BD00000000F87F002200F00DB9002802
:105A700003D0007B800700D001207047002803D0AE
:105A8000007B082801D000207047012070470028C3
:105A900003D0007B402801D00020704701207047D0
:105AA000002803D0007B102801D00020704701207F
:105AB0007047002803D0007B022801D000207047E7
:105AC0000120704710B5016828208847040002D0E3
:105AD0002821FAF7DDFE204610BD0022114600F015
