:020000040800F2
:10000000280F0020A50100085F440008213D0008DA
:100010005D440008050900086D510008000000005B
:10002000000000000000000000000000154A000869
:10003000150F000800000000E94800086D4A00089C
:10004000BF010008BF010008BF010008BF01000890
:10005000BF010008BF010008BF010008BF01000880
:10006000BF010008BF010008BF010008BF01000870
:10007000BF010008BF010008A50A0008B10A000876
:10008000BF010008BF010008BF010008BF01000850
:10009000BF010008BF010008BF010008331E0008AF
:1000A000BF010008BF010008BF010008BF01000830
:1000B000BF010008BF010008D14A0008BF010008C5
:1000C000BF010008BF010008BF010008ED4800089B
:1000D000BF01000815510008BF010008BF0100085A
:1000E0000D1E0008BF010008BF01000800F002F863
:1000F00000F048F80AA090E8000C82448344AAF17A
:100100000107DA4501D100F03DF8AFF2090EBAE877
:100110000F0013F0010F18BFFB1A43F0010318473B
:10012000A8730000C8730000103A24BF78C878C1D3
:10013000FAD8520724BF30C830C144BF04680C60ED
:10014000704700000023002400250026103A28BF35
:1001500078C1FBD8520728BF30C148BF0B60704739
:10016000642900F0D580752900F0D280782900F04C
:100170000B81732900F08783002070471FB51FBDD6
:1001800010B510BD00F089FB1146FFF7F7FF05F031
:100190002DF800F0A7FB03B4FFF7F2FF03BC00F05B
:1001A000ABFB00000948804709480047FEE7FEE72F
:1001B000FEE7FEE7FEE7FEE7FEE7FEE7FEE7FEE717
:1001C00004480549054A064B70470000CF4A00081D
:1001D000ED00000828090020280F0020280B00202F
:1001E000280B0020B2F120030AD5C2F1200320FA27
:1001F00002F001FA03F321FA02F140EA030070472A
:1002000021FA03F04FF00001704700000FB41CB555
:10021000084B06AA7B4469460090059800F001FB54
:1002200004460020694600F00FFB20461CBC5DF828
:1002300014FB0000310600000FB47CB50C0009AAC5
:10024000009001D02044401E084B7B446946019039
:10025000089800F0E6FA05461CB10020694600F057
:10026000F3FA28467CBC5DF814FB0000050600008C
:1002700070B5044685690068C10601D5302600E0E6
:100280002026C00707D070BDD4E901213046904731
:10029000206A401C20626D1EF6D570BD70B5044604
:1002A00085690078C00707D170BDD4E901212020FD
:1002B0009047206A401C20626D1EF6D570BD70B557
:1002C0000C460546012A05D02878800600D5EA6943
:1002D000002302E0012305E05B1C934202D2E05CB4
:1002E0000028F9D1A869E618C01AA861286A18443C
:1002F00028622846FFF7BCFF04E0D5E9012114F885
:10030000010B9047B442F8D32846FFF7C7FF70BDF2
:100310002DE9F0410646002410687529314616A5DE
:1003200010D0AFF30080002802DA404213A507E0A6
:1003300031688A0701D512A502E0490704D511A545
:10034000012401E0AFF3008000210A2206F1240716
:1003500009E0B0FBF2FCB0FBF2F302FB1C00303012
:1003600078541846491C0028F3D123462A463046C3
:10037000BDE8F04100F0F6B9000000002D000000DB
:100380002B0000002000000070B504460D462146F9
:100390001068AFF300802188090502D50F4A7A441E
:1003A00002E00E4A7A440E32002104F1240305E0F3
:1003B00000F00F060009965D5E54491C0028F7D135
:1003C00020780023000704D5702D02D009B1022344
:1003D00011322046BDE8704000F0C4B970700000D2
:1003E0002DE9F05F894604464FF0000ADFF874B14A
:1003F000FB44C0F820A02046E1688847002874D05C
:10040000252806D0D4E901219047206A401C2062AB
:10041000F1E700265F462046E16888472028054628
:1004200007DB312D05D2781910F8200C08B10643EE
:10043000F1E7B00701D526F00406C4F81CA0002798
:10044000C4F818A02A2D09D0284604F0A0FE38B31D
:1004500004EB8708303DC8F8185019E059F8041B20
:10046000204604EB87029161E1688847012F054629
:1004700018D1E069002820DA26F020061DE0D8F81F
:10048000180000EB800005EB40003038C8F8180079
:100490002046E1688847054604F079FE0028EED141
:1004A000012F0AD02E2D08D12046E16888477F1CF5
:1004B0000546022F46F02006C4DBA069002803DAB7
:1004C000404246F00106A061F00701D026F0100678
:1004D0006C2D0BD0682D09D04C2D39D06A2D35D01C
:1004E000742D35D07A2D33D016E038E0E1682F46F0
:1004F00020468847B842054609D16C2F26D04FF4D4
:100500008060E168064320468847054604E06C2F7A
:100510001AD04FF4807006430DB3A5F1410019289D
:1005200002D8203546F400664A4629462046266011
:100530004E46FFF715FE80B101280BD0F61D26F0C0
:10054000070000F1080956E74020E4E78020D8E7DB
:100550000020D6E706F104094DE7284652E7206A55
:10056000BDE8F09F46700000401ECAB210F8011F9F
:100570008A4202D00029F9D10020704730B50546E3
:100580000B462A4613F8014B12F8010B08B1A042A2
:10059000F8D01CB1002802D06D1CF1E7284630BD10
:1005A00010B5431C02E010F8011B71B18107FAD1AC
:1005B0004FF0013202C88C1A8C4314EAC211F9D0F0
:1005C000C01A0A0603D0C01E10BDC01A10BD0A040E
:1005D00001D0801E10BD0902FCD0401E10BD032AB0
:1005E00040F2308010F0030C00F0158011F8013B50
:1005F000BCF1020F624498BF11F801CB00F8013B37
:1006000038BF11F8013BA2F1040298BF00F801CBFA
:1006100038BF00F8013B11F0030300F02580083AD1
:10062000C0F0088051F8043B083A51F804CBA0E828
:100630000810F5E7121D5CBF51F8043B40F8043B7D
:10064000AFF30080D20724BF11F8013B11F801CBB2
:1006500048BF11F8012B24BF00F8013B00F801CB83
:1006600048BF00F8012B704710B5203AC0F00B804E
:10067000B1E81850203AA0E81850B1E81850A0E8A6
:100680001850BFF4F5AF5FEA027C24BFB1E8185000
:10069000A0E8185044BF18C918C0BDE810405FEA70
:1006A000827C24BF51F8043B40F8043B08BF7047EC
:1006B000D20728BF31F8023B48BF11F8012B28BFF1
:1006C00020F8023B48BF00F8012B70474FF00002B2
:1006D0000429C0F0128010F0030C00F01B80CCF154
:1006E000040CBCF1020F18BF00F8012BA8BF20F8C2
:1006F000022BA1EB0C0100F00DB85FEAC17C24BF16
:1007000000F8012B00F8012B48BF00F8012B7047BF
:100710004FF0000200B5134694469646203922BF9A
:10072000A0E80C50A0E80C50B1F12001BFF4F7AFE5
:10073000090728BFA0E80C5048BF0CC05DF804EBC7
:10074000890028BF40F8042B08BF704748BF20F835
:10075000022B11F0804F18BF00F8012B7047704733
:10076000704770472DE9F0470D469946924604467A
:1007700000F124080168880604D5E06921F0100121
:10078000216000E00120A84201DD471B00E00027B6
:10079000A1697A1902EB0900081AA0612078C00645
:1007A00002D42046FFF764FD002608E0D4E90121C9
:1007B0001AF806009047206A401C761C20624E45BD
:1007C000F4DB2078C0060AD52046FFF751FD06E08D
:1007D000D4E9012130209047206A401C2062381E55
:1007E000A7F10107F4DC07E0D4E9012118F80500BE
:1007F0009047206A401C2062281EA5F10105F3DC09
:100800002046FFF74BFD2078000602D50220BDE808
:10081000F0870120FBE7000001694A1C02610878AB
:10082000704700B58FB0CDE9013100210591054930
:100830007944CDE9031011466846FFF7D1FD0FB0AA
:1008400000BD0000E5FFFFFF0A6802F8010B0A6027
:100850007047D1E900239A4202D2531C0B601070FA
:10086000704710B5436913B1AFF3008001E0FFF7A3
:1008700026FD012010BD127800F124010A7000222B
:100880004A700122EDE711684FF0FF32E9E70000FE
:1008900000487047C808002070477546FFF7F8FF0A
:1008A000AE4605006946534620F00700854618B05D
:1008B00020B5FFF785FCBDE820404FF000064FF063
:1008C00000074FF000084FF0000B21F00701AC4685
:1008D000ACE8C009ACE8C009ACE8C009ACE8C009A4
:1008E0008D46704710B50446AFF300802046BDE842
:1008F0001040FFF750BC000001491820ABBEFEE7D6
:1009000026000200FEE710B500F006F800F046F8F9
:10091000BDE8104000F084B870B502F059F8184CEA
:10092000E168411A64292AD3E0600821154802F0E1
:1009300045F80246144800254FF40041012A08D02A
:1009400000262570012202F03EF8A079012811D07E
:1009500014E022780126521CD2B22270032A0DD351
:10096000002202F030F82570A07938B90120A0717A
:1009700006A001E0A57107A003F0EEFBE67070BDD4
:1009800050000020000C0140001001407472756599
:100990000000000066616C736500000070B502F035
:1009A00017F8184C2169411A64292AD320611021B3
:1009B000154802F003F8014614480025012909D022
:1009C000012200266570114601F0FDFFE079012843
:1009D00012D015E061780126491CC9B26170032963
:1009E0000ED30022012101F0EEFF6570E07938B9E5
:1009F0000120E07106A001E0E57107A003F0B4FB5F
:100A0000267170BD50000020000C0140000801401C
:100A1000747275650000000066616C73650000000B
:100A200070B501F0D5FF184C6169411A64292AD3C9
:100A300060612021154801F0C1FF014614480025DE
:100A4000012909D00026A5700122022101F0BBFF77
:100A5000207A012812D015E0A1780126491CC9B2DC
:100A6000A17003290ED30022022101F0ACFFA57072
:100A7000207A38B90120207206A001E0257207A073
:100A800003F07AFB667170BD50000020000C01403D
:100A900000080140747275650000000066616C73A7
:100AA00065000000014801F079BB00009C010020B6
:100AB000014801F073BB0000E001002030B590F860
:100AC00040500124AC40C56B6C60046863604368AF
:100AD000102B036803D099600068C26030BD9A6033
:100AE0000068C16030BD00001FB500200190029079
:100AF0000390402000906946014801F06FFE1FBD41
:100B0000000C01401FB50020029040200090012001
:100B100001900320054C03906946204601F05EFEDB
:100B200001224021204601F04EFF1FBD000C014074
:100B3000002100EB800001E000BF491CB1EB400F39
:100B4000FAD3704710B504468C2000F07FF800F00F
:100B50000F01000900EB800001EB400020708820AD
:100B600000F074F800F00F01000900EB800001EBC9
:100B700040006070862000F069F800F00F01000965
:100B800000EB800001EB4000A0708A2000F05EF8CE
:100B900000F00F01000900EB800001EB4000E07065
:100BA000842000F053F800F00F01000900EB8000F2
:100BB00001EB40002071822000F048F800F00F01A6
:100BC000000900EB800001EB40006071802000F024
:100BD0003DF800F00F01000900EB800001EB400040
:100BE000A07110BD2DE9FF414FF400450020012404
:100BF0000095CDE901400320124E0390694630462E
:100C000001F0ECFD4020CDE900040F4F6946384665
:100C100001F0E4FD8020CDE900046946384601F08A
:100C2000DDFD00222946304601F0CDFE0022802164
:100C3000384601F0C8FE00224021384601F0C3FECC
:100C4000BDE8FF8100080140000C01402DE9F0479C
:100C50003D4D002440F0010722468021284601F046
:100C6000B2FE0120FFF764FFDFF8E0A04FF4004878
:100C700000224146504601F0A6FE0120FFF758FF32
:100C800001228021284601F09EFE0120FFF750FF3F
:100C9000A94645460026D046F80701D0012200E0CB
:100CA00000224021484601F08EFE0120FFF740FF60
:100CB00001222946404601F086FE0120FFF738FF59
:100CC00000222946404601F07EFE0120FFF730FF5A
:100CD000761C7F08F6B2082EDED3FFF705FF012051
:100CE000FFF726FF0026474664084021484601F0EA
:100CF00065FE08B144F080040120FFF719FF0122CE
:100D00002946384601F05FFE0120FFF711FF00225F
:100D10002946384601F057FE0120FFF709FF761CEF
:100D2000F6B2082EE0D3FFF7EDFE0120FFF700FF3B
:100D300000228021484601F046FE0120FFF7F8FE20
:100D40002046BDE8F0870000000C0140000801408B
:100D500070B5054600218E2000F064F828780A243A
:100D6000B0FBF4F104FB1101B0FBF4F041EA001018
:100D7000C1B28C2000F056F86878B0FBF4F104FBA7
:100D80001101B0FBF4F041EA0010C1B2882000F07C
:100D900049F8A878B0FBF4F104FB1101B0FBF4F0C2
:100DA00041EA0010C1B2862000F03CF8E878B0FBC0
:100DB000F4F104FB1101B0FBF4F041EA0010C1B200
:100DC0008A2000F02FF82879B0FBF4F104FB110120
:100DD000B0FBF4F041EA0010C1B2842000F022F828
:100DE0006879B0FBF4F104FB1101B0FBF4F041EAC7
:100DF0000010C1B2822000F015F8A879B0FBF4F120
:100E000004FB1101B0FBF4F041EA001000F07F0197
:100E1000802000F007F8BDE8704080218E2000F0AF
:100E200001B800002DE9F047384C0E460746002275
:100E30008021204601F0C7FD0120FFF779FEDFF891
:100E4000D0A04FF4004800224146504601F0BBFDBF
:100E50000120FFF76DFE01228021204601F0B3FD45
:100E60000120FFF765FEA14644460025D046F8075D
:100E700001D0012200E000224021484601F0A3FDFC
:100E80000120FFF755FE01222146404601F09BFD5F
:100E90000120FFF74DFE00222146404601F093FD60
:100EA0000120FFF745FE6D1C7F08EDB2082DDED353
:100EB00000254746F00701D0012200E00022402132
:100EC000484601F080FD0120FFF732FE0122214655
:100ED000384601F078FD0120FFF72AFE0022214666
:100EE000384601F070FD0120FFF722FE6D1C7608E8
:100EF000EDB2082DDED300228021484601F063FDCB
:100F0000BDE8F0470120FFF713BE0000000C0140D0
:100F10000008014070470000054806494FF47A7206
:100F20000068B0FBF1F00449086050434860704726
:100F30002800002040420F003800002010B54FF478
:100F400000710348FFF7C2FB02490020088010BD72
:100F5000480200202C0000202DE9F04FADF20C4D8E
:100F600078A179A000F08EFE4FF4FA74204604F0C8
:100F700015F974A179A000F085FE204604F00EF961
:100F8000804981A0CDE9000182A384A24FF40071C1
:100F900002A8FFF751F98CA000906423162295A1B6
:100FA0009A4802F06CFE0027DFF864823E46B9469C
:100FB0004FF47A7B42F20F7A6423182295A193486A
:100FC00002F05DFE64230B2299A1904802F057FEC7
:100FD00002A8FFF7E5FA82B25C465B4602A98B489D
:100FE00002F04DFE642302225BA1884802F047FE16
:100FF000FFF7A4FF204604F0D1F802A8FFF7D0FACB
:1010000082B241F2883302A98D4802F038FE40F2E4
:10101000DC5004F0C3F85446B8F8000045460028F8
:1010200052D04FF4967004F0B9F82D88B5F5007FD2
:1010300001D340F2FF152A46824982A8FFF7CFFA72
:1010400082A90020485564230A227FA16F4802F03C
:1010500016FE4DB182A8FFF7A3FA82B24FF4FA73DD
:1010600082A96A4802F00BFE642302223AA1674873
:1010700002F005FE33A182A8FFF780FA08B101262D
:1010800006E074A182A8FFF779FA98B10126B1466B
:10109000FFF754FF6423122272A15C4802F0EFFDB7
:1010A000B9F1000F21D06423192273A1574802F02F
:1010B000E6FD1AE077A182A8FFF760FA10B1FFF70A
:1010C0003DFF07E0FFF73AFF0A2004F067F8641ECF
:1010D000A4B2A1D26423212270A14C487F1C02F04B
:1010E000CEFD40F6B83004F059F80A2F03DA002E8E
:1010F0003FF462AF00E01EB1B9F1000F04D015E07B
:10110000642325226EA118E06423142276A13F48AF
:1011100002F0B5FD4FA1009800F0B4FD4FF064035C
:1011200048B1142276A1394802F0A9FD01200DF240
:101130000C4DBDE8F08F162276A1344802F09FFDD9
:101140000020F4E74F4B000041542B4D51545444C0
:101150004953434F4E4E3D300D0A000041542B4D34
:10116000515454555345524346473D302C302C2260
:10117000222C22222C22222C302C302C22220D0A2E
:10118000000000004C7400086455356A5667314C05
:1011900039620000746573740000000041542B4DE7
:1011A000515454555345524346473D302C312C221F
:1011B0002573222C222573222C222573222C302CDD
:1011C000302C22220D0A000041542B4D515454431F
:1011D0004F4E4E3D302C226D717474732E686563D2
:1011E0006C6F7564732E636F6D222C313838332C1D
:1011F000310D0A00436F6E6669677572696E67200C
:101200004D5154542E2E2E0D0A0000005401002082
:101210002C000020547279696E67204D515454207F
:10122000555345524346472E2E2E0D0A000000000E
:101230002D2D53454E4420434D443A2000000000DC
:101240000C010020480200202D2D455350205258FB
:101250003A2000002B4D515454434F4E4E454354B9
:10126000454400004D515454205553455243464780
:10127000204F4B0D0A0000004D51545420617574ED
:101280006F2D636F6E6E6563746564204F4B0D0A3E
:10129000000000004552524F520000004D5154547E
:1012A0002055534552434647206661696C65642C5E
:1012B000207265747279696E672E2E2E0D0A0000F9
:1012C0004D51545420555345524346472066616959
:1012D0006C656420616674657220313020617474BD
:1012E000656D7074730D0A00436F6E6E656374698B
:1012F0006E67204D5154542E2E2E0D0A0000000012
:101300004D51545420636F6E6E6563746564204F55
:101310004B0D0A004D51545420636F6E6E6563741B
:10132000206661696C65640D0A00000000B5A1B01B
:1013300011A0009013A318A2802101A8FEF77CFF42
:10134000642313221AA1204802F099FC1FA101A8CE
:1013500000F098FC4FF0640338B114221DA11A4824
:1013600002F08DFC012021B000BD16221EA11648FE
:1013700002F085FC0020F6E7313338353139303161
:1013800038323500434D43432D3430322D322E3424
:10139000472D65787400000041542B43574A415053
:1013A0003D222573222C222573220D0A0000000005
:1013B000436F6E6E656374696E6720576946692E68
:1013C0002E2E0D0A0000000054010020474F54202B
:1013D000495000005769466920636F6E6E656374FB
:1013E0006564204F4B0D0A005769466920636F6E94
:1013F0006E656374206661696C65640D0A000000A7
:1014000070B540F2FF123349334802F013FC6423F5
:101410000B2232A1354802F032FC35A135A000F094
:1014200031FC4FF4FA754FF0640390B10B222BA1FD
:101430002E4802F024FC284603F0B0FE64231C2250
:101440002EA12A4802F01BFC29A134A000F01AFCAE
:1014500004E01E2234A1254802F011FC284603F0C6
:101460009DFE64230B2238A1204802F008FC0024D2
:101470001FA139A000F006FC28B9C82003F08EFE99
:10148000641C032CF4DB1AA135A000F0FBFB4FF029
:10149000640310B1132236A101E022223AA11348BD
:1014A00002F0EDFB284603F079FE11A13FA000F009
:1014B000E9FB4FF0640310B1112240A101E02022AA
:1014C00043A10A4802F0DBFB2846BDE8704003F068
:1014D00065BE0000480200200C0100204154207429
:1014E000657374204F4B0D0A00000000540100206A
:1014F0004F4B000041540D0A000000004368656333
:101500006B696E67204553503832363620766572E7
:1015100073696F6E2E2E2E0D0A00000041542B476A
:101520004D520D0A00000000415420746573742070
:101530006661696C65642C207265747279696E6786
:101540002E2E2E0D0A000000415420746573742065
:101550004F4B310D0A000000415445300D0A000088
:1015600041542B43574D4F44453D310D0A00000077
:1015700043574D4F44452073657420746F203120CC
:101580004F4B0D0A000000005365742043574D4F28
:101590004445206661696C65642C207265747279BB
:1015A000696E672E2E2E0D0A0000000041542B4359
:1015B00057444843503D312C310D0A0044484350B4
:1015C00020656E61626C6564204F4B0D0A0000005F
:1015D0005365742044484350206661696C65642CEF
:1015E000207265747279696E672E2E2E0D0A0000C6
:1015F0002DE9F04FADF20C4D002839D0002937D03D
:101600008DE80E0003464FF4007431A2214603A872
:10161000FEF712FE64230B2235A1384802F02FFB9F
:1016200003A8FEF7BDFF82B24FF4FA773B4603A949
:10163000324802F024FB642302222CA12F4802F03E
:101640001EFBFFF77BFC03A8FEF7AAFF82B2FB009C
:1016500003A92B4802F013FB01F0BAF90546294E05
:10166000A04640F2FF1B4FF000090DF5037A26E07B
:1016700000200DF20C4DBDE8F08F3488E4B14445F4
:1016800000D35C462246204983A8FEF7A8FF0AF84B
:1016900004901EA183A8FEF771FF08B10120E8E7BE
:1016A0001BA183A8FEF76AFF30B1642316221AA19A
:1016B000124802F0E4FADBE7012003F06FFD01F0CD
:1016C00087F9401BB842D8D36423172218A1EFE74B
:1016D00041542B4D5154545055423D302C222573CA
:1016E000222C222573222C25642C25640D0A00004F
:1016F0002D2D53454E4420434D443A0054010020C3
:101700000C0100202C000020480200204F4B00005C
:101710004552524F520000002D2D455350207075F8
:10172000626C697368204552524F520D0A000000E6
:101730002D2D455350207075626C69736820746953
:101740006D656F75740D0A0000B5C1B00346009158
:1017500024A24FF4807101A8FEF76EFD64230B22D2
:1017600026A12A4802F08BFA01A8FEF719FF82B2DF
:101770004FF4FA7301A9254802F081FA642302228A
:101780001DA1224802F07BFA64231A2220A11F48DF
:1017900002F075FA25A101A800F074FA4FF0640375
:1017A00010B1192222A110E0242228A1174802F02A
:1017B00066FAC82003F0F2FC1CA101A800F062FA4E
:1017C0004FF0640338B121222AA1104802F057FAE1
:1017D000012041B000BD24222FA10C4802F04FFA95
:1017E0000020F6E741542B4D5154545355423D309F
:1017F0002C222573222C25640D0A00002D2D534523
:101800004E4420434D443A20000000005401002083
:101810005375627363726962696E6720746F2074B6
:101820006F7069632E2E2E0D0A0000004F4B0000D2
:101830004D5154542073756273637269626520530D
:101840005543434553530D0A000000004D51545475
:1018500020737562736372696265204641494C4525
:10186000442C207265747279696E672E2E2E0D0AD3
:10187000000000004D515454207375627363726907
:101880006265205355434345535320287265747253
:1018900079290D0A000000004D51545420737562DF
:1018A000736372696265204641494C454420616614
:1018B0007465722072657472790D0A00F0B56E4F0E
:1018C000ADF2944D38884FF4FF75A84203D83E8896
:1018D000002E79D001E040F2FF163246674980A819
:1018E000FEF77DFE00243C80644864230E220470D1
:1018F00080A863A18455664802F0C1F980A8FEF76C
:101900004FFE82B24FF4FA76334680A9604802F067
:10191000B6F9642302225FA15D4802F0B0F95EA12E
:1019200080A8FEF72BFE40B17B2180A8FEF71CFEAD
:1019300038B1002211466F4613E0642320225AA1D9
:1019400093E06423182260A18FE07B2B02D07D2BD3
:1019500002D002E0521C00E0521E7B54401C491C85
:101960001AB103780BB1A942EFDD7C5400294FF086
:1019700064032AD016225AA1454802F080F968462D
:10198000FEF70EFE82B233466946414802F077F90F
:10199000642302223FA13E4802F071F9642326220B
:1019A00055A13B4802F06BF95DA16846FEF7E6FDE4
:1019B0005E4E4FF4004558B164230A225CA13448BE
:1019C00002F05DF9002210E052E015225BA14CE02C
:1019D0005FA16846FEF7D2FD4FF0640350B10922C3
:1019E0005EA12B4802F04BF901222946304600F057
:1019F000EAFF04E01E225CA1254802F040F96423BE
:101A0000202261A1224802F03AF967A16846FEF758
:101A1000B5FD88B1861D22213046FEF7A5FD0500E3
:101A20000AD02C70334662A280210DF58060FEF74B
:101A300003FC2220287008E000F0CAFF034669A2D8
:101A400080210DF58060FEF7F7FB64231B2272A155
:101A50000F4802F014F900231A460DF5806175A0B5
:101A6000FFF7C6FD64231C227EA1094802F007F996
:101A70000DF2944DF0BD00002C0000204802002023
:101A80002D2D50524F434553532052583A200000B9
:101A9000540100200D0A00002B4D5154545355425F
:101AA000524543560000000044454255473A204EF7
:101AB0006F7420612053554252454356206D657323
:101AC000736167650D0A000044454255473A204E50
:101AD0006F204A534F4E20666F756E640D0A0000EA
:101AE00044454255473A2045787472616374656491
:101AF000204A534F4E3A200044454255473A20551C
:101B000073696E672073696D706C696669656420BE
:101B10004C454420636F6E74726F6C0D0A000000B8
:101B2000224C4544223A7472756500000010014051
:101B30004C454431204F4E0D0A00000044454255AB
:101B4000473A20456D707479204A534F4E0D0A0074
:101B5000224C4544223A66616C7365004C45443121
:101B6000204F46460D0A000044454255473A204C56
:101B700045442076616C7565206E6F7420666F75C4
:101B80006E640D0A0000000044454255473A204368
:101B900072656174696E67207265706C792070611E
:101BA000796C6F61640D0A00226964223A22000098
:101BB0007B226964223A222573222C22636F64659A
:101BC000223A3230302C2264617461223A6E756C94
:101BD0006C2C226D7367223A22737563636573738D
:101BE000227D00007B226964223A22256C75222C1A
:101BF00022636F6465223A3230302C226461746152
:101C0000223A6E756C6C2C226D7367223A227375C2
:101C10006363657373227D0044454255473A205003
:101C200075626C697368696E67207265706C790D96
:101C30000A000000247379732F6455356A566731A2
:101C40004C39622F746573742F7468696E672F70D6
:101C5000726F70657274792F7365745F7265706CE2
:101C60007900000044454255473A2050726F636541
:101C70007373696E6720636F6D706C6574650D0AB0
:101C8000000000002DE9F04FADF5017D8B460446C4
:101C900040F6B835FFF752F92046FEF781FC82B2D4
:101CA000C82321463E4801F0EAFF322003F076FACD
:101CB0003C4F4FF4007940F2FF1800264FF4FA7AB7
:101CC00049E000BF00F090F8002841D0C82003F0A0
:101CD00065FA3C884C4500D3444622463249684662
:101CE000FEF77DFC0DF80460642308222FA1314823
:101CF00001F0C5FF64230A222FA12E4801F0BFFF87
:101D000044B16846FEF74CFC82B253466946294806
:101D100001F0B5FF642302222AA1264801F0AFFF9B
:101D2000BBF100000BD001466846FEF727FC30B13E
:101D3000FFF704F901200DF5017DBDE8F08F22A128
:101D40006846FEF71BFC18B1FFF7F8F80020F2E731
:101D50000A2003F023FA6D1EADB2B3D23C884C4585
:101D600000D34446224610496846FEF738FC0DF879
:101D700004606423152216A10E4801F080FF44B1CF
:101D80006846FEF70DFC82B253466946094801F0E9
:101D900076FF642302220BA1064801F070FFD3E70F
:101DA0000C0100202C0000204802002068656C6CAB
:101DB0006F323200540100202D2D455350205258CF
:101DC0003A2000000D0A00004552524F5200000018
:101DD0002D2D455350205258206F6E2074696D652B
:101DE0006F75743A200000000748018839B10188F6
:101DF0004288914205D10021418001207047002096
:101E0000704701884180FAE72C00002010B54FF49C
:101E1000805000F0D7FC4FF4005000F0D3FC4FF49A
:101E2000804000F0CFFCBDE810404FF4004000F0CF
:101E3000C9BC4FF4807000F0C5BC72B6FEE700006C
:101E400006490020C8610648016941F004010161AA
:101E5000016941F040010161704700002802002043
:101E600000200240064A0021D16106490A6942F079
:101E700002020A614861086940F040000861704749
:101E80002802002000200240044B0022DA61044AAC
:101E9000136943F001031361018070472802002099
:101EA0000020024014480022C168CB06134904D523
:101EB000CA6942F00202CA611022C3685B0705D5F5
:101EC000CB6943F00103CB6142F00402C369DB0735
:101ED00007D0CB6943F00403CB61C16921F0010154
:101EE000C161A2F58071013901D0C2607047C1693A
:101EF00021F00101C161704700200240280200204A
:101F000070B5054600F064FD0646114C09E0681CFA
:101F100007D025B100F05CFD801BA84201D9032049
:101F200070BDE068C007F2D1E068800601D52020CE
:101F3000E060E068C00605D4E069C00702D1E0684F
:101F4000400703D5FFF7AEFF012070BD002070BD34
:101F500000200240F0B591B004460A2830D268460D
:101F600000F058F86D46FF2005EB84010DF82400C1
:101F700048708870C87000F0D1FA00260F96114F93
:101F800001200B96CDE90D700FA90BA800F028FADF
:101F90005FF0000405EB840215F82400D2F801205C
:101FA00007EB840140EA02220023022000F076FAC7
:101FB000641CE4B20A2CEDD300F066FA0248067005
:101FC00011B0F0BD00FC01086800002030B50346E8
:101FD000094A0020002114785D5CAC4205D0401C09
:101FE000C0B20A28F6D3FF2030BD491CC9B2521C2A
:101FF0000429F0D330BD000000FC010810B500F04A
:102000008DFA00F041FA02490020087010BD00006E
:102010006800002030B5084B0022002113F8014B66
:1020200001EB8205491CC9B244550429F6D3521C60
:10203000D2B20A2AF1D330BD00FC0108F0B591B04C
:102040000C4606460A2833D26846FFF7E3FF20789D
:102050006D460DF8260005EB860061784170A17889
:102060008170E178C17000F059FA00260F96114F87
:1020700001200B96CDE90D700FA90BA800F0B0F967
:102080005FF0000405EB840215F82400D2F801206B
:1020900007EB840140EA02220023022000F0FEF94F
:1020A000641CE4B20A2CEDD300F0EEF9024806708D
:1020B00011B0F0BD00FC01086800002010B590F8D8
:1020C00021100022022905D00421816380F82020FC
:1020D000012010BD01680B6823F00E030B6001683E
:1020E0000B6823F001030B6090F84030C46B0121B2
:1020F00001FA03F3636080F8211080F82020104675
:1021000010BD000010B590F821100024022903D062
:102110000421816301243DE001680A6822F00E0277
:102120000A6001680A6822F001020A601A4A01681E
:10213000914201D1012121E0174A1432914201D18B
:1021400010211BE0144A2832914201D1891515E073
:10215000114A3C32914201D189140FE00E4A5032AB
:10216000914202D14FF4803108E00B4A643291422F
:1021700002D14FF4801101E04FF08071064A083A15
:102180005160012180F82110002180F82010416B5E
:1021900001B18847204610BD080002402DE9F05FDC
:1021A000C16B0C6801680B68D0F840C0042202FAC9
:1021B0000CF2494DDFF824A1494E4A4FDFF828B10F
:1021C000DFF828E122422CD05A072AD50A68920665
:1021D00003D40A6822F004020A600168A94201D10E
:1021E000042219E0514501D1402215E0B14202D14B
:1021F0004FF4806210E0B94202D14FF480420BE00C
:10220000594502D14FF4802206E0714502D14FF4C6
:10221000800201E04FF080622F4908394A60C16AAC
:102220003BE04FF0020808FA0CF818EA040F4FF0F0
:1022300000094FF0010235D05FEA837832D50B6890
:102240009B0605D40B6823F00A030B6080F821205D
:102250000168A94201D1022219E0514501D1202291
:1022600015E0B14202D14FF4007210E0B94202D140
:102270004FF400520BE0594502D14FF4003206E012
:10228000714502D14FF4001201E04FF00072124983
:1022900008394A6080F82090816A00291AD0BDE888
:1022A000F05F0847082505FA0CF5254212D01B07F8
:1022B00010D50B6823F00E030B6090F84010C36B31
:1022C00002FA01F15960826380F8212080F82090A1
:1022D000016BE2E7BDE8F09F080002401C000240ED
:1022E0003000024044000240580002406C000240AE
:1022F00030B528B308C8134914221944B1FBF2F1D0
:102300008900C16310498163022141771A6843F64D
:10231000F0718A43D0E900142143D0E902452C43EF
:1023200021430469214344692143846921431143C2
:10233000196000214163012242770177084630BDD0
:10234000012030BDF8FFFDBF0000024070B504461B
:1023500090F82000002501280CD0012084F82000EE
:1023600094F821600020012E06D084F82000022578
:10237000284670BD022070BD022684F82160A0634B
:102380002068066826F0010606602046FEF796FBE8
:10239000E06A00282068016802D041F00E0106E0E2
:1023A00021F0040101602068016841F00A01016028
:1023B0002068016841F001010160D9E770B5044669
:1023C00000F006FB0546601C02D004480078044477
:1023D00000F0FEFA401BA042FAD370BD1C000020A2
:1023E0002DE9F047054626480F460126017E0129C2
:1023F0000FD00121814601762868DFF888804CF2F1
:102400005034022808D0A2462046FFF779FDA8B133
:1024100031E00220BDE8F0872046FFF771FD08BBE0
:102420000120FFF70DFD2046FFF76AFDD8F81010D8
:10243000064621F00401C8F810101CE04FF0FF30F0
:102440003860AC6811E02046FFF70CFD5046FFF7FE
:1024500057FDD8F81010060021F00201C8F810103E
:1024600001D03C6007E004F58064D5E9020100EB8F
:102470008120A042E7D8002189F818103046C9E72A
:1024800028020020002002400348016941F0800139
:102490000161002070470000002002402DE9F05F3C
:1024A00007461C4888460024017E15461E46012921
:1024B00009D00121814601764CF2503A5046FFF78F
:1024C0001FFD18B122E00220BDE8F09F012F02D0CD
:1024D000022F00D00427D346DFF83CA02201284673
:1024E0003146FDF77FFE81B208EB4400FFF7CCFCDC
:1024F0005846FFF705FDDAF8102022F00102CAF86D
:10250000102018B9641CE4B2BC42E7D3002289F859
:102510001820D9E7280200200020024006490020A8
:102520000A69120607D5054A4A60054A4A600969E0
:10253000090600D5012070470020024023016745AD
:10254000AB89EFCDF8B5064600F042FA01467D486A
:1025500082688A1AC82A73D30027012500F10C0467
:102560008160B6F5804F28D0B6F5004F39D0B6F56A
:10257000807F79D0B6F5805F6CD0B6F5005F72D100
:102580000446807830B1642310226FA1734801F0B3
:1025900076FBA770E0784FF0080390F00100E07040
:1025A000009570D06EA20821002002F099F801F089
:1025B000F1FF64230D226FA1B7E00646406818B909
:1025C00060480C30FEF7BEFA7068401C7060062848
:1025D00049DD7760E570BDE8F8405A480C30FEF7F9
:1025E000B7BB416801290AD0022911D0032917D0AD
:1025F00004291DD0052924D006292CD032E02178C9
:10260000491CC9B2217063292CD91421217029E0F9
:102610006178491CC9B261700C2923D9657021E029
:10262000A178491CC9B2A1701F291BD9A57019E056
:102630002179491CC9B22171172913D9277111E0D9
:1026400011E06179491CC9B261713B290AD96771EE
:1026500008E009E049E0A179491CC9B2A1713B2910
:1026600000D9A7710570F8BD416801290CD0022975
:1026700013D003291AD0042921D03B22052925D0C3
:1026800006292AD02DE046E02178491EC9B22170E2
:10269000142926D26321217023E06178491E11F0AC
:1026A000FF0161701DD10C2161701AE0A178491EF3
:1026B00011F0FF01A17014D11F21A17011E0217947
:1026C00011B1491E21710CE01721FBE7617911B1AD
:1026D000491E617105E0627103E0A17919B1491EDB
:1026E000A1714570F8BDA271FBE7C17801B1C77057
:1026F00081784FF0080391F001018170009501D0BD
:1027000020A200E024A20821002001F0E9FFBDE89A
:10271000F84001F03FBF20A20821002001F0E0FFB7
:1027200001F038FF64230E2220A10C4801F0A7FA23
:1027300001B06423BDE8F040042220A1074801F065
:102740009EBA000000000020436C6F736520726524
:1027500067206D6F64650D0A0000000054010020C1
:1027600044656C206D6F64653A576169742E2E2E36
:102770000000000044656C206D6F6465204F4E0DB5
:102780000A000000526567206D6F64653A57616901
:10279000742E2E2E0000000020202020202020203B
:1027A00020202020202020200000000044656C20F4
:1027B0006D6F6465204F46460D0A00004B45593247
:1027C00000000000044910B50A68024202D0086007
:1027D000FFF7B8FE10BD0000140401402DE9F84FCA
:1027E000DFF8B8910024A9F1040B23460F2709F163
:1027F000040AABF1040EC9E00125A5402A40AA4213
:102800007DD1674ED1F804C0ACEB0608B44532D098
:1028100014DCBCF1030F3AD009DCBCF1000F2AD064
:10282000BCF1010F1CD0BCF1020F31D11DE0BCF195
:10283000110F17D0BCF1120F2AD119E0B8F5881F7B
:1028400019D006DCB8F5803F15D0B8F5801F1FD130
:1028500011E0B8F5001F0ED0B8F5041F18D10AE03A
:10286000CB6815E0CB681B1D12E0CB6808330FE086
:10287000CB680C330CE08B682BB1012B4FF00803B5
:1028800003D0456104E0042302E0056100E0002379
:10289000FF2A01D8064601E000F104064FEA84054C
:1028A00001D9A5F12005D6F8008007FA05FC28EA31
:1028B0000C0803FA05F548EA0508C6F800804D68DB
:1028C000ED0062D5374DAE6946F00106AE61AD69E7
:1028D00024F0030605F001050095334D06EB050CC9
:1028E000DCF80850A607360F07FA06F825EA0805AF
:1028F000DFF8B880404503D14FF0000817E044E00E
:10290000DFF8AC80404502D14FF001080FE0DFF85E
:10291000A480404502D14FF0020808E0DFF898801B
:10292000404502D14FF0030801E04FF0040808FAD7
:1029300006F848EA0508CCF808804D68D9F8006028
:10294000ED024D4601D5164300E096432E604D68DA
:10295000DAF80060AD02554601D5164300E0964313
:102960002E604D68DBF80060AD035D4601D516436F
:1029700000E096432E604D68DEF80060ED0375467A
:1029800001D5164300E096432E60641C0D682A466C
:10299000E5407FF431AFBDE8F88F00000804014046
:1029A000000011100010024000000140000801402A
:1029B000000C0140001001400014014080680840F4
:1029C00000D0012070470AB1016170470904FBE79C
:1029D00001488068704700001C00002002488168A0
:1029E00002781144816070471C000020074810B530
:1029F000016841F010010160032000F075F80F201C
:102A000000F006F800F024F8002010BD002002407D
:102A100070B50D4D04464FF47A712878B1FBF0F093
:102A20000A490968B1FBF0F000F0E0FC48B9102C4D
:102A300007D200222146501E00F036F800206C60BC
:102A400070BD012070BD00001C0000202800002087
:102A50000C4808B5816941F001018161816901F08B
:102A600001010091C16941F08051C161C06900F06C
:102A7000805000900448416821F0E06141F000710D
:102A8000416008BD0010024000000140002809DB41
:102A900000F01F02012191404009800000F1E02078
:102AA000C0F8001170470000F0B40E4B1B680C46D4
:102AB000C3F30223C3F10705042D00D90425191D12
:102AC000072901D2002300E0DB1E012606FA05F1EA
:102AD000491E214099409E40761E16403143F0BC6D
:102AE00002F045BB0CED00E0064900F00702086863
:102AF0004FF6FF03184040EA0220034A10430860E3
:102B0000704700000CED00E00000FA052DE9F047E9
:102B10000F46050061D0434E306800F00700B84210
:102B200009D2306820F0070038433060306800F088
:102B30000700B84251D128683B4C810712D54007A5
:102B400003D5606840F4E06060602878000703D532
:102B5000606840F4605060606068A96820F0F00030
:102B6000084360602878C00728D06868012810D022
:102B70002168022810D0890700292EDA616821F027
:102B8000030101436160FFF723FF804641F288396A
:102B90000DE021688903EFE78901EDE7FFF718FFF2
:102BA000A0EB0801494502D90320BDE8F087606821
:102BB000696800F00C00B0EB810FEFD1306800F0D5
:102BC0000700B8420BD9306820F007003843306066
:102BD000306800F00700B84201D00120E5E728780E
:102BE000400705D56068E96820F4E060084360604C
:102BF0002878000706D56068296920F4605040EA0B
:102C0000C100606000F038F86168084AC1F3031140
:102C1000515CC8400649086006480068FFF7F8FEA6
:102C20000020C2E700200240001002400A5A0008BB
:102C30002800002020000020044805490068496859
:102C4000044AC1F30221515CC840704728000020AB
:102C5000001002401A5A00080448054900684968F3
:102C6000044AC1F3C221515CC840704728000020CB
:102C7000001002401A5A00080E4A51680E4801F02E
:102C80000C03042B11D0082B0FD10C48C1F3834344
:102C9000C903C05C0AD55168084AC1F34041921E7D
:102CA000515C054A5043B0FBF1F07047044948437A
:102CB000704700000010024000127A00FA59000824
:102CC00000093D002DE9F84F040070D02078C04D78
:102CD000C00749D06868C0F38100012807D0686840
:102CE000C0F38100022809D16868C00306D52868AE
:102CF000800339D560680028E7D035E06068B0F51A
:102D0000803F0BD010B1B0F5A02F11D0286820F46F
:102D100080302860286820F4802002E0286840F491
:102D200080302860606890B1FFF752FE06460AE0E6
:102D3000286840F480202860F0E700BFFFF748FED5
:102D4000801B642873D828688003F7D50CE0FFF750
:102D50003FFE064605E000BFFFF73AFE801B6428F1
:102D6000F0D828688003F7D420789A4E80074FF077
:102D700001094FF0000839D5686810F00C0F07D032
:102D80006868C0F38100022809D16868C00306D4CE
:102D90002868800714D52069012808D110E020692F
:102DA000B0B1C6F80090FFF713FE074605E00AE150
:102DB000FFF70EFEC01B0228C4D828688007F7D58D
:102DC0002868616920F0F80040EAC10028600DE041
:102DD000C6F80080FFF7FCFD074604E0FFF7F8FDAA
:102DE000C01B022823D828688007F7D42078000762
:102DF0002CD57948A169D9B1C0F80090FFF7E8FD5A
:102E0000074604E0FFF7E4FDC01B02280FD8686AFC
:102E10008007F7D571484FF4FA510068B0FBF1F024
:102E2000009000BF0098411E0091FAD20EE080E0B1
:102E3000C0F80080FFF7CCFD074604E0FFF7C8FDAF
:102E4000C01B022875D8686A8007F7D4207840072D
:102E500060D5E8690027C00008D4E86940F08050D8
:102E6000E861E869012700F0805000905C48016843
:102E7000C90513D40168834641F480710160FFF7EE
:102E8000A7FD824606E000BFFFF7A2FDA0EB0A0007
:102E900064284ED8DBF80000C005F5D5E0680128AD
:102EA0000AD008B1052813D0286A20F00100286252
:102EB000286A20F0040002E0286A40F0010028623D
:102EC000E06841F2883B98B1FFF782FD82460BE053
:102ED000286A40F004002862EEE700BFFFF778FDA3
:102EE000A0EB0A0159455AD8286A8007F6D50CE0AC
:102EF000FFF76EFD824605E0FFF76AFDA0EB0A01D1
:102F000059454CD8286A8007F6D41FB1E86920F0EB
:102F10008050E861E06988B36968C1F381010229E2
:102F200044D00228C6F8608004D0FFF751FD044663
:102F300038E034E0FFF74CFD074604E0FFF748FDBA
:102F4000C01B02282BD828688001F7D4206AB0F56E
:102F5000803F05D16868A16820F4003008436860AC
:102F6000D4E908010843696821F4741108436860D2
:102F7000C6F86090FFF72CFD044606E025E000BF90
:102F8000FFF726FD001B022809D828688001F7D525
:102F90001BE000BFFFF71CFD001B022802D9032025
:102FA000BDE8F88F28688001F4D40EE00128F7D03E
:102FB0006868226A00F48031914204D1616A00F4A9
:102FC0007010884201D00120EAE70020E8E7000005
:102FD00000100240000042428004424228000020CB
:102FE000007000407047000038B504460068426831
:102FF0008168C9434B0606D5CB0704D1D3435B0692
:1030000001D4216C05E08B0708D4D3431B0605D4FB
:10301000616C01B02046BDE8304008478B0601D501
:103020004B0646D4D3439B0643D44B060AD494F8AC
:103030005130032B3ED0636D43F004036365C368D6
:1030400083680093890609D4616D41F001016165CF
:1030500081680091016821F040010160606D0028E5
:1030600027D02068416821F0E0014160012084F808
:103070005100900722D02068416821F0030141608F
:10308000104DE06C40B14563E06CFFF73BF818B1C0
:10309000606D40F040006065A06C002809D0456379
:1030A000A06CFFF72FF8002803D0606D40F04000BF
:1030B000606538BDC1688068009038BD2046FFF764
:1030C00091FF38BD1949000870B5040009D0606A45
:1030D000002540B125616561A56294F8510040B1B9
:1030E0000CE0012070BD6068B0F5827FF4D0E5612E
:1030F000F2E784F85050204600F040F8022084F8AF
:1031000051002068016821F040010160A0882189F8
:1031100000F4827001F404410843A18901F40061C4
:103120000843217C01F002010843217D01F00101E7
:103130000843218B01F400710843217F01F038011D
:10314000084394F8201001F080010843218D01F418
:103150000051084321680860A069042101EA104079
:10316000216848602068C16921F40061C16165651A
:10317000012084F85100002070BD000030B585B0FA
:103180000024009401940294039400681849884232
:103190002BD11848816941F480518161816901F422
:1031A00080510491816941F0040181618069124D6F
:1031B00000F004000490A020009002200190032061
:1031C000039069462846FFF709FB4020CDE900043B
:1031D000694628460294FFF701FB0022114623208E
:1031E000FFF762FC2320FFF751FC05B030BD000063
:1031F0000030014000100240000801402DE9FF4F5F
:1032000081B01D46934604464FF001090E9EFFF71C
:10321000DFFB074694F851006168012806D0B1F53C
:10322000827F3CD1A168C9BB042838D1029800280C
:1032300071D0BBF1000FFBD0002DF9D094F85000F5
:1032400001282CD04FF0010A84F850A094F85100C6
:10325000042802D0052084F851004FF00008C4F87B
:103260005480C4F838B0E587A58702992163E586C4
:10327000A586C4F84080C4F84480206801684906E7
:1032800003D4016841F040010160E068B0F5006FCF
:10329000606808D0F0B3012D49D081E0FFE702203B
:1032A00005B0BDE8F08F08B1012D39D1206B216840
:1032B0000088C860206B801C2063E08E401EE08682
:1032C0002EE02068816889070FD5E18E69B1B9F1D8
:1032D000010F0AD1216B0988C160206B801C20631B
:1032E000E08E401EE0864FF0000920688168C90723
:1032F0000CD0E18F51B1C068A16B0880A06B801C1D
:10330000A063E08F401EE0874FF00109FFF760FBEC
:10331000C01B01E00BE067E0B04201D3701C50D14C
:10332000E08E0028CDD1E08F0028CAD13EE0206B8E
:10333000216800780873206B401C2063E08E401EDB
:10334000E0862DE02068816889070FD5E18E69B19C
:10335000B9F1010F0AD1216B09780173206B401C70
:103360002063E08E401EE0864FF0000920688168EF
:10337000C9070CD0E18F51B1C068A16B0870A06B78
:10338000401CA063E08F401EE0874FF00109FFF76B
:103390001FFBC01BB04202D3701C01D011E086B1EC
:1033A000E08E0028CED1E08F0028CBD13A463146BE
:1033B000204601F0B9FA50B12020606584F85080B1
:1033C00012E084F851A084F85080032068E7A068D8
:1033D00018B92068C1688068009084F851A084F80A
:1033E0005080606D0028F1D0012059E710B5401ED3
:1033F000B0F1807F01D3012010BD4FF0E024606167
:103400000F21601701F0B3FE0020A06107202061AA
:10341000002010BD7047704770B590F83C20012A1D
:1034200026D0012480F83C40022280F83D20036829
:103430005A689D6822F070060A6832435A600D4B44
:1034400002689A4208D0B2F1804F05D00A4B9A42E6
:1034500002D00A4B9A4204D1496825F080031943EF
:10346000916080F83D40002180F83C10084670BD16
:10347000022070BD002C0140000400400008004004
:1034800010B5040003D094F83D0010B107E001200E
:1034900010BD002084F83C00204600F01FF80220F8
:1034A00084F83D00211D206801F018FB012084F8FC
:1034B000460084F83E0084F83F0084F8400084F819
:1034C000410084F8420084F8430084F8440084F802
:1034D000450084F83D00002010BD000008B50068DC
:1034E0000B49884212D10B48C16941F00401C16106
:1034F000C069002200F00400009003211E20FFF7A5
:10350000D3FABDE808401E20FFF7C0BA08BD00008E
:10351000000800400010024090F83D10012901D041
:1035200001207047022180F83D100168CA6842F00E
:103530000102CA6000680B49884208D0B0F1804F90
:1035400005D00949884202D00849884204D18168DF
:1035500001F00701062903D0016841F00101016073
:1035600000207047002C014000040040000800408B
:1035700070B5044690F83C000025012817D00126BC
:1035800084F83C60022084F83D002068826822F0C4
:10359000770222F47F4282600868502838D00DDC20
:1035A00020284FD005DC90B3102811D14AE002202A
:1035B00070BD302846D040280AD13BE060282FD08B
:1035C00070280DD0B0F5805F03D0B0F5005F12D049
:1035D000012584F83D60002084F83C00284670BD39
:1035E000CB68D1E90121206801F0B4FA2068816834
:1035F00041F0770109E0CB68D1E90121206801F0B1
:10360000A9FA2068816841F480418160E1E719E00E
:10361000CA684968206801F0AFFA5021206806E0C6
:10362000CA684968206801F0B8FA6021206801F092
:103630009BFACEE7CA684968206801F09DFA4021EC
:103640002068F4E7226801461046F0E770472DE94C
:10365000F04104460068C66805694FF00007A907F5
:1036600013D5B10711D5F91E01610120207720681B
:1036700080698007204602D0FFF7E8FF04E000F0F1
:103680007EF8204600F07CF82777680716D570078B
:1036900014D521686FF004000861022020772068AB
:1036A000806910F4407F204602D0FFF7CFFF04E08E
:1036B00000F065F8204600F063F82777280715D555
:1036C000300713D521686FF00800086104202077C7
:1036D0002068C0698007204602D0FFF7B7FF04E0EA
:1036E00000F04DF8204600F04BF82777E80616D595
:1036F000F00614D521686FF01000086108202077CB
:103700002068C06910F4407F204602D0FFF79EFF7A
:1037100004E000F034F8204600F032F82777E8079C
:1037200008D0F00706D021686FF00100086120463C
:1037300000F028F8280608D5300606D521686FF075
:10374000800008612046FFF765FE680608D5700610
:1037500006D521686FF040000861204600F034F87B
:10376000A8060AD5B00608D521686FF020000861C8
:103770002046BDE8F041FFF74EBEBDE8F08170473E
:103780007047000010B500680B4988420ED10B4805
:103790000B4C006858B10B480168C4F801108188CF
:1037A000A4F805108079E0710120207010BD044854
:1037B000401CFDF7C7F9F7E70008004004000020AF
:1037C000130000200C0000207047704710B504461D
:1037D0000068406994F84110C0F3C010212911D14C
:1037E00080B12068143050E8001F21F0800140E8CB
:1037F0000012002AF5D1A06B08B1FEF75FFC20464D
:1038000001F083FA2068406994F84210C0F38010F8
:10381000222911D180B12068143050E8001F21F016
:10382000400140E80012002AF5D1E06B08B1FEF734
:1038300045FC204601F042FA002010BD7047000010
:10384000F8B5016804460868CA684B6910F00F0FA4
:103850004FF0000559D003F0010602F4907737438A
:1038600065D0C10705D0D10503D5616C41F00101D8
:103870006164410705D5D90703D0616C41F00201AD
:103880006164810705D5D90703D0616C41F004015B
:103890006164010707D502F02001314303D0616C58
:1038A00041F008016164616C00293AD0800604D5BA
:1038B000900602D5204601F036FA20684069616C16
:1038C000C0F38010090700D460B3204601F0F6F978
:1038D00020684069400621D52068143050E8001F58
:1038E00021F0400140E80012002AF5D1E06BA8B1B8
:1038F0006D494163E06BFEF705FC002811D0E06BD9
:10390000416B01B0BDE8F040084783060FD5930630
:103910000DD52046BDE8F84001F005BA2046FFF776
:103920008DFFF8BD2046FFF789FF6564F8BD266B63
:103930002023012E7CD1C6067AD5D60678D5086814
:103940004868009048694FF00206400640D5E16B98
:10395000086840680004000CE8D0A28D8242E5D9D6
:10396000E085886920282DD020680C3050E8001FA1
:1039700021F4807140E80012002AF5D1206814304B
:1039800050E8001F21F0010140E80012002AF5D1A3
:103990002068143050E8001F21F0400140E8001278
:1039A000002AF5D184F84230256320680C3050E8B5
:1039B000001F21F0100140E80012002AF5D1E06B51
:1039C000FEF77CFB6663A08DE18D401A81B22AE090
:1039D000A08DE18D401A81B2E08D0028A6D000298B
:1039E000A4D022680C3252E8000F20F4907042E814
:1039F0000007002FF5D12068143050E8002F22F086
:103A0000010240E80027002FF5D184F842302563F9
:103A100020680C3050E8002F22F0100240E800230C
:103A2000002BF5D166632046FFF7CFFEF8BDFFE718
:103A300005062BD5150629D594F841002128F5D186
:103A4000A068B0F5805F01D12069B0B1206A411C47
:103A50002162216800784860E08C401E0004000C60
:103A6000E084E3D12068C16821F08001C160206852
:103A7000C16841F04001C160D8E7206A0088C0F306
:103A800008004860206A801C2062E5E74006CDD52A
:103A90005006CBD5CA68204622F04002CA6084F89E
:103AA000413000F03CF9C1E7BF4B000870B504009D
:103AB00004D094F84100002510B106E0012070BD4B
:103AC00084F84050204600F023F8242084F8410078
:103AD0002068C16821F40051C160204601F084F9DA
:103AE0002068016921F4904101612068416921F059
:103AF0002A0141612068C16841F40051C1606564D8
:103B0000202084F8410084F842006563002070BDE5
:103B1000F0B585B000240094019402940394064605
:103B20003E4F03683E49022003223E4DBB4250D126
:103B30008B6943F480438B618B6903F48043049366
:103B40008B6943F004038B618969039201F00401DE
:103B500004910102CDE9001069462846FEF73EFEB9
:103B60002815CDE90004694628460294FEF736FE82
:103B70002E4D2D48802701C5102091C52B4845F8B2
:103B800010496C61AC61EC61FEF7B2FB08B1FEF765
:103B900054F9B5636E62254D234844351430C5E9A8
:103BA0000004C5E902472C616C61AC612846EC61F8
:103BB000FEF79EFB08B1FEF740F9F56300220221F3
:103BC00025206E62FEF770FF2520FEF75FFF05B02F
:103BD000F0BD174EB342FAD1CB6943F40033CB6149
:103BE000CB6903F4003304938B6943F004038B61C6
:103BF0008969039201F0040104910421CDE90010C8
:103C000069462846FEF7EAFD0820CDE9000469462A
:103C100028460294FEF7E2FDD9E700000038014093
:103C20000010024000080140440002409C010020B6
:103C30000044004090F84230202B01D00220704711
:103C400021B11AB10023036301F02AB901207047A2
:103C5000074988420BD1074840F2FF120280064B09
:103C600000880021195419460148FFF7E3BF704747
:103C70000C0100202C0000204802002070472DE994
:103C8000F843044690F84100984616460D46202811
:103C900002D00220BDE8F88385B17EB100206064C7
:103CA000212084F84100FEF793FEA6848146E68435
:103CB000A0682027B0F5805F02D003E00120E9E78B
:103CC000206910B12E4600250EE000260CE0802170
:103CD000204601F02DF9A8B9C6B116F8010B2168EC
:103CE0004860E08C401EE084E08C4B464FF00002C0
:103CF000CDF800800028EAD14FF04001204601F0C5
:103D000017F940B184F841700320C3E735F8020B7E
:103D1000C0F30800E3E784F841700020BAE7704779
:103D2000FEE7000070B501220E4D9403214628469F
:103D3000FEF749FE0122560331462846FEF743FEB0
:103D400000F048F8002221462846FEF73CFE00F02D
:103D500041F8002231462846FEF735FEBDE87040A6
:103D600000F038B80010014070B50B4D4FF480449E
:103D7000002221462846FEF726FE0122510328464E
:103D8000FEF721FE00F026F821462846BDE87040E7
:103D90000122FEF718BE00000010014070B50C4C67
:103DA000012291032046FEF70EFE00F013F80122D7
:103DB000550329462046FEF706FE00F00BF80022C8
:103DC00029462046FEF7FFFDBDE8704000F002B82E
:103DD000001001400320401EC0B2FCD2704700001A
:103DE0002DE9F0410E46074615460421052000F056
:103DF00029F80021012000F0E9F880210A2000F0D4
:103E0000D9F8002404E0395D092000F0DFF8641CD3
:103E1000B442F8D30321012000F0D8F8084C052063
:103E200000F0ACF8641E01D04007F8D5222000F065
:103E3000A5F82870212000F0A1F86870BDE8F08195
:103E4000A086010070B50C46054600F097F820EA00
:103E500004012846BDE8704000F0B8B82DE9FF5FC6
:103E60000027FE25DDF838A016468B468146B84669
:103E70000C2805D0B9F10E0F05D11227102001E052
:103E800077273020804647F08001022000F09EF81E
:103E900080210420FFF7D6FF0021012000F096F8D2
:103EA00080210A2000F086F8002405E01BF80410A9
:103EB000092000F08BF8641CB442F7D34946012076
:103EC00000F084F8B9F10C0F03D180210D2000F02F
:103ED00071F8294E042000F051F80446761E04D0F3
:103EE000E00702D114EA080FF4D080210D20FFF77B
:103EF000A9FF36B1062000F041F810F01B0F0CD0DE
:103F0000FE2580210C2000F055F80021012000F052
:103F10005DF804B02846BDE8F09F00253C40E0076E
:103F200000D0FF25B9F10C0FEBD10A2000F026F8E4
:103F300004460C2000F022F810F007004FEAC401FC
:103F400004D008390844AAF8000001E0AAF80010DB
:103F500024B1122C04D91224002603E00124FBE72B
:103F6000002605E0092000F009F803998855761C21
:103F7000A642F7D3C5E70000E093040070B57E21A8
:103F800001EA40000A4D40F080040022102128463A
:103F9000FEF719FD204600F0AFFC002000F0ACFC5D
:103FA0000446012210212846FEF70DFD204670BD73
:103FB0000008014070B50C460546FFF7DFFF40EAF8
:103FC00004012846BDE87040AFF3008070B50E468E
:103FD0007E2101EA4004094D002210212846FEF707
:103FE000F2FC204600F088FC304600F085FC2846B4
:103FF000BDE8704001221021FEF7E5BC0008014039
:1040000070B5C2B00D460646FEF7E2FC244C2168AE
:10401000411AB1F57A7F37D32060CDE9006521A23E
:104020004FF4807102A86368FCF706F905464FF467
:1040300096730A2229A12C48FFF721FE002D09DDE5
:1040400002A8FCF7ADFA82B24FF4FA7302A926482F
:10405000FFF715FE6423022224A12348FFF70FFE79
:104060006D1EFF2D18D200231A4602A920A0FDF7CD
:10407000BFFA4FF0640348B10C2228A11A48FFF799
:10408000FEFD6068401C606042B070BD102227A138
:104090001548FFF7F4FDF7E76423152228A1F7E799
:1040A000300000207B5C2269645C223A5C22256C33
:1040B000755C225C2C5C22706172616D735C223ACB
:1040C0007B5C2225735C223A7B5C2276616C756591
:1040D0005C223A25737D7D7D000000002D2D50412E
:1040E000594C4F41443A0000540100200D0A000091
:1040F000247379732F6455356A5667314C39622FB2
:10410000746573742F7468696E672F70726F706551
:104110007274792F706F7374000000005075626CB8
:10412000697368204F4B0D0A000000005075626CE7
:10413000697368206661696C65640D0A000000009F
:104140005061796C6F6164206275696C642065727E
:10415000726F720D0A000000014601A0FFF750BF08
:104160005345543100000000014601A0FFF748BF4D
:104170005345543200000000014601A0FFF740BF44
:1041800053455433000000000D4808B5416941F023
:10419000010141614069002200F0010000901146D8
:1041A0000E20FEF781FC0E20FEF770FC0022114667
:1041B0000F20FEF779FCBDE808400F20FEF766BC33
:1041C000001002402DE9F04786B0002554480095C4
:1041D000019502950395816941F010018161816922
:1041E00001F010010491816941F020018161816930
:1041F00001F020010491816941F00401816181692C
:1042000001F004010491816941F008018161806934
:10421000DFF8108100F00800049001224FF4C04143
:104220004046FEF7D0FB4FF4004700223946404697
:10423000FEF7C9FBDFF8F090012213214846FEF794
:10424000C2FBDFF8E8A0012240F601415046FEF72C
:10425000BAFB002239464846FEF7B5FB00224FF470
:1042600070715046FEF7AFFB01244FF46040CDE97A
:1042700000040326CDE9024669464046FEF7AEFA41
:104280001320CDE90004CDE9024669464846FEF711
:10429000A5FA40F60170CDE90004CDE90246694671
:1042A0005046FEF79BFA224E4FF47040CDE90006CF
:1042B000694602945046FEF791FA2002CDE90006C5
:1042C000694602944846FEF789FA01AA0226009739
:1042D00082E8700069464846FEF780FA38208DE88B
:1042E000610069465046FEF779FAC0208DE87100FA
:1042F00069465046FEF772FA002211461720FEF773
:10430000D3FB1720FEF7C2FB002211462820FEF740
:10431000CBFB2820FEF7BAFB06B0BDE8F087000013
:10432000001002400010014000080140000C014054
:1043300000002110104810B50E4901604FF4827141
:10434000416000218160C1604FF400720161C0E9E9
:1043500005121822C0E90721416281620A21C16267
:10436000FEF7B2FE002803D0BDE81040FDF765BDA2
:1043700010BD0000003001406C00002010B586B078
:104380000024174800940194029403940494134960
:104390000594016041F61F41C0E9011442F20F711A
:1043A000C0E903148461FFF76BF808B1FDF745FD20
:1043B0004FF48050009069460948FFF7D9F808B1DA
:1043C000FDF73BFD049404A905480594FFF724F884
:1043D000002801D0FDF731FD06B010BD00080040F7
:1043E000C400002010B50E4C0C480C2120604FF486
:1043F000E13060600020A060E060C4E90401A061D9
:10440000E0612046FFF752FB08B1FDF716FD20687A
:10441000C16841F01001C16010BD000000380140CA
:104420000C0100200C4810B50A4901604FF4E1313D
:104430004160002181600C22C160C0E904128161E9
:10444000C161FFF733FB002803D0BDE81040FDF742
:10445000F4BC10BD0044004054010020FEE7FEE71C
:1044600030B40021084B0A465FF0000003EBC004A3
:10447000401CC0B262548028F8D3491CC9B2082934
:10448000F2D330BC00F086B84804002030B5CC0828
:1044900001F0070301259D40EBB2064D05EBC00579
:1044A000C808285C0AB1184302E063EA0000C04370
:1044B000285530BD4804002010B50021AE2000F082
:1044C0002DF90021084600F029F90021102000F004
:1044D00025F90021402000F021F90021812000F081
:1044E0001DF90021CF2000F019F90021A12000F0D2
:1044F00015F90021C82000F011F90021A62000F0D4
:104500000DF90021A82000F009F900213F2000F05A
:1045100005F90021D32000F001F90021084600F040
:10452000FDF80021D52000F0F9F80021802000F0EE
:10453000F5F80021D92000F0F1F80021F12000F079
:10454000EDF80021DA2000F0E9F80021122000F057
:10455000E5F80021DB2000F0E1F80021302000F038
:10456000DDF80021202000F0D9F80021022000F021
:10457000D5F800218D2000F0D1F80021142000F0A2
:10458000CDF8FFF76DFF0021BDE81040AF2000F02F
:10459000C5B8000070B5184E002400BF04F1B0008B
:1045A000C0B2002100F0BAF80021084600F0B6F8C9
:1045B0000021102000F0B2F8FFF7B4FB782000F0E3
:1045C0002BFAFFF7EBFB402000F026FAFFF7E6FBA3
:1045D0005FF0000506EBC500005D00F01DFAFFF777
:1045E000DDFB6D1CEDB2802DF4D3FFF7BDFB641C29
:1045F000E4B2082CD2D370BD480400202DE9FC4F52
:104600001C460E4682468B460190082B0DD0600753
:1046100000D0012000EBD40061084843C0B28146BD
:10462000203AD0B2009000204BE00620F7E7082C9B
:1046300013D00C2C18D0102C1BD0182C44D100985F
:10464000234900EBC00000BF01EB8001002711F8F7
:104650000850E80712D00B9A13E000981D4900EBB0
:10466000400001EB4001F1E700981B4900EB4000DE
:10467000EAE71A49009801EB0011E7E70B9828B325
:10468000002231465046FFF701FF761C7F1C6D0863
:10469000FFB2F6B2082FDCD30AF1010000F0FF0AE6
:1046A000082C0AD00199AAEB0100B0EB540F04D1F9
:1046B0000BF108008A4600F0FF0B08F101005E468E
:1046C000C0B280464845B2D3BDE8FC8F0122D8E78E
:1046D000AE660008225A00084A5C0008BE60000866
:1046E0002DE9F8411E46154688460446079F0BE013
:1046F0003346414620460097FFF780FF082E0AD038
:1047000004EB5600C4B26D1C2A78A2F120005E288A
:10471000EED9BDE8F881A41DE4B2F4E770B50C460B
:104720000546FFF7FFFA782000F076F9FFF736FB31
:104730000CB1402000E0002000F06EF9FFF72EFBE6
:10474000284600F069F9FFF729FBBDE87040FFF744
:104750000BBB03211420FFF775BB10B51420FFF726
:104760000DFC800705D10321BDE810401420FFF7A0
:1047700021BC10BD70B50646082188B0002408464B
:10478000FFF760FB00210D20FFF720FC80210E20A9
:10479000FFF758FB93208DF8040020208DF80500CA
:1047A00006A801AB0090022219460C20FFF756FB29
:1047B00005000DD1002101A8425C7254425C491CE5
:1047C0005440C9B20429F7D3405CA04200D0FE2572
:1047D00080210E20FFF7EEFB08B0284670BD00B523
:1047E00087B050208DF8040000208DF805000DF1F1
:1047F0000602022101A8FFF7F3FA06A801AB009018
:10480000042219460C20FFF729FB07B000BD30B584
:104810000C460546082187B00846FFF713FB072121
:104820000D20FFF7D3FB03211420FFF7C3FB06A8DD
:1048300001AB00908DF80450012219460C20FFF7BF
:104840000DFB002809D1BDF81810102905D19DF8DD
:10485000041021709DF80510617007B030BD000094
:1048600010B5204C012211462046FEF7ACF802207C
:10487000FDF7A4FD002201212046FEF7A4F8022046
:10488000FDF79CFD012211462046FEF79CF8022010
:10489000FDF794FD0F210120FFF798FB0220FDF7A3
:1048A0008DFD3D211120FFF791FB1E212D20FFF7EB
:1048B0008DFB00212C20FFF789FB8D212A20FFF79B
:1048C00085FB3E212B20FFF781FB40211520FFF7C0
:1048D0007DFBFFF73EFF0220FDF770FDBDE81040B5
:1048E000FFF73BBF000C0140704700000148FEF796
:1048F0007BBB00006C00002001B582B00A20009054
:10490000012301AA02A90348FEF778FC9DF80400E0
:104910000EBD00006C00002010B5406A0021C18768
:10492000C186FEF75FFB10BDF8B515460E460B4677
:10493000009204460122022100F010F840B93346EB
:10494000002280212046009500F008F8002804D0BD
:10495000606D40F0200060650320F8BD2DE9F8434C
:104960001E46914688460446089DFEF731F8401BD6
:10497000351AFEF72DF8074625480068C0F3CB30FE
:10498000684338E0701C37D0FEF722F8C01BA842FD
:1049900003D215B1009860B32CE02068416821F083
:1049A000E00141606068B0F5827F0BD1A068B0F58E
:1049B000004F02D0B0F5806F04D12068016821F06B
:1049C00040010160A06AB0F5005F09D1206801686C
:1049D00021F4005101602068016841F40051016038
:1049E000012084F85100002084F850000320BDE825
:1049F000F8830025401E00902068816838EA010095
:104A000004D000214945BDD10020F0E70121F9E79C
:104A100028000020704700002DE9F041124F0024CB
:104A200005464FF480487E14280601D5012200E097
:104A3000002241463846FDF7C6FFFFF7CBF90122B9
:104A400031463846FDF7BFFFFFF7C4F90022314673
:104A50003846FDF7B8FF6806641C050EE4B2082C62
:104A6000E2D3BDE8F081000000100140FDF7B6BFC1
:104A700030B58FB028216846FBF74AFE14210AA8FA
:104A8000FBF746FE01210804CDE900100024029442
:104A900002250491CDE907504FF4E01009906846D3
:104AA000FEF710F908B172B6FEE70F20CDE90A054E
:104AB0004FF48060CDE90C4002210AA80E94FEF765
:104AC00025F8002801D072B6FEE70FB030BD704760
:104AD0000148FEF7BCBD0000C4000020F0B502682C
:104AE000194B1A4C1A4D4FF08047984205D0B842E6
:104AF00003D0A04201D0A84203D122F070064A6838
:104B00003243984205D0B84203D0A04201D0A84217
:104B100003D122F44074CA6822434C6922F0800217
:104B2000224302608A68C2620A688262984201D1A6
:104B300009690163012141610169C90703D0016964
:104B400021F001010161F0BD002C01400004004092
:104B50000008004010B5846842EA032224F47F4430
:104B60000A432243826010BD826822F070020A4329
:104B700042F007018160704710B5036A046A24F0AF
:104B800001040462846924F0F00444EA021423F06E
:104B90000A020A438461026210BD10B5036A046A06
:104BA00024F010040462846923F0A00324F4704408
:104BB00044EA023243EA01118261016210BD10B57C
:104BC000406A0021C185C184FEF738FE10BD70B572
:104BD000446A2068406994F84110C0F3C010002571
:104BE000212904D118B1E584204600F08EF8206810
:104BF000406994F84210C0F38010222904D118B102
:104C0000E585204600F05AF8606C40F010006064C2
:104C10002046FEF713FE70BD10B50146406A0968D4
:104C200009684FF0000289062ED4C28501680C3154
:104C300051E8003F23F4807341E80034002CF5D1A3
:104C40000168143151E8003F23F0010341E80034CA
:104C5000002CF5D10168143151E8003F23F04003E6
:104C600041E80034002CF5D1202180F84210016B7E
:104C7000012909D101680C3151E8003F23F01003EC
:104C800041E80034002CF5D14263016B012902D0C8
:104C9000FEF7DEFF10BD818DFEF797FD10BD10B54C
:104CA000406A01214163016B012902D0FEF7E6FF52
:104CB00010BD818D4908FEF788FD10BD01680C31DB
:104CC00051E8002F22F4907241E80023002BF5D127
:104CD0000168143151E8002F22F0010241E800235D
:104CE000002BF5D1016B012909D101680C3151E884
:104CF000002F22F0100241E80023002BF5D12021E3
:104D000080F8421000210163704701680C3151E8BE
:104D1000002F22F0C00241E80023002BF5D1202112
:104D200080F84110704708B590F84210222901D050
:104D3000022008BD82684FF480539A4201D1016974
:104D400021B1816A9A421BD04AB10AE00268816AA5
:104D50005268C2F308020A80816A891C08E002696D
:104D600072B10268526802F07F020A70816A491CBF
:104D70008162C18D491E0904090CC18503D01BE065
:104D800002685268F1E70168CA6822F02002CA602E
:104D90000168CA6822F48072CA6001684A6922F018
:104DA00001024A61202180F8421000214163026B18
:104DB000012A03D0FEF74CFF002008BD0163016803
:104DC0000C3151E8002F22F0100241E80023002BA3
:104DD000F5D101680A68D20602D50A6849680091CF
:104DE000818DFEF7F2FCE7E770B5044600680169C3
:104DF000E26821F44051114301612169A068084330
:104E0000616908432168CA6841F20C639A4302430E
:104E1000CA6020684169A26921F44071114341616F
:104E20001E492068884202D1FDF716FF01E0FDF718
:104E300003FF00EBC00101EB0012606864218000F9
:104E4000B2FBF0F3B3FBF1F36FF018067343B2FB60
:104E5000F0F5B2FBF0F605EB8305322303EB051505
:104E6000B5FBF1F5B6FBF1F605F0F00505EB06151F
:104E7000B2FBF0F6B2FBF0F0B0FBF1F06FF018020D
:104E8000504306EB800003EB0010B0FBF1F021680B
:104E900000F00F002844886070BD00000038014019
:104EA00038B5816204468285002013466064222260
:104EB00084F84220E56B1B4AAA62E56B1A4AEA6253
:104EC000E56B1A4A2A63E26B50630A462168E06B7D
:104ED000091DFDF73BFA20680168406800902069D1
:104EE00048B120680C3050E8001F41F4807140E860
:104EF0000012002AF5D12068143050E8001F41F05C
:104F0000010140E80012002AF5D12068143050E871
:104F1000001F41F0400140E80012002AF5D10020B6
:104F200038BD0000194C00089F4C0008CF4B00080A
:104F30002DE9F843984617460D460446089E24E09E
:104F4000701C22D0FDF744FDA0EB0800B0421AD837
:104F5000CEB12068C168490717D5802D15D0402DE6
:104F600013D00168C94309070FD4016800254068C0
:104F700000902046FFF7A2FE0820606484F84050AD
:104F80000120BDE8F8830320FBE72068006835EACC
:104F9000000004D00020B842D2D00020F1E7012068
:104FA000F9E7000070B5184C2078002810D0FDF704
:104FB0000FFD0546E068A188281A884208D3208999
:104FC000E188884205D3002000F052F800202070CC
:104FD00070BD0E486178405C00F04AF8E5602078CA
:104FE000012860780BD0401EC11700EB517121F0F1
:104FF0000701401A60702089401C208170BD401C50
:1050000000F00700F6E70000400000200A740008E6
:105010007FB54FF48070009000240120CDE9010499
:105020000320114D039069462846FDF7D7FB68150C
:10503000009069462846FDF7D1FBE81400906946C8
:105040002846FDF7CBFB2815009069462846FDF75A
:10505000C5FB002000F00CF804480470C4800481F3
:105060004470C4607FBD0000000C0140400000207F
:1050700070B50446154DC0074FF4807101D0012270
:1050800000E000222846FDF79EFCA0074FF40071C7
:1050900001D5012200E000222846FDF794FC6007BC
:1050A0004FF4006101D5012200E000222846FDF7FF
:1050B0008AFC20074FF4806101D5012200E0002224
:1050C0002846BDE87040FDF77EBC0000000C0140A2
:1050D00010B50E4C2178002916D101212170E080F5
:1050E000002020816070A170FDF772FCE06008482C
:1050F0006178405CFFF7BCFF6078401C00F007005F
:1051000060702089401C208110BD000040000020FC
:105110000A74000838B5124C20680168C9061AD50F
:1051200001680025406800902046FEF74FFBE06BC9
:105130000068406840F2FF12A0F2FF10404280B2C7
:10514000B0F5007F00D310460649088006490D548B
:105150000348FEF76FFDBDE838400148FEF770BB1D
:105160000C0100202C00002048020020FEE7090767
:10517000090E002804DB00F1E02080F800147047DD
:1051800000F00F0000F1E02080F8141D7047303867
:105190000A2801D2012070470020704770B50546EB
:1051A00000244FF47A7603E0304600F005F8641CE2
:1051B000AC42F9D370BD00000B49096848434FF079
:1051C000E021486100228A61086940F0010008611D
:1051D0000869C30701D0C003FAD5086920F00100AF
:1051E00008618A617047000038000020A4B00026E2
:1051F0003446B0463546FEA109AB07C983E807002F
:10520000A346B146FDF7F2FBFFF732FCFEF7DAFFEB
:10521000FEF7BAFFFFF7E6F8FFF7B0F8FFF702F97D
:10522000FFF788F8FFF71CFBFFF793FAFFF795FAF3
:10523000FBF772FEFFF740F9FBF7D4FCFFF7E8FE3F
:10524000FCF7DCFEFCF7DCF80DE064231422EBA194
:10525000F048FEF714FD761CF6B24FF47A70FFF7B3
:105260009DFF052E03D2FCF761F80028EDD0FBF777
:1052700073FE002831D00121E7A0FCF765FA002871
:1052800032D00021F0A0FCF75FFA002833D0F848B4
:10529000FEF742F90027FFF7E3F8DFF8D8A30294FE
:1052A000FDF796FB0646FFF77DFEFCF707FB00F0D7
:1052B00087FBF01B64285ED33746EF4E9AF8001048
:1052C000307808421ED064231622ECA1D148FEF7A4
:1052D000D6FC34708AF80040EBE064231622EDA17E
:1052E000CC48FEF7CCFCFEE764232022EFA1C9489E
:1052F000FEF7C5FCFEE764231622F5A1C548FEF7BC
:10530000BEFCFEE700287CD064230A22F6A1C14837
:10531000FEF7B5FC19A95220FFF779FA00282AD127
:1053200002A8FFF727FA0028F9D102A8FCF74EFEE1
:10533000FF2821D0012008230090EEA2194600206A
:10534000FFF7CEF9FFF726F94FF47A70FFF726FF43
:10535000012008230090EBA219460020FFF7C0F9B6
:10536000FFF718F93470FFF73AFA64230F22EAA125
:10537000A848FEF784FCA7E00CA8FCF74BFE002031
:105380000CAA002101EB8003D35CFF2B04D0401C4E
:10539000C0B20A28F5D31BE0491CC9B20429F1D3D5
:1053A000FF2815D002A9FCF749FE9DF80B109DF8C7
:1053B0000A00CDE900019DF809309DF80820DAA126
:1053C00004A8FAF723FF0120082304AA009003E0B1
:1053D00001200823DAA2009008210020FFF780F9BD
:1053E000FDF7F6FA80460125FFF7D4F8FFF7F7F945
:1053F000347064230F22C8A18648FEF740FC64E0A5
:10540000FFE75646002954D064230A22CEA18148E2
:10541000FEF735FC19A95220FFF7F9F9002853D1FE
:1054200064230F22CBA17B48FEF729FC02A8FFF7DB
:10543000A1F9E8BB64230E22CAA17648FEF71FFC3F
:1054400002A8FCF7C3FDFF2818D0FCF783FD4FF43A
:10545000FA70FFF7A3FE9DF80B109DF80A00CDE946
:1054600000019DF809309DF80820C2A104A8FAF7B0
:10547000CDFE0120082304AA009007E04FF4FA7043
:10548000FFF78CFE01200823C0A200900821002015
:10549000FFF726F9FDF79CFA80460125FFF77AF819
:1054A0004FF4FA60FFF77AFEFFF799F934700CE0D9
:1054B0000AE019A95220FFF7AAF918B902A8FFF7C4
:1054C00059F948B34FF0000905B3FDF781FAA0EB95
:1054D000080040F6B831884218D90125082389A26E
:1054E000194600200095FFF7FBF8082385A210213C
:1054F00000200095FFF7F4F8082382A2182100206D
:105500000095FFF7EDF8FFF745F80025FBF7FBF9ED
:105510000520FFF743FEC2E6B9F1000F1AD09DF84F
:1055200008100BF0FF00884214D19DF80910CBF34E
:10553000072088420ED19DF80A10CBF3074088421D
:1055400008D19DF80B104FEA1B60884202D1FFF78B
:1055500046F9B9E702A8FCF739FD0546FF2844D013
:105560009DF80810584661F307009DF809104FF0A8
:10557000010961F30F209DF80A1061F317409DF8AF
:105580000B1061F31F6083460EA8FBF7DBFA09AE30
:10559000705D01282AD0012070559DF83E000090D2
:1055A0009DF83D309DF83C207CA104A8FAF72EFE22
:1055B0009DF80B109DF80A00CDE900019DF8093017
:1055C0009DF808207AA11FA8FAF720FE4FF00108E5
:1055D00008231FAA19460020CDF80080FFF780F8A5
:1055E0000823102104AA0020ECE01CE10FE10000D8
:1055F0000101010101010101010100005769466932
:1056000020636F6E6E6563742072657472790D0A23
:105610000000000054010020247379732F64553575
:105620006A5667314C39622F746573742F746869D8
:105630006E672F70726F70657274792F706F7374EC
:105640002F7265706C790000247379732F6455355F
:105650006A5667314C39622F746573742F746869A8
:105660006E672F70726F70657274792F7365740036
:10567000C400002003000020020000204552524FC9
:10568000523A20426F7468206D6F646573204F4EEC
:105690000D0A0000436F6E6E656374436C6F756432
:1056A000206661696C65640D0A0000004D51545418
:1056B0002073756273637269626520706F73745FC3
:1056C0007265706C79206661696C65640D0A000012
:1056D0004D5154542073756273637269626520661C
:1056E00061696C65640D0A00526567206D6F6465C1
:1056F0000D0A0000494420616C7265616479207272
:10570000656700002020202020202020202020204D
:105710002020202000000000526567206D6F646526
:1057200020657869740D0A005265673A2530325851
:1057300025303258253032582530325800000000CC
:1057400046756C6C0000000044656C206D6F6465EC
:105750000D0A0000436172642064657465637465BA
:10576000640D0A00436172642049442072656164DB
:105770000D0A000044656C3A253032582530325805
:10578000253032582530325800000000496C6C65D5
:1057900067616C2063617264000000004F55542003
:1057A000253032643A253032643A253032640000C4
:1057B00049443A2530325825303258253032582560
:1057C00030325800CDF80080FEF78AFF705D4FF050
:1057D0000803CDF8008020B31CA218210020FEF79A
:1057E0007FFFFDF7F5F880460125FEF7D3FE642321
:1057F0000C221AA11D48FEF742FA6420FFF768FC4C
:10580000642313221AA11948FEF739FA1AE07455D5
:105810009DF83E0000909DF83D309DF83C201AA177
:10582000C3E61EA2D9E701200823AFF2A002009030
:1058300019460020FEF754FFFDF7CAF880460125FF
:10584000FEF7A8FEFEF7CBFF3FE600004C65617651
:105850006520736561742030000000004D6F746F27
:10586000722073746172740D0A00000054010020EC
:105870004D6F746F72207374617274656420284E6A
:1058800042290D0A00000000494E20253032643ABA
:10589000253032643A2530326400000054616B6573
:1058A000207365617420300030B5C2B289B00446FF
:1058B0000D463AA101A802F5FA62FAF7A7FCC4F373
:1058C000072238A103A8FAF7A1FCC4F3074237A1C5
:1058D00004A8FAF79BFCEAB236A105A8FAF796FCF1
:1058E000C5F3072233A106A8FAF790FCC5F30742D7
:1058F0002EA107A8FAF78AFC304C2068012801D0B5
:10590000012000E0002000210090082301AA0846A1
:10591000FEF7E6FE2068022801D0012000E000200A
:105920000090082303AA00211E20FEF7D9FE20685C
:10593000032801D0012000E000200090082304AAE1
:1059400000212E20FEF7CCFE2068042801D0012083
:1059500000E000200090082305AA00214020FEF767
:10596000BFFE2068052801D0012000E00020009043
:10597000082306AA00215020FEF7B2FE2068062860
:1059800001D0012000E000200090082307AA002198
:105990006020FEF7A5FE09B030BD0000253034645C
:1059A0002D000000253032642D00000025303264C7
:1059B00000000000253032643A000000040000209E
:1059C0001CB50C490878002812D000200870D1F8C6
:1059D00001000090B1F80520ADF80420C9798DF8D8
:1059E00006100199FFF760FFBDE81C40FEF7D2BD2D
:1059F0001CBD00001300002001020203040506077D
:105A000008090A0B0C0D0E0F10100000000000001A
:105A1000000001020304060708090000000001025B
:105A200003040000000000000000002F0000000040
:105A30000700070000147F147F1400242A7F2A1215
:105A40000062640813230036495522500000050304
:105A5000000000001C224100000041221C00001434
:105A6000083E08140008083E0808000000A0600076
:105A70000008080808080000606000000020100806
:105A80000402003E5149453E0000427F4000004272
:105A900061514946002141454B31001814127F10D5
:105AA000002745454539003C4A4949300001710904
:105AB000050300364949493600064949291E0000B8
:105AC000363600000000563600000008142241005F
:105AD000001414141414000041221408000201518F
